{
  "_format": "hh-sol-artifact-1",
  "contractName": "Authentication",
  "sourceName": "contracts/Authentication.sol",
  "abi": [
    {
      "inputs": [],
      "stateMutability": "nonpayable",
      "type": "constructor"
    },
    {
      "anonymous": false,
      "inputs": [
        {
          "indexed": true,
          "internalType": "bytes32",
          "name": "role",
          "type": "bytes32"
        },
        {
          "indexed": true,
          "internalType": "bytes32",
          "name": "previousAdminRole",
          "type": "bytes32"
        },
        {
          "indexed": true,
          "internalType": "bytes32",
          "name": "newAdminRole",
          "type": "bytes32"
        }
      ],
      "name": "RoleAdminChanged",
      "type": "event"
    },
    {
      "anonymous": false,
      "inputs": [
        {
          "indexed": true,
          "internalType": "bytes32",
          "name": "role",
          "type": "bytes32"
        },
        {
          "indexed": true,
          "internalType": "address",
          "name": "account",
          "type": "address"
        },
        {
          "indexed": true,
          "internalType": "address",
          "name": "sender",
          "type": "address"
        }
      ],
      "name": "RoleGranted",
      "type": "event"
    },
    {
      "anonymous": false,
      "inputs": [
        {
          "indexed": true,
          "internalType": "bytes32",
          "name": "role",
          "type": "bytes32"
        },
        {
          "indexed": true,
          "internalType": "address",
          "name": "account",
          "type": "address"
        },
        {
          "indexed": true,
          "internalType": "address",
          "name": "sender",
          "type": "address"
        }
      ],
      "name": "RoleRevoked",
      "type": "event"
    },
    {
      "inputs": [],
      "name": "DEFAULT_ADMIN_ROLE",
      "outputs": [
        {
          "internalType": "bytes32",
          "name": "",
          "type": "bytes32"
        }
      ],
      "stateMutability": "view",
      "type": "function"
    },
    {
      "inputs": [],
      "name": "EMPLOYEE_ROLE",
      "outputs": [
        {
          "internalType": "bytes32",
          "name": "",
          "type": "bytes32"
        }
      ],
      "stateMutability": "view",
      "type": "function"
    },
    {
      "inputs": [
        {
          "internalType": "bytes32",
          "name": "role",
          "type": "bytes32"
        }
      ],
      "name": "getRoleAdmin",
      "outputs": [
        {
          "internalType": "bytes32",
          "name": "",
          "type": "bytes32"
        }
      ],
      "stateMutability": "view",
      "type": "function"
    },
    {
      "inputs": [
        {
          "internalType": "address",
          "name": "employee",
          "type": "address"
        }
      ],
      "name": "grantEmployeeRole",
      "outputs": [],
      "stateMutability": "nonpayable",
      "type": "function"
    },
    {
      "inputs": [
        {
          "internalType": "bytes32",
          "name": "role",
          "type": "bytes32"
        },
        {
          "internalType": "address",
          "name": "account",
          "type": "address"
        }
      ],
      "name": "grantRole",
      "outputs": [],
      "stateMutability": "nonpayable",
      "type": "function"
    },
    {
      "inputs": [
        {
          "internalType": "bytes32",
          "name": "role",
          "type": "bytes32"
        },
        {
          "internalType": "address",
          "name": "account",
          "type": "address"
        }
      ],
      "name": "hasRole",
      "outputs": [
        {
          "internalType": "bool",
          "name": "",
          "type": "bool"
        }
      ],
      "stateMutability": "view",
      "type": "function"
    },
    {
      "inputs": [
        {
          "internalType": "address",
          "name": "to",
          "type": "address"
        }
      ],
      "name": "isAdmin",
      "outputs": [
        {
          "internalType": "bool",
          "name": "",
          "type": "bool"
        }
      ],
      "stateMutability": "view",
      "type": "function"
    },
    {
      "inputs": [
        {
          "internalType": "address",
          "name": "to",
          "type": "address"
        }
      ],
      "name": "isEmployee",
      "outputs": [
        {
          "internalType": "bool",
          "name": "",
          "type": "bool"
        }
      ],
      "stateMutability": "view",
      "type": "function"
    },
    {
      "inputs": [
        {
          "internalType": "bytes32",
          "name": "role",
          "type": "bytes32"
        },
        {
          "internalType": "address",
          "name": "account",
          "type": "address"
        }
      ],
      "name": "renounceRole",
      "outputs": [],
      "stateMutability": "nonpayable",
      "type": "function"
    },
    {
      "inputs": [
        {
          "internalType": "bytes32",
          "name": "role",
          "type": "bytes32"
        },
        {
          "internalType": "address",
          "name": "account",
          "type": "address"
        }
      ],
      "name": "revokeRole",
      "outputs": [],
      "stateMutability": "nonpayable",
      "type": "function"
    },
    {
      "inputs": [
        {
          "internalType": "bytes4",
          "name": "interfaceId",
          "type": "bytes4"
        }
      ],
      "name": "supportsInterface",
      "outputs": [
        {
          "internalType": "bool",
          "name": "",
          "type": "bool"
        }
      ],
      "stateMutability": "view",
      "type": "function"
    }
  ],
  "bytecode": "0x608060405234801561001057600080fd5b506100246000801b3361002960201b60201c565b610187565b610039828261011560201b60201c565b61011157600160008084815260200190815260200160002060000160008373ffffffffffffffffffffffffffffffffffffffff1673ffffffffffffffffffffffffffffffffffffffff16815260200190815260200160002060006101000a81548160ff0219169083151502179055506100b661017f60201b60201c565b73ffffffffffffffffffffffffffffffffffffffff168173ffffffffffffffffffffffffffffffffffffffff16837f2f8788117e7eff1d82e926ec794901d17c78024a50270940304540a733656f0d60405160405180910390a45b5050565b600080600084815260200190815260200160002060000160008373ffffffffffffffffffffffffffffffffffffffff1673ffffffffffffffffffffffffffffffffffffffff16815260200190815260200160002060009054906101000a900460ff16905092915050565b600033905090565b611038806101966000396000f3fe608060405234801561001057600080fd5b50600436106100a95760003560e01c806336568abe1161007157806336568abe1461017857806391d1485414610194578063a217fddf146101c4578063d547741f146101e2578063ea66543f146101fe578063f3b3444b1461022e576100a9565b806301ffc9a7146100ae578063248a9ca3146100de57806324d7806c1461010e5780632a4cab901461013e5780632f2ff15d1461015c575b600080fd5b6100c860048036038101906100c39190610a53565b61024a565b6040516100d59190610a9b565b60405180910390f35b6100f860048036038101906100f39190610aec565b6102c4565b6040516101059190610b28565b60405180910390f35b61012860048036038101906101239190610ba1565b6102e3565b6040516101359190610a9b565b60405180910390f35b6101466102f9565b6040516101539190610b28565b60405180910390f35b61017660048036038101906101719190610bce565b61031d565b005b610192600480360381019061018d9190610bce565b61033e565b005b6101ae60048036038101906101a99190610bce565b6103c1565b6040516101bb9190610a9b565b60405180910390f35b6101cc61042b565b6040516101d99190610b28565b60405180910390f35b6101fc60048036038101906101f79190610bce565b610432565b005b61021860048036038101906102139190610ba1565b610453565b6040516102259190610a9b565b60405180910390f35b61024860048036038101906102439190610ba1565b610486565b005b60007f7965db0b000000000000000000000000000000000000000000000000000000007bffffffffffffffffffffffffffffffffffffffffffffffffffffffff1916827bffffffffffffffffffffffffffffffffffffffffffffffffffffffff191614806102bd57506102bc826104c1565b5b9050919050565b6000806000838152602001908152602001600020600101549050919050565b60006102f26000801b836103c1565b9050919050565b7f5a3425ea67e73c95853ecfc0c443062de292a303c186bc2aac1178ae1b86c62a81565b610326826102c4565b61032f8161052b565b610339838361053f565b505050565b61034661061f565b73ffffffffffffffffffffffffffffffffffffffff168173ffffffffffffffffffffffffffffffffffffffff16146103b3576040517f08c379a00000000000000000000000000000000000000000000000000000000081526004016103aa90610c91565b60405180910390fd5b6103bd8282610627565b5050565b600080600084815260200190815260200160002060000160008373ffffffffffffffffffffffffffffffffffffffff1673ffffffffffffffffffffffffffffffffffffffff16815260200190815260200160002060009054906101000a900460ff16905092915050565b6000801b81565b61043b826102c4565b6104448161052b565b61044e8383610627565b505050565b600061047f7f5a3425ea67e73c95853ecfc0c443062de292a303c186bc2aac1178ae1b86c62a836103c1565b9050919050565b6000801b6104938161052b565b6104bd7f5a3425ea67e73c95853ecfc0c443062de292a303c186bc2aac1178ae1b86c62a8361053f565b5050565b60007f01ffc9a7000000000000000000000000000000000000000000000000000000007bffffffffffffffffffffffffffffffffffffffffffffffffffffffff1916827bffffffffffffffffffffffffffffffffffffffffffffffffffffffff1916149050919050565b61053c8161053761061f565b610708565b50565b61054982826103c1565b61061b57600160008084815260200190815260200160002060000160008373ffffffffffffffffffffffffffffffffffffffff1673ffffffffffffffffffffffffffffffffffffffff16815260200190815260200160002060006101000a81548160ff0219169083151502179055506105c061061f565b73ffffffffffffffffffffffffffffffffffffffff168173ffffffffffffffffffffffffffffffffffffffff16837f2f8788117e7eff1d82e926ec794901d17c78024a50270940304540a733656f0d60405160405180910390a45b5050565b600033905090565b61063182826103c1565b1561070457600080600084815260200190815260200160002060000160008373ffffffffffffffffffffffffffffffffffffffff1673ffffffffffffffffffffffffffffffffffffffff16815260200190815260200160002060006101000a81548160ff0219169083151502179055506106a961061f565b73ffffffffffffffffffffffffffffffffffffffff168173ffffffffffffffffffffffffffffffffffffffff16837ff6391f5c32d9c69d2a47ea670b442974b53935d1edc7fd64eb21e047a839171b60405160405180910390a45b5050565b61071282826103c1565b6107895761071f8161078d565b61072d8360001c60206107ba565b60405160200161073e929190610dba565b6040516020818303038152906040526040517f08c379a00000000000000000000000000000000000000000000000000000000081526004016107809190610e3e565b60405180910390fd5b5050565b60606107b38273ffffffffffffffffffffffffffffffffffffffff16601460ff166107ba565b9050919050565b6060600060028360026107cd9190610e99565b6107d79190610edb565b67ffffffffffffffff8111156107f0576107ef610f0f565b5b6040519080825280601f01601f1916602001820160405280156108225781602001600182028036833780820191505090505b5090507f30000000000000000000000000000000000000000000000000000000000000008160008151811061085a57610859610f3e565b5b60200101907effffffffffffffffffffffffffffffffffffffffffffffffffffffffffffff1916908160001a9053507f7800000000000000000000000000000000000000000000000000000000000000816001815181106108be576108bd610f3e565b5b60200101907effffffffffffffffffffffffffffffffffffffffffffffffffffffffffffff1916908160001a905350600060018460026108fe9190610e99565b6109089190610edb565b90505b60018111156109a8577f3031323334353637383961626364656600000000000000000000000000000000600f86166010811061094a57610949610f3e565b5b1a60f81b82828151811061096157610960610f3e565b5b60200101907effffffffffffffffffffffffffffffffffffffffffffffffffffffffffffff1916908160001a905350600485901c9450806109a190610f6d565b905061090b565b50600084146109ec576040517f08c379a00000000000000000000000000000000000000000000000000000000081526004016109e390610fe2565b60405180910390fd5b8091505092915050565b600080fd5b60007fffffffff0000000000000000000000000000000000000000000000000000000082169050919050565b610a30816109fb565b8114610a3b57600080fd5b50565b600081359050610a4d81610a27565b92915050565b600060208284031215610a6957610a686109f6565b5b6000610a7784828501610a3e565b91505092915050565b60008115159050919050565b610a9581610a80565b82525050565b6000602082019050610ab06000830184610a8c565b92915050565b6000819050919050565b610ac981610ab6565b8114610ad457600080fd5b50565b600081359050610ae681610ac0565b92915050565b600060208284031215610b0257610b016109f6565b5b6000610b1084828501610ad7565b91505092915050565b610b2281610ab6565b82525050565b6000602082019050610b3d6000830184610b19565b92915050565b600073ffffffffffffffffffffffffffffffffffffffff82169050919050565b6000610b6e82610b43565b9050919050565b610b7e81610b63565b8114610b8957600080fd5b50565b600081359050610b9b81610b75565b92915050565b600060208284031215610bb757610bb66109f6565b5b6000610bc584828501610b8c565b91505092915050565b60008060408385031215610be557610be46109f6565b5b6000610bf385828601610ad7565b9250506020610c0485828601610b8c565b9150509250929050565b600082825260208201905092915050565b7f416363657373436f6e74726f6c3a2063616e206f6e6c792072656e6f756e636560008201527f20726f6c657320666f722073656c660000000000000000000000000000000000602082015250565b6000610c7b602f83610c0e565b9150610c8682610c1f565b604082019050919050565b60006020820190508181036000830152610caa81610c6e565b9050919050565b600081905092915050565b7f416363657373436f6e74726f6c3a206163636f756e7420000000000000000000600082015250565b6000610cf2601783610cb1565b9150610cfd82610cbc565b601782019050919050565b600081519050919050565b60005b83811015610d31578082015181840152602081019050610d16565b60008484015250505050565b6000610d4882610d08565b610d528185610cb1565b9350610d62818560208601610d13565b80840191505092915050565b7f206973206d697373696e6720726f6c6520000000000000000000000000000000600082015250565b6000610da4601183610cb1565b9150610daf82610d6e565b601182019050919050565b6000610dc582610ce5565b9150610dd18285610d3d565b9150610ddc82610d97565b9150610de88284610d3d565b91508190509392505050565b6000601f19601f8301169050919050565b6000610e1082610d08565b610e1a8185610c0e565b9350610e2a818560208601610d13565b610e3381610df4565b840191505092915050565b60006020820190508181036000830152610e588184610e05565b905092915050565b6000819050919050565b7f4e487b7100000000000000000000000000000000000000000000000000000000600052601160045260246000fd5b6000610ea482610e60565b9150610eaf83610e60565b9250828202610ebd81610e60565b91508282048414831517610ed457610ed3610e6a565b5b5092915050565b6000610ee682610e60565b9150610ef183610e60565b9250828201905080821115610f0957610f08610e6a565b5b92915050565b7f4e487b7100000000000000000000000000000000000000000000000000000000600052604160045260246000fd5b7f4e487b7100000000000000000000000000000000000000000000000000000000600052603260045260246000fd5b6000610f7882610e60565b915060008203610f8b57610f8a610e6a565b5b600182039050919050565b7f537472696e67733a20686578206c656e67746820696e73756666696369656e74600082015250565b6000610fcc602083610c0e565b9150610fd782610f96565b602082019050919050565b60006020820190508181036000830152610ffb81610fbf565b905091905056fea26469706673582212207222d8cc8579cf09ffd691ba02ed3b76fb634d6966f13610e55cdcf06ff84bd164736f6c63430008180033",
  "linkReferences": {},
  "deployedLinkReferences": {}
}