{
  "_format": "hh-sol-artifact-1",
  "contractName": "ControllerContract",
  "sourceName": "contracts/ControlData.sol",
  "abi": [
    {
      "inputs": [
        {
          "components": [
            {
              "internalType": "string",
              "name": "deviceName",
              "type": "string"
            },
            {
              "internalType": "string",
              "name": "createAt",
              "type": "string"
            },
            {
              "internalType": "uint256",
              "name": "value",
              "type": "uint256"
            }
          ],
          "internalType": "struct ControllerContract.ControllerInfo[]",
          "name": "_controllersInfo",
          "type": "tuple[]"
        }
      ],
      "name": "addControllerInfo",
      "outputs": [],
      "stateMutability": "nonpayable",
      "type": "function"
    },
    {
      "inputs": [],
      "name": "getAllControllersInfo",
      "outputs": [
        {
          "components": [
            {
              "internalType": "string",
              "name": "deviceName",
              "type": "string"
            },
            {
              "internalType": "string",
              "name": "createAt",
              "type": "string"
            },
            {
              "internalType": "uint256",
              "name": "value",
              "type": "uint256"
            }
          ],
          "internalType": "struct ControllerContract.ControllerInfo[]",
          "name": "",
          "type": "tuple[]"
        }
      ],
      "stateMutability": "view",
      "type": "function"
    },
    {
      "inputs": [],
      "name": "getNumberOfControllersInfo",
      "outputs": [
        {
          "internalType": "uint256",
          "name": "",
          "type": "uint256"
        }
      ],
      "stateMutability": "view",
      "type": "function"
    }
  ],
  "bytecode": "0x608060405234801561001057600080fd5b50610c4c806100206000396000f3fe608060405234801561001057600080fd5b50600436106100415760003560e01c80630550107e14610046578063b2c5278b14610062578063bbb9f29814610080575b600080fd5b610060600480360381019061005b919061066a565b61009e565b005b61006a61013c565b60405161007791906106c2565b60405180910390f35b610088610146565b6040516100959190610884565b60405180910390f35b60005b8151811015610138578181815181106100bd576100bc6108a6565b5b6020026020010151600080600154815260200190815260200160002060008201518160000190816100ee9190610ae1565b5060208201518160010190816101049190610ae1565b506040820151816002015590505060018060008282546101249190610be2565b9250508190555080806001019150506100a1565b5050565b6000600154905090565b6060600060015467ffffffffffffffff81111561016657610165610378565b5b60405190808252806020026020018201604052801561019f57816020015b61018c61032d565b8152602001906001900390816101845790505b50905060005b600154811015610325576000808281526020019081526020016000206040518060600160405290816000820180546101dc90610904565b80601f016020809104026020016040519081016040528092919081815260200182805461020890610904565b80156102555780601f1061022a57610100808354040283529160200191610255565b820191906000526020600020905b81548152906001019060200180831161023857829003601f168201915b5050505050815260200160018201805461026e90610904565b80601f016020809104026020016040519081016040528092919081815260200182805461029a90610904565b80156102e75780601f106102bc576101008083540402835291602001916102e7565b820191906000526020600020905b8154815290600101906020018083116102ca57829003601f168201915b5050505050815260200160028201548152505082828151811061030d5761030c6108a6565b5b602002602001018190525080806001019150506101a5565b508091505090565b60405180606001604052806060815260200160608152602001600081525090565b6000604051905090565b600080fd5b600080fd5b600080fd5b6000601f19601f8301169050919050565b7f4e487b7100000000000000000000000000000000000000000000000000000000600052604160045260246000fd5b6103b082610367565b810181811067ffffffffffffffff821117156103cf576103ce610378565b5b80604052505050565b60006103e261034e565b90506103ee82826103a7565b919050565b600067ffffffffffffffff82111561040e5761040d610378565b5b602082029050602081019050919050565b600080fd5b600080fd5b600080fd5b600080fd5b600067ffffffffffffffff82111561044e5761044d610378565b5b61045782610367565b9050602081019050919050565b82818337600083830152505050565b600061048661048184610433565b6103d8565b9050828152602081018484840111156104a2576104a161042e565b5b6104ad848285610464565b509392505050565b600082601f8301126104ca576104c9610362565b5b81356104da848260208601610473565b91505092915050565b6000819050919050565b6104f6816104e3565b811461050157600080fd5b50565b600081359050610513816104ed565b92915050565b60006060828403121561052f5761052e610424565b5b61053960606103d8565b9050600082013567ffffffffffffffff81111561055957610558610429565b5b610565848285016104b5565b600083015250602082013567ffffffffffffffff81111561058957610588610429565b5b610595848285016104b5565b60208301525060406105a984828501610504565b60408301525092915050565b60006105c86105c3846103f3565b6103d8565b905080838252602082019050602084028301858111156105eb576105ea61041f565b5b835b8181101561063257803567ffffffffffffffff8111156106105761060f610362565b5b80860161061d8982610519565b855260208501945050506020810190506105ed565b5050509392505050565b600082601f83011261065157610650610362565b5b81356106618482602086016105b5565b91505092915050565b6000602082840312156106805761067f610358565b5b600082013567ffffffffffffffff81111561069e5761069d61035d565b5b6106aa8482850161063c565b91505092915050565b6106bc816104e3565b82525050565b60006020820190506106d760008301846106b3565b92915050565b600081519050919050565b600082825260208201905092915050565b6000819050602082019050919050565b600081519050919050565b600082825260208201905092915050565b60005b83811015610743578082015181840152602081019050610728565b60008484015250505050565b600061075a82610709565b6107648185610714565b9350610774818560208601610725565b61077d81610367565b840191505092915050565b610791816104e3565b82525050565b600060608301600083015184820360008601526107b4828261074f565b915050602083015184820360208601526107ce828261074f565b91505060408301516107e36040860182610788565b508091505092915050565b60006107fa8383610797565b905092915050565b6000602082019050919050565b600061081a826106dd565b61082481856106e8565b935083602082028501610836856106f9565b8060005b85811015610872578484038952815161085385826107ee565b945061085e83610802565b925060208a0199505060018101905061083a565b50829750879550505050505092915050565b6000602082019050818103600083015261089e818461080f565b905092915050565b7f4e487b7100000000000000000000000000000000000000000000000000000000600052603260045260246000fd5b7f4e487b7100000000000000000000000000000000000000000000000000000000600052602260045260246000fd5b6000600282049050600182168061091c57607f821691505b60208210810361092f5761092e6108d5565b5b50919050565b60008190508160005260206000209050919050565b60006020601f8301049050919050565b600082821b905092915050565b6000600883026109977fffffffffffffffffffffffffffffffffffffffffffffffffffffffffffffffff8261095a565b6109a1868361095a565b95508019841693508086168417925050509392505050565b6000819050919050565b60006109de6109d96109d4846104e3565b6109b9565b6104e3565b9050919050565b6000819050919050565b6109f8836109c3565b610a0c610a04826109e5565b848454610967565b825550505050565b600090565b610a21610a14565b610a2c8184846109ef565b505050565b5b81811015610a5057610a45600082610a19565b600181019050610a32565b5050565b601f821115610a9557610a6681610935565b610a6f8461094a565b81016020851015610a7e578190505b610a92610a8a8561094a565b830182610a31565b50505b505050565b600082821c905092915050565b6000610ab860001984600802610a9a565b1980831691505092915050565b6000610ad18383610aa7565b9150826002028217905092915050565b610aea82610709565b67ffffffffffffffff811115610b0357610b02610378565b5b610b0d8254610904565b610b18828285610a54565b600060209050601f831160018114610b4b5760008415610b39578287015190505b610b438582610ac5565b865550610bab565b601f198416610b5986610935565b60005b82811015610b8157848901518255600182019150602085019450602081019050610b5c565b86831015610b9e5784890151610b9a601f891682610aa7565b8355505b6001600288020188555050505b505050505050565b7f4e487b7100000000000000000000000000000000000000000000000000000000600052601160045260246000fd5b6000610bed826104e3565b9150610bf8836104e3565b9250828201905080821115610c1057610c0f610bb3565b5b9291505056fea26469706673582212201027656843db48c778a2f91914fffa14427140005d07ca483c2ffcffa6cc513464736f6c63430008180033",
  "linkReferences": {},
  "deployedLinkReferences": {}
}