{
  "_format": "hh-sol-artifact-1",
  "contractName": "ControllerContract",
  "sourceName": "contracts/ControlData.sol",
  "abi": [
    {
      "anonymous": false,
      "inputs": [
        {
          "indexed": false,
          "internalType": "string",
          "name": "_stationId",
          "type": "string"
        },
        {
          "indexed": false,
          "internalType": "string",
          "name": "_controllerId",
          "type": "string"
        },
        {
          "indexed": false,
          "internalType": "string",
          "name": "_controllerValue",
          "type": "string"
        }
      ],
      "name": "ControllerDataUpdated",
      "type": "event"
    },
    {
      "inputs": [
        {
          "internalType": "string",
          "name": "_stationId",
          "type": "string"
        },
        {
          "internalType": "string",
          "name": "_controllerId",
          "type": "string"
        },
        {
          "internalType": "string",
          "name": "_controllerValue",
          "type": "string"
        }
      ],
      "name": "addController",
      "outputs": [
        {
          "internalType": "bool",
          "name": "",
          "type": "bool"
        }
      ],
      "stateMutability": "nonpayable",
      "type": "function"
    },
    {
      "inputs": [
        {
          "internalType": "uint256",
          "name": "",
          "type": "uint256"
        }
      ],
      "name": "currentControllers",
      "outputs": [
        {
          "internalType": "string",
          "name": "stationId",
          "type": "string"
        },
        {
          "internalType": "string",
          "name": "controllerId",
          "type": "string"
        },
        {
          "internalType": "uint256",
          "name": "createAt",
          "type": "uint256"
        },
        {
          "internalType": "string",
          "name": "controllerValue",
          "type": "string"
        }
      ],
      "stateMutability": "view",
      "type": "function"
    },
    {
      "inputs": [],
      "name": "getAllController",
      "outputs": [
        {
          "components": [
            {
              "internalType": "string",
              "name": "stationId",
              "type": "string"
            },
            {
              "internalType": "string",
              "name": "controllerId",
              "type": "string"
            },
            {
              "internalType": "uint256",
              "name": "createAt",
              "type": "uint256"
            },
            {
              "internalType": "string",
              "name": "controllerValue",
              "type": "string"
            }
          ],
          "internalType": "struct ControllerContract.ControllerData[]",
          "name": "",
          "type": "tuple[]"
        }
      ],
      "stateMutability": "view",
      "type": "function"
    },
    {
      "inputs": [
        {
          "internalType": "string",
          "name": "_stationId",
          "type": "string"
        },
        {
          "internalType": "string",
          "name": "_controllerId",
          "type": "string"
        }
      ],
      "name": "getControllerValue",
      "outputs": [
        {
          "internalType": "string",
          "name": "",
          "type": "string"
        }
      ],
      "stateMutability": "view",
      "type": "function"
    },
    {
      "inputs": [
        {
          "internalType": "uint256",
          "name": "_length",
          "type": "uint256"
        }
      ],
      "name": "getHistoryController",
      "outputs": [
        {
          "components": [
            {
              "internalType": "string",
              "name": "stationId",
              "type": "string"
            },
            {
              "internalType": "string",
              "name": "controllerId",
              "type": "string"
            },
            {
              "internalType": "uint256",
              "name": "createAt",
              "type": "uint256"
            },
            {
              "internalType": "string",
              "name": "controllerValue",
              "type": "string"
            }
          ],
          "internalType": "struct ControllerContract.ControllerData[]",
          "name": "",
          "type": "tuple[]"
        }
      ],
      "stateMutability": "view",
      "type": "function"
    },
    {
      "inputs": [
        {
          "internalType": "uint256",
          "name": "",
          "type": "uint256"
        }
      ],
      "name": "historyData",
      "outputs": [
        {
          "internalType": "string",
          "name": "stationId",
          "type": "string"
        },
        {
          "internalType": "string",
          "name": "controllerId",
          "type": "string"
        },
        {
          "internalType": "uint256",
          "name": "createAt",
          "type": "uint256"
        },
        {
          "internalType": "string",
          "name": "controllerValue",
          "type": "string"
        }
      ],
      "stateMutability": "view",
      "type": "function"
    },
    {
      "inputs": [],
      "name": "historyLength",
      "outputs": [
        {
          "internalType": "uint256",
          "name": "",
          "type": "uint256"
        }
      ],
      "stateMutability": "view",
      "type": "function"
    },
    {
      "inputs": [
        {
          "internalType": "string",
          "name": "_stationId",
          "type": "string"
        },
        {
          "internalType": "string",
          "name": "_controllerId",
          "type": "string"
        },
        {
          "internalType": "string",
          "name": "_controllerValue",
          "type": "string"
        }
      ],
      "name": "updateControllerValue",
      "outputs": [],
      "stateMutability": "nonpayable",
      "type": "function"
    }
  ],
  "bytecode": "0x608060405234801561001057600080fd5b50611a40806100206000396000f3fe608060405234801561001057600080fd5b50600436106100885760003560e01c8063bd1b78c21161005b578063bd1b78c21461013f578063be8bd2121461016f578063f1279c8c1461019f578063ffbdbb53146101bd57610088565b8063150004281461008d578063278f7b89146100bd5780632ccccb89146100f0578063614ebf471461010c575b600080fd5b6100a760048036038101906100a29190610fd4565b6101db565b6040516100b491906111d3565b60405180910390f35b6100d760048036038101906100d29190610fd4565b610497565b6040516100e7949392919061124e565b60405180910390f35b61010a600480360381019061010591906113dd565b61066f565b005b61012660048036038101906101219190610fd4565b6108ab565b604051610136949392919061124e565b60405180910390f35b610159600480360381019061015491906113dd565b610a73565b604051610166919061149f565b60405180910390f35b610189600480360381019061018491906114ba565b610bd9565b6040516101969190611532565b60405180910390f35b6101a7610d3d565b6040516101b49190611554565b60405180910390f35b6101c5610d43565b6040516101d291906111d3565b60405180910390f35b606060008290506002548111156101f25760025490505b60008167ffffffffffffffff81111561020e5761020d6112b2565b5b60405190808252806020026020018201604052801561024757816020015b610234610f62565b81526020019060019003908161022c5790505b509050600080600160025461025c919061159e565b90505b6000811061048b5760008082815260200190815260200160002060405180608001604052908160008201805461029490611601565b80601f01602080910402602001604051908101604052809291908181526020018280546102c090611601565b801561030d5780601f106102e25761010080835404028352916020019161030d565b820191906000526020600020905b8154815290600101906020018083116102f057829003601f168201915b5050505050815260200160018201805461032690611601565b80601f016020809104026020016040519081016040528092919081815260200182805461035290611601565b801561039f5780601f106103745761010080835404028352916020019161039f565b820191906000526020600020905b81548152906001019060200180831161038257829003601f168201915b50505050508152602001600282015481526020016003820180546103c290611601565b80601f01602080910402602001604051908101604052809291908181526020018280546103ee90611601565b801561043b5780601f106104105761010080835404028352916020019161043b565b820191906000526020600020905b81548152906001019060200180831161041e57829003601f168201915b50505050508152505083838151811061045757610456611632565b5b6020026020010181905250818061046d90611661565b9250508382101561048b578080610483906116a9565b91505061025f565b50819350505050919050565b600181815481106104a757600080fd5b90600052602060002090600402016000915090508060000180546104ca90611601565b80601f01602080910402602001604051908101604052809291908181526020018280546104f690611601565b80156105435780601f1061051857610100808354040283529160200191610543565b820191906000526020600020905b81548152906001019060200180831161052657829003601f168201915b50505050509080600101805461055890611601565b80601f016020809104026020016040519081016040528092919081815260200182805461058490611601565b80156105d15780601f106105a6576101008083540402835291602001916105d1565b820191906000526020600020905b8154815290600101906020018083116105b457829003601f168201915b5050505050908060020154908060030180546105ec90611601565b80601f016020809104026020016040519081016040528092919081815260200182805461061890611601565b80156106655780601f1061063a57610100808354040283529160200191610665565b820191906000526020600020905b81548152906001019060200180831161064857829003601f168201915b5050505050905084565b61067a838383610a73565b1561072057604051806080016040528084815260200183815260200142815260200182815250600080600254815260200190815260200160002060008201518160000190816106c9919061187e565b5060208201518160010190816106df919061187e565b506040820151816002015560608201518160030190816106ff919061187e565b509050506002600081548092919061071690611661565b91905055506108a6565b60005b6001805490508110156108a45783805190602001206001828154811061074c5761074b611632565b5b906000526020600020906004020160000160405161076a91906119f3565b60405180910390201480156107be575082805190602001206001828154811061079657610795611632565b5b90600052602060002090600402016001016040516107b491906119f3565b6040518091039020145b156108975781600182815481106107d8576107d7611632565b5b906000526020600020906004020160030190816107f5919061187e565b5060405180608001604052808581526020018481526020014281526020018381525060008060025481526020019081526020016000206000820151816000019081610840919061187e565b506020820151816001019081610856919061187e565b50604082015181600201556060820151816003019081610876919061187e565b509050506002600081548092919061088d90611661565b91905055506108a4565b8080600101915050610723565b505b505050565b60006020528060005260406000206000915090508060000180546108ce90611601565b80601f01602080910402602001604051908101604052809291908181526020018280546108fa90611601565b80156109475780601f1061091c57610100808354040283529160200191610947565b820191906000526020600020905b81548152906001019060200180831161092a57829003601f168201915b50505050509080600101805461095c90611601565b80601f016020809104026020016040519081016040528092919081815260200182805461098890611601565b80156109d55780601f106109aa576101008083540402835291602001916109d5565b820191906000526020600020905b8154815290600101906020018083116109b857829003601f168201915b5050505050908060020154908060030180546109f090611601565b80601f0160208091040260200160405190810160405280929190818152602001828054610a1c90611601565b8015610a695780601f10610a3e57610100808354040283529160200191610a69565b820191906000526020600020905b815481529060010190602001808311610a4c57829003601f168201915b5050505050905084565b600080600090505b600180549050811015610b3257848051906020012060018281548110610aa457610aa3611632565b5b9060005260206000209060040201600001604051610ac291906119f3565b6040518091039020148015610b165750838051906020012060018281548110610aee57610aed611632565b5b9060005260206000209060040201600101604051610b0c91906119f3565b6040518091039020145b15610b25576000915050610bd2565b8080600101915050610a7b565b50600160405180608001604052808681526020018581526020014281526020018481525090806001815401808255809150506001900390600052602060002090600402016000909190919091506000820151816000019081610b94919061187e565b506020820151816001019081610baa919061187e565b50604082015181600201556060820151816003019081610bca919061187e565b505050600190505b9392505050565b606060006001600254610bec919061159e565b90505b60008110610d2357600080828152602001908152602001600020600001604051610c1991906119f3565b60405180910390208480519060200120148015610c655750600080828152602001908152602001600020600101604051610c5391906119f3565b60405180910390208380519060200120145b15610d10576000808281526020019081526020016000206003018054610c8a90611601565b80601f0160208091040260200160405190810160405280929190818152602001828054610cb690611601565b8015610d035780601f10610cd857610100808354040283529160200191610d03565b820191906000526020600020905b815481529060010190602001808311610ce657829003601f168201915b5050505050915050610d37565b8080610d1b906116a9565b915050610bef565b506040518060200160405280600081525090505b92915050565b60025481565b60606001805480602002602001604051908101604052809291908181526020016000905b82821015610f595783829060005260206000209060040201604051806080016040529081600082018054610d9a90611601565b80601f0160208091040260200160405190810160405280929190818152602001828054610dc690611601565b8015610e135780601f10610de857610100808354040283529160200191610e13565b820191906000526020600020905b815481529060010190602001808311610df657829003601f168201915b50505050508152602001600182018054610e2c90611601565b80601f0160208091040260200160405190810160405280929190818152602001828054610e5890611601565b8015610ea55780601f10610e7a57610100808354040283529160200191610ea5565b820191906000526020600020905b815481529060010190602001808311610e8857829003601f168201915b5050505050815260200160028201548152602001600382018054610ec890611601565b80601f0160208091040260200160405190810160405280929190818152602001828054610ef490611601565b8015610f415780601f10610f1657610100808354040283529160200191610f41565b820191906000526020600020905b815481529060010190602001808311610f2457829003601f168201915b50505050508152505081526020019060010190610d67565b50505050905090565b6040518060800160405280606081526020016060815260200160008152602001606081525090565b6000604051905090565b600080fd5b600080fd5b6000819050919050565b610fb181610f9e565b8114610fbc57600080fd5b50565b600081359050610fce81610fa8565b92915050565b600060208284031215610fea57610fe9610f94565b5b6000610ff884828501610fbf565b91505092915050565b600081519050919050565b600082825260208201905092915050565b6000819050602082019050919050565b600081519050919050565b600082825260208201905092915050565b60005b8381101561106757808201518184015260208101905061104c565b60008484015250505050565b6000601f19601f8301169050919050565b600061108f8261102d565b6110998185611038565b93506110a9818560208601611049565b6110b281611073565b840191505092915050565b6110c681610f9e565b82525050565b600060808301600083015184820360008601526110e98282611084565b915050602083015184820360208601526111038282611084565b915050604083015161111860408601826110bd565b50606083015184820360608601526111308282611084565b9150508091505092915050565b600061114983836110cc565b905092915050565b6000602082019050919050565b600061116982611001565b611173818561100c565b9350836020820285016111858561101d565b8060005b858110156111c157848403895281516111a2858261113d565b94506111ad83611151565b925060208a01995050600181019050611189565b50829750879550505050505092915050565b600060208201905081810360008301526111ed818461115e565b905092915050565b600082825260208201905092915050565b60006112118261102d565b61121b81856111f5565b935061122b818560208601611049565b61123481611073565b840191505092915050565b61124881610f9e565b82525050565b600060808201905081810360008301526112688187611206565b9050818103602083015261127c8186611206565b905061128b604083018561123f565b818103606083015261129d8184611206565b905095945050505050565b600080fd5b600080fd5b7f4e487b7100000000000000000000000000000000000000000000000000000000600052604160045260246000fd5b6112ea82611073565b810181811067ffffffffffffffff82111715611309576113086112b2565b5b80604052505050565b600061131c610f8a565b905061132882826112e1565b919050565b600067ffffffffffffffff821115611348576113476112b2565b5b61135182611073565b9050602081019050919050565b82818337600083830152505050565b600061138061137b8461132d565b611312565b90508281526020810184848401111561139c5761139b6112ad565b5b6113a784828561135e565b509392505050565b600082601f8301126113c4576113c36112a8565b5b81356113d484826020860161136d565b91505092915050565b6000806000606084860312156113f6576113f5610f94565b5b600084013567ffffffffffffffff81111561141457611413610f99565b5b611420868287016113af565b935050602084013567ffffffffffffffff81111561144157611440610f99565b5b61144d868287016113af565b925050604084013567ffffffffffffffff81111561146e5761146d610f99565b5b61147a868287016113af565b9150509250925092565b60008115159050919050565b61149981611484565b82525050565b60006020820190506114b46000830184611490565b92915050565b600080604083850312156114d1576114d0610f94565b5b600083013567ffffffffffffffff8111156114ef576114ee610f99565b5b6114fb858286016113af565b925050602083013567ffffffffffffffff81111561151c5761151b610f99565b5b611528858286016113af565b9150509250929050565b6000602082019050818103600083015261154c8184611206565b905092915050565b6000602082019050611569600083018461123f565b92915050565b7f4e487b7100000000000000000000000000000000000000000000000000000000600052601160045260246000fd5b60006115a982610f9e565b91506115b483610f9e565b92508282039050818111156115cc576115cb61156f565b5b92915050565b7f4e487b7100000000000000000000000000000000000000000000000000000000600052602260045260246000fd5b6000600282049050600182168061161957607f821691505b60208210810361162c5761162b6115d2565b5b50919050565b7f4e487b7100000000000000000000000000000000000000000000000000000000600052603260045260246000fd5b600061166c82610f9e565b91507fffffffffffffffffffffffffffffffffffffffffffffffffffffffffffffffff820361169e5761169d61156f565b5b600182019050919050565b60006116b482610f9e565b9150600082036116c7576116c661156f565b5b600182039050919050565b60008190508160005260206000209050919050565b60006020601f8301049050919050565b600082821b905092915050565b6000600883026117347fffffffffffffffffffffffffffffffffffffffffffffffffffffffffffffffff826116f7565b61173e86836116f7565b95508019841693508086168417925050509392505050565b6000819050919050565b600061177b61177661177184610f9e565b611756565b610f9e565b9050919050565b6000819050919050565b61179583611760565b6117a96117a182611782565b848454611704565b825550505050565b600090565b6117be6117b1565b6117c981848461178c565b505050565b5b818110156117ed576117e26000826117b6565b6001810190506117cf565b5050565b601f82111561183257611803816116d2565b61180c846116e7565b8101602085101561181b578190505b61182f611827856116e7565b8301826117ce565b50505b505050565b600082821c905092915050565b600061185560001984600802611837565b1980831691505092915050565b600061186e8383611844565b9150826002028217905092915050565b6118878261102d565b67ffffffffffffffff8111156118a05761189f6112b2565b5b6118aa8254611601565b6118b58282856117f1565b600060209050601f8311600181146118e857600084156118d6578287015190505b6118e08582611862565b865550611948565b601f1984166118f6866116d2565b60005b8281101561191e578489015182556001820191506020850194506020810190506118f9565b8683101561193b5784890151611937601f891682611844565b8355505b6001600288020188555050505b505050505050565b600081905092915050565b60008190508160005260206000209050919050565b6000815461197d81611601565b6119878186611950565b945060018216600081146119a257600181146119b7576119ea565b60ff19831686528115158202860193506119ea565b6119c08561195b565b60005b838110156119e2578154818901526001820191506020810190506119c3565b838801955050505b50505092915050565b60006119ff8284611970565b91508190509291505056fea26469706673582212209bd1ff0fba4fff3685800b48ca944e452eb71e134ea1ac18fe4eae4a595add0764736f6c63430008180033",
  "linkReferences": {},
  "deployedLinkReferences": {}
}