{
  "_format": "hh-sol-artifact-1",
  "contractName": "CropInfo",
  "sourceName": "contracts/CropInfo.sol",
  "abi": [
    {
      "inputs": [
        {
          "internalType": "string",
          "name": "_cropType",
          "type": "string"
        },
        {
          "internalType": "uint32",
          "name": "_plantingDate",
          "type": "uint32"
        },
        {
          "internalType": "uint32",
          "name": "_monthsToHavest",
          "type": "uint32"
        },
        {
          "internalType": "string[]",
          "name": "_fertilizers",
          "type": "string[]"
        },
        {
          "internalType": "string[]",
          "name": "_pesticides",
          "type": "string[]"
        },
        {
          "internalType": "string[]",
          "name": "_diseases",
          "type": "string[]"
        },
        {
          "internalType": "string",
          "name": "additionalInfo",
          "type": "string"
        },
        {
          "internalType": "uint32",
          "name": "_noOfCrops",
          "type": "uint32"
        }
      ],
      "name": "addCropInfo",
      "outputs": [],
      "stateMutability": "nonpayable",
      "type": "function"
    },
    {
      "inputs": [
        {
          "internalType": "string[]",
          "name": "_fertilizers",
          "type": "string[]"
        }
      ],
      "name": "addFertilizers",
      "outputs": [],
      "stateMutability": "nonpayable",
      "type": "function"
    },
    {
      "inputs": [],
      "name": "cropCount",
      "outputs": [
        {
          "internalType": "uint32",
          "name": "",
          "type": "uint32"
        }
      ],
      "stateMutability": "view",
      "type": "function"
    },
    {
      "inputs": [
        {
          "internalType": "uint32",
          "name": "",
          "type": "uint32"
        }
      ],
      "name": "crops",
      "outputs": [
        {
          "internalType": "uint32",
          "name": "cropId",
          "type": "uint32"
        },
        {
          "internalType": "string",
          "name": "cropType",
          "type": "string"
        },
        {
          "internalType": "uint32",
          "name": "plantingDate",
          "type": "uint32"
        },
        {
          "internalType": "uint32",
          "name": "monthsToHavest",
          "type": "uint32"
        },
        {
          "internalType": "string",
          "name": "additionalInfo",
          "type": "string"
        },
        {
          "internalType": "string",
          "name": "harvestDate",
          "type": "string"
        }
      ],
      "stateMutability": "view",
      "type": "function"
    },
    {
      "inputs": [],
      "name": "getAllCropsInfo",
      "outputs": [
        {
          "components": [
            {
              "internalType": "uint32",
              "name": "cropId",
              "type": "uint32"
            },
            {
              "internalType": "string",
              "name": "cropType",
              "type": "string"
            },
            {
              "internalType": "uint32",
              "name": "plantingDate",
              "type": "uint32"
            },
            {
              "internalType": "uint32",
              "name": "monthsToHavest",
              "type": "uint32"
            },
            {
              "internalType": "string[]",
              "name": "fertilizers",
              "type": "string[]"
            },
            {
              "internalType": "string[]",
              "name": "pesticides",
              "type": "string[]"
            },
            {
              "internalType": "string[]",
              "name": "diseases",
              "type": "string[]"
            },
            {
              "internalType": "string",
              "name": "additionalInfo",
              "type": "string"
            },
            {
              "internalType": "string",
              "name": "harvestDate",
              "type": "string"
            }
          ],
          "internalType": "struct CropInfo.Crop[]",
          "name": "",
          "type": "tuple[]"
        }
      ],
      "stateMutability": "view",
      "type": "function"
    },
    {
      "inputs": [
        {
          "internalType": "uint32",
          "name": "_cropId",
          "type": "uint32"
        }
      ],
      "name": "getCropInfo",
      "outputs": [
        {
          "components": [
            {
              "internalType": "uint32",
              "name": "cropId",
              "type": "uint32"
            },
            {
              "internalType": "string",
              "name": "cropType",
              "type": "string"
            },
            {
              "internalType": "uint32",
              "name": "plantingDate",
              "type": "uint32"
            },
            {
              "internalType": "uint32",
              "name": "monthsToHavest",
              "type": "uint32"
            },
            {
              "internalType": "string[]",
              "name": "fertilizers",
              "type": "string[]"
            },
            {
              "internalType": "string[]",
              "name": "pesticides",
              "type": "string[]"
            },
            {
              "internalType": "string[]",
              "name": "diseases",
              "type": "string[]"
            },
            {
              "internalType": "string",
              "name": "additionalInfo",
              "type": "string"
            },
            {
              "internalType": "string",
              "name": "harvestDate",
              "type": "string"
            }
          ],
          "internalType": "struct CropInfo.Crop",
          "name": "",
          "type": "tuple"
        }
      ],
      "stateMutability": "view",
      "type": "function"
    },
    {
      "inputs": [],
      "name": "getNumberOfCrop",
      "outputs": [
        {
          "internalType": "uint32",
          "name": "",
          "type": "uint32"
        }
      ],
      "stateMutability": "view",
      "type": "function"
    },
    {
      "inputs": [
        {
          "internalType": "string[]",
          "name": "_fertilizers",
          "type": "string[]"
        },
        {
          "internalType": "string",
          "name": "_fertilizer",
          "type": "string"
        }
      ],
      "name": "isFertilizerExisted",
      "outputs": [
        {
          "internalType": "bool",
          "name": "",
          "type": "bool"
        }
      ],
      "stateMutability": "pure",
      "type": "function"
    },
    {
      "inputs": [
        {
          "internalType": "uint32",
          "name": "_cropId",
          "type": "uint32"
        },
        {
          "internalType": "string",
          "name": "_harvestDate",
          "type": "string"
        }
      ],
      "name": "updateCropHarvestDate",
      "outputs": [],
      "stateMutability": "nonpayable",
      "type": "function"
    },
    {
      "inputs": [
        {
          "internalType": "uint32",
          "name": "_cropId",
          "type": "uint32"
        },
        {
          "internalType": "string",
          "name": "_cropType",
          "type": "string"
        },
        {
          "internalType": "uint32",
          "name": "_plantingDate",
          "type": "uint32"
        },
        {
          "internalType": "uint32",
          "name": "_monthsToHavest",
          "type": "uint32"
        },
        {
          "internalType": "string[]",
          "name": "_fertilizers",
          "type": "string[]"
        },
        {
          "internalType": "string[]",
          "name": "_pesticides",
          "type": "string[]"
        },
        {
          "internalType": "string[]",
          "name": "_diseases",
          "type": "string[]"
        },
        {
          "internalType": "string",
          "name": "additionalInfo",
          "type": "string"
        }
      ],
      "name": "updateCropInfo",
      "outputs": [],
      "stateMutability": "nonpayable",
      "type": "function"
    }
  ],
  "bytecode": "0x608060405234801561001057600080fd5b506126c9806100206000396000f3fe608060405234801561001057600080fd5b506004361061009e5760003560e01c80638c9d193b116100665780638c9d193b146101475780639127b3181461017757806397d4a3cf14610193578063dfd55a2c146101c8578063fb9a2e82146101e65761009e565b8063111479fb146100a35780631f582b59146100c15780633a14a925146100df5780634148fdbd146100fb578063795174bb14610117575b600080fd5b6100ab610202565b6040516100b8919061175d565b60405180910390f35b6100c961021c565b6040516100d69190611a83565b60405180910390f35b6100f960048036038101906100f49190611c1a565b6107cd565b005b61011560048036038101906101109190611d5c565b610800565b005b610131600480360381019061012c9190611da5565b6109f3565b60405161013e9190611eba565b60405180910390f35b610161600480360381019061015c9190611edc565b610edf565b60405161016e9190611f6f565b60405180910390f35b610191600480360381019061018c9190611f8a565b610f92565b005b6101ad60048036038101906101a89190611da5565b6111cd565b6040516101bf96959493929190612116565b60405180910390f35b6101d06113d1565b6040516101dd919061175d565b60405180910390f35b61020060048036038101906101fb919061218c565b6113e7565b005b6000600160009054906101000a900463ffffffff16905090565b60606000600160009054906101000a900463ffffffff1663ffffffff1667ffffffffffffffff81111561025257610251611aef565b5b60405190808252806020026020018201604052801561028b57816020015b610278611606565b8152602001906001900390816102705790505b50905060005b600160009054906101000a900463ffffffff1663ffffffff168163ffffffff1610156107c5576000808263ffffffff1663ffffffff168152602001908152602001600020604051806101200160405290816000820160009054906101000a900463ffffffff1663ffffffff1663ffffffff168152602001600182018054610317906122fd565b80601f0160208091040260200160405190810160405280929190818152602001828054610343906122fd565b80156103905780601f1061036557610100808354040283529160200191610390565b820191906000526020600020905b81548152906001019060200180831161037357829003601f168201915b505050505081526020016002820160009054906101000a900463ffffffff1663ffffffff1663ffffffff1681526020016002820160049054906101000a900463ffffffff1663ffffffff1663ffffffff16815260200160038201805480602002602001604051908101604052809291908181526020016000905b828210156104b6578382906000526020600020018054610429906122fd565b80601f0160208091040260200160405190810160405280929190818152602001828054610455906122fd565b80156104a25780601f10610477576101008083540402835291602001916104a2565b820191906000526020600020905b81548152906001019060200180831161048557829003601f168201915b50505050508152602001906001019061040a565b50505050815260200160048201805480602002602001604051908101604052809291908181526020016000905b8282101561058f578382906000526020600020018054610502906122fd565b80601f016020809104026020016040519081016040528092919081815260200182805461052e906122fd565b801561057b5780601f106105505761010080835404028352916020019161057b565b820191906000526020600020905b81548152906001019060200180831161055e57829003601f168201915b5050505050815260200190600101906104e3565b50505050815260200160058201805480602002602001604051908101604052809291908181526020016000905b828210156106685783829060005260206000200180546105db906122fd565b80601f0160208091040260200160405190810160405280929190818152602001828054610607906122fd565b80156106545780601f1061062957610100808354040283529160200191610654565b820191906000526020600020905b81548152906001019060200180831161063757829003601f168201915b5050505050815260200190600101906105bc565b505050508152602001600682018054610680906122fd565b80601f01602080910402602001604051908101604052809291908181526020018280546106ac906122fd565b80156106f95780601f106106ce576101008083540402835291602001916106f9565b820191906000526020600020905b8154815290600101906020018083116106dc57829003601f168201915b50505050508152602001600782018054610712906122fd565b80601f016020809104026020016040519081016040528092919081815260200182805461073e906122fd565b801561078b5780601f106107605761010080835404028352916020019161078b565b820191906000526020600020905b81548152906001019060200180831161076e57829003601f168201915b505050505081525050828263ffffffff16815181106107ad576107ac61232e565b5b60200260200101819052508080600101915050610291565b508091505090565b806000808463ffffffff1663ffffffff16815260200190815260200160002060070190816107fb9190612513565b505050565b60005b600160009054906101000a900463ffffffff1663ffffffff168163ffffffff1610156109ef5760005b82518163ffffffff1610156109e1576109556000808463ffffffff1663ffffffff168152602001908152602001600020600301805480602002602001604051908101604052809291908181526020016000905b8282101561092b57838290600052602060002001805461089e906122fd565b80601f01602080910402602001604051908101604052809291908181526020018280546108ca906122fd565b80156109175780601f106108ec57610100808354040283529160200191610917565b820191906000526020600020905b8154815290600101906020018083116108fa57829003601f168201915b50505050508152602001906001019061087f565b50505050848363ffffffff16815181106109485761094761232e565b5b6020026020010151610edf565b6109ce576000808363ffffffff1663ffffffff168152602001908152602001600020600301838263ffffffff16815181106109935761099261232e565b5b60200260200101519080600181540180825580915050600190039060005260206000200160009091909190915090816109cc9190612513565b505b80806109d990612614565b91505061082c565b508080600101915050610803565b5050565b6109fb611606565b6000808363ffffffff1663ffffffff168152602001908152602001600020604051806101200160405290816000820160009054906101000a900463ffffffff1663ffffffff1663ffffffff168152602001600182018054610a5b906122fd565b80601f0160208091040260200160405190810160405280929190818152602001828054610a87906122fd565b8015610ad45780601f10610aa957610100808354040283529160200191610ad4565b820191906000526020600020905b815481529060010190602001808311610ab757829003601f168201915b505050505081526020016002820160009054906101000a900463ffffffff1663ffffffff1663ffffffff1681526020016002820160049054906101000a900463ffffffff1663ffffffff1663ffffffff16815260200160038201805480602002602001604051908101604052809291908181526020016000905b82821015610bfa578382906000526020600020018054610b6d906122fd565b80601f0160208091040260200160405190810160405280929190818152602001828054610b99906122fd565b8015610be65780601f10610bbb57610100808354040283529160200191610be6565b820191906000526020600020905b815481529060010190602001808311610bc957829003601f168201915b505050505081526020019060010190610b4e565b50505050815260200160048201805480602002602001604051908101604052809291908181526020016000905b82821015610cd3578382906000526020600020018054610c46906122fd565b80601f0160208091040260200160405190810160405280929190818152602001828054610c72906122fd565b8015610cbf5780601f10610c9457610100808354040283529160200191610cbf565b820191906000526020600020905b815481529060010190602001808311610ca257829003601f168201915b505050505081526020019060010190610c27565b50505050815260200160058201805480602002602001604051908101604052809291908181526020016000905b82821015610dac578382906000526020600020018054610d1f906122fd565b80601f0160208091040260200160405190810160405280929190818152602001828054610d4b906122fd565b8015610d985780601f10610d6d57610100808354040283529160200191610d98565b820191906000526020600020905b815481529060010190602001808311610d7b57829003601f168201915b505050505081526020019060010190610d00565b505050508152602001600682018054610dc4906122fd565b80601f0160208091040260200160405190810160405280929190818152602001828054610df0906122fd565b8015610e3d5780601f10610e1257610100808354040283529160200191610e3d565b820191906000526020600020905b815481529060010190602001808311610e2057829003601f168201915b50505050508152602001600782018054610e56906122fd565b80601f0160208091040260200160405190810160405280929190818152602001828054610e82906122fd565b8015610ecf5780601f10610ea457610100808354040283529160200191610ecf565b820191906000526020600020905b815481529060010190602001808311610eb257829003601f168201915b5050505050815250509050919050565b600080600090505b83518163ffffffff161015610f865782604051602001610f07919061267c565b60405160208183030381529060405280519060200120848263ffffffff1681518110610f3657610f3561232e565b5b6020026020010151604051602001610f4e919061267c565b6040516020818303038152906040528051906020012003610f73576001915050610f8c565b8080610f7e90612614565b915050610ee7565b50600090505b92915050565b60008060008a63ffffffff1663ffffffff1681526020019081526020016000206007018054610fc0906122fd565b80601f0160208091040260200160405190810160405280929190818152602001828054610fec906122fd565b80156110395780601f1061100e57610100808354040283529160200191611039565b820191906000526020600020905b81548152906001019060200180831161101c57829003601f168201915b505050505090506040518061012001604052808a63ffffffff1681526020018981526020018863ffffffff1681526020018763ffffffff168152602001868152602001858152602001848152602001838152602001828152506000808b63ffffffff1663ffffffff16815260200190815260200160002060008201518160000160006101000a81548163ffffffff021916908363ffffffff16021790555060208201518160010190816110ec9190612513565b5060408201518160020160006101000a81548163ffffffff021916908363ffffffff16021790555060608201518160020160046101000a81548163ffffffff021916908363ffffffff1602179055506080820151816003019080519060200190611157929190611664565b5060a0820151816004019080519060200190611174929190611664565b5060c0820151816005019080519060200190611191929190611664565b5060e08201518160060190816111a79190612513565b506101008201518160070190816111be9190612513565b50905050505050505050505050565b60006020528060005260406000206000915090508060000160009054906101000a900463ffffffff1690806001018054611206906122fd565b80601f0160208091040260200160405190810160405280929190818152602001828054611232906122fd565b801561127f5780601f106112545761010080835404028352916020019161127f565b820191906000526020600020905b81548152906001019060200180831161126257829003601f168201915b5050505050908060020160009054906101000a900463ffffffff16908060020160049054906101000a900463ffffffff16908060060180546112c0906122fd565b80601f01602080910402602001604051908101604052809291908181526020018280546112ec906122fd565b80156113395780601f1061130e57610100808354040283529160200191611339565b820191906000526020600020905b81548152906001019060200180831161131c57829003601f168201915b50505050509080600701805461134e906122fd565b80601f016020809104026020016040519081016040528092919081815260200182805461137a906122fd565b80156113c75780601f1061139c576101008083540402835291602001916113c7565b820191906000526020600020905b8154815290600101906020018083116113aa57829003601f168201915b5050505050905086565b600160009054906101000a900463ffffffff1681565b60005b8163ffffffff168110156115fb57604051806101200160405280600160009054906101000a900463ffffffff1663ffffffff1681526020018a81526020018963ffffffff1681526020018863ffffffff16815260200187815260200186815260200185815260200184815260200160405180602001604052806000815250815250600080600160009054906101000a900463ffffffff1663ffffffff1663ffffffff16815260200190815260200160002060008201518160000160006101000a81548163ffffffff021916908363ffffffff16021790555060208201518160010190816114d79190612513565b5060408201518160020160006101000a81548163ffffffff021916908363ffffffff16021790555060608201518160020160046101000a81548163ffffffff021916908363ffffffff1602179055506080820151816003019080519060200190611542929190611664565b5060a082015181600401908051906020019061155f929190611664565b5060c082015181600501908051906020019061157c929190611664565b5060e08201518160060190816115929190612513565b506101008201518160070190816115a99190612513565b509050506001600081819054906101000a900463ffffffff16809291906115cf90612614565b91906101000a81548163ffffffff021916908363ffffffff1602179055505080806001019150506113ea565b505050505050505050565b604051806101200160405280600063ffffffff16815260200160608152602001600063ffffffff168152602001600063ffffffff16815260200160608152602001606081526020016060815260200160608152602001606081525090565b8280548282559060005260206000209081019282156116ac579160200282015b828111156116ab57825182908161169b9190612513565b5091602001919060010190611684565b5b5090506116b991906116bd565b5090565b5b808211156116dd57600081816116d491906116e1565b506001016116be565b5090565b5080546116ed906122fd565b6000825580601f106116ff575061171e565b601f01602090049060005260206000209081019061171d9190611721565b5b50565b5b8082111561173a576000816000905550600101611722565b5090565b600063ffffffff82169050919050565b6117578161173e565b82525050565b6000602082019050611772600083018461174e565b92915050565b600081519050919050565b600082825260208201905092915050565b6000819050602082019050919050565b6117ad8161173e565b82525050565b600081519050919050565b600082825260208201905092915050565b60005b838110156117ed5780820151818401526020810190506117d2565b60008484015250505050565b6000601f19601f8301169050919050565b6000611815826117b3565b61181f81856117be565b935061182f8185602086016117cf565b611838816117f9565b840191505092915050565b600081519050919050565b600082825260208201905092915050565b6000819050602082019050919050565b600061187b838361180a565b905092915050565b6000602082019050919050565b600061189b82611843565b6118a5818561184e565b9350836020820285016118b78561185f565b8060005b858110156118f357848403895281516118d4858261186f565b94506118df83611883565b925060208a019950506001810190506118bb565b50829750879550505050505092915050565b60006101208301600083015161191e60008601826117a4565b5060208301518482036020860152611936828261180a565b915050604083015161194b60408601826117a4565b50606083015161195e60608601826117a4565b50608083015184820360808601526119768282611890565b91505060a083015184820360a08601526119908282611890565b91505060c083015184820360c08601526119aa8282611890565b91505060e083015184820360e08601526119c4828261180a565b9150506101008301518482036101008601526119e0828261180a565b9150508091505092915050565b60006119f98383611905565b905092915050565b6000602082019050919050565b6000611a1982611778565b611a238185611783565b935083602082028501611a3585611794565b8060005b85811015611a715784840389528151611a5285826119ed565b9450611a5d83611a01565b925060208a01995050600181019050611a39565b50829750879550505050505092915050565b60006020820190508181036000830152611a9d8184611a0e565b905092915050565b6000604051905090565b600080fd5b600080fd5b611ac28161173e565b8114611acd57600080fd5b50565b600081359050611adf81611ab9565b92915050565b600080fd5b600080fd5b7f4e487b7100000000000000000000000000000000000000000000000000000000600052604160045260246000fd5b611b27826117f9565b810181811067ffffffffffffffff82111715611b4657611b45611aef565b5b80604052505050565b6000611b59611aa5565b9050611b658282611b1e565b919050565b600067ffffffffffffffff821115611b8557611b84611aef565b5b611b8e826117f9565b9050602081019050919050565b82818337600083830152505050565b6000611bbd611bb884611b6a565b611b4f565b905082815260208101848484011115611bd957611bd8611aea565b5b611be4848285611b9b565b509392505050565b600082601f830112611c0157611c00611ae5565b5b8135611c11848260208601611baa565b91505092915050565b60008060408385031215611c3157611c30611aaf565b5b6000611c3f85828601611ad0565b925050602083013567ffffffffffffffff811115611c6057611c5f611ab4565b5b611c6c85828601611bec565b9150509250929050565b600067ffffffffffffffff821115611c9157611c90611aef565b5b602082029050602081019050919050565b600080fd5b6000611cba611cb584611c76565b611b4f565b90508083825260208201905060208402830185811115611cdd57611cdc611ca2565b5b835b81811015611d2457803567ffffffffffffffff811115611d0257611d01611ae5565b5b808601611d0f8982611bec565b85526020850194505050602081019050611cdf565b5050509392505050565b600082601f830112611d4357611d42611ae5565b5b8135611d53848260208601611ca7565b91505092915050565b600060208284031215611d7257611d71611aaf565b5b600082013567ffffffffffffffff811115611d9057611d8f611ab4565b5b611d9c84828501611d2e565b91505092915050565b600060208284031215611dbb57611dba611aaf565b5b6000611dc984828501611ad0565b91505092915050565b600061012083016000830151611deb60008601826117a4565b5060208301518482036020860152611e03828261180a565b9150506040830151611e1860408601826117a4565b506060830151611e2b60608601826117a4565b5060808301518482036080860152611e438282611890565b91505060a083015184820360a0860152611e5d8282611890565b91505060c083015184820360c0860152611e778282611890565b91505060e083015184820360e0860152611e91828261180a565b915050610100830151848203610100860152611ead828261180a565b9150508091505092915050565b60006020820190508181036000830152611ed48184611dd2565b905092915050565b60008060408385031215611ef357611ef2611aaf565b5b600083013567ffffffffffffffff811115611f1157611f10611ab4565b5b611f1d85828601611d2e565b925050602083013567ffffffffffffffff811115611f3e57611f3d611ab4565b5b611f4a85828601611bec565b9150509250929050565b60008115159050919050565b611f6981611f54565b82525050565b6000602082019050611f846000830184611f60565b92915050565b600080600080600080600080610100898b031215611fab57611faa611aaf565b5b6000611fb98b828c01611ad0565b985050602089013567ffffffffffffffff811115611fda57611fd9611ab4565b5b611fe68b828c01611bec565b9750506040611ff78b828c01611ad0565b96505060606120088b828c01611ad0565b955050608089013567ffffffffffffffff81111561202957612028611ab4565b5b6120358b828c01611d2e565b94505060a089013567ffffffffffffffff81111561205657612055611ab4565b5b6120628b828c01611d2e565b93505060c089013567ffffffffffffffff81111561208357612082611ab4565b5b61208f8b828c01611d2e565b92505060e089013567ffffffffffffffff8111156120b0576120af611ab4565b5b6120bc8b828c01611bec565b9150509295985092959890939650565b600082825260208201905092915050565b60006120e8826117b3565b6120f281856120cc565b93506121028185602086016117cf565b61210b816117f9565b840191505092915050565b600060c08201905061212b600083018961174e565b818103602083015261213d81886120dd565b905061214c604083018761174e565b612159606083018661174e565b818103608083015261216b81856120dd565b905081810360a083015261217f81846120dd565b9050979650505050505050565b600080600080600080600080610100898b0312156121ad576121ac611aaf565b5b600089013567ffffffffffffffff8111156121cb576121ca611ab4565b5b6121d78b828c01611bec565b98505060206121e88b828c01611ad0565b97505060406121f98b828c01611ad0565b965050606089013567ffffffffffffffff81111561221a57612219611ab4565b5b6122268b828c01611d2e565b955050608089013567ffffffffffffffff81111561224757612246611ab4565b5b6122538b828c01611d2e565b94505060a089013567ffffffffffffffff81111561227457612273611ab4565b5b6122808b828c01611d2e565b93505060c089013567ffffffffffffffff8111156122a1576122a0611ab4565b5b6122ad8b828c01611bec565b92505060e06122be8b828c01611ad0565b9150509295985092959890939650565b7f4e487b7100000000000000000000000000000000000000000000000000000000600052602260045260246000fd5b6000600282049050600182168061231557607f821691505b602082108103612328576123276122ce565b5b50919050565b7f4e487b7100000000000000000000000000000000000000000000000000000000600052603260045260246000fd5b60008190508160005260206000209050919050565b60006020601f8301049050919050565b600082821b905092915050565b6000600883026123bf7fffffffffffffffffffffffffffffffffffffffffffffffffffffffffffffffff82612382565b6123c98683612382565b95508019841693508086168417925050509392505050565b6000819050919050565b6000819050919050565b600061241061240b612406846123e1565b6123eb565b6123e1565b9050919050565b6000819050919050565b61242a836123f5565b61243e61243682612417565b84845461238f565b825550505050565b600090565b612453612446565b61245e818484612421565b505050565b5b818110156124825761247760008261244b565b600181019050612464565b5050565b601f8211156124c7576124988161235d565b6124a184612372565b810160208510156124b0578190505b6124c46124bc85612372565b830182612463565b50505b505050565b600082821c905092915050565b60006124ea600019846008026124cc565b1980831691505092915050565b600061250383836124d9565b9150826002028217905092915050565b61251c826117b3565b67ffffffffffffffff81111561253557612534611aef565b5b61253f82546122fd565b61254a828285612486565b600060209050601f83116001811461257d576000841561256b578287015190505b61257585826124f7565b8655506125dd565b601f19841661258b8661235d565b60005b828110156125b35784890151825560018201915060208501945060208101905061258e565b868310156125d057848901516125cc601f8916826124d9565b8355505b6001600288020188555050505b505050505050565b7f4e487b7100000000000000000000000000000000000000000000000000000000600052601160045260246000fd5b600061261f8261173e565b915063ffffffff8203612635576126346125e5565b5b600182019050919050565b600081905092915050565b6000612656826117b3565b6126608185612640565b93506126708185602086016117cf565b80840191505092915050565b6000612688828461264b565b91508190509291505056fea2646970667358221220b631d19fb3d8d927166a8f618806aba71b090b42f463719761ef785eca9e388164736f6c63430008180033",
  "linkReferences": {},
  "deployedLinkReferences": {}
}