{
  "_format": "hh-sol-artifact-1",
  "contractName": "CropNFT",
  "sourceName": "contracts/CropNFT.sol",
  "abi": [
    {
      "inputs": [
        {
          "internalType": "address",
          "name": "_cropInfo",
          "type": "address"
        }
      ],
      "stateMutability": "nonpayable",
      "type": "constructor"
    },
    {
      "anonymous": false,
      "inputs": [
        {
          "indexed": true,
          "internalType": "address",
          "name": "owner",
          "type": "address"
        },
        {
          "indexed": true,
          "internalType": "address",
          "name": "approved",
          "type": "address"
        },
        {
          "indexed": true,
          "internalType": "uint256",
          "name": "tokenId",
          "type": "uint256"
        }
      ],
      "name": "Approval",
      "type": "event"
    },
    {
      "anonymous": false,
      "inputs": [
        {
          "indexed": true,
          "internalType": "address",
          "name": "owner",
          "type": "address"
        },
        {
          "indexed": true,
          "internalType": "address",
          "name": "operator",
          "type": "address"
        },
        {
          "indexed": false,
          "internalType": "bool",
          "name": "approved",
          "type": "bool"
        }
      ],
      "name": "ApprovalForAll",
      "type": "event"
    },
    {
      "anonymous": false,
      "inputs": [
        {
          "indexed": false,
          "internalType": "uint256",
          "name": "_fromTokenId",
          "type": "uint256"
        },
        {
          "indexed": false,
          "internalType": "uint256",
          "name": "_toTokenId",
          "type": "uint256"
        }
      ],
      "name": "BatchMetadataUpdate",
      "type": "event"
    },
    {
      "anonymous": false,
      "inputs": [
        {
          "indexed": false,
          "internalType": "uint256",
          "name": "_tokenId",
          "type": "uint256"
        }
      ],
      "name": "MetadataUpdate",
      "type": "event"
    },
    {
      "anonymous": false,
      "inputs": [
        {
          "indexed": true,
          "internalType": "address",
          "name": "from",
          "type": "address"
        },
        {
          "indexed": true,
          "internalType": "address",
          "name": "to",
          "type": "address"
        },
        {
          "indexed": true,
          "internalType": "uint256",
          "name": "tokenId",
          "type": "uint256"
        }
      ],
      "name": "Transfer",
      "type": "event"
    },
    {
      "inputs": [
        {
          "internalType": "uint256",
          "name": "",
          "type": "uint256"
        }
      ],
      "name": "IDs",
      "outputs": [
        {
          "internalType": "uint32",
          "name": "",
          "type": "uint32"
        }
      ],
      "stateMutability": "view",
      "type": "function"
    },
    {
      "inputs": [
        {
          "internalType": "uint32",
          "name": "",
          "type": "uint32"
        }
      ],
      "name": "_price",
      "outputs": [
        {
          "internalType": "uint32",
          "name": "",
          "type": "uint32"
        }
      ],
      "stateMutability": "view",
      "type": "function"
    },
    {
      "inputs": [
        {
          "internalType": "address",
          "name": "to",
          "type": "address"
        },
        {
          "internalType": "uint256",
          "name": "tokenId",
          "type": "uint256"
        }
      ],
      "name": "approve",
      "outputs": [],
      "stateMutability": "nonpayable",
      "type": "function"
    },
    {
      "inputs": [
        {
          "internalType": "address",
          "name": "owner",
          "type": "address"
        }
      ],
      "name": "balanceOf",
      "outputs": [
        {
          "internalType": "uint256",
          "name": "",
          "type": "uint256"
        }
      ],
      "stateMutability": "view",
      "type": "function"
    },
    {
      "inputs": [
        {
          "internalType": "string",
          "name": "_NFT_url",
          "type": "string"
        },
        {
          "internalType": "uint32",
          "name": "_tokenId",
          "type": "uint32"
        }
      ],
      "name": "createCropNFT",
      "outputs": [
        {
          "internalType": "uint32",
          "name": "",
          "type": "uint32"
        }
      ],
      "stateMutability": "nonpayable",
      "type": "function"
    },
    {
      "inputs": [],
      "name": "cropInfo",
      "outputs": [
        {
          "internalType": "contract CropInfo",
          "name": "",
          "type": "address"
        }
      ],
      "stateMutability": "view",
      "type": "function"
    },
    {
      "inputs": [],
      "name": "getAllMyCrop",
      "outputs": [
        {
          "internalType": "uint32[]",
          "name": "",
          "type": "uint32[]"
        }
      ],
      "stateMutability": "view",
      "type": "function"
    },
    {
      "inputs": [
        {
          "internalType": "uint256",
          "name": "tokenId",
          "type": "uint256"
        }
      ],
      "name": "getApproved",
      "outputs": [
        {
          "internalType": "address",
          "name": "",
          "type": "address"
        }
      ],
      "stateMutability": "view",
      "type": "function"
    },
    {
      "inputs": [
        {
          "internalType": "uint32",
          "name": "_idNFT",
          "type": "uint32"
        }
      ],
      "name": "getCropInfoFromNFT",
      "outputs": [
        {
          "components": [
            {
              "internalType": "uint32",
              "name": "cropId",
              "type": "uint32"
            },
            {
              "internalType": "string",
              "name": "cropType",
              "type": "string"
            },
            {
              "internalType": "uint32",
              "name": "plantingDate",
              "type": "uint32"
            },
            {
              "internalType": "uint32",
              "name": "monthsToHavest",
              "type": "uint32"
            },
            {
              "internalType": "string[]",
              "name": "fertilizers",
              "type": "string[]"
            },
            {
              "internalType": "string[]",
              "name": "pesticides",
              "type": "string[]"
            },
            {
              "internalType": "string[]",
              "name": "diseases",
              "type": "string[]"
            },
            {
              "internalType": "string",
              "name": "additionalInfo",
              "type": "string"
            },
            {
              "internalType": "string",
              "name": "harvestDate",
              "type": "string"
            }
          ],
          "internalType": "struct CropInfo.Crop",
          "name": "",
          "type": "tuple"
        }
      ],
      "stateMutability": "view",
      "type": "function"
    },
    {
      "inputs": [],
      "name": "getNumberOfNFTs",
      "outputs": [
        {
          "internalType": "uint32",
          "name": "",
          "type": "uint32"
        }
      ],
      "stateMutability": "view",
      "type": "function"
    },
    {
      "inputs": [
        {
          "internalType": "uint32",
          "name": "_idNFT",
          "type": "uint32"
        }
      ],
      "name": "getOwnerOfNFT",
      "outputs": [
        {
          "internalType": "address",
          "name": "",
          "type": "address"
        }
      ],
      "stateMutability": "view",
      "type": "function"
    },
    {
      "inputs": [
        {
          "internalType": "uint32",
          "name": "_tokenId",
          "type": "uint32"
        }
      ],
      "name": "getURI",
      "outputs": [
        {
          "internalType": "string",
          "name": "",
          "type": "string"
        }
      ],
      "stateMutability": "view",
      "type": "function"
    },
    {
      "inputs": [
        {
          "internalType": "uint32",
          "name": "",
          "type": "uint32"
        }
      ],
      "name": "idNFTToCropInfo",
      "outputs": [
        {
          "internalType": "contract CropInfo",
          "name": "",
          "type": "address"
        }
      ],
      "stateMutability": "view",
      "type": "function"
    },
    {
      "inputs": [
        {
          "internalType": "address",
          "name": "owner",
          "type": "address"
        },
        {
          "internalType": "address",
          "name": "operator",
          "type": "address"
        }
      ],
      "name": "isApprovedForAll",
      "outputs": [
        {
          "internalType": "bool",
          "name": "",
          "type": "bool"
        }
      ],
      "stateMutability": "view",
      "type": "function"
    },
    {
      "inputs": [
        {
          "internalType": "uint32",
          "name": "_tokenId",
          "type": "uint32"
        }
      ],
      "name": "isNFT",
      "outputs": [
        {
          "internalType": "bool",
          "name": "",
          "type": "bool"
        }
      ],
      "stateMutability": "view",
      "type": "function"
    },
    {
      "inputs": [],
      "name": "name",
      "outputs": [
        {
          "internalType": "string",
          "name": "",
          "type": "string"
        }
      ],
      "stateMutability": "view",
      "type": "function"
    },
    {
      "inputs": [],
      "name": "owner",
      "outputs": [
        {
          "internalType": "address",
          "name": "",
          "type": "address"
        }
      ],
      "stateMutability": "view",
      "type": "function"
    },
    {
      "inputs": [
        {
          "internalType": "uint256",
          "name": "tokenId",
          "type": "uint256"
        }
      ],
      "name": "ownerOf",
      "outputs": [
        {
          "internalType": "address",
          "name": "",
          "type": "address"
        }
      ],
      "stateMutability": "view",
      "type": "function"
    },
    {
      "inputs": [
        {
          "internalType": "address",
          "name": "from",
          "type": "address"
        },
        {
          "internalType": "address",
          "name": "to",
          "type": "address"
        },
        {
          "internalType": "uint256",
          "name": "tokenId",
          "type": "uint256"
        }
      ],
      "name": "safeTransferFrom",
      "outputs": [],
      "stateMutability": "nonpayable",
      "type": "function"
    },
    {
      "inputs": [
        {
          "internalType": "address",
          "name": "from",
          "type": "address"
        },
        {
          "internalType": "address",
          "name": "to",
          "type": "address"
        },
        {
          "internalType": "uint256",
          "name": "tokenId",
          "type": "uint256"
        },
        {
          "internalType": "bytes",
          "name": "data",
          "type": "bytes"
        }
      ],
      "name": "safeTransferFrom",
      "outputs": [],
      "stateMutability": "nonpayable",
      "type": "function"
    },
    {
      "inputs": [
        {
          "internalType": "address",
          "name": "operator",
          "type": "address"
        },
        {
          "internalType": "bool",
          "name": "approved",
          "type": "bool"
        }
      ],
      "name": "setApprovalForAll",
      "outputs": [],
      "stateMutability": "nonpayable",
      "type": "function"
    },
    {
      "inputs": [
        {
          "internalType": "bytes4",
          "name": "interfaceId",
          "type": "bytes4"
        }
      ],
      "name": "supportsInterface",
      "outputs": [
        {
          "internalType": "bool",
          "name": "",
          "type": "bool"
        }
      ],
      "stateMutability": "view",
      "type": "function"
    },
    {
      "inputs": [],
      "name": "symbol",
      "outputs": [
        {
          "internalType": "string",
          "name": "",
          "type": "string"
        }
      ],
      "stateMutability": "view",
      "type": "function"
    },
    {
      "inputs": [
        {
          "internalType": "uint256",
          "name": "tokenId",
          "type": "uint256"
        }
      ],
      "name": "tokenURI",
      "outputs": [
        {
          "internalType": "string",
          "name": "",
          "type": "string"
        }
      ],
      "stateMutability": "view",
      "type": "function"
    },
    {
      "inputs": [
        {
          "internalType": "address",
          "name": "from",
          "type": "address"
        },
        {
          "internalType": "address",
          "name": "to",
          "type": "address"
        },
        {
          "internalType": "uint256",
          "name": "tokenId",
          "type": "uint256"
        }
      ],
      "name": "transferFrom",
      "outputs": [],
      "stateMutability": "nonpayable",
      "type": "function"
    }
  ],
  "bytecode": "0x60806040523480156200001157600080fd5b506040516200401c3803806200401c8339818101604052810190620000379190620001bc565b6040518060400160405280600881526020017f43524f50204e46540000000000000000000000000000000000000000000000008152506040518060400160405280600781526020017f43524f504e4654000000000000000000000000000000000000000000000000008152508160009081620000b4919062000468565b508060019081620000c6919062000468565b50505033600860006101000a81548173ffffffffffffffffffffffffffffffffffffffff021916908373ffffffffffffffffffffffffffffffffffffffff16021790555080600960006101000a81548173ffffffffffffffffffffffffffffffffffffffff021916908373ffffffffffffffffffffffffffffffffffffffff160217905550506200054f565b600080fd5b600073ffffffffffffffffffffffffffffffffffffffff82169050919050565b6000620001848262000157565b9050919050565b620001968162000177565b8114620001a257600080fd5b50565b600081519050620001b6816200018b565b92915050565b600060208284031215620001d557620001d462000152565b5b6000620001e584828501620001a5565b91505092915050565b600081519050919050565b7f4e487b7100000000000000000000000000000000000000000000000000000000600052604160045260246000fd5b7f4e487b7100000000000000000000000000000000000000000000000000000000600052602260045260246000fd5b600060028204905060018216806200027057607f821691505b60208210810362000286576200028562000228565b5b50919050565b60008190508160005260206000209050919050565b60006020601f8301049050919050565b600082821b905092915050565b600060088302620002f07fffffffffffffffffffffffffffffffffffffffffffffffffffffffffffffffff82620002b1565b620002fc8683620002b1565b95508019841693508086168417925050509392505050565b6000819050919050565b6000819050919050565b600062000349620003436200033d8462000314565b6200031e565b62000314565b9050919050565b6000819050919050565b620003658362000328565b6200037d620003748262000350565b848454620002be565b825550505050565b600090565b6200039462000385565b620003a18184846200035a565b505050565b5b81811015620003c957620003bd6000826200038a565b600181019050620003a7565b5050565b601f8211156200041857620003e2816200028c565b620003ed84620002a1565b81016020851015620003fd578190505b620004156200040c85620002a1565b830182620003a6565b50505b505050565b600082821c905092915050565b60006200043d600019846008026200041d565b1980831691505092915050565b60006200045883836200042a565b9150826002028217905092915050565b6200047382620001ee565b67ffffffffffffffff8111156200048f576200048e620001f9565b5b6200049b825462000257565b620004a8828285620003cd565b600060209050601f831160018114620004e05760008415620004cb578287015190505b620004d785826200044a565b86555062000547565b601f198416620004f0866200028c565b60005b828110156200051a57848901518255600182019150602085019450602081019050620004f3565b868310156200053a578489015162000536601f8916826200042a565b8355505b6001600288020188555050505b505050505050565b613abd806200055f6000396000f3fe608060405234801561001057600080fd5b50600436106101735760003560e01c80636352211e116100de57806395d89b4111610097578063c87b56dd11610071578063c87b56dd14610498578063e985e9c5146104c8578063effc99cd146104f8578063f35914e21461052857610173565b806395d89b4114610442578063a22cb46514610460578063b88d4fde1461047c57610173565b80636352211e14610346578063680220691461037657806370a08231146103a657806380060ad2146103d65780638da5cb5b146103f45780638f5130fa1461041257610173565b8063197ce71511610130578063197ce7151461027257806323b872dd146102a25780633660f426146102be5780633d8029aa146102dc57806342842e0e1461030c57806343bed68b1461032857610173565b806301ffc9a71461017857806306fdde03146101a8578063081812fc146101c6578063095ea7b3146101f65780630d7e1b2d146102125780631094132314610242575b600080fd5b610192600480360381019061018d9190612139565b610558565b60405161019f9190612181565b60405180910390f35b6101b06105b9565b6040516101bd919061222c565b60405180910390f35b6101e060048036038101906101db9190612284565b61064b565b6040516101ed91906122f2565b60405180910390f35b610210600480360381019061020b9190612339565b610691565b005b61022c600480360381019061022791906123b5565b6107a8565b6040516102399190612441565b60405180910390f35b61025c600480360381019061025791906123b5565b6107db565b604051610269919061222c565b60405180910390f35b61028c600480360381019061028791906123b5565b61083d565b6040516102999190612181565b60405180910390f35b6102bc60048036038101906102b7919061245c565b6108c0565b005b6102c6610920565b6040516102d39190612441565b60405180910390f35b6102f660048036038101906102f191906123b5565b610946565b60405161030391906122f2565b60405180910390f35b6103266004803603810190610321919061245c565b6109a7565b005b6103306109c7565b60405161033d919061256d565b60405180910390f35b610360600480360381019061035b9190612284565b610a4b565b60405161036d91906122f2565b60405180910390f35b610390600480360381019061038b91906123b5565b610ad1565b60405161039d919061259e565b60405180910390f35b6103c060048036038101906103bb91906125b9565b610af4565b6040516103cd91906125f5565b60405180910390f35b6103de610bab565b6040516103eb919061259e565b60405180910390f35b6103fc610bb8565b60405161040991906122f2565b60405180910390f35b61042c60048036038101906104279190612745565b610bde565b604051610439919061259e565b60405180910390f35b61044a610d48565b604051610457919061222c565b60405180910390f35b61047a600480360381019061047591906127cd565b610dda565b005b610496600480360381019061049191906128ae565b610df0565b005b6104b260048036038101906104ad9190612284565b610e52565b6040516104bf919061222c565b60405180910390f35b6104e260048036038101906104dd9190612931565b610f64565b6040516104ef9190612181565b60405180910390f35b610512600480360381019061050d9190612284565b610ff8565b60405161051f919061259e565b60405180910390f35b610542600480360381019061053d91906123b5565b611032565b60405161054f9190612b65565b60405180910390f35b6000634906490660e01b7bffffffffffffffffffffffffffffffffffffffffffffffffffffffff1916827bffffffffffffffffffffffffffffffffffffffffffffffffffffffff191614806105b257506105b18261112c565b5b9050919050565b6060600080546105c890612bb6565b80601f01602080910402602001604051908101604052809291908181526020018280546105f490612bb6565b80156106415780601f1061061657610100808354040283529160200191610641565b820191906000526020600020905b81548152906001019060200180831161062457829003601f168201915b5050505050905090565b60006106568261120e565b6004600083815260200190815260200160002060009054906101000a900473ffffffffffffffffffffffffffffffffffffffff169050919050565b600061069c82610a4b565b90508073ffffffffffffffffffffffffffffffffffffffff168373ffffffffffffffffffffffffffffffffffffffff160361070c576040517f08c379a000000000000000000000000000000000000000000000000000000000815260040161070390612c59565b60405180910390fd5b8073ffffffffffffffffffffffffffffffffffffffff1661072b611259565b73ffffffffffffffffffffffffffffffffffffffff16148061075a575061075981610754611259565b610f64565b5b610799576040517f08c379a000000000000000000000000000000000000000000000000000000000815260040161079090612ceb565b60405180910390fd5b6107a38383611261565b505050565b600b6020528060005260406000206000915054906101000a900473ffffffffffffffffffffffffffffffffffffffff1681565b606060008263ffffffff161015610827576040517f08c379a000000000000000000000000000000000000000000000000000000000815260040161081e90612d57565b60405180910390fd5b6108368263ffffffff16610e52565b9050919050565b600080600090505b600a805490508110156108b5578263ffffffff16600a828154811061086d5761086c612d77565b5b90600052602060002090600891828204019190066004029054906101000a900463ffffffff1663ffffffff16036108a85760019150506108bb565b8080600101915050610845565b50600090505b919050565b6108d16108cb611259565b8261131a565b610910576040517f08c379a000000000000000000000000000000000000000000000000000000000815260040161090790612e18565b60405180910390fd5b61091b8383836113af565b505050565b600960009054906101000a900473ffffffffffffffffffffffffffffffffffffffff1681565b6000808263ffffffff161015610991576040517f08c379a000000000000000000000000000000000000000000000000000000000815260040161098890612d57565b60405180910390fd5b6109a08263ffffffff16610a4b565b9050919050565b6109c283838360405180602001604052806000815250610df0565b505050565b6060600a805480602002602001604051908101604052809291908181526020018280548015610a4157602002820191906000526020600020906000905b82829054906101000a900463ffffffff1663ffffffff1681526020019060040190602082600301049283019260010382029150808411610a045790505b5050505050905090565b600080610a57836116a8565b9050600073ffffffffffffffffffffffffffffffffffffffff168173ffffffffffffffffffffffffffffffffffffffff1603610ac8576040517f08c379a0000000000000000000000000000000000000000000000000000000008152600401610abf90612e84565b60405180910390fd5b80915050919050565b600c6020528060005260406000206000915054906101000a900463ffffffff1681565b60008073ffffffffffffffffffffffffffffffffffffffff168273ffffffffffffffffffffffffffffffffffffffff1603610b64576040517f08c379a0000000000000000000000000000000000000000000000000000000008152600401610b5b90612f16565b60405180910390fd5b600360008373ffffffffffffffffffffffffffffffffffffffff1673ffffffffffffffffffffffffffffffffffffffff168152602001908152602001600020549050919050565b6000600a80549050905090565b600860009054906101000a900473ffffffffffffffffffffffffffffffffffffffff1681565b6000600960009054906101000a900473ffffffffffffffffffffffffffffffffffffffff1673ffffffffffffffffffffffffffffffffffffffff1663111479fb6040518163ffffffff1660e01b8152600401602060405180830381865afa158015610c4d573d6000803e3d6000fd5b505050506040513d601f19601f82011682018060405250810190610c719190612f4b565b63ffffffff168263ffffffff16108015610c92575060008263ffffffff1610155b610cd1576040517f08c379a0000000000000000000000000000000000000000000000000000000008152600401610cc890612fc4565b60405180910390fd5b610ce1338363ffffffff166116e5565b610cf18263ffffffff1684611902565b600a8290806001815401808255809150506001900390600052602060002090600891828204019190066004029091909190916101000a81548163ffffffff021916908363ffffffff16021790555081905092915050565b606060018054610d5790612bb6565b80601f0160208091040260200160405190810160405280929190818152602001828054610d8390612bb6565b8015610dd05780601f10610da557610100808354040283529160200191610dd0565b820191906000526020600020905b815481529060010190602001808311610db357829003601f168201915b5050505050905090565b610dec610de5611259565b83836119a6565b5050565b610e01610dfb611259565b8361131a565b610e40576040517f08c379a0000000000000000000000000000000000000000000000000000000008152600401610e3790612e18565b60405180910390fd5b610e4c84848484611b12565b50505050565b6060610e5d8261120e565b6000600660008481526020019081526020016000208054610e7d90612bb6565b80601f0160208091040260200160405190810160405280929190818152602001828054610ea990612bb6565b8015610ef65780601f10610ecb57610100808354040283529160200191610ef6565b820191906000526020600020905b815481529060010190602001808311610ed957829003601f168201915b505050505090506000610f07611b6e565b90506000815103610f1c578192505050610f5f565b600082511115610f51578082604051602001610f39929190613020565b60405160208183030381529060405292505050610f5f565b610f5a84611b85565b925050505b919050565b6000600560008473ffffffffffffffffffffffffffffffffffffffff1673ffffffffffffffffffffffffffffffffffffffff16815260200190815260200160002060008373ffffffffffffffffffffffffffffffffffffffff1673ffffffffffffffffffffffffffffffffffffffff16815260200190815260200160002060009054906101000a900460ff16905092915050565b600a818154811061100857600080fd5b9060005260206000209060089182820401919006600402915054906101000a900463ffffffff1681565b61103a61206f565b60008263ffffffff161015611084576040517f08c379a000000000000000000000000000000000000000000000000000000000815260040161107b90612d57565b60405180910390fd5b600960009054906101000a900473ffffffffffffffffffffffffffffffffffffffff1673ffffffffffffffffffffffffffffffffffffffff1663795174bb836040518263ffffffff1660e01b81526004016110df919061259e565b600060405180830381865afa1580156110fc573d6000803e3d6000fd5b505050506040513d6000823e3d601f19601f82011682018060405250810190611125919061332c565b9050919050565b60007f80ac58cd000000000000000000000000000000000000000000000000000000007bffffffffffffffffffffffffffffffffffffffffffffffffffffffff1916827bffffffffffffffffffffffffffffffffffffffffffffffffffffffff191614806111f757507f5b5e139f000000000000000000000000000000000000000000000000000000007bffffffffffffffffffffffffffffffffffffffffffffffffffffffff1916827bffffffffffffffffffffffffffffffffffffffffffffffffffffffff1916145b80611207575061120682611bed565b5b9050919050565b61121781611c57565b611256576040517f08c379a000000000000000000000000000000000000000000000000000000000815260040161124d90612e84565b60405180910390fd5b50565b600033905090565b816004600083815260200190815260200160002060006101000a81548173ffffffffffffffffffffffffffffffffffffffff021916908373ffffffffffffffffffffffffffffffffffffffff160217905550808273ffffffffffffffffffffffffffffffffffffffff166112d483610a4b565b73ffffffffffffffffffffffffffffffffffffffff167f8c5be1e5ebec7d5bd14f71427d1e84f3dd0314c0f7b2291e5b200ac8c7c3b92560405160405180910390a45050565b60008061132683610a4b565b90508073ffffffffffffffffffffffffffffffffffffffff168473ffffffffffffffffffffffffffffffffffffffff16148061136857506113678185610f64565b5b806113a657508373ffffffffffffffffffffffffffffffffffffffff1661138e8461064b565b73ffffffffffffffffffffffffffffffffffffffff16145b91505092915050565b8273ffffffffffffffffffffffffffffffffffffffff166113cf82610a4b565b73ffffffffffffffffffffffffffffffffffffffff1614611425576040517f08c379a000000000000000000000000000000000000000000000000000000000815260040161141c906133e7565b60405180910390fd5b600073ffffffffffffffffffffffffffffffffffffffff168273ffffffffffffffffffffffffffffffffffffffff1603611494576040517f08c379a000000000000000000000000000000000000000000000000000000000815260040161148b90613479565b60405180910390fd5b6114a18383836001611c98565b8273ffffffffffffffffffffffffffffffffffffffff166114c182610a4b565b73ffffffffffffffffffffffffffffffffffffffff1614611517576040517f08c379a000000000000000000000000000000000000000000000000000000000815260040161150e906133e7565b60405180910390fd5b6004600082815260200190815260200160002060006101000a81549073ffffffffffffffffffffffffffffffffffffffff02191690556001600360008573ffffffffffffffffffffffffffffffffffffffff1673ffffffffffffffffffffffffffffffffffffffff168152602001908152602001600020600082825403925050819055506001600360008473ffffffffffffffffffffffffffffffffffffffff1673ffffffffffffffffffffffffffffffffffffffff16815260200190815260200160002060008282540192505081905550816002600083815260200190815260200160002060006101000a81548173ffffffffffffffffffffffffffffffffffffffff021916908373ffffffffffffffffffffffffffffffffffffffff160217905550808273ffffffffffffffffffffffffffffffffffffffff168473ffffffffffffffffffffffffffffffffffffffff167fddf252ad1be2c89b69c2b068fc378daa952ba7f163c4a11628f55a4df523b3ef60405160405180910390a46116a38383836001611c9e565b505050565b60006002600083815260200190815260200160002060009054906101000a900473ffffffffffffffffffffffffffffffffffffffff169050919050565b600073ffffffffffffffffffffffffffffffffffffffff168273ffffffffffffffffffffffffffffffffffffffff1603611754576040517f08c379a000000000000000000000000000000000000000000000000000000000815260040161174b906134e5565b60405180910390fd5b61175d81611c57565b1561179d576040517f08c379a000000000000000000000000000000000000000000000000000000000815260040161179490613551565b60405180910390fd5b6117ab600083836001611c98565b6117b481611c57565b156117f4576040517f08c379a00000000000000000000000000000000000000000000000000000000081526004016117eb90613551565b60405180910390fd5b6001600360008473ffffffffffffffffffffffffffffffffffffffff1673ffffffffffffffffffffffffffffffffffffffff16815260200190815260200160002060008282540192505081905550816002600083815260200190815260200160002060006101000a81548173ffffffffffffffffffffffffffffffffffffffff021916908373ffffffffffffffffffffffffffffffffffffffff160217905550808273ffffffffffffffffffffffffffffffffffffffff16600073ffffffffffffffffffffffffffffffffffffffff167fddf252ad1be2c89b69c2b068fc378daa952ba7f163c4a11628f55a4df523b3ef60405160405180910390a46118fe600083836001611c9e565b5050565b61190b82611c57565b61194a576040517f08c379a0000000000000000000000000000000000000000000000000000000008152600401611941906135e3565b60405180910390fd5b8060066000848152602001908152602001600020908161196a91906137a5565b507ff8e1a15aba9398e019f0b49df1a4fde98ee17ae345cb5f6b5e2c27f5033e8ce78260405161199a91906125f5565b60405180910390a15050565b8173ffffffffffffffffffffffffffffffffffffffff168373ffffffffffffffffffffffffffffffffffffffff1603611a14576040517f08c379a0000000000000000000000000000000000000000000000000000000008152600401611a0b906138c3565b60405180910390fd5b80600560008573ffffffffffffffffffffffffffffffffffffffff1673ffffffffffffffffffffffffffffffffffffffff16815260200190815260200160002060008473ffffffffffffffffffffffffffffffffffffffff1673ffffffffffffffffffffffffffffffffffffffff16815260200190815260200160002060006101000a81548160ff0219169083151502179055508173ffffffffffffffffffffffffffffffffffffffff168373ffffffffffffffffffffffffffffffffffffffff167f17307eab39ab6107e8899845ad3d59bd9653f200f220920489ca2b5937696c3183604051611b059190612181565b60405180910390a3505050565b611b1d8484846113af565b611b2984848484611ca4565b611b68576040517f08c379a0000000000000000000000000000000000000000000000000000000008152600401611b5f90613955565b60405180910390fd5b50505050565b606060405180602001604052806000815250905090565b6060611b908261120e565b6000611b9a611b6e565b90506000815111611bba5760405180602001604052806000815250611be5565b80611bc484611e2b565b604051602001611bd5929190613020565b6040516020818303038152906040525b915050919050565b60007f01ffc9a7000000000000000000000000000000000000000000000000000000007bffffffffffffffffffffffffffffffffffffffffffffffffffffffff1916827bffffffffffffffffffffffffffffffffffffffffffffffffffffffff1916149050919050565b60008073ffffffffffffffffffffffffffffffffffffffff16611c79836116a8565b73ffffffffffffffffffffffffffffffffffffffff1614159050919050565b50505050565b50505050565b6000611cc58473ffffffffffffffffffffffffffffffffffffffff16611ef9565b15611e1e578373ffffffffffffffffffffffffffffffffffffffff1663150b7a02611cee611259565b8786866040518563ffffffff1660e01b8152600401611d1094939291906139ca565b6020604051808303816000875af1925050508015611d4c57506040513d601f19601f82011682018060405250810190611d499190613a2b565b60015b611dce573d8060008114611d7c576040519150601f19603f3d011682016040523d82523d6000602084013e611d81565b606091505b506000815103611dc6576040517f08c379a0000000000000000000000000000000000000000000000000000000008152600401611dbd90613955565b60405180910390fd5b805181602001fd5b63150b7a0260e01b7bffffffffffffffffffffffffffffffffffffffffffffffffffffffff1916817bffffffffffffffffffffffffffffffffffffffffffffffffffffffff191614915050611e23565b600190505b949350505050565b606060006001611e3a84611f1c565b01905060008167ffffffffffffffff811115611e5957611e5861261a565b5b6040519080825280601f01601f191660200182016040528015611e8b5781602001600182028036833780820191505090505b509050600082602001820190505b600115611eee578080600190039150507f3031323334353637383961626364656600000000000000000000000000000000600a86061a8153600a8581611ee257611ee1613a58565b5b04945060008503611e99575b819350505050919050565b6000808273ffffffffffffffffffffffffffffffffffffffff163b119050919050565b600080600090507a184f03e93ff9f4daa797ed6e38ed64bf6a1f0100000000000000008310611f7a577a184f03e93ff9f4daa797ed6e38ed64bf6a1f0100000000000000008381611f7057611f6f613a58565b5b0492506040810190505b6d04ee2d6d415b85acef81000000008310611fb7576d04ee2d6d415b85acef81000000008381611fad57611fac613a58565b5b0492506020810190505b662386f26fc100008310611fe657662386f26fc100008381611fdc57611fdb613a58565b5b0492506010810190505b6305f5e100831061200f576305f5e100838161200557612004613a58565b5b0492506008810190505b612710831061203457612710838161202a57612029613a58565b5b0492506004810190505b60648310612057576064838161204d5761204c613a58565b5b0492506002810190505b600a8310612066576001810190505b80915050919050565b604051806101200160405280600063ffffffff16815260200160608152602001600063ffffffff168152602001600063ffffffff16815260200160608152602001606081526020016060815260200160608152602001606081525090565b6000604051905090565b600080fd5b600080fd5b60007fffffffff0000000000000000000000000000000000000000000000000000000082169050919050565b612116816120e1565b811461212157600080fd5b50565b6000813590506121338161210d565b92915050565b60006020828403121561214f5761214e6120d7565b5b600061215d84828501612124565b91505092915050565b60008115159050919050565b61217b81612166565b82525050565b60006020820190506121966000830184612172565b92915050565b600081519050919050565b600082825260208201905092915050565b60005b838110156121d65780820151818401526020810190506121bb565b60008484015250505050565b6000601f19601f8301169050919050565b60006121fe8261219c565b61220881856121a7565b93506122188185602086016121b8565b612221816121e2565b840191505092915050565b6000602082019050818103600083015261224681846121f3565b905092915050565b6000819050919050565b6122618161224e565b811461226c57600080fd5b50565b60008135905061227e81612258565b92915050565b60006020828403121561229a576122996120d7565b5b60006122a88482850161226f565b91505092915050565b600073ffffffffffffffffffffffffffffffffffffffff82169050919050565b60006122dc826122b1565b9050919050565b6122ec816122d1565b82525050565b600060208201905061230760008301846122e3565b92915050565b612316816122d1565b811461232157600080fd5b50565b6000813590506123338161230d565b92915050565b600080604083850312156123505761234f6120d7565b5b600061235e85828601612324565b925050602061236f8582860161226f565b9150509250929050565b600063ffffffff82169050919050565b61239281612379565b811461239d57600080fd5b50565b6000813590506123af81612389565b92915050565b6000602082840312156123cb576123ca6120d7565b5b60006123d9848285016123a0565b91505092915050565b6000819050919050565b60006124076124026123fd846122b1565b6123e2565b6122b1565b9050919050565b6000612419826123ec565b9050919050565b600061242b8261240e565b9050919050565b61243b81612420565b82525050565b60006020820190506124566000830184612432565b92915050565b600080600060608486031215612475576124746120d7565b5b600061248386828701612324565b935050602061249486828701612324565b92505060406124a58682870161226f565b9150509250925092565b600081519050919050565b600082825260208201905092915050565b6000819050602082019050919050565b6124e481612379565b82525050565b60006124f683836124db565b60208301905092915050565b6000602082019050919050565b600061251a826124af565b61252481856124ba565b935061252f836124cb565b8060005b8381101561256057815161254788826124ea565b975061255283612502565b925050600181019050612533565b5085935050505092915050565b60006020820190508181036000830152612587818461250f565b905092915050565b61259881612379565b82525050565b60006020820190506125b3600083018461258f565b92915050565b6000602082840312156125cf576125ce6120d7565b5b60006125dd84828501612324565b91505092915050565b6125ef8161224e565b82525050565b600060208201905061260a60008301846125e6565b92915050565b600080fd5b600080fd5b7f4e487b7100000000000000000000000000000000000000000000000000000000600052604160045260246000fd5b612652826121e2565b810181811067ffffffffffffffff821117156126715761267061261a565b5b80604052505050565b60006126846120cd565b90506126908282612649565b919050565b600067ffffffffffffffff8211156126b0576126af61261a565b5b6126b9826121e2565b9050602081019050919050565b82818337600083830152505050565b60006126e86126e384612695565b61267a565b90508281526020810184848401111561270457612703612615565b5b61270f8482856126c6565b509392505050565b600082601f83011261272c5761272b612610565b5b813561273c8482602086016126d5565b91505092915050565b6000806040838503121561275c5761275b6120d7565b5b600083013567ffffffffffffffff81111561277a576127796120dc565b5b61278685828601612717565b9250506020612797858286016123a0565b9150509250929050565b6127aa81612166565b81146127b557600080fd5b50565b6000813590506127c7816127a1565b92915050565b600080604083850312156127e4576127e36120d7565b5b60006127f285828601612324565b9250506020612803858286016127b8565b9150509250929050565b600067ffffffffffffffff8211156128285761282761261a565b5b612831826121e2565b9050602081019050919050565b600061285161284c8461280d565b61267a565b90508281526020810184848401111561286d5761286c612615565b5b6128788482856126c6565b509392505050565b600082601f83011261289557612894612610565b5b81356128a584826020860161283e565b91505092915050565b600080600080608085870312156128c8576128c76120d7565b5b60006128d687828801612324565b94505060206128e787828801612324565b93505060406128f88782880161226f565b925050606085013567ffffffffffffffff811115612919576129186120dc565b5b61292587828801612880565b91505092959194509250565b60008060408385031215612948576129476120d7565b5b600061295685828601612324565b925050602061296785828601612324565b9150509250929050565b600082825260208201905092915050565b600061298d8261219c565b6129978185612971565b93506129a78185602086016121b8565b6129b0816121e2565b840191505092915050565b600081519050919050565b600082825260208201905092915050565b6000819050602082019050919050565b60006129f38383612982565b905092915050565b6000602082019050919050565b6000612a13826129bb565b612a1d81856129c6565b935083602082028501612a2f856129d7565b8060005b85811015612a6b5784840389528151612a4c85826129e7565b9450612a57836129fb565b925060208a01995050600181019050612a33565b50829750879550505050505092915050565b600061012083016000830151612a9660008601826124db565b5060208301518482036020860152612aae8282612982565b9150506040830151612ac360408601826124db565b506060830151612ad660608601826124db565b5060808301518482036080860152612aee8282612a08565b91505060a083015184820360a0860152612b088282612a08565b91505060c083015184820360c0860152612b228282612a08565b91505060e083015184820360e0860152612b3c8282612982565b915050610100830151848203610100860152612b588282612982565b9150508091505092915050565b60006020820190508181036000830152612b7f8184612a7d565b905092915050565b7f4e487b7100000000000000000000000000000000000000000000000000000000600052602260045260246000fd5b60006002820490506001821680612bce57607f821691505b602082108103612be157612be0612b87565b5b50919050565b7f4552433732313a20617070726f76616c20746f2063757272656e74206f776e6560008201527f7200000000000000000000000000000000000000000000000000000000000000602082015250565b6000612c436021836121a7565b9150612c4e82612be7565b604082019050919050565b60006020820190508181036000830152612c7281612c36565b9050919050565b7f4552433732313a20617070726f76652063616c6c6572206973206e6f7420746f60008201527f6b656e206f776e6572206f7220617070726f76656420666f7220616c6c000000602082015250565b6000612cd5603d836121a7565b9150612ce082612c79565b604082019050919050565b60006020820190508181036000830152612d0481612cc8565b9050919050565b7f4e465420646f6573206e6f742065786973740000000000000000000000000000600082015250565b6000612d416012836121a7565b9150612d4c82612d0b565b602082019050919050565b60006020820190508181036000830152612d7081612d34565b9050919050565b7f4e487b7100000000000000000000000000000000000000000000000000000000600052603260045260246000fd5b7f4552433732313a2063616c6c6572206973206e6f7420746f6b656e206f776e6560008201527f72206f7220617070726f76656400000000000000000000000000000000000000602082015250565b6000612e02602d836121a7565b9150612e0d82612da6565b604082019050919050565b60006020820190508181036000830152612e3181612df5565b9050919050565b7f4552433732313a20696e76616c696420746f6b656e2049440000000000000000600082015250565b6000612e6e6018836121a7565b9150612e7982612e38565b602082019050919050565b60006020820190508181036000830152612e9d81612e61565b9050919050565b7f4552433732313a2061646472657373207a65726f206973206e6f74206120766160008201527f6c6964206f776e65720000000000000000000000000000000000000000000000602082015250565b6000612f006029836121a7565b9150612f0b82612ea4565b604082019050919050565b60006020820190508181036000830152612f2f81612ef3565b9050919050565b600081519050612f4581612389565b92915050565b600060208284031215612f6157612f606120d7565b5b6000612f6f84828501612f36565b91505092915050565b7f4e6f20696e666f726d6174696f6e206f662043726f7020666f72204e46540000600082015250565b6000612fae601e836121a7565b9150612fb982612f78565b602082019050919050565b60006020820190508181036000830152612fdd81612fa1565b9050919050565b600081905092915050565b6000612ffa8261219c565b6130048185612fe4565b93506130148185602086016121b8565b80840191505092915050565b600061302c8285612fef565b91506130388284612fef565b91508190509392505050565b600080fd5b600080fd5b600061306161305c84612695565b61267a565b90508281526020810184848401111561307d5761307c612615565b5b6130888482856121b8565b509392505050565b600082601f8301126130a5576130a4612610565b5b81516130b584826020860161304e565b91505092915050565b600067ffffffffffffffff8211156130d9576130d861261a565b5b602082029050602081019050919050565b600080fd5b60006131026130fd846130be565b61267a565b90508083825260208201905060208402830185811115613125576131246130ea565b5b835b8181101561316c57805167ffffffffffffffff81111561314a57613149612610565b5b8086016131578982613090565b85526020850194505050602081019050613127565b5050509392505050565b600082601f83011261318b5761318a612610565b5b815161319b8482602086016130ef565b91505092915050565b600061012082840312156131bb576131ba613044565b5b6131c661012061267a565b905060006131d684828501612f36565b600083015250602082015167ffffffffffffffff8111156131fa576131f9613049565b5b61320684828501613090565b602083015250604061321a84828501612f36565b604083015250606061322e84828501612f36565b606083015250608082015167ffffffffffffffff81111561325257613251613049565b5b61325e84828501613176565b60808301525060a082015167ffffffffffffffff81111561328257613281613049565b5b61328e84828501613176565b60a08301525060c082015167ffffffffffffffff8111156132b2576132b1613049565b5b6132be84828501613176565b60c08301525060e082015167ffffffffffffffff8111156132e2576132e1613049565b5b6132ee84828501613090565b60e08301525061010082015167ffffffffffffffff81111561331357613312613049565b5b61331f84828501613090565b6101008301525092915050565b600060208284031215613342576133416120d7565b5b600082015167ffffffffffffffff8111156133605761335f6120dc565b5b61336c848285016131a4565b91505092915050565b7f4552433732313a207472616e736665722066726f6d20696e636f72726563742060008201527f6f776e6572000000000000000000000000000000000000000000000000000000602082015250565b60006133d16025836121a7565b91506133dc82613375565b604082019050919050565b60006020820190508181036000830152613400816133c4565b9050919050565b7f4552433732313a207472616e7366657220746f20746865207a65726f2061646460008201527f7265737300000000000000000000000000000000000000000000000000000000602082015250565b60006134636024836121a7565b915061346e82613407565b604082019050919050565b6000602082019050818103600083015261349281613456565b9050919050565b7f4552433732313a206d696e7420746f20746865207a65726f2061646472657373600082015250565b60006134cf6020836121a7565b91506134da82613499565b602082019050919050565b600060208201905081810360008301526134fe816134c2565b9050919050565b7f4552433732313a20746f6b656e20616c7265616479206d696e74656400000000600082015250565b600061353b601c836121a7565b915061354682613505565b602082019050919050565b6000602082019050818103600083015261356a8161352e565b9050919050565b7f45524337323155524953746f726167653a2055524920736574206f66206e6f6e60008201527f6578697374656e7420746f6b656e000000000000000000000000000000000000602082015250565b60006135cd602e836121a7565b91506135d882613571565b604082019050919050565b600060208201905081810360008301526135fc816135c0565b9050919050565b60008190508160005260206000209050919050565b60006020601f8301049050919050565b600082821b905092915050565b6000600883026136657fffffffffffffffffffffffffffffffffffffffffffffffffffffffffffffffff82613628565b61366f8683613628565b95508019841693508086168417925050509392505050565b60006136a261369d6136988461224e565b6123e2565b61224e565b9050919050565b6000819050919050565b6136bc83613687565b6136d06136c8826136a9565b848454613635565b825550505050565b600090565b6136e56136d8565b6136f08184846136b3565b505050565b5b81811015613714576137096000826136dd565b6001810190506136f6565b5050565b601f8211156137595761372a81613603565b61373384613618565b81016020851015613742578190505b61375661374e85613618565b8301826136f5565b50505b505050565b600082821c905092915050565b600061377c6000198460080261375e565b1980831691505092915050565b6000613795838361376b565b9150826002028217905092915050565b6137ae8261219c565b67ffffffffffffffff8111156137c7576137c661261a565b5b6137d18254612bb6565b6137dc828285613718565b600060209050601f83116001811461380f57600084156137fd578287015190505b6138078582613789565b86555061386f565b601f19841661381d86613603565b60005b8281101561384557848901518255600182019150602085019450602081019050613820565b86831015613862578489015161385e601f89168261376b565b8355505b6001600288020188555050505b505050505050565b7f4552433732313a20617070726f766520746f2063616c6c657200000000000000600082015250565b60006138ad6019836121a7565b91506138b882613877565b602082019050919050565b600060208201905081810360008301526138dc816138a0565b9050919050565b7f4552433732313a207472616e7366657220746f206e6f6e20455243373231526560008201527f63656976657220696d706c656d656e7465720000000000000000000000000000602082015250565b600061393f6032836121a7565b915061394a826138e3565b604082019050919050565b6000602082019050818103600083015261396e81613932565b9050919050565b600081519050919050565b600082825260208201905092915050565b600061399c82613975565b6139a68185613980565b93506139b68185602086016121b8565b6139bf816121e2565b840191505092915050565b60006080820190506139df60008301876122e3565b6139ec60208301866122e3565b6139f960408301856125e6565b8181036060830152613a0b8184613991565b905095945050505050565b600081519050613a258161210d565b92915050565b600060208284031215613a4157613a406120d7565b5b6000613a4f84828501613a16565b91505092915050565b7f4e487b7100000000000000000000000000000000000000000000000000000000600052601260045260246000fdfea26469706673582212207052039fd47e34aa6adae65a64df70e12752123117bdf814afeba7947d9cb61a64736f6c63430008180033",
  "linkReferences": {},
  "deployedLinkReferences": {}
}