{
  "_format": "hh-sol-artifact-1",
  "contractName": "Crop_MarketPlace",
  "sourceName": "contracts/CropMarketPlace.sol",
  "abi": [
    {
      "inputs": [
        {
          "internalType": "address",
          "name": "_NFTAddress",
          "type": "address"
        },
        {
          "internalType": "address",
          "name": "_tokenAddress",
          "type": "address"
        }
      ],
      "stateMutability": "nonpayable",
      "type": "constructor"
    },
    {
      "anonymous": false,
      "inputs": [
        {
          "indexed": true,
          "internalType": "address",
          "name": "_from",
          "type": "address"
        },
        {
          "indexed": false,
          "internalType": "uint32",
          "name": "_tokenId",
          "type": "uint32"
        },
        {
          "indexed": false,
          "internalType": "uint32",
          "name": "_price",
          "type": "uint32"
        }
      ],
      "name": "BuyNFT",
      "type": "event"
    },
    {
      "anonymous": false,
      "inputs": [
        {
          "indexed": true,
          "internalType": "address",
          "name": "_from",
          "type": "address"
        },
        {
          "indexed": false,
          "internalType": "uint32",
          "name": "_tokenId",
          "type": "uint32"
        },
        {
          "indexed": false,
          "internalType": "uint32",
          "name": "_price",
          "type": "uint32"
        }
      ],
      "name": "ListNFT",
      "type": "event"
    },
    {
      "anonymous": false,
      "inputs": [
        {
          "indexed": true,
          "internalType": "uint32",
          "name": "tokenId",
          "type": "uint32"
        },
        {
          "indexed": false,
          "internalType": "address",
          "name": "owner",
          "type": "address"
        },
        {
          "indexed": false,
          "internalType": "address",
          "name": "seller",
          "type": "address"
        },
        {
          "indexed": false,
          "internalType": "uint32",
          "name": "price",
          "type": "uint32"
        },
        {
          "indexed": false,
          "internalType": "bool",
          "name": "currentlyListed",
          "type": "bool"
        }
      ],
      "name": "TokenListedSuccess",
      "type": "event"
    },
    {
      "anonymous": false,
      "inputs": [
        {
          "indexed": true,
          "internalType": "address",
          "name": "_from",
          "type": "address"
        },
        {
          "indexed": false,
          "internalType": "uint32",
          "name": "_tokenId",
          "type": "uint32"
        }
      ],
      "name": "UnlistNFT",
      "type": "event"
    },
    {
      "anonymous": false,
      "inputs": [
        {
          "indexed": false,
          "internalType": "uint32",
          "name": "_tokenId",
          "type": "uint32"
        },
        {
          "indexed": false,
          "internalType": "uint32",
          "name": "_price",
          "type": "uint32"
        }
      ],
      "name": "UpdateListingNFTPrice",
      "type": "event"
    },
    {
      "inputs": [
        {
          "internalType": "uint32",
          "name": "_tokenId",
          "type": "uint32"
        }
      ],
      "name": "buyNft",
      "outputs": [],
      "stateMutability": "payable",
      "type": "function"
    },
    {
      "inputs": [],
      "name": "cropNFT",
      "outputs": [
        {
          "internalType": "contract CropNFT",
          "name": "",
          "type": "address"
        }
      ],
      "stateMutability": "view",
      "type": "function"
    },
    {
      "inputs": [],
      "name": "floppyToken",
      "outputs": [
        {
          "internalType": "contract Floppy",
          "name": "",
          "type": "address"
        }
      ],
      "stateMutability": "view",
      "type": "function"
    },
    {
      "inputs": [],
      "name": "getAllListedNFTInfo",
      "outputs": [
        {
          "components": [
            {
              "internalType": "uint32",
              "name": "tokenId",
              "type": "uint32"
            },
            {
              "internalType": "address payable",
              "name": "owner",
              "type": "address"
            },
            {
              "internalType": "address payable",
              "name": "seller",
              "type": "address"
            },
            {
              "internalType": "uint32",
              "name": "price",
              "type": "uint32"
            },
            {
              "internalType": "bool",
              "name": "currentlyListed",
              "type": "bool"
            },
            {
              "components": [
                {
                  "internalType": "uint32",
                  "name": "cropId",
                  "type": "uint32"
                },
                {
                  "internalType": "string",
                  "name": "cropType",
                  "type": "string"
                },
                {
                  "internalType": "uint32",
                  "name": "plantingDate",
                  "type": "uint32"
                },
                {
                  "internalType": "uint32",
                  "name": "monthsToHavest",
                  "type": "uint32"
                },
                {
                  "internalType": "string[]",
                  "name": "fertilizers",
                  "type": "string[]"
                },
                {
                  "internalType": "string[]",
                  "name": "pesticides",
                  "type": "string[]"
                },
                {
                  "internalType": "string[]",
                  "name": "diseases",
                  "type": "string[]"
                },
                {
                  "internalType": "string",
                  "name": "additionalInfo",
                  "type": "string"
                },
                {
                  "internalType": "string",
                  "name": "harvestDate",
                  "type": "string"
                }
              ],
              "internalType": "struct CropInfo.Crop",
              "name": "crop",
              "type": "tuple"
            },
            {
              "internalType": "string",
              "name": "uri",
              "type": "string"
            }
          ],
          "internalType": "struct Crop_MarketPlace.ListedTokenInfo[]",
          "name": "",
          "type": "tuple[]"
        }
      ],
      "stateMutability": "view",
      "type": "function"
    },
    {
      "inputs": [],
      "name": "getAllListedNFTs",
      "outputs": [
        {
          "components": [
            {
              "internalType": "uint32",
              "name": "tokenId",
              "type": "uint32"
            },
            {
              "internalType": "address payable",
              "name": "owner",
              "type": "address"
            },
            {
              "internalType": "address payable",
              "name": "seller",
              "type": "address"
            },
            {
              "internalType": "uint32",
              "name": "price",
              "type": "uint32"
            },
            {
              "internalType": "bool",
              "name": "currentlyListed",
              "type": "bool"
            }
          ],
          "internalType": "struct Crop_MarketPlace.ListedToken[]",
          "name": "",
          "type": "tuple[]"
        }
      ],
      "stateMutability": "view",
      "type": "function"
    },
    {
      "inputs": [],
      "name": "getAllTransactions",
      "outputs": [
        {
          "components": [
            {
              "internalType": "address",
              "name": "sender",
              "type": "address"
            },
            {
              "internalType": "address",
              "name": "receiver",
              "type": "address"
            },
            {
              "internalType": "uint256",
              "name": "amount",
              "type": "uint256"
            },
            {
              "internalType": "string",
              "name": "message",
              "type": "string"
            },
            {
              "internalType": "uint256",
              "name": "timestamp",
              "type": "uint256"
            }
          ],
          "internalType": "struct Transactions.TransferStruct[]",
          "name": "",
          "type": "tuple[]"
        }
      ],
      "stateMutability": "view",
      "type": "function"
    },
    {
      "inputs": [],
      "name": "getHighestPrice",
      "outputs": [
        {
          "internalType": "uint32",
          "name": "",
          "type": "uint32"
        }
      ],
      "stateMutability": "view",
      "type": "function"
    },
    {
      "inputs": [
        {
          "internalType": "uint32",
          "name": "_tokenId",
          "type": "uint32"
        }
      ],
      "name": "getListedNFTForId",
      "outputs": [
        {
          "components": [
            {
              "internalType": "uint32",
              "name": "tokenId",
              "type": "uint32"
            },
            {
              "internalType": "address payable",
              "name": "owner",
              "type": "address"
            },
            {
              "internalType": "address payable",
              "name": "seller",
              "type": "address"
            },
            {
              "internalType": "uint32",
              "name": "price",
              "type": "uint32"
            },
            {
              "internalType": "bool",
              "name": "currentlyListed",
              "type": "bool"
            },
            {
              "components": [
                {
                  "internalType": "uint32",
                  "name": "cropId",
                  "type": "uint32"
                },
                {
                  "internalType": "string",
                  "name": "cropType",
                  "type": "string"
                },
                {
                  "internalType": "uint32",
                  "name": "plantingDate",
                  "type": "uint32"
                },
                {
                  "internalType": "uint32",
                  "name": "monthsToHavest",
                  "type": "uint32"
                },
                {
                  "internalType": "string[]",
                  "name": "fertilizers",
                  "type": "string[]"
                },
                {
                  "internalType": "string[]",
                  "name": "pesticides",
                  "type": "string[]"
                },
                {
                  "internalType": "string[]",
                  "name": "diseases",
                  "type": "string[]"
                },
                {
                  "internalType": "string",
                  "name": "additionalInfo",
                  "type": "string"
                },
                {
                  "internalType": "string",
                  "name": "harvestDate",
                  "type": "string"
                }
              ],
              "internalType": "struct CropInfo.Crop",
              "name": "crop",
              "type": "tuple"
            },
            {
              "internalType": "string",
              "name": "uri",
              "type": "string"
            }
          ],
          "internalType": "struct Crop_MarketPlace.ListedTokenInfo",
          "name": "",
          "type": "tuple"
        }
      ],
      "stateMutability": "view",
      "type": "function"
    },
    {
      "inputs": [
        {
          "internalType": "uint32",
          "name": "_tokenId",
          "type": "uint32"
        }
      ],
      "name": "getListedTokenForId",
      "outputs": [
        {
          "components": [
            {
              "internalType": "uint32",
              "name": "tokenId",
              "type": "uint32"
            },
            {
              "internalType": "address payable",
              "name": "owner",
              "type": "address"
            },
            {
              "internalType": "address payable",
              "name": "seller",
              "type": "address"
            },
            {
              "internalType": "uint32",
              "name": "price",
              "type": "uint32"
            },
            {
              "internalType": "bool",
              "name": "currentlyListed",
              "type": "bool"
            }
          ],
          "internalType": "struct Crop_MarketPlace.ListedToken",
          "name": "",
          "type": "tuple"
        }
      ],
      "stateMutability": "view",
      "type": "function"
    },
    {
      "inputs": [],
      "name": "getLowestPrice",
      "outputs": [
        {
          "internalType": "uint32",
          "name": "",
          "type": "uint32"
        }
      ],
      "stateMutability": "view",
      "type": "function"
    },
    {
      "inputs": [],
      "name": "getMyListedNFTInfo",
      "outputs": [
        {
          "components": [
            {
              "internalType": "uint32",
              "name": "tokenId",
              "type": "uint32"
            },
            {
              "internalType": "address payable",
              "name": "owner",
              "type": "address"
            },
            {
              "internalType": "address payable",
              "name": "seller",
              "type": "address"
            },
            {
              "internalType": "uint32",
              "name": "price",
              "type": "uint32"
            },
            {
              "internalType": "bool",
              "name": "currentlyListed",
              "type": "bool"
            },
            {
              "components": [
                {
                  "internalType": "uint32",
                  "name": "cropId",
                  "type": "uint32"
                },
                {
                  "internalType": "string",
                  "name": "cropType",
                  "type": "string"
                },
                {
                  "internalType": "uint32",
                  "name": "plantingDate",
                  "type": "uint32"
                },
                {
                  "internalType": "uint32",
                  "name": "monthsToHavest",
                  "type": "uint32"
                },
                {
                  "internalType": "string[]",
                  "name": "fertilizers",
                  "type": "string[]"
                },
                {
                  "internalType": "string[]",
                  "name": "pesticides",
                  "type": "string[]"
                },
                {
                  "internalType": "string[]",
                  "name": "diseases",
                  "type": "string[]"
                },
                {
                  "internalType": "string",
                  "name": "additionalInfo",
                  "type": "string"
                },
                {
                  "internalType": "string",
                  "name": "harvestDate",
                  "type": "string"
                }
              ],
              "internalType": "struct CropInfo.Crop",
              "name": "crop",
              "type": "tuple"
            },
            {
              "internalType": "string",
              "name": "uri",
              "type": "string"
            }
          ],
          "internalType": "struct Crop_MarketPlace.ListedTokenInfo[]",
          "name": "",
          "type": "tuple[]"
        }
      ],
      "stateMutability": "view",
      "type": "function"
    },
    {
      "inputs": [],
      "name": "getMyNFTsCount",
      "outputs": [
        {
          "internalType": "uint32",
          "name": "",
          "type": "uint32"
        }
      ],
      "stateMutability": "view",
      "type": "function"
    },
    {
      "inputs": [],
      "name": "getMyUnlistedNFTInfo",
      "outputs": [
        {
          "components": [
            {
              "internalType": "uint32",
              "name": "tokenId",
              "type": "uint32"
            },
            {
              "internalType": "address payable",
              "name": "owner",
              "type": "address"
            },
            {
              "internalType": "address payable",
              "name": "seller",
              "type": "address"
            },
            {
              "internalType": "uint32",
              "name": "price",
              "type": "uint32"
            },
            {
              "internalType": "bool",
              "name": "currentlyListed",
              "type": "bool"
            },
            {
              "components": [
                {
                  "internalType": "uint32",
                  "name": "cropId",
                  "type": "uint32"
                },
                {
                  "internalType": "string",
                  "name": "cropType",
                  "type": "string"
                },
                {
                  "internalType": "uint32",
                  "name": "plantingDate",
                  "type": "uint32"
                },
                {
                  "internalType": "uint32",
                  "name": "monthsToHavest",
                  "type": "uint32"
                },
                {
                  "internalType": "string[]",
                  "name": "fertilizers",
                  "type": "string[]"
                },
                {
                  "internalType": "string[]",
                  "name": "pesticides",
                  "type": "string[]"
                },
                {
                  "internalType": "string[]",
                  "name": "diseases",
                  "type": "string[]"
                },
                {
                  "internalType": "string",
                  "name": "additionalInfo",
                  "type": "string"
                },
                {
                  "internalType": "string",
                  "name": "harvestDate",
                  "type": "string"
                }
              ],
              "internalType": "struct CropInfo.Crop",
              "name": "crop",
              "type": "tuple"
            },
            {
              "internalType": "string",
              "name": "uri",
              "type": "string"
            }
          ],
          "internalType": "struct Crop_MarketPlace.ListedTokenInfo[]",
          "name": "",
          "type": "tuple[]"
        }
      ],
      "stateMutability": "view",
      "type": "function"
    },
    {
      "inputs": [],
      "name": "getNFTsCount",
      "outputs": [
        {
          "internalType": "uint32",
          "name": "",
          "type": "uint32"
        }
      ],
      "stateMutability": "view",
      "type": "function"
    },
    {
      "inputs": [],
      "name": "getNumberOfTransactions",
      "outputs": [
        {
          "internalType": "uint256",
          "name": "",
          "type": "uint256"
        }
      ],
      "stateMutability": "view",
      "type": "function"
    },
    {
      "inputs": [
        {
          "internalType": "address",
          "name": "user",
          "type": "address"
        }
      ],
      "name": "getTransactionsOfUser",
      "outputs": [
        {
          "components": [
            {
              "internalType": "address",
              "name": "sender",
              "type": "address"
            },
            {
              "internalType": "address",
              "name": "receiver",
              "type": "address"
            },
            {
              "internalType": "uint256",
              "name": "amount",
              "type": "uint256"
            },
            {
              "internalType": "string",
              "name": "message",
              "type": "string"
            },
            {
              "internalType": "uint256",
              "name": "timestamp",
              "type": "uint256"
            }
          ],
          "internalType": "struct Transactions.TransferStruct[]",
          "name": "",
          "type": "tuple[]"
        }
      ],
      "stateMutability": "view",
      "type": "function"
    },
    {
      "inputs": [
        {
          "internalType": "uint32",
          "name": "",
          "type": "uint32"
        }
      ],
      "name": "idToListedToken",
      "outputs": [
        {
          "internalType": "uint32",
          "name": "tokenId",
          "type": "uint32"
        },
        {
          "internalType": "address payable",
          "name": "owner",
          "type": "address"
        },
        {
          "internalType": "address payable",
          "name": "seller",
          "type": "address"
        },
        {
          "internalType": "uint32",
          "name": "price",
          "type": "uint32"
        },
        {
          "internalType": "bool",
          "name": "currentlyListed",
          "type": "bool"
        }
      ],
      "stateMutability": "view",
      "type": "function"
    },
    {
      "inputs": [
        {
          "internalType": "uint32",
          "name": "_tokenId",
          "type": "uint32"
        }
      ],
      "name": "isListed",
      "outputs": [
        {
          "internalType": "bool",
          "name": "",
          "type": "bool"
        }
      ],
      "stateMutability": "view",
      "type": "function"
    },
    {
      "inputs": [
        {
          "internalType": "uint32",
          "name": "_tokenId",
          "type": "uint32"
        },
        {
          "internalType": "uint32",
          "name": "_price",
          "type": "uint32"
        }
      ],
      "name": "listNFT",
      "outputs": [],
      "stateMutability": "nonpayable",
      "type": "function"
    },
    {
      "inputs": [],
      "name": "onsaleQuantity",
      "outputs": [
        {
          "internalType": "uint32",
          "name": "",
          "type": "uint32"
        }
      ],
      "stateMutability": "view",
      "type": "function"
    },
    {
      "inputs": [],
      "name": "transaction",
      "outputs": [
        {
          "internalType": "contract Transactions",
          "name": "",
          "type": "address"
        }
      ],
      "stateMutability": "view",
      "type": "function"
    },
    {
      "inputs": [
        {
          "internalType": "address",
          "name": "_to",
          "type": "address"
        },
        {
          "internalType": "uint32",
          "name": "_tokenId",
          "type": "uint32"
        }
      ],
      "name": "transctionNft",
      "outputs": [],
      "stateMutability": "nonpayable",
      "type": "function"
    },
    {
      "inputs": [
        {
          "internalType": "uint32",
          "name": "_tokenId",
          "type": "uint32"
        }
      ],
      "name": "unlistNFT",
      "outputs": [],
      "stateMutability": "nonpayable",
      "type": "function"
    },
    {
      "inputs": [
        {
          "internalType": "uint32",
          "name": "_tokenId",
          "type": "uint32"
        },
        {
          "internalType": "uint32",
          "name": "_price",
          "type": "uint32"
        }
      ],
      "name": "updateListingNftPrice",
      "outputs": [],
      "stateMutability": "nonpayable",
      "type": "function"
    }
  ],
  "bytecode": "0x60806040523480156200001157600080fd5b506040516200544c3803806200544c83398181016040528101906200003791906200016b565b336000806101000a81548173ffffffffffffffffffffffffffffffffffffffff021916908373ffffffffffffffffffffffffffffffffffffffff16021790555081600160006101000a81548173ffffffffffffffffffffffffffffffffffffffff021916908373ffffffffffffffffffffffffffffffffffffffff16021790555080600260006101000a81548173ffffffffffffffffffffffffffffffffffffffff021916908373ffffffffffffffffffffffffffffffffffffffff1602179055505050620001b2565b600080fd5b600073ffffffffffffffffffffffffffffffffffffffff82169050919050565b6000620001338262000106565b9050919050565b620001458162000126565b81146200015157600080fd5b50565b60008151905062000165816200013a565b92915050565b6000806040838503121562000185576200018462000101565b5b6000620001958582860162000154565b9250506020620001a88582860162000154565b9150509250929050565b61528a80620001c26000396000f3fe60806040526004361061014b5760003560e01c8063977af228116100b6578063c19fb4f21161006f578063c19fb4f214610477578063c99de57e146104b8578063d14c2085146104e3578063d801c1e01461050e578063e2e9ae531461054b578063e8d08d8a146105765761014b565b8063977af228146103675780639aee1d5914610392578063a5bfc01e146103bb578063a88b8d0c146103e6578063afd8005014610423578063bc6f1f1b1461044c5761014b565b80634c91f36d116101085780634c91f36d1461026257806353a9c3741461028d57806372fbe982146102b85780638d955328146102e35780638e7d87081461030e578063968cb0591461032a5761014b565b80631b780ff9146101505780631df43c8e1461017957806324ba506d146101a457806327506f53146101cf578063347809c9146101fa5780634b58ffaa14610237575b600080fd5b34801561015c57600080fd5b506101776004803603810190610172919061385a565b61059f565b005b34801561018557600080fd5b5061018e61073c565b60405161019b9190613ca4565b60405180910390f35b3480156101b057600080fd5b506101b9610da2565b6040516101c69190613cdf565b60405180910390f35b3480156101db57600080fd5b506101e4610e3a565b6040516101f19190613e62565b60405180910390f35b34801561020657600080fd5b50610221600480360381019061021c9190613e84565b610ed7565b60405161022e9190613f54565b60405180910390f35b34801561024357600080fd5b5061024c6111eb565b604051610259919061408d565b60405180910390f35b34801561026e57600080fd5b5061027761159c565b60405161028491906140be565b60405180910390f35b34801561029957600080fd5b506102a2611776565b6040516102af9190613ca4565b60405180910390f35b3480156102c457600080fd5b506102cd611ced565b6040516102da91906140be565b60405180910390f35b3480156102ef57600080fd5b506102f8611d03565b60405161030591906140be565b60405180910390f35b61032860048036038101906103239190613e84565b611d1c565b005b34801561033657600080fd5b50610351600480360381019061034c9190613e84565b61240a565b60405161035e9190614141565b60405180910390f35b34801561037357600080fd5b5061037c612556565b60405161038991906140be565b60405180910390f35b34801561039e57600080fd5b506103b960048036038101906103b4919061385a565b612650565b005b3480156103c757600080fd5b506103d0612a19565b6040516103dd9190613ca4565b60405180910390f35b3480156103f257600080fd5b5061040d60048036038101906104089190613e84565b61318f565b60405161041a919061416b565b60405180910390f35b34801561042f57600080fd5b5061044a60048036038101906104459190613e84565b6131c8565b005b34801561045857600080fd5b5061046161339b565b60405161046e91906140be565b60405180910390f35b34801561048357600080fd5b5061049e60048036038101906104999190613e84565b613472565b6040516104af959493929190614195565b60405180910390f35b3480156104c457600080fd5b506104cd613515565b6040516104da9190614247565b60405180910390f35b3480156104ef57600080fd5b506104f861353b565b6040516105059190614283565b60405180910390f35b34801561051a57600080fd5b50610535600480360381019061053091906142ca565b613561565b6040516105429190613e62565b60405180910390f35b34801561055757600080fd5b5061056061360b565b60405161056d9190614318565b60405180910390f35b34801561058257600080fd5b5061059d60048036038101906105989190614333565b613631565b005b600460008363ffffffff1663ffffffff16815260200190815260200160002060010160189054906101000a900460ff1661060e576040517f08c379a0000000000000000000000000000000000000000000000000000000008152600401610605906143f6565b60405180910390fd5b3373ffffffffffffffffffffffffffffffffffffffff16600460008463ffffffff1663ffffffff16815260200190815260200160002060000160049054906101000a900473ffffffffffffffffffffffffffffffffffffffff1673ffffffffffffffffffffffffffffffffffffffff16146106be576040517f08c379a00000000000000000000000000000000000000000000000000000000081526004016106b590614488565b60405180910390fd5b80600460008463ffffffff1663ffffffff16815260200190815260200160002060010160146101000a81548163ffffffff021916908363ffffffff1602179055507f20eab9bdfefb258f8be4a0cae1d5ce7a60b57acd3c63f19746efc59d4518439882826040516107309291906144a8565b60405180910390a15050565b60606000600160009054906101000a900473ffffffffffffffffffffffffffffffffffffffff1673ffffffffffffffffffffffffffffffffffffffff166380060ad26040518163ffffffff1660e01b8152600401602060405180830381865afa1580156107ad573d6000803e3d6000fd5b505050506040513d601f19601f820116820180604052508101906107d191906144e6565b63ffffffff1690506000600160009054906101000a900473ffffffffffffffffffffffffffffffffffffffff1673ffffffffffffffffffffffffffffffffffffffff166343bed68b6040518163ffffffff1660e01b8152600401600060405180830381865afa158015610848573d6000803e3d6000fd5b505050506040513d6000823e3d601f19601f82011682018060405250810190610871919061465b565b905060008060149054906101000a900463ffffffff1663ffffffff1667ffffffffffffffff8111156108a6576108a5614518565b5b6040519080825280602002602001820160405280156108df57816020015b6108cc6136c6565b8152602001906001900390816108c45790505b50905060008080600090505b858163ffffffff161015610d9657848163ffffffff1681518110610912576109116146a4565b5b6020026020010151915060011515600460008463ffffffff1663ffffffff16815260200190815260200160002060010160189054906101000a900460ff16151503610d83573373ffffffffffffffffffffffffffffffffffffffff16600460008463ffffffff1663ffffffff16815260200190815260200160002060000160049054906101000a900473ffffffffffffffffffffffffffffffffffffffff1673ffffffffffffffffffffffffffffffffffffffff161480610a4057503373ffffffffffffffffffffffffffffffffffffffff16600460008463ffffffff1663ffffffff16815260200190815260200160002060010160009054906101000a900473ffffffffffffffffffffffffffffffffffffffff1673ffffffffffffffffffffffffffffffffffffffff16145b15610d82576000600460008463ffffffff1663ffffffff1681526020019081526020016000206040518060a00160405290816000820160009054906101000a900463ffffffff1663ffffffff1663ffffffff1681526020016000820160049054906101000a900473ffffffffffffffffffffffffffffffffffffffff1673ffffffffffffffffffffffffffffffffffffffff1673ffffffffffffffffffffffffffffffffffffffff1681526020016001820160009054906101000a900473ffffffffffffffffffffffffffffffffffffffff1673ffffffffffffffffffffffffffffffffffffffff1673ffffffffffffffffffffffffffffffffffffffff1681526020016001820160149054906101000a900463ffffffff1663ffffffff1663ffffffff1681526020016001820160189054906101000a900460ff16151515158152505090506000600160009054906101000a900473ffffffffffffffffffffffffffffffffffffffff1673ffffffffffffffffffffffffffffffffffffffff1663f35914e2856040518263ffffffff1660e01b8152600401610be391906140be565b600060405180830381865afa158015610c00573d6000803e3d6000fd5b505050506040513d6000823e3d601f19601f82011682018060405250810190610c2991906149ec565b90506040518060e00160405280836000015163ffffffff168152602001836020015173ffffffffffffffffffffffffffffffffffffffff168152602001836040015173ffffffffffffffffffffffffffffffffffffffff168152602001836060015163ffffffff168152602001836080015115158152602001828152602001600160009054906101000a900473ffffffffffffffffffffffffffffffffffffffff1673ffffffffffffffffffffffffffffffffffffffff166310941323876040518263ffffffff1660e01b8152600401610d0391906140be565b600060405180830381865afa158015610d20573d6000803e3d6000fd5b505050506040513d6000823e3d601f19601f82011682018060405250810190610d499190614a35565b815250868663ffffffff1681518110610d6557610d646146a4565b5b6020026020010181905250600185610d7d9190614aad565b945050505b5b8080610d8e90614ae5565b9150506108eb565b50829550505050505090565b6000600360009054906101000a900473ffffffffffffffffffffffffffffffffffffffff1673ffffffffffffffffffffffffffffffffffffffff166324ba506d6040518163ffffffff1660e01b8152600401602060405180830381865afa158015610e11573d6000803e3d6000fd5b505050506040513d601f19601f82011682018060405250810190610e359190614b3d565b905090565b6060600360009054906101000a900473ffffffffffffffffffffffffffffffffffffffff1673ffffffffffffffffffffffffffffffffffffffff166327506f536040518163ffffffff1660e01b8152600401600060405180830381865afa158015610ea9573d6000803e3d6000fd5b505050506040513d6000823e3d601f19601f82011682018060405250810190610ed29190614d08565b905090565b610edf6136c6565b6000600460008463ffffffff1663ffffffff1681526020019081526020016000206040518060a00160405290816000820160009054906101000a900463ffffffff1663ffffffff1663ffffffff1681526020016000820160049054906101000a900473ffffffffffffffffffffffffffffffffffffffff1673ffffffffffffffffffffffffffffffffffffffff1673ffffffffffffffffffffffffffffffffffffffff1681526020016001820160009054906101000a900473ffffffffffffffffffffffffffffffffffffffff1673ffffffffffffffffffffffffffffffffffffffff1673ffffffffffffffffffffffffffffffffffffffff1681526020016001820160149054906101000a900463ffffffff1663ffffffff1663ffffffff1681526020016001820160189054906101000a900460ff16151515158152505090506000600160009054906101000a900473ffffffffffffffffffffffffffffffffffffffff1673ffffffffffffffffffffffffffffffffffffffff1663f35914e2856040518263ffffffff1660e01b815260040161107d91906140be565b600060405180830381865afa15801561109a573d6000803e3d6000fd5b505050506040513d6000823e3d601f19601f820116820180604052508101906110c391906149ec565b90506040518060e001604052808563ffffffff168152602001836020015173ffffffffffffffffffffffffffffffffffffffff168152602001836040015173ffffffffffffffffffffffffffffffffffffffff168152602001836060015163ffffffff168152602001836080015115158152602001828152602001600160009054906101000a900473ffffffffffffffffffffffffffffffffffffffff1673ffffffffffffffffffffffffffffffffffffffff166310941323876040518263ffffffff1660e01b815260040161119991906140be565b600060405180830381865afa1580156111b6573d6000803e3d6000fd5b505050506040513d6000823e3d601f19601f820116820180604052508101906111df9190614a35565b81525092505050919050565b60606000600160009054906101000a900473ffffffffffffffffffffffffffffffffffffffff1673ffffffffffffffffffffffffffffffffffffffff166380060ad26040518163ffffffff1660e01b8152600401602060405180830381865afa15801561125c573d6000803e3d6000fd5b505050506040513d601f19601f8201168201806040525081019061128091906144e6565b63ffffffff1690506000600160009054906101000a900473ffffffffffffffffffffffffffffffffffffffff1673ffffffffffffffffffffffffffffffffffffffff166343bed68b6040518163ffffffff1660e01b8152600401600060405180830381865afa1580156112f7573d6000803e3d6000fd5b505050506040513d6000823e3d601f19601f82011682018060405250810190611320919061465b565b905060008060149054906101000a900463ffffffff1663ffffffff1667ffffffffffffffff81111561135557611354614518565b5b60405190808252806020026020018201604052801561138e57816020015b61137b613743565b8152602001906001900390816113735790505b50905060008080600090505b858163ffffffff16101561159057848163ffffffff16815181106113c1576113c06146a4565b5b6020026020010151915060011515600460008463ffffffff1663ffffffff16815260200190815260200160002060010160189054906101000a900460ff1615150361157d576000600460008463ffffffff1663ffffffff1681526020019081526020016000206040518060a00160405290816000820160009054906101000a900463ffffffff1663ffffffff1663ffffffff1681526020016000820160049054906101000a900473ffffffffffffffffffffffffffffffffffffffff1673ffffffffffffffffffffffffffffffffffffffff1673ffffffffffffffffffffffffffffffffffffffff1681526020016001820160009054906101000a900473ffffffffffffffffffffffffffffffffffffffff1673ffffffffffffffffffffffffffffffffffffffff1673ffffffffffffffffffffffffffffffffffffffff1681526020016001820160149054906101000a900463ffffffff1663ffffffff1663ffffffff1681526020016001820160189054906101000a900460ff161515151581525050905080858563ffffffff1681518110611561576115606146a4565b5b60200260200101819052506001846115799190614aad565b9350505b808061158890614ae5565b91505061139a565b50829550505050505090565b600080600160009054906101000a900473ffffffffffffffffffffffffffffffffffffffff1673ffffffffffffffffffffffffffffffffffffffff166380060ad26040518163ffffffff1660e01b8152600401602060405180830381865afa15801561160c573d6000803e3d6000fd5b505050506040513d601f19601f8201168201806040525081019061163091906144e6565b90506000805b8263ffffffff168163ffffffff16101561176d573373ffffffffffffffffffffffffffffffffffffffff16600460006001846116729190614aad565b63ffffffff1663ffffffff16815260200190815260200160002060000160049054906101000a900473ffffffffffffffffffffffffffffffffffffffff1673ffffffffffffffffffffffffffffffffffffffff16148061174b57503373ffffffffffffffffffffffffffffffffffffffff16600460006001846116f59190614aad565b63ffffffff1663ffffffff16815260200190815260200160002060010160009054906101000a900473ffffffffffffffffffffffffffffffffffffffff1673ffffffffffffffffffffffffffffffffffffffff16145b156117605760018261175d9190614aad565b91505b8080600101915050611636565b50809250505090565b60606000600160009054906101000a900473ffffffffffffffffffffffffffffffffffffffff1673ffffffffffffffffffffffffffffffffffffffff166380060ad26040518163ffffffff1660e01b8152600401602060405180830381865afa1580156117e7573d6000803e3d6000fd5b505050506040513d601f19601f8201168201806040525081019061180b91906144e6565b63ffffffff1690506000600160009054906101000a900473ffffffffffffffffffffffffffffffffffffffff1673ffffffffffffffffffffffffffffffffffffffff166343bed68b6040518163ffffffff1660e01b8152600401600060405180830381865afa158015611882573d6000803e3d6000fd5b505050506040513d6000823e3d601f19601f820116820180604052508101906118ab919061465b565b905060008060149054906101000a900463ffffffff1663ffffffff1667ffffffffffffffff8111156118e0576118df614518565b5b60405190808252806020026020018201604052801561191957816020015b6119066136c6565b8152602001906001900390816118fe5790505b50905060008080600090505b858163ffffffff161015611ce157848163ffffffff168151811061194c5761194b6146a4565b5b6020026020010151915060011515600460008463ffffffff1663ffffffff16815260200190815260200160002060010160189054906101000a900460ff16151503611cce576000600460008463ffffffff1663ffffffff1681526020019081526020016000206040518060a00160405290816000820160009054906101000a900463ffffffff1663ffffffff1663ffffffff1681526020016000820160049054906101000a900473ffffffffffffffffffffffffffffffffffffffff1673ffffffffffffffffffffffffffffffffffffffff1673ffffffffffffffffffffffffffffffffffffffff1681526020016001820160009054906101000a900473ffffffffffffffffffffffffffffffffffffffff1673ffffffffffffffffffffffffffffffffffffffff1673ffffffffffffffffffffffffffffffffffffffff1681526020016001820160149054906101000a900463ffffffff1663ffffffff1663ffffffff1681526020016001820160189054906101000a900460ff16151515158152505090506000600160009054906101000a900473ffffffffffffffffffffffffffffffffffffffff1673ffffffffffffffffffffffffffffffffffffffff1663f35914e2856040518263ffffffff1660e01b8152600401611b2f91906140be565b600060405180830381865afa158015611b4c573d6000803e3d6000fd5b505050506040513d6000823e3d601f19601f82011682018060405250810190611b7591906149ec565b90506040518060e00160405280836000015163ffffffff168152602001836020015173ffffffffffffffffffffffffffffffffffffffff168152602001836040015173ffffffffffffffffffffffffffffffffffffffff168152602001836060015163ffffffff168152602001836080015115158152602001828152602001600160009054906101000a900473ffffffffffffffffffffffffffffffffffffffff1673ffffffffffffffffffffffffffffffffffffffff166310941323876040518263ffffffff1660e01b8152600401611c4f91906140be565b600060405180830381865afa158015611c6c573d6000803e3d6000fd5b505050506040513d6000823e3d601f19601f82011682018060405250810190611c959190614a35565b815250868663ffffffff1681518110611cb157611cb06146a4565b5b6020026020010181905250600185611cc99190614aad565b945050505b8080611cd990614ae5565b915050611925565b50829550505050505090565b600060149054906101000a900463ffffffff1681565b60008060149054906101000a900463ffffffff16905090565b600460008263ffffffff1663ffffffff16815260200190815260200160002060010160149054906101000a900463ffffffff1663ffffffff16600260009054906101000a900473ffffffffffffffffffffffffffffffffffffffff1673ffffffffffffffffffffffffffffffffffffffff166370a08231336040518263ffffffff1660e01b8152600401611db09190614d60565b602060405180830381865afa158015611dcd573d6000803e3d6000fd5b505050506040513d601f19601f82011682018060405250810190611df19190614b3d565b11611e31576040517f08c379a0000000000000000000000000000000000000000000000000000000008152600401611e2890614dc7565b60405180910390fd5b600460008263ffffffff1663ffffffff16815260200190815260200160002060010160189054906101000a900460ff16611ea0576040517f08c379a0000000000000000000000000000000000000000000000000000000008152600401611e9790614e33565b60405180910390fd5b6000600460008363ffffffff1663ffffffff1681526020019081526020016000206040518060a00160405290816000820160009054906101000a900463ffffffff1663ffffffff1663ffffffff1681526020016000820160049054906101000a900473ffffffffffffffffffffffffffffffffffffffff1673ffffffffffffffffffffffffffffffffffffffff1673ffffffffffffffffffffffffffffffffffffffff1681526020016001820160009054906101000a900473ffffffffffffffffffffffffffffffffffffffff1673ffffffffffffffffffffffffffffffffffffffff1673ffffffffffffffffffffffffffffffffffffffff1681526020016001820160149054906101000a900463ffffffff1663ffffffff1663ffffffff1681526020016001820160189054906101000a900460ff1615151515815250509050600081604001519050600082606001519050600260009054906101000a900473ffffffffffffffffffffffffffffffffffffffff1673ffffffffffffffffffffffffffffffffffffffff166323b872dd3384846040518463ffffffff1660e01b815260040161205293929190614e84565b6020604051808303816000875af1158015612071573d6000803e3d6000fd5b505050506040513d601f19601f820116820180604052508101906120959190614ee7565b6120d4576040517f08c379a00000000000000000000000000000000000000000000000000000000081526004016120cb90614f60565b60405180910390fd5b600360009054906101000a900473ffffffffffffffffffffffffffffffffffffffff1673ffffffffffffffffffffffffffffffffffffffff1663d5594fb833836040518363ffffffff1660e01b8152600401612131929190614fcc565b600060405180830381600087803b15801561214b57600080fd5b505af115801561215f573d6000803e3d6000fd5b50505050600160009054906101000a900473ffffffffffffffffffffffffffffffffffffffff1673ffffffffffffffffffffffffffffffffffffffff166323b872dd8333876040518463ffffffff1660e01b81526004016121c293929190614e84565b600060405180830381600087803b1580156121dc57600080fd5b505af11580156121f0573d6000803e3d6000fd5b5050505033836020019073ffffffffffffffffffffffffffffffffffffffff16908173ffffffffffffffffffffffffffffffffffffffff168152505033836040019073ffffffffffffffffffffffffffffffffffffffff16908173ffffffffffffffffffffffffffffffffffffffff1681525050600083608001901515908115158152505082600460008663ffffffff1663ffffffff16815260200190815260200160002060008201518160000160006101000a81548163ffffffff021916908363ffffffff16021790555060208201518160000160046101000a81548173ffffffffffffffffffffffffffffffffffffffff021916908373ffffffffffffffffffffffffffffffffffffffff16021790555060408201518160010160006101000a81548173ffffffffffffffffffffffffffffffffffffffff021916908373ffffffffffffffffffffffffffffffffffffffff16021790555060608201518160010160146101000a81548163ffffffff021916908363ffffffff16021790555060808201518160010160186101000a81548160ff02191690831515021790555090505060008054906101000a900473ffffffffffffffffffffffffffffffffffffffff1673ffffffffffffffffffffffffffffffffffffffff167f42686bfa4b329c6682aeb55b6f8fa55a5ae004254d45c61c9fd01a596ee6cd3685836040516123fc9291906144a8565b60405180910390a250505050565b612412613743565b600460008363ffffffff1663ffffffff1681526020019081526020016000206040518060a00160405290816000820160009054906101000a900463ffffffff1663ffffffff1663ffffffff1681526020016000820160049054906101000a900473ffffffffffffffffffffffffffffffffffffffff1673ffffffffffffffffffffffffffffffffffffffff1673ffffffffffffffffffffffffffffffffffffffff1681526020016001820160009054906101000a900473ffffffffffffffffffffffffffffffffffffffff1673ffffffffffffffffffffffffffffffffffffffff1673ffffffffffffffffffffffffffffffffffffffff1681526020016001820160149054906101000a900463ffffffff1663ffffffff1663ffffffff1681526020016001820160189054906101000a900460ff1615151515815250509050919050565b600080600060149054906101000a900463ffffffff1663ffffffff1603612580576000905061264d565b600061258a6111eb565b90506000816000815181106125a2576125a16146a4565b5b602002602001015160600151905060005b600060149054906101000a900463ffffffff1663ffffffff168163ffffffff161015612646578163ffffffff16838263ffffffff16815181106125f9576125f86146a4565b5b60200260200101516060015163ffffffff16101561263957828163ffffffff168151811061262a576126296146a4565b5b60200260200101516060015191505b80806001019150506125b3565b5080925050505b90565b3373ffffffffffffffffffffffffffffffffffffffff16600160009054906101000a900473ffffffffffffffffffffffffffffffffffffffff1673ffffffffffffffffffffffffffffffffffffffff16636352211e846040518263ffffffff1660e01b81526004016126c29190615008565b602060405180830381865afa1580156126df573d6000803e3d6000fd5b505050506040513d601f19601f820116820180604052508101906127039190615023565b73ffffffffffffffffffffffffffffffffffffffff1614612759576040517f08c379a0000000000000000000000000000000000000000000000000000000008152600401612750906150c2565b60405180910390fd5b60001515600460008463ffffffff1663ffffffff16815260200190815260200160002060010160189054906101000a900460ff161515146127cf576040517f08c379a00000000000000000000000000000000000000000000000000000000081526004016127c69061512e565b60405180910390fd5b6000601481819054906101000a900463ffffffff16809291906127f190614ae5565b91906101000a81548163ffffffff021916908363ffffffff160217905550506040518060a001604052808363ffffffff1681526020013373ffffffffffffffffffffffffffffffffffffffff1681526020013373ffffffffffffffffffffffffffffffffffffffff1681526020018263ffffffff16815260200160011515815250600460008463ffffffff1663ffffffff16815260200190815260200160002060008201518160000160006101000a81548163ffffffff021916908363ffffffff16021790555060208201518160000160046101000a81548173ffffffffffffffffffffffffffffffffffffffff021916908373ffffffffffffffffffffffffffffffffffffffff16021790555060408201518160010160006101000a81548173ffffffffffffffffffffffffffffffffffffffff021916908373ffffffffffffffffffffffffffffffffffffffff16021790555060608201518160010160146101000a81548163ffffffff021916908363ffffffff16021790555060808201518160010160186101000a81548160ff0219169083151502179055509050508163ffffffff167f849c80b22c9473c4981e674f8cf81ca6684433d960359bf76287d138a078213b60008054906101000a900473ffffffffffffffffffffffffffffffffffffffff1660008054906101000a900473ffffffffffffffffffffffffffffffffffffffff16846001604051612a0d949392919061516f565b60405180910390a25050565b60606000600160009054906101000a900473ffffffffffffffffffffffffffffffffffffffff1673ffffffffffffffffffffffffffffffffffffffff166380060ad26040518163ffffffff1660e01b8152600401602060405180830381865afa158015612a8a573d6000803e3d6000fd5b505050506040513d601f19601f82011682018060405250810190612aae91906144e6565b63ffffffff1690506000600160009054906101000a900473ffffffffffffffffffffffffffffffffffffffff1673ffffffffffffffffffffffffffffffffffffffff166343bed68b6040518163ffffffff1660e01b8152600401600060405180830381865afa158015612b25573d6000803e3d6000fd5b505050506040513d6000823e3d601f19601f82011682018060405250810190612b4e919061465b565b9050600080806000905060005b858163ffffffff161015612cb957848163ffffffff1681518110612b8257612b816146a4565b5b6020026020010151925060001515600460008563ffffffff1663ffffffff16815260200190815260200160002060010160189054906101000a900460ff16151503612ca6573373ffffffffffffffffffffffffffffffffffffffff16600160009054906101000a900473ffffffffffffffffffffffffffffffffffffffff1673ffffffffffffffffffffffffffffffffffffffff16633d8029aa856040518263ffffffff1660e01b8152600401612c3991906140be565b602060405180830381865afa158015612c56573d6000803e3d6000fd5b505050506040513d601f19601f82011682018060405250810190612c7a9190615023565b73ffffffffffffffffffffffffffffffffffffffff1603612ca557600182612ca291906151b4565b91505b5b8080612cb190614ae5565b915050612b5b565b5060008167ffffffffffffffff811115612cd657612cd5614518565b5b604051908082528060200260200182016040528015612d0f57816020015b612cfc6136c6565b815260200190600190039081612cf45790505b50905060005b868163ffffffff16101561318257858163ffffffff1681518110612d3c57612d3b6146a4565b5b6020026020010151935060001515600460008663ffffffff1663ffffffff16815260200190815260200160002060010160189054906101000a900460ff1615150361316f573373ffffffffffffffffffffffffffffffffffffffff16600160009054906101000a900473ffffffffffffffffffffffffffffffffffffffff1673ffffffffffffffffffffffffffffffffffffffff16633d8029aa866040518263ffffffff1660e01b8152600401612df391906140be565b602060405180830381865afa158015612e10573d6000803e3d6000fd5b505050506040513d601f19601f82011682018060405250810190612e349190615023565b73ffffffffffffffffffffffffffffffffffffffff160361316e576000600160009054906101000a900473ffffffffffffffffffffffffffffffffffffffff1673ffffffffffffffffffffffffffffffffffffffff1663f35914e2866040518263ffffffff1660e01b8152600401612eac91906140be565b600060405180830381865afa158015612ec9573d6000803e3d6000fd5b505050506040513d6000823e3d601f19601f82011682018060405250810190612ef291906149ec565b90506040518060e001604052808663ffffffff168152602001600160009054906101000a900473ffffffffffffffffffffffffffffffffffffffff1673ffffffffffffffffffffffffffffffffffffffff16633d8029aa886040518263ffffffff1660e01b8152600401612f6691906140be565b602060405180830381865afa158015612f83573d6000803e3d6000fd5b505050506040513d601f19601f82011682018060405250810190612fa79190615023565b73ffffffffffffffffffffffffffffffffffffffff168152602001600160009054906101000a900473ffffffffffffffffffffffffffffffffffffffff1673ffffffffffffffffffffffffffffffffffffffff16633d8029aa886040518263ffffffff1660e01b815260040161301d91906140be565b602060405180830381865afa15801561303a573d6000803e3d6000fd5b505050506040513d601f19601f8201168201806040525081019061305e9190615023565b73ffffffffffffffffffffffffffffffffffffffff168152602001600063ffffffff168152602001600015158152602001828152602001600160009054906101000a900473ffffffffffffffffffffffffffffffffffffffff1673ffffffffffffffffffffffffffffffffffffffff166310941323886040518263ffffffff1660e01b81526004016130f091906140be565b600060405180830381865afa15801561310d573d6000803e3d6000fd5b505050506040513d6000823e3d601f19601f820116820180604052508101906131369190614a35565b815250838763ffffffff1681518110613152576131516146a4565b5b602002602001018190525060018661316a9190614aad565b9550505b5b808061317a90614ae5565b915050612d15565b5080965050505050505090565b6000600460008363ffffffff1663ffffffff16815260200190815260200160002060010160189054906101000a900460ff169050919050565b3373ffffffffffffffffffffffffffffffffffffffff16600460008363ffffffff1663ffffffff16815260200190815260200160002060000160049054906101000a900473ffffffffffffffffffffffffffffffffffffffff1673ffffffffffffffffffffffffffffffffffffffff1614613278576040517f08c379a000000000000000000000000000000000000000000000000000000000815260040161326f90615234565b60405180910390fd5b600460008263ffffffff1663ffffffff168152602001908152602001600020600080820160006101000a81549063ffffffff02191690556000820160046101000a81549073ffffffffffffffffffffffffffffffffffffffff02191690556001820160006101000a81549073ffffffffffffffffffffffffffffffffffffffff02191690556001820160146101000a81549063ffffffff02191690556001820160186101000a81549060ff0219169055505060008054906101000a900473ffffffffffffffffffffffffffffffffffffffff1673ffffffffffffffffffffffffffffffffffffffff167fa2bf512dfbf14020549d23d98676158e4bab6a92c84a5c64835b357f43f120298260405161339091906140be565b60405180910390a250565b600080600060149054906101000a900463ffffffff1663ffffffff16036133c5576000905061346f565b6000806133d06111eb565b905060005b600060149054906101000a900463ffffffff1663ffffffff168163ffffffff161015613468578263ffffffff16828263ffffffff168151811061341b5761341a6146a4565b5b60200260200101516060015163ffffffff16111561345b57818163ffffffff168151811061344c5761344b6146a4565b5b60200260200101516060015192505b80806001019150506133d5565b5081925050505b90565b60046020528060005260406000206000915090508060000160009054906101000a900463ffffffff16908060000160049054906101000a900473ffffffffffffffffffffffffffffffffffffffff16908060010160009054906101000a900473ffffffffffffffffffffffffffffffffffffffff16908060010160149054906101000a900463ffffffff16908060010160189054906101000a900460ff16905085565b600360009054906101000a900473ffffffffffffffffffffffffffffffffffffffff1681565b600260009054906101000a900473ffffffffffffffffffffffffffffffffffffffff1681565b6060600360009054906101000a900473ffffffffffffffffffffffffffffffffffffffff1673ffffffffffffffffffffffffffffffffffffffff1663013bd2ba836040518263ffffffff1660e01b81526004016135be9190614d60565b600060405180830381865afa1580156135db573d6000803e3d6000fd5b505050506040513d6000823e3d601f19601f820116820180604052508101906136049190614d08565b9050919050565b600160009054906101000a900473ffffffffffffffffffffffffffffffffffffffff1681565b600160009054906101000a900473ffffffffffffffffffffffffffffffffffffffff1673ffffffffffffffffffffffffffffffffffffffff166323b872dd3384846040518463ffffffff1660e01b815260040161369093929190614e84565b600060405180830381600087803b1580156136aa57600080fd5b505af11580156136be573d6000803e3d6000fd5b505050505050565b6040518060e00160405280600063ffffffff168152602001600073ffffffffffffffffffffffffffffffffffffffff168152602001600073ffffffffffffffffffffffffffffffffffffffff168152602001600063ffffffff1681526020016000151581526020016137366137ac565b8152602001606081525090565b6040518060a00160405280600063ffffffff168152602001600073ffffffffffffffffffffffffffffffffffffffff168152602001600073ffffffffffffffffffffffffffffffffffffffff168152602001600063ffffffff1681526020016000151581525090565b604051806101200160405280600063ffffffff16815260200160608152602001600063ffffffff168152602001600063ffffffff16815260200160608152602001606081526020016060815260200160608152602001606081525090565b6000604051905090565b600080fd5b600080fd5b600063ffffffff82169050919050565b6138378161381e565b811461384257600080fd5b50565b6000813590506138548161382e565b92915050565b6000806040838503121561387157613870613814565b5b600061387f85828601613845565b925050602061389085828601613845565b9150509250929050565b600081519050919050565b600082825260208201905092915050565b6000819050602082019050919050565b6138cf8161381e565b82525050565b600073ffffffffffffffffffffffffffffffffffffffff82169050919050565b6000613900826138d5565b9050919050565b613910816138f5565b82525050565b60008115159050919050565b61392b81613916565b82525050565b600081519050919050565b600082825260208201905092915050565b60005b8381101561396b578082015181840152602081019050613950565b60008484015250505050565b6000601f19601f8301169050919050565b600061399382613931565b61399d818561393c565b93506139ad81856020860161394d565b6139b681613977565b840191505092915050565b600081519050919050565b600082825260208201905092915050565b6000819050602082019050919050565b60006139f98383613988565b905092915050565b6000602082019050919050565b6000613a19826139c1565b613a2381856139cc565b935083602082028501613a35856139dd565b8060005b85811015613a715784840389528151613a5285826139ed565b9450613a5d83613a01565b925060208a01995050600181019050613a39565b50829750879550505050505092915050565b600061012083016000830151613a9c60008601826138c6565b5060208301518482036020860152613ab48282613988565b9150506040830151613ac960408601826138c6565b506060830151613adc60608601826138c6565b5060808301518482036080860152613af48282613a0e565b91505060a083015184820360a0860152613b0e8282613a0e565b91505060c083015184820360c0860152613b288282613a0e565b91505060e083015184820360e0860152613b428282613988565b915050610100830151848203610100860152613b5e8282613988565b9150508091505092915050565b600060e083016000830151613b8360008601826138c6565b506020830151613b966020860182613907565b506040830151613ba96040860182613907565b506060830151613bbc60608601826138c6565b506080830151613bcf6080860182613922565b5060a083015184820360a0860152613be78282613a83565b91505060c083015184820360c0860152613c018282613988565b9150508091505092915050565b6000613c1a8383613b6b565b905092915050565b6000602082019050919050565b6000613c3a8261389a565b613c4481856138a5565b935083602082028501613c56856138b6565b8060005b85811015613c925784840389528151613c738582613c0e565b9450613c7e83613c22565b925060208a01995050600181019050613c5a565b50829750879550505050505092915050565b60006020820190508181036000830152613cbe8184613c2f565b905092915050565b6000819050919050565b613cd981613cc6565b82525050565b6000602082019050613cf46000830184613cd0565b92915050565b600081519050919050565b600082825260208201905092915050565b6000819050602082019050919050565b6000613d31826138d5565b9050919050565b613d4181613d26565b82525050565b613d5081613cc6565b82525050565b600060a083016000830151613d6e6000860182613d38565b506020830151613d816020860182613d38565b506040830151613d946040860182613d47565b5060608301518482036060860152613dac8282613988565b9150506080830151613dc16080860182613d47565b508091505092915050565b6000613dd88383613d56565b905092915050565b6000602082019050919050565b6000613df882613cfa565b613e028185613d05565b935083602082028501613e1485613d16565b8060005b85811015613e505784840389528151613e318582613dcc565b9450613e3c83613de0565b925060208a01995050600181019050613e18565b50829750879550505050505092915050565b60006020820190508181036000830152613e7c8184613ded565b905092915050565b600060208284031215613e9a57613e99613814565b5b6000613ea884828501613845565b91505092915050565b600060e083016000830151613ec960008601826138c6565b506020830151613edc6020860182613907565b506040830151613eef6040860182613907565b506060830151613f0260608601826138c6565b506080830151613f156080860182613922565b5060a083015184820360a0860152613f2d8282613a83565b91505060c083015184820360c0860152613f478282613988565b9150508091505092915050565b60006020820190508181036000830152613f6e8184613eb1565b905092915050565b600081519050919050565b600082825260208201905092915050565b6000819050602082019050919050565b60a082016000820151613fb860008501826138c6565b506020820151613fcb6020850182613907565b506040820151613fde6040850182613907565b506060820151613ff160608501826138c6565b5060808201516140046080850182613922565b50505050565b60006140168383613fa2565b60a08301905092915050565b6000602082019050919050565b600061403a82613f76565b6140448185613f81565b935061404f83613f92565b8060005b83811015614080578151614067888261400a565b975061407283614022565b925050600181019050614053565b5085935050505092915050565b600060208201905081810360008301526140a7818461402f565b905092915050565b6140b88161381e565b82525050565b60006020820190506140d360008301846140af565b92915050565b60a0820160008201516140ef60008501826138c6565b5060208201516141026020850182613907565b5060408201516141156040850182613907565b50606082015161412860608501826138c6565b50608082015161413b6080850182613922565b50505050565b600060a08201905061415660008301846140d9565b92915050565b61416581613916565b82525050565b6000602082019050614180600083018461415c565b92915050565b61418f816138f5565b82525050565b600060a0820190506141aa60008301886140af565b6141b76020830187614186565b6141c46040830186614186565b6141d160608301856140af565b6141de608083018461415c565b9695505050505050565b6000819050919050565b600061420d614208614203846138d5565b6141e8565b6138d5565b9050919050565b600061421f826141f2565b9050919050565b600061423182614214565b9050919050565b61424181614226565b82525050565b600060208201905061425c6000830184614238565b92915050565b600061426d82614214565b9050919050565b61427d81614262565b82525050565b60006020820190506142986000830184614274565b92915050565b6142a781613d26565b81146142b257600080fd5b50565b6000813590506142c48161429e565b92915050565b6000602082840312156142e0576142df613814565b5b60006142ee848285016142b5565b91505092915050565b600061430282614214565b9050919050565b614312816142f7565b82525050565b600060208201905061432d6000830184614309565b92915050565b6000806040838503121561434a57614349613814565b5b6000614358858286016142b5565b925050602061436985828601613845565b9150509250929050565b600082825260208201905092915050565b7f54686973204e465420646f65736e2774206578697374206f6e206d61726b657460008201527f706c616365000000000000000000000000000000000000000000000000000000602082015250565b60006143e0602583614373565b91506143eb82614384565b604082019050919050565b6000602082019050818103600083015261440f816143d3565b9050919050565b7f4f6e6c79206f776e65722063616e20757064617465207072696365206f66207460008201527f686973204e465400000000000000000000000000000000000000000000000000602082015250565b6000614472602783614373565b915061447d82614416565b604082019050919050565b600060208201905081810360008301526144a181614465565b9050919050565b60006040820190506144bd60008301856140af565b6144ca60208301846140af565b9392505050565b6000815190506144e08161382e565b92915050565b6000602082840312156144fc576144fb613814565b5b600061450a848285016144d1565b91505092915050565b600080fd5b7f4e487b7100000000000000000000000000000000000000000000000000000000600052604160045260246000fd5b61455082613977565b810181811067ffffffffffffffff8211171561456f5761456e614518565b5b80604052505050565b600061458261380a565b905061458e8282614547565b919050565b600067ffffffffffffffff8211156145ae576145ad614518565b5b602082029050602081019050919050565b600080fd5b60006145d76145d284614593565b614578565b905080838252602082019050602084028301858111156145fa576145f96145bf565b5b835b81811015614623578061460f88826144d1565b8452602084019350506020810190506145fc565b5050509392505050565b600082601f83011261464257614641614513565b5b81516146528482602086016145c4565b91505092915050565b60006020828403121561467157614670613814565b5b600082015167ffffffffffffffff81111561468f5761468e613819565b5b61469b8482850161462d565b91505092915050565b7f4e487b7100000000000000000000000000000000000000000000000000000000600052603260045260246000fd5b600080fd5b600080fd5b600080fd5b600067ffffffffffffffff8211156146fd576146fc614518565b5b61470682613977565b9050602081019050919050565b6000614726614721846146e2565b614578565b905082815260208101848484011115614742576147416146dd565b5b61474d84828561394d565b509392505050565b600082601f83011261476a57614769614513565b5b815161477a848260208601614713565b91505092915050565b600067ffffffffffffffff82111561479e5761479d614518565b5b602082029050602081019050919050565b60006147c26147bd84614783565b614578565b905080838252602082019050602084028301858111156147e5576147e46145bf565b5b835b8181101561482c57805167ffffffffffffffff81111561480a57614809614513565b5b8086016148178982614755565b855260208501945050506020810190506147e7565b5050509392505050565b600082601f83011261484b5761484a614513565b5b815161485b8482602086016147af565b91505092915050565b6000610120828403121561487b5761487a6146d3565b5b614886610120614578565b90506000614896848285016144d1565b600083015250602082015167ffffffffffffffff8111156148ba576148b96146d8565b5b6148c684828501614755565b60208301525060406148da848285016144d1565b60408301525060606148ee848285016144d1565b606083015250608082015167ffffffffffffffff811115614912576149116146d8565b5b61491e84828501614836565b60808301525060a082015167ffffffffffffffff811115614942576149416146d8565b5b61494e84828501614836565b60a08301525060c082015167ffffffffffffffff811115614972576149716146d8565b5b61497e84828501614836565b60c08301525060e082015167ffffffffffffffff8111156149a2576149a16146d8565b5b6149ae84828501614755565b60e08301525061010082015167ffffffffffffffff8111156149d3576149d26146d8565b5b6149df84828501614755565b6101008301525092915050565b600060208284031215614a0257614a01613814565b5b600082015167ffffffffffffffff811115614a2057614a1f613819565b5b614a2c84828501614864565b91505092915050565b600060208284031215614a4b57614a4a613814565b5b600082015167ffffffffffffffff811115614a6957614a68613819565b5b614a7584828501614755565b91505092915050565b7f4e487b7100000000000000000000000000000000000000000000000000000000600052601160045260246000fd5b6000614ab88261381e565b9150614ac38361381e565b9250828201905063ffffffff811115614adf57614ade614a7e565b5b92915050565b6000614af08261381e565b915063ffffffff8203614b0657614b05614a7e565b5b600182019050919050565b614b1a81613cc6565b8114614b2557600080fd5b50565b600081519050614b3781614b11565b92915050565b600060208284031215614b5357614b52613814565b5b6000614b6184828501614b28565b91505092915050565b600067ffffffffffffffff821115614b8557614b84614518565b5b602082029050602081019050919050565b600081519050614ba58161429e565b92915050565b600060a08284031215614bc157614bc06146d3565b5b614bcb60a0614578565b90506000614bdb84828501614b96565b6000830152506020614bef84828501614b96565b6020830152506040614c0384828501614b28565b604083015250606082015167ffffffffffffffff811115614c2757614c266146d8565b5b614c3384828501614755565b6060830152506080614c4784828501614b28565b60808301525092915050565b6000614c66614c6184614b6a565b614578565b90508083825260208201905060208402830185811115614c8957614c886145bf565b5b835b81811015614cd057805167ffffffffffffffff811115614cae57614cad614513565b5b808601614cbb8982614bab565b85526020850194505050602081019050614c8b565b5050509392505050565b600082601f830112614cef57614cee614513565b5b8151614cff848260208601614c53565b91505092915050565b600060208284031215614d1e57614d1d613814565b5b600082015167ffffffffffffffff811115614d3c57614d3b613819565b5b614d4884828501614cda565b91505092915050565b614d5a81613d26565b82525050565b6000602082019050614d756000830184614d51565b92915050565b7f496e73756666696369656e74206163636f756e742062616c616e636500000000600082015250565b6000614db1601c83614373565b9150614dbc82614d7b565b602082019050919050565b60006020820190508181036000830152614de081614da4565b9050919050565b7f4e4654207761736e2774206c6973746564207965742e00000000000000000000600082015250565b6000614e1d601683614373565b9150614e2882614de7565b602082019050919050565b60006020820190508181036000830152614e4c81614e10565b9050919050565b6000614e6e614e69614e648461381e565b6141e8565b613cc6565b9050919050565b614e7e81614e53565b82525050565b6000606082019050614e996000830186614d51565b614ea66020830185614d51565b614eb36040830184614e75565b949350505050565b614ec481613916565b8114614ecf57600080fd5b50565b600081519050614ee181614ebb565b92915050565b600060208284031215614efd57614efc613814565b5b6000614f0b84828501614ed2565b91505092915050565b7f546f6b656e207472616e73666572206661696c65640000000000000000000000600082015250565b6000614f4a601583614373565b9150614f5582614f14565b602082019050919050565b60006020820190508181036000830152614f7981614f3d565b9050919050565b7f4e465420736f6c64000000000000000000000000000000000000000000000000600082015250565b6000614fb6600883614373565b9150614fc182614f80565b602082019050919050565b6000606082019050614fe16000830185614186565b614fee6020830184614e75565b8181036040830152614fff81614fa9565b90509392505050565b600060208201905061501d6000830184614e75565b92915050565b60006020828403121561503957615038613814565b5b600061504784828501614b96565b91505092915050565b7f596f7520617265206e6f7420746865206f776e6572206f662074686973204e4660008201527f5400000000000000000000000000000000000000000000000000000000000000602082015250565b60006150ac602183614373565b91506150b782615050565b604082019050919050565b600060208201905081810360008301526150db8161509f565b9050919050565b7f4e465420697320616c7265616479206c69737465640000000000000000000000600082015250565b6000615118601583614373565b9150615123826150e2565b602082019050919050565b600060208201905081810360008301526151478161510b565b9050919050565b600061515982614214565b9050919050565b6151698161514e565b82525050565b60006080820190506151846000830187615160565b6151916020830186615160565b61519e60408301856140af565b6151ab606083018461415c565b95945050505050565b60006151bf82613cc6565b91506151ca83613cc6565b92508282019050808211156151e2576151e1614a7e565b5b92915050565b7f596f7520617265206e6f742074686973204e4654000000000000000000000000600082015250565b600061521e601483614373565b9150615229826151e8565b602082019050919050565b6000602082019050818103600083015261524d81615211565b905091905056fea2646970667358221220ed5f2d5fb49f6dfedf7e6c92a60cbc13321a9f19f710b8f55786bd7ee0f7246f64736f6c63430008180033",
  "linkReferences": {},
  "deployedLinkReferences": {}
}