{
  "_format": "hh-sol-artifact-1",
  "contractName": "Crop_MarketPlace",
  "sourceName": "contracts/CropMarketPlace.sol",
  "abi": [
    {
      "inputs": [
        {
          "internalType": "address",
          "name": "_NFTAddress",
          "type": "address"
        },
        {
          "internalType": "address",
          "name": "_tokenAddress",
          "type": "address"
        }
      ],
      "stateMutability": "nonpayable",
      "type": "constructor"
    },
    {
      "anonymous": false,
      "inputs": [
        {
          "indexed": true,
          "internalType": "address",
          "name": "_from",
          "type": "address"
        },
        {
          "indexed": false,
          "internalType": "uint32",
          "name": "_tokenId",
          "type": "uint32"
        },
        {
          "indexed": false,
          "internalType": "uint32",
          "name": "_price",
          "type": "uint32"
        }
      ],
      "name": "BuyNFT",
      "type": "event"
    },
    {
      "anonymous": false,
      "inputs": [
        {
          "indexed": true,
          "internalType": "address",
          "name": "_from",
          "type": "address"
        },
        {
          "indexed": false,
          "internalType": "uint32",
          "name": "_tokenId",
          "type": "uint32"
        },
        {
          "indexed": false,
          "internalType": "uint32",
          "name": "_price",
          "type": "uint32"
        }
      ],
      "name": "ListNFT",
      "type": "event"
    },
    {
      "anonymous": false,
      "inputs": [
        {
          "indexed": true,
          "internalType": "uint32",
          "name": "tokenId",
          "type": "uint32"
        },
        {
          "indexed": false,
          "internalType": "address",
          "name": "owner",
          "type": "address"
        },
        {
          "indexed": false,
          "internalType": "address",
          "name": "seller",
          "type": "address"
        },
        {
          "indexed": false,
          "internalType": "uint32",
          "name": "price",
          "type": "uint32"
        },
        {
          "indexed": false,
          "internalType": "bool",
          "name": "currentlyListed",
          "type": "bool"
        }
      ],
      "name": "TokenListedSuccess",
      "type": "event"
    },
    {
      "anonymous": false,
      "inputs": [
        {
          "indexed": true,
          "internalType": "address",
          "name": "_from",
          "type": "address"
        },
        {
          "indexed": false,
          "internalType": "uint32",
          "name": "_tokenId",
          "type": "uint32"
        }
      ],
      "name": "UnlistNFT",
      "type": "event"
    },
    {
      "anonymous": false,
      "inputs": [
        {
          "indexed": false,
          "internalType": "uint32",
          "name": "_tokenId",
          "type": "uint32"
        },
        {
          "indexed": false,
          "internalType": "uint32",
          "name": "_price",
          "type": "uint32"
        }
      ],
      "name": "UpdateListingNFTPrice",
      "type": "event"
    },
    {
      "inputs": [
        {
          "internalType": "uint32",
          "name": "_tokenId",
          "type": "uint32"
        }
      ],
      "name": "buyNft",
      "outputs": [],
      "stateMutability": "payable",
      "type": "function"
    },
    {
      "inputs": [],
      "name": "cropNFT",
      "outputs": [
        {
          "internalType": "contract CropNFT",
          "name": "",
          "type": "address"
        }
      ],
      "stateMutability": "view",
      "type": "function"
    },
    {
      "inputs": [],
      "name": "floppyToken",
      "outputs": [
        {
          "internalType": "contract Floppy",
          "name": "",
          "type": "address"
        }
      ],
      "stateMutability": "view",
      "type": "function"
    },
    {
      "inputs": [],
      "name": "getAllListedNFTInfo",
      "outputs": [
        {
          "components": [
            {
              "internalType": "uint32",
              "name": "tokenId",
              "type": "uint32"
            },
            {
              "internalType": "address payable",
              "name": "owner",
              "type": "address"
            },
            {
              "internalType": "address payable",
              "name": "seller",
              "type": "address"
            },
            {
              "internalType": "uint32",
              "name": "price",
              "type": "uint32"
            },
            {
              "internalType": "bool",
              "name": "currentlyListed",
              "type": "bool"
            },
            {
              "components": [
                {
                  "internalType": "uint32",
                  "name": "cropId",
                  "type": "uint32"
                },
                {
                  "internalType": "string",
                  "name": "cropType",
                  "type": "string"
                },
                {
                  "internalType": "uint32",
                  "name": "plantingDate",
                  "type": "uint32"
                },
                {
                  "internalType": "uint32",
                  "name": "monthsToHavest",
                  "type": "uint32"
                },
                {
                  "internalType": "string[]",
                  "name": "fertilizers",
                  "type": "string[]"
                },
                {
                  "internalType": "string[]",
                  "name": "pesticides",
                  "type": "string[]"
                },
                {
                  "internalType": "string[]",
                  "name": "diseases",
                  "type": "string[]"
                },
                {
                  "internalType": "string",
                  "name": "additionalInfo",
                  "type": "string"
                },
                {
                  "internalType": "string",
                  "name": "harvestDate",
                  "type": "string"
                }
              ],
              "internalType": "struct CropInfo.Crop",
              "name": "crop",
              "type": "tuple"
            },
            {
              "internalType": "string",
              "name": "uri",
              "type": "string"
            }
          ],
          "internalType": "struct Crop_MarketPlace.ListedTokenInfo[]",
          "name": "",
          "type": "tuple[]"
        }
      ],
      "stateMutability": "view",
      "type": "function"
    },
    {
      "inputs": [],
      "name": "getAllListedNFTs",
      "outputs": [
        {
          "components": [
            {
              "internalType": "uint32",
              "name": "tokenId",
              "type": "uint32"
            },
            {
              "internalType": "address payable",
              "name": "owner",
              "type": "address"
            },
            {
              "internalType": "address payable",
              "name": "seller",
              "type": "address"
            },
            {
              "internalType": "uint32",
              "name": "price",
              "type": "uint32"
            },
            {
              "internalType": "bool",
              "name": "currentlyListed",
              "type": "bool"
            }
          ],
          "internalType": "struct Crop_MarketPlace.ListedToken[]",
          "name": "",
          "type": "tuple[]"
        }
      ],
      "stateMutability": "view",
      "type": "function"
    },
    {
      "inputs": [],
      "name": "getAllTransactions",
      "outputs": [
        {
          "components": [
            {
              "internalType": "address",
              "name": "fromAddress",
              "type": "address"
            },
            {
              "internalType": "address",
              "name": "toAddress",
              "type": "address"
            },
            {
              "internalType": "uint32",
              "name": "productId",
              "type": "uint32"
            },
            {
              "internalType": "uint256",
              "name": "date",
              "type": "uint256"
            },
            {
              "internalType": "uint32",
              "name": "token",
              "type": "uint32"
            }
          ],
          "internalType": "struct Transactions.TransferStruct[]",
          "name": "",
          "type": "tuple[]"
        }
      ],
      "stateMutability": "view",
      "type": "function"
    },
    {
      "inputs": [],
      "name": "getHighestPrice",
      "outputs": [
        {
          "internalType": "uint32",
          "name": "",
          "type": "uint32"
        }
      ],
      "stateMutability": "view",
      "type": "function"
    },
    {
      "inputs": [
        {
          "internalType": "uint32",
          "name": "_tokenId",
          "type": "uint32"
        }
      ],
      "name": "getListedNFTForId",
      "outputs": [
        {
          "components": [
            {
              "internalType": "uint32",
              "name": "tokenId",
              "type": "uint32"
            },
            {
              "internalType": "address payable",
              "name": "owner",
              "type": "address"
            },
            {
              "internalType": "address payable",
              "name": "seller",
              "type": "address"
            },
            {
              "internalType": "uint32",
              "name": "price",
              "type": "uint32"
            },
            {
              "internalType": "bool",
              "name": "currentlyListed",
              "type": "bool"
            },
            {
              "components": [
                {
                  "internalType": "uint32",
                  "name": "cropId",
                  "type": "uint32"
                },
                {
                  "internalType": "string",
                  "name": "cropType",
                  "type": "string"
                },
                {
                  "internalType": "uint32",
                  "name": "plantingDate",
                  "type": "uint32"
                },
                {
                  "internalType": "uint32",
                  "name": "monthsToHavest",
                  "type": "uint32"
                },
                {
                  "internalType": "string[]",
                  "name": "fertilizers",
                  "type": "string[]"
                },
                {
                  "internalType": "string[]",
                  "name": "pesticides",
                  "type": "string[]"
                },
                {
                  "internalType": "string[]",
                  "name": "diseases",
                  "type": "string[]"
                },
                {
                  "internalType": "string",
                  "name": "additionalInfo",
                  "type": "string"
                },
                {
                  "internalType": "string",
                  "name": "harvestDate",
                  "type": "string"
                }
              ],
              "internalType": "struct CropInfo.Crop",
              "name": "crop",
              "type": "tuple"
            },
            {
              "internalType": "string",
              "name": "uri",
              "type": "string"
            }
          ],
          "internalType": "struct Crop_MarketPlace.ListedTokenInfo",
          "name": "",
          "type": "tuple"
        }
      ],
      "stateMutability": "view",
      "type": "function"
    },
    {
      "inputs": [
        {
          "internalType": "uint32",
          "name": "_tokenId",
          "type": "uint32"
        }
      ],
      "name": "getListedTokenForId",
      "outputs": [
        {
          "components": [
            {
              "internalType": "uint32",
              "name": "tokenId",
              "type": "uint32"
            },
            {
              "internalType": "address payable",
              "name": "owner",
              "type": "address"
            },
            {
              "internalType": "address payable",
              "name": "seller",
              "type": "address"
            },
            {
              "internalType": "uint32",
              "name": "price",
              "type": "uint32"
            },
            {
              "internalType": "bool",
              "name": "currentlyListed",
              "type": "bool"
            }
          ],
          "internalType": "struct Crop_MarketPlace.ListedToken",
          "name": "",
          "type": "tuple"
        }
      ],
      "stateMutability": "view",
      "type": "function"
    },
    {
      "inputs": [],
      "name": "getLowestPrice",
      "outputs": [
        {
          "internalType": "uint32",
          "name": "",
          "type": "uint32"
        }
      ],
      "stateMutability": "view",
      "type": "function"
    },
    {
      "inputs": [],
      "name": "getMyListedNFTInfo",
      "outputs": [
        {
          "components": [
            {
              "internalType": "uint32",
              "name": "tokenId",
              "type": "uint32"
            },
            {
              "internalType": "address payable",
              "name": "owner",
              "type": "address"
            },
            {
              "internalType": "address payable",
              "name": "seller",
              "type": "address"
            },
            {
              "internalType": "uint32",
              "name": "price",
              "type": "uint32"
            },
            {
              "internalType": "bool",
              "name": "currentlyListed",
              "type": "bool"
            },
            {
              "components": [
                {
                  "internalType": "uint32",
                  "name": "cropId",
                  "type": "uint32"
                },
                {
                  "internalType": "string",
                  "name": "cropType",
                  "type": "string"
                },
                {
                  "internalType": "uint32",
                  "name": "plantingDate",
                  "type": "uint32"
                },
                {
                  "internalType": "uint32",
                  "name": "monthsToHavest",
                  "type": "uint32"
                },
                {
                  "internalType": "string[]",
                  "name": "fertilizers",
                  "type": "string[]"
                },
                {
                  "internalType": "string[]",
                  "name": "pesticides",
                  "type": "string[]"
                },
                {
                  "internalType": "string[]",
                  "name": "diseases",
                  "type": "string[]"
                },
                {
                  "internalType": "string",
                  "name": "additionalInfo",
                  "type": "string"
                },
                {
                  "internalType": "string",
                  "name": "harvestDate",
                  "type": "string"
                }
              ],
              "internalType": "struct CropInfo.Crop",
              "name": "crop",
              "type": "tuple"
            },
            {
              "internalType": "string",
              "name": "uri",
              "type": "string"
            }
          ],
          "internalType": "struct Crop_MarketPlace.ListedTokenInfo[]",
          "name": "",
          "type": "tuple[]"
        }
      ],
      "stateMutability": "view",
      "type": "function"
    },
    {
      "inputs": [],
      "name": "getMyNFTsCount",
      "outputs": [
        {
          "internalType": "uint32",
          "name": "",
          "type": "uint32"
        }
      ],
      "stateMutability": "view",
      "type": "function"
    },
    {
      "inputs": [],
      "name": "getMyTransactions",
      "outputs": [
        {
          "components": [
            {
              "internalType": "address",
              "name": "fromAddress",
              "type": "address"
            },
            {
              "internalType": "address",
              "name": "toAddress",
              "type": "address"
            },
            {
              "internalType": "uint32",
              "name": "productId",
              "type": "uint32"
            },
            {
              "internalType": "uint256",
              "name": "date",
              "type": "uint256"
            },
            {
              "internalType": "uint32",
              "name": "token",
              "type": "uint32"
            }
          ],
          "internalType": "struct Transactions.TransferStruct[]",
          "name": "",
          "type": "tuple[]"
        }
      ],
      "stateMutability": "view",
      "type": "function"
    },
    {
      "inputs": [],
      "name": "getMyUnlistedNFTInfo",
      "outputs": [
        {
          "components": [
            {
              "internalType": "uint32",
              "name": "tokenId",
              "type": "uint32"
            },
            {
              "internalType": "address payable",
              "name": "owner",
              "type": "address"
            },
            {
              "internalType": "address payable",
              "name": "seller",
              "type": "address"
            },
            {
              "internalType": "uint32",
              "name": "price",
              "type": "uint32"
            },
            {
              "internalType": "bool",
              "name": "currentlyListed",
              "type": "bool"
            },
            {
              "components": [
                {
                  "internalType": "uint32",
                  "name": "cropId",
                  "type": "uint32"
                },
                {
                  "internalType": "string",
                  "name": "cropType",
                  "type": "string"
                },
                {
                  "internalType": "uint32",
                  "name": "plantingDate",
                  "type": "uint32"
                },
                {
                  "internalType": "uint32",
                  "name": "monthsToHavest",
                  "type": "uint32"
                },
                {
                  "internalType": "string[]",
                  "name": "fertilizers",
                  "type": "string[]"
                },
                {
                  "internalType": "string[]",
                  "name": "pesticides",
                  "type": "string[]"
                },
                {
                  "internalType": "string[]",
                  "name": "diseases",
                  "type": "string[]"
                },
                {
                  "internalType": "string",
                  "name": "additionalInfo",
                  "type": "string"
                },
                {
                  "internalType": "string",
                  "name": "harvestDate",
                  "type": "string"
                }
              ],
              "internalType": "struct CropInfo.Crop",
              "name": "crop",
              "type": "tuple"
            },
            {
              "internalType": "string",
              "name": "uri",
              "type": "string"
            }
          ],
          "internalType": "struct Crop_MarketPlace.ListedTokenInfo[]",
          "name": "",
          "type": "tuple[]"
        }
      ],
      "stateMutability": "view",
      "type": "function"
    },
    {
      "inputs": [],
      "name": "getNFTsCount",
      "outputs": [
        {
          "internalType": "uint32",
          "name": "",
          "type": "uint32"
        }
      ],
      "stateMutability": "view",
      "type": "function"
    },
    {
      "inputs": [],
      "name": "getNumberOfTransactions",
      "outputs": [
        {
          "internalType": "uint256",
          "name": "",
          "type": "uint256"
        }
      ],
      "stateMutability": "view",
      "type": "function"
    },
    {
      "inputs": [
        {
          "internalType": "address",
          "name": "user",
          "type": "address"
        }
      ],
      "name": "getTransactionsOfUser",
      "outputs": [
        {
          "components": [
            {
              "internalType": "address",
              "name": "fromAddress",
              "type": "address"
            },
            {
              "internalType": "address",
              "name": "toAddress",
              "type": "address"
            },
            {
              "internalType": "uint32",
              "name": "productId",
              "type": "uint32"
            },
            {
              "internalType": "uint256",
              "name": "date",
              "type": "uint256"
            },
            {
              "internalType": "uint32",
              "name": "token",
              "type": "uint32"
            }
          ],
          "internalType": "struct Transactions.TransferStruct[]",
          "name": "",
          "type": "tuple[]"
        }
      ],
      "stateMutability": "view",
      "type": "function"
    },
    {
      "inputs": [
        {
          "internalType": "uint32",
          "name": "",
          "type": "uint32"
        }
      ],
      "name": "idToListedToken",
      "outputs": [
        {
          "internalType": "uint32",
          "name": "tokenId",
          "type": "uint32"
        },
        {
          "internalType": "address payable",
          "name": "owner",
          "type": "address"
        },
        {
          "internalType": "address payable",
          "name": "seller",
          "type": "address"
        },
        {
          "internalType": "uint32",
          "name": "price",
          "type": "uint32"
        },
        {
          "internalType": "bool",
          "name": "currentlyListed",
          "type": "bool"
        }
      ],
      "stateMutability": "view",
      "type": "function"
    },
    {
      "inputs": [
        {
          "internalType": "uint32",
          "name": "_tokenId",
          "type": "uint32"
        }
      ],
      "name": "isOwnerOfListedNFT",
      "outputs": [
        {
          "internalType": "bool",
          "name": "",
          "type": "bool"
        }
      ],
      "stateMutability": "view",
      "type": "function"
    },
    {
      "inputs": [
        {
          "internalType": "uint32",
          "name": "_tokenId",
          "type": "uint32"
        },
        {
          "internalType": "uint32",
          "name": "_price",
          "type": "uint32"
        }
      ],
      "name": "listNFT",
      "outputs": [],
      "stateMutability": "nonpayable",
      "type": "function"
    },
    {
      "inputs": [],
      "name": "onsaleQuantity",
      "outputs": [
        {
          "internalType": "uint32",
          "name": "",
          "type": "uint32"
        }
      ],
      "stateMutability": "view",
      "type": "function"
    },
    {
      "inputs": [],
      "name": "transaction",
      "outputs": [
        {
          "internalType": "contract Transactions",
          "name": "",
          "type": "address"
        }
      ],
      "stateMutability": "view",
      "type": "function"
    },
    {
      "inputs": [
        {
          "internalType": "address",
          "name": "_to",
          "type": "address"
        },
        {
          "internalType": "uint32",
          "name": "_tokenId",
          "type": "uint32"
        }
      ],
      "name": "transctionNft",
      "outputs": [],
      "stateMutability": "nonpayable",
      "type": "function"
    },
    {
      "inputs": [
        {
          "internalType": "uint32",
          "name": "_tokenId",
          "type": "uint32"
        }
      ],
      "name": "unlistNFT",
      "outputs": [],
      "stateMutability": "nonpayable",
      "type": "function"
    },
    {
      "inputs": [
        {
          "internalType": "uint32",
          "name": "_tokenId",
          "type": "uint32"
        },
        {
          "internalType": "uint32",
          "name": "_price",
          "type": "uint32"
        }
      ],
      "name": "updateListingNftPrice",
      "outputs": [],
      "stateMutability": "nonpayable",
      "type": "function"
    }
  ],
  "bytecode": "0x60806040523480156200001157600080fd5b5060405162006a1638038062006a168339818101604052810190620000379190620001e5565b336000806101000a81548173ffffffffffffffffffffffffffffffffffffffff021916908373ffffffffffffffffffffffffffffffffffffffff16021790555081600160006101000a81548173ffffffffffffffffffffffffffffffffffffffff021916908373ffffffffffffffffffffffffffffffffffffffff16021790555080600260006101000a81548173ffffffffffffffffffffffffffffffffffffffff021916908373ffffffffffffffffffffffffffffffffffffffff16021790555060405162000107906200016d565b604051809103906000f08015801562000124573d6000803e3d6000fd5b50600360006101000a81548173ffffffffffffffffffffffffffffffffffffffff021916908373ffffffffffffffffffffffffffffffffffffffff16021790555050506200022c565b610fb38062005a6383390190565b600080fd5b600073ffffffffffffffffffffffffffffffffffffffff82169050919050565b6000620001ad8262000180565b9050919050565b620001bf81620001a0565b8114620001cb57600080fd5b50565b600081519050620001df81620001b4565b92915050565b60008060408385031215620001ff57620001fe6200017b565b5b60006200020f85828601620001ce565b92505060206200022285828601620001ce565b9150509250929050565b615827806200023c6000396000f3fe6080604052600436106101665760003560e01c8063968cb059116100d1578063bc6f1f1b1161008a578063d14c208511610064578063d14c208514610529578063d801c1e014610554578063e2e9ae5314610591578063e8d08d8a146105bc57610166565b8063bc6f1f1b14610492578063c19fb4f2146104bd578063c99de57e146104fe57610166565b8063968cb05914610382578063977af228146103bf57806397e4ca70146103ea5780639aee1d5914610415578063a5bfc01e1461043e578063afd800501461046957610166565b80634b58ffaa116101235780634b58ffaa1461028f5780634c91f36d146102ba57806353a9c374146102e557806372fbe982146103105780638d9553281461033b5780638e7d87081461036657610166565b80631b780ff91461016b5780631df43c8e1461019457806324ba506d146101bf57806327506f53146101ea57806327de33c114610215578063347809c914610252575b600080fd5b34801561017757600080fd5b50610192600480360381019061018d9190613be3565b6105e5565b005b3480156101a057600080fd5b506101a9610782565b6040516101b6919061402d565b60405180910390f35b3480156101cb57600080fd5b506101d4610de8565b6040516101e19190614068565b60405180910390f35b3480156101f657600080fd5b506101ff610e86565b60405161020c91906141ca565b60405180910390f35b34801561022157600080fd5b5061023c600480360381019061023791906141ec565b610f23565b6040516102499190614228565b60405180910390f35b34801561025e57600080fd5b50610279600480360381019061027491906141ec565b61100c565b60405161028691906142e6565b60405180910390f35b34801561029b57600080fd5b506102a4611320565b6040516102b1919061441f565b60405180910390f35b3480156102c657600080fd5b506102cf6116d1565b6040516102dc9190614450565b60405180910390f35b3480156102f157600080fd5b506102fa6118ab565b604051610307919061402d565b60405180910390f35b34801561031c57600080fd5b50610325611e22565b6040516103329190614450565b60405180910390f35b34801561034757600080fd5b50610350611e38565b60405161035d9190614450565b60405180910390f35b610380600480360381019061037b91906141ec565b611e51565b005b34801561038e57600080fd5b506103a960048036038101906103a491906141ec565b6125a3565b6040516103b691906144d3565b60405180910390f35b3480156103cb57600080fd5b506103d46126ef565b6040516103e19190614450565b60405180910390f35b3480156103f657600080fd5b506103ff6127e9565b60405161040c91906141ca565b60405180910390f35b34801561042157600080fd5b5061043c60048036038101906104379190613be3565b6127f9565b005b34801561044a57600080fd5b50610453612ccb565b604051610460919061402d565b60405180910390f35b34801561047557600080fd5b50610490600480360381019061048b91906141ec565b613441565b005b34801561049e57600080fd5b506104a7613724565b6040516104b49190614450565b60405180910390f35b3480156104c957600080fd5b506104e460048036038101906104df91906141ec565b6137fb565b6040516104f59594939291906144fd565b60405180910390f35b34801561050a57600080fd5b5061051361389e565b60405161052091906145af565b60405180910390f35b34801561053557600080fd5b5061053e6138c4565b60405161054b91906145eb565b60405180910390f35b34801561056057600080fd5b5061057b60048036038101906105769190614632565b6138ea565b60405161058891906141ca565b60405180910390f35b34801561059d57600080fd5b506105a6613994565b6040516105b39190614680565b60405180910390f35b3480156105c857600080fd5b506105e360048036038101906105de919061469b565b6139ba565b005b600460008363ffffffff1663ffffffff16815260200190815260200160002060010160189054906101000a900460ff16610654576040517f08c379a000000000000000000000000000000000000000000000000000000000815260040161064b9061475e565b60405180910390fd5b3373ffffffffffffffffffffffffffffffffffffffff16600460008463ffffffff1663ffffffff16815260200190815260200160002060000160049054906101000a900473ffffffffffffffffffffffffffffffffffffffff1673ffffffffffffffffffffffffffffffffffffffff1614610704576040517f08c379a00000000000000000000000000000000000000000000000000000000081526004016106fb906147f0565b60405180910390fd5b80600460008463ffffffff1663ffffffff16815260200190815260200160002060010160146101000a81548163ffffffff021916908363ffffffff1602179055507f20eab9bdfefb258f8be4a0cae1d5ce7a60b57acd3c63f19746efc59d451843988282604051610776929190614810565b60405180910390a15050565b60606000600160009054906101000a900473ffffffffffffffffffffffffffffffffffffffff1673ffffffffffffffffffffffffffffffffffffffff166380060ad26040518163ffffffff1660e01b8152600401602060405180830381865afa1580156107f3573d6000803e3d6000fd5b505050506040513d601f19601f82011682018060405250810190610817919061484e565b63ffffffff1690506000600160009054906101000a900473ffffffffffffffffffffffffffffffffffffffff1673ffffffffffffffffffffffffffffffffffffffff166343bed68b6040518163ffffffff1660e01b8152600401600060405180830381865afa15801561088e573d6000803e3d6000fd5b505050506040513d6000823e3d601f19601f820116820180604052508101906108b791906149c3565b905060008060149054906101000a900463ffffffff1663ffffffff1667ffffffffffffffff8111156108ec576108eb614880565b5b60405190808252806020026020018201604052801561092557816020015b610912613a4f565b81526020019060019003908161090a5790505b50905060008080600090505b858163ffffffff161015610ddc57848163ffffffff168151811061095857610957614a0c565b5b6020026020010151915060011515600460008463ffffffff1663ffffffff16815260200190815260200160002060010160189054906101000a900460ff16151503610dc9573373ffffffffffffffffffffffffffffffffffffffff16600460008463ffffffff1663ffffffff16815260200190815260200160002060000160049054906101000a900473ffffffffffffffffffffffffffffffffffffffff1673ffffffffffffffffffffffffffffffffffffffff161480610a8657503373ffffffffffffffffffffffffffffffffffffffff16600460008463ffffffff1663ffffffff16815260200190815260200160002060010160009054906101000a900473ffffffffffffffffffffffffffffffffffffffff1673ffffffffffffffffffffffffffffffffffffffff16145b15610dc8576000600460008463ffffffff1663ffffffff1681526020019081526020016000206040518060a00160405290816000820160009054906101000a900463ffffffff1663ffffffff1663ffffffff1681526020016000820160049054906101000a900473ffffffffffffffffffffffffffffffffffffffff1673ffffffffffffffffffffffffffffffffffffffff1673ffffffffffffffffffffffffffffffffffffffff1681526020016001820160009054906101000a900473ffffffffffffffffffffffffffffffffffffffff1673ffffffffffffffffffffffffffffffffffffffff1673ffffffffffffffffffffffffffffffffffffffff1681526020016001820160149054906101000a900463ffffffff1663ffffffff1663ffffffff1681526020016001820160189054906101000a900460ff16151515158152505090506000600160009054906101000a900473ffffffffffffffffffffffffffffffffffffffff1673ffffffffffffffffffffffffffffffffffffffff1663f35914e2856040518263ffffffff1660e01b8152600401610c299190614450565b600060405180830381865afa158015610c46573d6000803e3d6000fd5b505050506040513d6000823e3d601f19601f82011682018060405250810190610c6f9190614d54565b90506040518060e00160405280836000015163ffffffff168152602001836020015173ffffffffffffffffffffffffffffffffffffffff168152602001836040015173ffffffffffffffffffffffffffffffffffffffff168152602001836060015163ffffffff168152602001836080015115158152602001828152602001600160009054906101000a900473ffffffffffffffffffffffffffffffffffffffff1673ffffffffffffffffffffffffffffffffffffffff166310941323876040518263ffffffff1660e01b8152600401610d499190614450565b600060405180830381865afa158015610d66573d6000803e3d6000fd5b505050506040513d6000823e3d601f19601f82011682018060405250810190610d8f9190614d9d565b815250868663ffffffff1681518110610dab57610daa614a0c565b5b6020026020010181905250600185610dc39190614e15565b945050505b5b8080610dd490614e4d565b915050610931565b50829550505050505090565b6000600360009054906101000a900473ffffffffffffffffffffffffffffffffffffffff1673ffffffffffffffffffffffffffffffffffffffff166324ba506d6040518163ffffffff1660e01b8152600401602060405180830381865afa158015610e57573d6000803e3d6000fd5b505050506040513d601f19601f82011682018060405250810190610e7b919061484e565b63ffffffff16905090565b6060600360009054906101000a900473ffffffffffffffffffffffffffffffffffffffff1673ffffffffffffffffffffffffffffffffffffffff166327506f536040518163ffffffff1660e01b8152600401600060405180830381865afa158015610ef5573d6000803e3d6000fd5b505050506040513d6000823e3d601f19601f82011682018060405250810190610f1e9190615009565b905090565b6000600460008363ffffffff1663ffffffff16815260200190815260200160002060010160189054906101000a900460ff16610f94576040517f08c379a0000000000000000000000000000000000000000000000000000000008152600401610f8b9061475e565b60405180910390fd5b3373ffffffffffffffffffffffffffffffffffffffff16600460008463ffffffff1663ffffffff16815260200190815260200160002060000160049054906101000a900473ffffffffffffffffffffffffffffffffffffffff1673ffffffffffffffffffffffffffffffffffffffff16149050919050565b611014613a4f565b6000600460008463ffffffff1663ffffffff1681526020019081526020016000206040518060a00160405290816000820160009054906101000a900463ffffffff1663ffffffff1663ffffffff1681526020016000820160049054906101000a900473ffffffffffffffffffffffffffffffffffffffff1673ffffffffffffffffffffffffffffffffffffffff1673ffffffffffffffffffffffffffffffffffffffff1681526020016001820160009054906101000a900473ffffffffffffffffffffffffffffffffffffffff1673ffffffffffffffffffffffffffffffffffffffff1673ffffffffffffffffffffffffffffffffffffffff1681526020016001820160149054906101000a900463ffffffff1663ffffffff1663ffffffff1681526020016001820160189054906101000a900460ff16151515158152505090506000600160009054906101000a900473ffffffffffffffffffffffffffffffffffffffff1673ffffffffffffffffffffffffffffffffffffffff1663f35914e2856040518263ffffffff1660e01b81526004016111b29190614450565b600060405180830381865afa1580156111cf573d6000803e3d6000fd5b505050506040513d6000823e3d601f19601f820116820180604052508101906111f89190614d54565b90506040518060e001604052808563ffffffff168152602001836020015173ffffffffffffffffffffffffffffffffffffffff168152602001836040015173ffffffffffffffffffffffffffffffffffffffff168152602001836060015163ffffffff168152602001836080015115158152602001828152602001600160009054906101000a900473ffffffffffffffffffffffffffffffffffffffff1673ffffffffffffffffffffffffffffffffffffffff166310941323876040518263ffffffff1660e01b81526004016112ce9190614450565b600060405180830381865afa1580156112eb573d6000803e3d6000fd5b505050506040513d6000823e3d601f19601f820116820180604052508101906113149190614d9d565b81525092505050919050565b60606000600160009054906101000a900473ffffffffffffffffffffffffffffffffffffffff1673ffffffffffffffffffffffffffffffffffffffff166380060ad26040518163ffffffff1660e01b8152600401602060405180830381865afa158015611391573d6000803e3d6000fd5b505050506040513d601f19601f820116820180604052508101906113b5919061484e565b63ffffffff1690506000600160009054906101000a900473ffffffffffffffffffffffffffffffffffffffff1673ffffffffffffffffffffffffffffffffffffffff166343bed68b6040518163ffffffff1660e01b8152600401600060405180830381865afa15801561142c573d6000803e3d6000fd5b505050506040513d6000823e3d601f19601f8201168201806040525081019061145591906149c3565b905060008060149054906101000a900463ffffffff1663ffffffff1667ffffffffffffffff81111561148a57611489614880565b5b6040519080825280602002602001820160405280156114c357816020015b6114b0613acc565b8152602001906001900390816114a85790505b50905060008080600090505b858163ffffffff1610156116c557848163ffffffff16815181106114f6576114f5614a0c565b5b6020026020010151915060011515600460008463ffffffff1663ffffffff16815260200190815260200160002060010160189054906101000a900460ff161515036116b2576000600460008463ffffffff1663ffffffff1681526020019081526020016000206040518060a00160405290816000820160009054906101000a900463ffffffff1663ffffffff1663ffffffff1681526020016000820160049054906101000a900473ffffffffffffffffffffffffffffffffffffffff1673ffffffffffffffffffffffffffffffffffffffff1673ffffffffffffffffffffffffffffffffffffffff1681526020016001820160009054906101000a900473ffffffffffffffffffffffffffffffffffffffff1673ffffffffffffffffffffffffffffffffffffffff1673ffffffffffffffffffffffffffffffffffffffff1681526020016001820160149054906101000a900463ffffffff1663ffffffff1663ffffffff1681526020016001820160189054906101000a900460ff161515151581525050905080858563ffffffff168151811061169657611695614a0c565b5b60200260200101819052506001846116ae9190614e15565b9350505b80806116bd90614e4d565b9150506114cf565b50829550505050505090565b600080600160009054906101000a900473ffffffffffffffffffffffffffffffffffffffff1673ffffffffffffffffffffffffffffffffffffffff166380060ad26040518163ffffffff1660e01b8152600401602060405180830381865afa158015611741573d6000803e3d6000fd5b505050506040513d601f19601f82011682018060405250810190611765919061484e565b90506000805b8263ffffffff168163ffffffff1610156118a2573373ffffffffffffffffffffffffffffffffffffffff16600460006001846117a79190614e15565b63ffffffff1663ffffffff16815260200190815260200160002060000160049054906101000a900473ffffffffffffffffffffffffffffffffffffffff1673ffffffffffffffffffffffffffffffffffffffff16148061188057503373ffffffffffffffffffffffffffffffffffffffff166004600060018461182a9190614e15565b63ffffffff1663ffffffff16815260200190815260200160002060010160009054906101000a900473ffffffffffffffffffffffffffffffffffffffff1673ffffffffffffffffffffffffffffffffffffffff16145b15611895576001826118929190614e15565b91505b808060010191505061176b565b50809250505090565b60606000600160009054906101000a900473ffffffffffffffffffffffffffffffffffffffff1673ffffffffffffffffffffffffffffffffffffffff166380060ad26040518163ffffffff1660e01b8152600401602060405180830381865afa15801561191c573d6000803e3d6000fd5b505050506040513d601f19601f82011682018060405250810190611940919061484e565b63ffffffff1690506000600160009054906101000a900473ffffffffffffffffffffffffffffffffffffffff1673ffffffffffffffffffffffffffffffffffffffff166343bed68b6040518163ffffffff1660e01b8152600401600060405180830381865afa1580156119b7573d6000803e3d6000fd5b505050506040513d6000823e3d601f19601f820116820180604052508101906119e091906149c3565b905060008060149054906101000a900463ffffffff1663ffffffff1667ffffffffffffffff811115611a1557611a14614880565b5b604051908082528060200260200182016040528015611a4e57816020015b611a3b613a4f565b815260200190600190039081611a335790505b50905060008080600090505b858163ffffffff161015611e1657848163ffffffff1681518110611a8157611a80614a0c565b5b6020026020010151915060011515600460008463ffffffff1663ffffffff16815260200190815260200160002060010160189054906101000a900460ff16151503611e03576000600460008463ffffffff1663ffffffff1681526020019081526020016000206040518060a00160405290816000820160009054906101000a900463ffffffff1663ffffffff1663ffffffff1681526020016000820160049054906101000a900473ffffffffffffffffffffffffffffffffffffffff1673ffffffffffffffffffffffffffffffffffffffff1673ffffffffffffffffffffffffffffffffffffffff1681526020016001820160009054906101000a900473ffffffffffffffffffffffffffffffffffffffff1673ffffffffffffffffffffffffffffffffffffffff1673ffffffffffffffffffffffffffffffffffffffff1681526020016001820160149054906101000a900463ffffffff1663ffffffff1663ffffffff1681526020016001820160189054906101000a900460ff16151515158152505090506000600160009054906101000a900473ffffffffffffffffffffffffffffffffffffffff1673ffffffffffffffffffffffffffffffffffffffff1663f35914e2856040518263ffffffff1660e01b8152600401611c649190614450565b600060405180830381865afa158015611c81573d6000803e3d6000fd5b505050506040513d6000823e3d601f19601f82011682018060405250810190611caa9190614d54565b90506040518060e00160405280836000015163ffffffff168152602001836020015173ffffffffffffffffffffffffffffffffffffffff168152602001836040015173ffffffffffffffffffffffffffffffffffffffff168152602001836060015163ffffffff168152602001836080015115158152602001828152602001600160009054906101000a900473ffffffffffffffffffffffffffffffffffffffff1673ffffffffffffffffffffffffffffffffffffffff166310941323876040518263ffffffff1660e01b8152600401611d849190614450565b600060405180830381865afa158015611da1573d6000803e3d6000fd5b505050506040513d6000823e3d601f19601f82011682018060405250810190611dca9190614d9d565b815250868663ffffffff1681518110611de657611de5614a0c565b5b6020026020010181905250600185611dfe9190614e15565b945050505b8080611e0e90614e4d565b915050611a5a565b50829550505050505090565b600060149054906101000a900463ffffffff1681565b60008060149054906101000a900463ffffffff16905090565b600460008263ffffffff1663ffffffff16815260200190815260200160002060010160149054906101000a900463ffffffff1663ffffffff16600260009054906101000a900473ffffffffffffffffffffffffffffffffffffffff1673ffffffffffffffffffffffffffffffffffffffff166370a08231336040518263ffffffff1660e01b8152600401611ee59190615061565b602060405180830381865afa158015611f02573d6000803e3d6000fd5b505050506040513d601f19601f82011682018060405250810190611f26919061507c565b11611f66576040517f08c379a0000000000000000000000000000000000000000000000000000000008152600401611f5d906150f5565b60405180910390fd5b600460008263ffffffff1663ffffffff16815260200190815260200160002060010160189054906101000a900460ff16611fd5576040517f08c379a0000000000000000000000000000000000000000000000000000000008152600401611fcc90615161565b60405180910390fd5b6000600460008363ffffffff1663ffffffff1681526020019081526020016000206040518060a00160405290816000820160009054906101000a900463ffffffff1663ffffffff1663ffffffff1681526020016000820160049054906101000a900473ffffffffffffffffffffffffffffffffffffffff1673ffffffffffffffffffffffffffffffffffffffff1673ffffffffffffffffffffffffffffffffffffffff1681526020016001820160009054906101000a900473ffffffffffffffffffffffffffffffffffffffff1673ffffffffffffffffffffffffffffffffffffffff1673ffffffffffffffffffffffffffffffffffffffff1681526020016001820160149054906101000a900463ffffffff1663ffffffff1663ffffffff1681526020016001820160189054906101000a900460ff1615151515815250509050600081604001519050600082606001519050600260009054906101000a900473ffffffffffffffffffffffffffffffffffffffff1673ffffffffffffffffffffffffffffffffffffffff166323b872dd33846012600a61217691906152b4565b8563ffffffff1661218791906152ff565b6040518463ffffffff1660e01b81526004016121a593929190615341565b6020604051808303816000875af11580156121c4573d6000803e3d6000fd5b505050506040513d601f19601f820116820180604052508101906121e891906153a4565b612227576040517f08c379a000000000000000000000000000000000000000000000000000000000815260040161221e9061541d565b60405180910390fd5b600360009054906101000a900473ffffffffffffffffffffffffffffffffffffffff1673ffffffffffffffffffffffffffffffffffffffff16638652d0853360008054906101000a900473ffffffffffffffffffffffffffffffffffffffff1687856040518563ffffffff1660e01b81526004016122a8949392919061543d565b600060405180830381600087803b1580156122c257600080fd5b505af11580156122d6573d6000803e3d6000fd5b50505050600160009054906101000a900473ffffffffffffffffffffffffffffffffffffffff1673ffffffffffffffffffffffffffffffffffffffff166323b872dd8333876040518463ffffffff1660e01b8152600401612339939291906154b3565b600060405180830381600087803b15801561235357600080fd5b505af1158015612367573d6000803e3d6000fd5b505050506040518060a001604052808563ffffffff1681526020013373ffffffffffffffffffffffffffffffffffffffff1681526020013373ffffffffffffffffffffffffffffffffffffffff168152602001600063ffffffff16815260200160001515815250600460008663ffffffff1663ffffffff16815260200190815260200160002060008201518160000160006101000a81548163ffffffff021916908363ffffffff16021790555060208201518160000160046101000a81548173ffffffffffffffffffffffffffffffffffffffff021916908373ffffffffffffffffffffffffffffffffffffffff16021790555060408201518160010160006101000a81548173ffffffffffffffffffffffffffffffffffffffff021916908373ffffffffffffffffffffffffffffffffffffffff16021790555060608201518160010160146101000a81548163ffffffff021916908363ffffffff16021790555060808201518160010160186101000a81548160ff0219169083151502179055509050506000601481819054906101000a900463ffffffff168092919061250e906154ea565b91906101000a81548163ffffffff021916908363ffffffff1602179055505060008054906101000a900473ffffffffffffffffffffffffffffffffffffffff1673ffffffffffffffffffffffffffffffffffffffff167f42686bfa4b329c6682aeb55b6f8fa55a5ae004254d45c61c9fd01a596ee6cd368583604051612595929190614810565b60405180910390a250505050565b6125ab613acc565b600460008363ffffffff1663ffffffff1681526020019081526020016000206040518060a00160405290816000820160009054906101000a900463ffffffff1663ffffffff1663ffffffff1681526020016000820160049054906101000a900473ffffffffffffffffffffffffffffffffffffffff1673ffffffffffffffffffffffffffffffffffffffff1673ffffffffffffffffffffffffffffffffffffffff1681526020016001820160009054906101000a900473ffffffffffffffffffffffffffffffffffffffff1673ffffffffffffffffffffffffffffffffffffffff1673ffffffffffffffffffffffffffffffffffffffff1681526020016001820160149054906101000a900463ffffffff1663ffffffff1663ffffffff1681526020016001820160189054906101000a900460ff1615151515815250509050919050565b600080600060149054906101000a900463ffffffff1663ffffffff160361271957600090506127e6565b6000612723611320565b905060008160008151811061273b5761273a614a0c565b5b602002602001015160600151905060005b600060149054906101000a900463ffffffff1663ffffffff168163ffffffff1610156127df578163ffffffff16838263ffffffff168151811061279257612791614a0c565b5b60200260200101516060015163ffffffff1610156127d257828163ffffffff16815181106127c3576127c2614a0c565b5b60200260200101516060015191505b808060010191505061274c565b5080925050505b90565b60606127f4336138ea565b905090565b3373ffffffffffffffffffffffffffffffffffffffff16600160009054906101000a900473ffffffffffffffffffffffffffffffffffffffff1673ffffffffffffffffffffffffffffffffffffffff16636352211e846040518263ffffffff1660e01b815260040161286b9190615513565b602060405180830381865afa158015612888573d6000803e3d6000fd5b505050506040513d601f19601f820116820180604052508101906128ac919061552e565b73ffffffffffffffffffffffffffffffffffffffff1614612902576040517f08c379a00000000000000000000000000000000000000000000000000000000081526004016128f9906155cd565b60405180910390fd5b60001515600460008463ffffffff1663ffffffff16815260200190815260200160002060010160189054906101000a900460ff16151514612978576040517f08c379a000000000000000000000000000000000000000000000000000000000815260040161296f90615639565b60405180910390fd5b3073ffffffffffffffffffffffffffffffffffffffff16600160009054906101000a900473ffffffffffffffffffffffffffffffffffffffff1673ffffffffffffffffffffffffffffffffffffffff1663081812fc846040518263ffffffff1660e01b81526004016129ea9190615513565b602060405180830381865afa158015612a07573d6000803e3d6000fd5b505050506040513d601f19601f82011682018060405250810190612a2b919061552e565b73ffffffffffffffffffffffffffffffffffffffff1614612a81576040517f08c379a0000000000000000000000000000000000000000000000000000000008152600401612a78906156cb565b60405180910390fd5b6000601481819054906101000a900463ffffffff1680929190612aa390614e4d565b91906101000a81548163ffffffff021916908363ffffffff160217905550506040518060a001604052808363ffffffff1681526020013373ffffffffffffffffffffffffffffffffffffffff1681526020013373ffffffffffffffffffffffffffffffffffffffff1681526020018263ffffffff16815260200160011515815250600460008463ffffffff1663ffffffff16815260200190815260200160002060008201518160000160006101000a81548163ffffffff021916908363ffffffff16021790555060208201518160000160046101000a81548173ffffffffffffffffffffffffffffffffffffffff021916908373ffffffffffffffffffffffffffffffffffffffff16021790555060408201518160010160006101000a81548173ffffffffffffffffffffffffffffffffffffffff021916908373ffffffffffffffffffffffffffffffffffffffff16021790555060608201518160010160146101000a81548163ffffffff021916908363ffffffff16021790555060808201518160010160186101000a81548160ff0219169083151502179055509050508163ffffffff167f849c80b22c9473c4981e674f8cf81ca6684433d960359bf76287d138a078213b60008054906101000a900473ffffffffffffffffffffffffffffffffffffffff1660008054906101000a900473ffffffffffffffffffffffffffffffffffffffff16846001604051612cbf949392919061570c565b60405180910390a25050565b60606000600160009054906101000a900473ffffffffffffffffffffffffffffffffffffffff1673ffffffffffffffffffffffffffffffffffffffff166380060ad26040518163ffffffff1660e01b8152600401602060405180830381865afa158015612d3c573d6000803e3d6000fd5b505050506040513d601f19601f82011682018060405250810190612d60919061484e565b63ffffffff1690506000600160009054906101000a900473ffffffffffffffffffffffffffffffffffffffff1673ffffffffffffffffffffffffffffffffffffffff166343bed68b6040518163ffffffff1660e01b8152600401600060405180830381865afa158015612dd7573d6000803e3d6000fd5b505050506040513d6000823e3d601f19601f82011682018060405250810190612e0091906149c3565b9050600080806000905060005b858163ffffffff161015612f6b57848163ffffffff1681518110612e3457612e33614a0c565b5b6020026020010151925060001515600460008563ffffffff1663ffffffff16815260200190815260200160002060010160189054906101000a900460ff16151503612f58573373ffffffffffffffffffffffffffffffffffffffff16600160009054906101000a900473ffffffffffffffffffffffffffffffffffffffff1673ffffffffffffffffffffffffffffffffffffffff16633d8029aa856040518263ffffffff1660e01b8152600401612eeb9190614450565b602060405180830381865afa158015612f08573d6000803e3d6000fd5b505050506040513d601f19601f82011682018060405250810190612f2c919061552e565b73ffffffffffffffffffffffffffffffffffffffff1603612f5757600182612f549190615751565b91505b5b8080612f6390614e4d565b915050612e0d565b5060008167ffffffffffffffff811115612f8857612f87614880565b5b604051908082528060200260200182016040528015612fc157816020015b612fae613a4f565b815260200190600190039081612fa65790505b50905060005b868163ffffffff16101561343457858163ffffffff1681518110612fee57612fed614a0c565b5b6020026020010151935060001515600460008663ffffffff1663ffffffff16815260200190815260200160002060010160189054906101000a900460ff16151503613421573373ffffffffffffffffffffffffffffffffffffffff16600160009054906101000a900473ffffffffffffffffffffffffffffffffffffffff1673ffffffffffffffffffffffffffffffffffffffff16633d8029aa866040518263ffffffff1660e01b81526004016130a59190614450565b602060405180830381865afa1580156130c2573d6000803e3d6000fd5b505050506040513d601f19601f820116820180604052508101906130e6919061552e565b73ffffffffffffffffffffffffffffffffffffffff1603613420576000600160009054906101000a900473ffffffffffffffffffffffffffffffffffffffff1673ffffffffffffffffffffffffffffffffffffffff1663f35914e2866040518263ffffffff1660e01b815260040161315e9190614450565b600060405180830381865afa15801561317b573d6000803e3d6000fd5b505050506040513d6000823e3d601f19601f820116820180604052508101906131a49190614d54565b90506040518060e001604052808663ffffffff168152602001600160009054906101000a900473ffffffffffffffffffffffffffffffffffffffff1673ffffffffffffffffffffffffffffffffffffffff16633d8029aa886040518263ffffffff1660e01b81526004016132189190614450565b602060405180830381865afa158015613235573d6000803e3d6000fd5b505050506040513d601f19601f82011682018060405250810190613259919061552e565b73ffffffffffffffffffffffffffffffffffffffff168152602001600160009054906101000a900473ffffffffffffffffffffffffffffffffffffffff1673ffffffffffffffffffffffffffffffffffffffff16633d8029aa886040518263ffffffff1660e01b81526004016132cf9190614450565b602060405180830381865afa1580156132ec573d6000803e3d6000fd5b505050506040513d601f19601f82011682018060405250810190613310919061552e565b73ffffffffffffffffffffffffffffffffffffffff168152602001600063ffffffff168152602001600015158152602001828152602001600160009054906101000a900473ffffffffffffffffffffffffffffffffffffffff1673ffffffffffffffffffffffffffffffffffffffff166310941323886040518263ffffffff1660e01b81526004016133a29190614450565b600060405180830381865afa1580156133bf573d6000803e3d6000fd5b505050506040513d6000823e3d601f19601f820116820180604052508101906133e89190614d9d565b815250838763ffffffff168151811061340457613403614a0c565b5b602002602001018190525060018661341c9190614e15565b9550505b5b808061342c90614e4d565b915050612fc7565b5080965050505050505090565b3373ffffffffffffffffffffffffffffffffffffffff16600460008363ffffffff1663ffffffff16815260200190815260200160002060000160049054906101000a900473ffffffffffffffffffffffffffffffffffffffff1673ffffffffffffffffffffffffffffffffffffffff16146134f1576040517f08c379a00000000000000000000000000000000000000000000000000000000081526004016134e8906157d1565b60405180910390fd5b6040518060a001604052808263ffffffff1681526020013373ffffffffffffffffffffffffffffffffffffffff1681526020013373ffffffffffffffffffffffffffffffffffffffff168152602001600063ffffffff16815260200160001515815250600460008363ffffffff1663ffffffff16815260200190815260200160002060008201518160000160006101000a81548163ffffffff021916908363ffffffff16021790555060208201518160000160046101000a81548173ffffffffffffffffffffffffffffffffffffffff021916908373ffffffffffffffffffffffffffffffffffffffff16021790555060408201518160010160006101000a81548173ffffffffffffffffffffffffffffffffffffffff021916908373ffffffffffffffffffffffffffffffffffffffff16021790555060608201518160010160146101000a81548163ffffffff021916908363ffffffff16021790555060808201518160010160186101000a81548160ff0219169083151502179055509050506000601481819054906101000a900463ffffffff1680929190613694906154ea565b91906101000a81548163ffffffff021916908363ffffffff1602179055505060008054906101000a900473ffffffffffffffffffffffffffffffffffffffff1673ffffffffffffffffffffffffffffffffffffffff167fa2bf512dfbf14020549d23d98676158e4bab6a92c84a5c64835b357f43f12029826040516137199190614450565b60405180910390a250565b600080600060149054906101000a900463ffffffff1663ffffffff160361374e57600090506137f8565b600080613759611320565b905060005b600060149054906101000a900463ffffffff1663ffffffff168163ffffffff1610156137f1578263ffffffff16828263ffffffff16815181106137a4576137a3614a0c565b5b60200260200101516060015163ffffffff1611156137e457818163ffffffff16815181106137d5576137d4614a0c565b5b60200260200101516060015192505b808060010191505061375e565b5081925050505b90565b60046020528060005260406000206000915090508060000160009054906101000a900463ffffffff16908060000160049054906101000a900473ffffffffffffffffffffffffffffffffffffffff16908060010160009054906101000a900473ffffffffffffffffffffffffffffffffffffffff16908060010160149054906101000a900463ffffffff16908060010160189054906101000a900460ff16905085565b600360009054906101000a900473ffffffffffffffffffffffffffffffffffffffff1681565b600260009054906101000a900473ffffffffffffffffffffffffffffffffffffffff1681565b6060600360009054906101000a900473ffffffffffffffffffffffffffffffffffffffff1673ffffffffffffffffffffffffffffffffffffffff1663013bd2ba836040518263ffffffff1660e01b81526004016139479190615061565b600060405180830381865afa158015613964573d6000803e3d6000fd5b505050506040513d6000823e3d601f19601f8201168201806040525081019061398d9190615009565b9050919050565b600160009054906101000a900473ffffffffffffffffffffffffffffffffffffffff1681565b600160009054906101000a900473ffffffffffffffffffffffffffffffffffffffff1673ffffffffffffffffffffffffffffffffffffffff166323b872dd3384846040518463ffffffff1660e01b8152600401613a19939291906154b3565b600060405180830381600087803b158015613a3357600080fd5b505af1158015613a47573d6000803e3d6000fd5b505050505050565b6040518060e00160405280600063ffffffff168152602001600073ffffffffffffffffffffffffffffffffffffffff168152602001600073ffffffffffffffffffffffffffffffffffffffff168152602001600063ffffffff168152602001600015158152602001613abf613b35565b8152602001606081525090565b6040518060a00160405280600063ffffffff168152602001600073ffffffffffffffffffffffffffffffffffffffff168152602001600073ffffffffffffffffffffffffffffffffffffffff168152602001600063ffffffff1681526020016000151581525090565b604051806101200160405280600063ffffffff16815260200160608152602001600063ffffffff168152602001600063ffffffff16815260200160608152602001606081526020016060815260200160608152602001606081525090565b6000604051905090565b600080fd5b600080fd5b600063ffffffff82169050919050565b613bc081613ba7565b8114613bcb57600080fd5b50565b600081359050613bdd81613bb7565b92915050565b60008060408385031215613bfa57613bf9613b9d565b5b6000613c0885828601613bce565b9250506020613c1985828601613bce565b9150509250929050565b600081519050919050565b600082825260208201905092915050565b6000819050602082019050919050565b613c5881613ba7565b82525050565b600073ffffffffffffffffffffffffffffffffffffffff82169050919050565b6000613c8982613c5e565b9050919050565b613c9981613c7e565b82525050565b60008115159050919050565b613cb481613c9f565b82525050565b600081519050919050565b600082825260208201905092915050565b60005b83811015613cf4578082015181840152602081019050613cd9565b60008484015250505050565b6000601f19601f8301169050919050565b6000613d1c82613cba565b613d268185613cc5565b9350613d36818560208601613cd6565b613d3f81613d00565b840191505092915050565b600081519050919050565b600082825260208201905092915050565b6000819050602082019050919050565b6000613d828383613d11565b905092915050565b6000602082019050919050565b6000613da282613d4a565b613dac8185613d55565b935083602082028501613dbe85613d66565b8060005b85811015613dfa5784840389528151613ddb8582613d76565b9450613de683613d8a565b925060208a01995050600181019050613dc2565b50829750879550505050505092915050565b600061012083016000830151613e256000860182613c4f565b5060208301518482036020860152613e3d8282613d11565b9150506040830151613e526040860182613c4f565b506060830151613e656060860182613c4f565b5060808301518482036080860152613e7d8282613d97565b91505060a083015184820360a0860152613e978282613d97565b91505060c083015184820360c0860152613eb18282613d97565b91505060e083015184820360e0860152613ecb8282613d11565b915050610100830151848203610100860152613ee78282613d11565b9150508091505092915050565b600060e083016000830151613f0c6000860182613c4f565b506020830151613f1f6020860182613c90565b506040830151613f326040860182613c90565b506060830151613f456060860182613c4f565b506080830151613f586080860182613cab565b5060a083015184820360a0860152613f708282613e0c565b91505060c083015184820360c0860152613f8a8282613d11565b9150508091505092915050565b6000613fa38383613ef4565b905092915050565b6000602082019050919050565b6000613fc382613c23565b613fcd8185613c2e565b935083602082028501613fdf85613c3f565b8060005b8581101561401b5784840389528151613ffc8582613f97565b945061400783613fab565b925060208a01995050600181019050613fe3565b50829750879550505050505092915050565b600060208201905081810360008301526140478184613fb8565b905092915050565b6000819050919050565b6140628161404f565b82525050565b600060208201905061407d6000830184614059565b92915050565b600081519050919050565b600082825260208201905092915050565b6000819050602082019050919050565b60006140ba82613c5e565b9050919050565b6140ca816140af565b82525050565b6140d98161404f565b82525050565b60a0820160008201516140f560008501826140c1565b50602082015161410860208501826140c1565b50604082015161411b6040850182613c4f565b50606082015161412e60608501826140d0565b5060808201516141416080850182613c4f565b50505050565b600061415383836140df565b60a08301905092915050565b6000602082019050919050565b600061417782614083565b614181818561408e565b935061418c8361409f565b8060005b838110156141bd5781516141a48882614147565b97506141af8361415f565b925050600181019050614190565b5085935050505092915050565b600060208201905081810360008301526141e4818461416c565b905092915050565b60006020828403121561420257614201613b9d565b5b600061421084828501613bce565b91505092915050565b61422281613c9f565b82525050565b600060208201905061423d6000830184614219565b92915050565b600060e08301600083015161425b6000860182613c4f565b50602083015161426e6020860182613c90565b5060408301516142816040860182613c90565b5060608301516142946060860182613c4f565b5060808301516142a76080860182613cab565b5060a083015184820360a08601526142bf8282613e0c565b91505060c083015184820360c08601526142d98282613d11565b9150508091505092915050565b600060208201905081810360008301526143008184614243565b905092915050565b600081519050919050565b600082825260208201905092915050565b6000819050602082019050919050565b60a08201600082015161434a6000850182613c4f565b50602082015161435d6020850182613c90565b5060408201516143706040850182613c90565b5060608201516143836060850182613c4f565b5060808201516143966080850182613cab565b50505050565b60006143a88383614334565b60a08301905092915050565b6000602082019050919050565b60006143cc82614308565b6143d68185614313565b93506143e183614324565b8060005b838110156144125781516143f9888261439c565b9750614404836143b4565b9250506001810190506143e5565b5085935050505092915050565b6000602082019050818103600083015261443981846143c1565b905092915050565b61444a81613ba7565b82525050565b60006020820190506144656000830184614441565b92915050565b60a0820160008201516144816000850182613c4f565b5060208201516144946020850182613c90565b5060408201516144a76040850182613c90565b5060608201516144ba6060850182613c4f565b5060808201516144cd6080850182613cab565b50505050565b600060a0820190506144e8600083018461446b565b92915050565b6144f781613c7e565b82525050565b600060a0820190506145126000830188614441565b61451f60208301876144ee565b61452c60408301866144ee565b6145396060830185614441565b6145466080830184614219565b9695505050505050565b6000819050919050565b600061457561457061456b84613c5e565b614550565b613c5e565b9050919050565b60006145878261455a565b9050919050565b60006145998261457c565b9050919050565b6145a98161458e565b82525050565b60006020820190506145c460008301846145a0565b92915050565b60006145d58261457c565b9050919050565b6145e5816145ca565b82525050565b600060208201905061460060008301846145dc565b92915050565b61460f816140af565b811461461a57600080fd5b50565b60008135905061462c81614606565b92915050565b60006020828403121561464857614647613b9d565b5b60006146568482850161461d565b91505092915050565b600061466a8261457c565b9050919050565b61467a8161465f565b82525050565b60006020820190506146956000830184614671565b92915050565b600080604083850312156146b2576146b1613b9d565b5b60006146c08582860161461d565b92505060206146d185828601613bce565b9150509250929050565b600082825260208201905092915050565b7f54686973204e465420646f65736e2774206578697374206f6e206d61726b657460008201527f706c616365000000000000000000000000000000000000000000000000000000602082015250565b60006147486025836146db565b9150614753826146ec565b604082019050919050565b600060208201905081810360008301526147778161473b565b9050919050565b7f4f6e6c79206f776e65722063616e20757064617465207072696365206f66207460008201527f686973204e465400000000000000000000000000000000000000000000000000602082015250565b60006147da6027836146db565b91506147e58261477e565b604082019050919050565b60006020820190508181036000830152614809816147cd565b9050919050565b60006040820190506148256000830185614441565b6148326020830184614441565b9392505050565b60008151905061484881613bb7565b92915050565b60006020828403121561486457614863613b9d565b5b600061487284828501614839565b91505092915050565b600080fd5b7f4e487b7100000000000000000000000000000000000000000000000000000000600052604160045260246000fd5b6148b882613d00565b810181811067ffffffffffffffff821117156148d7576148d6614880565b5b80604052505050565b60006148ea613b93565b90506148f682826148af565b919050565b600067ffffffffffffffff82111561491657614915614880565b5b602082029050602081019050919050565b600080fd5b600061493f61493a846148fb565b6148e0565b9050808382526020820190506020840283018581111561496257614961614927565b5b835b8181101561498b57806149778882614839565b845260208401935050602081019050614964565b5050509392505050565b600082601f8301126149aa576149a961487b565b5b81516149ba84826020860161492c565b91505092915050565b6000602082840312156149d9576149d8613b9d565b5b600082015167ffffffffffffffff8111156149f7576149f6613ba2565b5b614a0384828501614995565b91505092915050565b7f4e487b7100000000000000000000000000000000000000000000000000000000600052603260045260246000fd5b600080fd5b600080fd5b600080fd5b600067ffffffffffffffff821115614a6557614a64614880565b5b614a6e82613d00565b9050602081019050919050565b6000614a8e614a8984614a4a565b6148e0565b905082815260208101848484011115614aaa57614aa9614a45565b5b614ab5848285613cd6565b509392505050565b600082601f830112614ad257614ad161487b565b5b8151614ae2848260208601614a7b565b91505092915050565b600067ffffffffffffffff821115614b0657614b05614880565b5b602082029050602081019050919050565b6000614b2a614b2584614aeb565b6148e0565b90508083825260208201905060208402830185811115614b4d57614b4c614927565b5b835b81811015614b9457805167ffffffffffffffff811115614b7257614b7161487b565b5b808601614b7f8982614abd565b85526020850194505050602081019050614b4f565b5050509392505050565b600082601f830112614bb357614bb261487b565b5b8151614bc3848260208601614b17565b91505092915050565b60006101208284031215614be357614be2614a3b565b5b614bee6101206148e0565b90506000614bfe84828501614839565b600083015250602082015167ffffffffffffffff811115614c2257614c21614a40565b5b614c2e84828501614abd565b6020830152506040614c4284828501614839565b6040830152506060614c5684828501614839565b606083015250608082015167ffffffffffffffff811115614c7a57614c79614a40565b5b614c8684828501614b9e565b60808301525060a082015167ffffffffffffffff811115614caa57614ca9614a40565b5b614cb684828501614b9e565b60a08301525060c082015167ffffffffffffffff811115614cda57614cd9614a40565b5b614ce684828501614b9e565b60c08301525060e082015167ffffffffffffffff811115614d0a57614d09614a40565b5b614d1684828501614abd565b60e08301525061010082015167ffffffffffffffff811115614d3b57614d3a614a40565b5b614d4784828501614abd565b6101008301525092915050565b600060208284031215614d6a57614d69613b9d565b5b600082015167ffffffffffffffff811115614d8857614d87613ba2565b5b614d9484828501614bcc565b91505092915050565b600060208284031215614db357614db2613b9d565b5b600082015167ffffffffffffffff811115614dd157614dd0613ba2565b5b614ddd84828501614abd565b91505092915050565b7f4e487b7100000000000000000000000000000000000000000000000000000000600052601160045260246000fd5b6000614e2082613ba7565b9150614e2b83613ba7565b9250828201905063ffffffff811115614e4757614e46614de6565b5b92915050565b6000614e5882613ba7565b915063ffffffff8203614e6e57614e6d614de6565b5b600182019050919050565b600067ffffffffffffffff821115614e9457614e93614880565b5b602082029050602081019050919050565b600081519050614eb481614606565b92915050565b614ec38161404f565b8114614ece57600080fd5b50565b600081519050614ee081614eba565b92915050565b600060a08284031215614efc57614efb614a3b565b5b614f0660a06148e0565b90506000614f1684828501614ea5565b6000830152506020614f2a84828501614ea5565b6020830152506040614f3e84828501614839565b6040830152506060614f5284828501614ed1565b6060830152506080614f6684828501614839565b60808301525092915050565b6000614f85614f8084614e79565b6148e0565b90508083825260208201905060a08402830185811115614fa857614fa7614927565b5b835b81811015614fd15780614fbd8882614ee6565b84526020840193505060a081019050614faa565b5050509392505050565b600082601f830112614ff057614fef61487b565b5b8151615000848260208601614f72565b91505092915050565b60006020828403121561501f5761501e613b9d565b5b600082015167ffffffffffffffff81111561503d5761503c613ba2565b5b61504984828501614fdb565b91505092915050565b61505b816140af565b82525050565b60006020820190506150766000830184615052565b92915050565b60006020828403121561509257615091613b9d565b5b60006150a084828501614ed1565b91505092915050565b7f496e73756666696369656e74206163636f756e742062616c616e636500000000600082015250565b60006150df601c836146db565b91506150ea826150a9565b602082019050919050565b6000602082019050818103600083015261510e816150d2565b9050919050565b7f4e4654207761736e2774206c6973746564207965742e00000000000000000000600082015250565b600061514b6016836146db565b915061515682615115565b602082019050919050565b6000602082019050818103600083015261517a8161513e565b9050919050565b60008160011c9050919050565b6000808291508390505b60018511156151d8578086048111156151b4576151b3614de6565b5b60018516156151c35780820291505b80810290506151d185615181565b9450615198565b94509492505050565b6000826151f157600190506152ad565b816151ff57600090506152ad565b8160018114615215576002811461521f5761524e565b60019150506152ad565b60ff84111561523157615230614de6565b5b8360020a91508482111561524857615247614de6565b5b506152ad565b5060208310610133831016604e8410600b84101617156152835782820a90508381111561527e5761527d614de6565b5b6152ad565b615290848484600161518e565b925090508184048111156152a7576152a6614de6565b5b81810290505b9392505050565b60006152bf8261404f565b91506152ca8361404f565b92506152f77fffffffffffffffffffffffffffffffffffffffffffffffffffffffffffffffff84846151e1565b905092915050565b600061530a8261404f565b91506153158361404f565b92508282026153238161404f565b9150828204841483151761533a57615339614de6565b5b5092915050565b60006060820190506153566000830186615052565b6153636020830185615052565b6153706040830184614059565b949350505050565b61538181613c9f565b811461538c57600080fd5b50565b60008151905061539e81615378565b92915050565b6000602082840312156153ba576153b9613b9d565b5b60006153c88482850161538f565b91505092915050565b7f546f6b656e207472616e73666572206661696c65640000000000000000000000600082015250565b60006154076015836146db565b9150615412826153d1565b602082019050919050565b60006020820190508181036000830152615436816153fa565b9050919050565b600060808201905061545260008301876144ee565b61545f60208301866144ee565b61546c6040830185614441565b6154796060830184614441565b95945050505050565b600061549d61549861549384613ba7565b614550565b61404f565b9050919050565b6154ad81615482565b82525050565b60006060820190506154c86000830186615052565b6154d56020830185615052565b6154e260408301846154a4565b949350505050565b60006154f582613ba7565b91506000820361550857615507614de6565b5b600182039050919050565b600060208201905061552860008301846154a4565b92915050565b60006020828403121561554457615543613b9d565b5b600061555284828501614ea5565b91505092915050565b7f596f7520617265206e6f7420746865206f776e6572206f662074686973204e4660008201527f5400000000000000000000000000000000000000000000000000000000000000602082015250565b60006155b76021836146db565b91506155c28261555b565b604082019050919050565b600060208201905081810360008301526155e6816155aa565b9050919050565b7f4e465420697320616c7265616479206c69737465640000000000000000000000600082015250565b60006156236015836146db565b915061562e826155ed565b602082019050919050565b6000602082019050818103600083015261565281615616565b9050919050565b7f4d61726b6574706c61636520636f6e7472616374206973206e6f74206170707260008201527f6f76656420746f207472616e736665722074686973204e465400000000000000602082015250565b60006156b56039836146db565b91506156c082615659565b604082019050919050565b600060208201905081810360008301526156e4816156a8565b9050919050565b60006156f68261457c565b9050919050565b615706816156eb565b82525050565b600060808201905061572160008301876156fd565b61572e60208301866156fd565b61573b6040830185614441565b6157486060830184614219565b95945050505050565b600061575c8261404f565b91506157678361404f565b925082820190508082111561577f5761577e614de6565b5b92915050565b7f596f7520617265206e6f74206f776e65722074686973204e4654000000000000600082015250565b60006157bb601a836146db565b91506157c682615785565b602082019050919050565b600060208201905081810360008301526157ea816157ae565b905091905056fea26469706673582212205bdab4c7980a3daaf19cd52e7122804a9cbd81deea6de707ad1ce18874d745b564736f6c63430008180033608060405234801561001057600080fd5b50610f93806100206000396000f3fe608060405234801561001057600080fd5b50600436106100575760003560e01c8063013bd2ba1461005c57806324ba506d1461008c57806327506f53146100aa5780638652d085146100c8578063bd005975146100e4575b600080fd5b61007660048036038101906100719190610aac565b610118565b6040516100839190610c37565b60405180910390f35b610094610539565b6040516100a19190610c68565b60405180910390f35b6100b2610552565b6040516100bf9190610c37565b60405180910390f35b6100e260048036038101906100dd9190610ced565b61074f565b005b6100fe60048036038101906100f99190610d54565b61094c565b60405161010f959493929190610d9f565b60405180910390f35b60606000805b60008054906101000a900463ffffffff1663ffffffff168163ffffffff16101561024c578373ffffffffffffffffffffffffffffffffffffffff16600160008363ffffffff1663ffffffff16815260200190815260200160002060000160009054906101000a900473ffffffffffffffffffffffffffffffffffffffff1673ffffffffffffffffffffffffffffffffffffffff16148061022b57508373ffffffffffffffffffffffffffffffffffffffff16600160008363ffffffff1663ffffffff16815260200190815260200160002060010160009054906101000a900473ffffffffffffffffffffffffffffffffffffffff1673ffffffffffffffffffffffffffffffffffffffff16145b1561023f57818061023b90610e21565b9250505b808060010191505061011e565b5060008163ffffffff1667ffffffffffffffff81111561026f5761026e610e4d565b5b6040519080825280602002602001820160405280156102a857816020015b6102956109e2565b81526020019060019003908161028d5790505b5090506000805b60008054906101000a900463ffffffff1663ffffffff168163ffffffff16101561052d578573ffffffffffffffffffffffffffffffffffffffff16600160008363ffffffff1663ffffffff16815260200190815260200160002060000160009054906101000a900473ffffffffffffffffffffffffffffffffffffffff1673ffffffffffffffffffffffffffffffffffffffff1614806103bc57508573ffffffffffffffffffffffffffffffffffffffff16600160008363ffffffff1663ffffffff16815260200190815260200160002060010160009054906101000a900473ffffffffffffffffffffffffffffffffffffffff1673ffffffffffffffffffffffffffffffffffffffff16145b1561052057600160008263ffffffff1663ffffffff1681526020019081526020016000206040518060a00160405290816000820160009054906101000a900473ffffffffffffffffffffffffffffffffffffffff1673ffffffffffffffffffffffffffffffffffffffff1673ffffffffffffffffffffffffffffffffffffffff1681526020016001820160009054906101000a900473ffffffffffffffffffffffffffffffffffffffff1673ffffffffffffffffffffffffffffffffffffffff1673ffffffffffffffffffffffffffffffffffffffff1681526020016001820160149054906101000a900463ffffffff1663ffffffff1663ffffffff168152602001600282015481526020016003820160009054906101000a900463ffffffff1663ffffffff1663ffffffff1681525050838363ffffffff168151811061050657610505610e7c565b5b6020026020010181905250818061051c90610e21565b9250505b80806001019150506102af565b50819350505050919050565b60008060009054906101000a900463ffffffff16905090565b606060008060009054906101000a900463ffffffff1663ffffffff1667ffffffffffffffff81111561058757610586610e4d565b5b6040519080825280602002602001820160405280156105c057816020015b6105ad6109e2565b8152602001906001900390816105a55790505b50905060005b60008054906101000a900463ffffffff1663ffffffff168163ffffffff16101561074757600160008263ffffffff1663ffffffff1681526020019081526020016000206040518060a00160405290816000820160009054906101000a900473ffffffffffffffffffffffffffffffffffffffff1673ffffffffffffffffffffffffffffffffffffffff1673ffffffffffffffffffffffffffffffffffffffff1681526020016001820160009054906101000a900473ffffffffffffffffffffffffffffffffffffffff1673ffffffffffffffffffffffffffffffffffffffff1673ffffffffffffffffffffffffffffffffffffffff1681526020016001820160149054906101000a900463ffffffff1663ffffffff1663ffffffff168152602001600282015481526020016003820160009054906101000a900463ffffffff1663ffffffff1663ffffffff1681525050828263ffffffff168151811061072f5761072e610e7c565b5b602002602001018190525080806001019150506105c6565b508091505090565b6040518060a001604052808573ffffffffffffffffffffffffffffffffffffffff1681526020018473ffffffffffffffffffffffffffffffffffffffff1681526020018363ffffffff1681526020014281526020018263ffffffff16815250600160008060009054906101000a900463ffffffff1663ffffffff1663ffffffff16815260200190815260200160002060008201518160000160006101000a81548173ffffffffffffffffffffffffffffffffffffffff021916908373ffffffffffffffffffffffffffffffffffffffff16021790555060208201518160010160006101000a81548173ffffffffffffffffffffffffffffffffffffffff021916908373ffffffffffffffffffffffffffffffffffffffff16021790555060408201518160010160146101000a81548163ffffffff021916908363ffffffff1602179055506060820151816002015560808201518160030160006101000a81548163ffffffff021916908363ffffffff16021790555090505060008081819054906101000a900463ffffffff16809291906108e890610e21565b91906101000a81548163ffffffff021916908363ffffffff160217905550507f0bc15ee85445904869e24981b9782bddf7398584d6b7997228fdd8793193dbbe848484428560405161093e959493929190610f0a565b60405180910390a150505050565b60016020528060005260406000206000915090508060000160009054906101000a900473ffffffffffffffffffffffffffffffffffffffff16908060010160009054906101000a900473ffffffffffffffffffffffffffffffffffffffff16908060010160149054906101000a900463ffffffff16908060020154908060030160009054906101000a900463ffffffff16905085565b6040518060a00160405280600073ffffffffffffffffffffffffffffffffffffffff168152602001600073ffffffffffffffffffffffffffffffffffffffff168152602001600063ffffffff16815260200160008152602001600063ffffffff1681525090565b600080fd5b600073ffffffffffffffffffffffffffffffffffffffff82169050919050565b6000610a7982610a4e565b9050919050565b610a8981610a6e565b8114610a9457600080fd5b50565b600081359050610aa681610a80565b92915050565b600060208284031215610ac257610ac1610a49565b5b6000610ad084828501610a97565b91505092915050565b600081519050919050565b600082825260208201905092915050565b6000819050602082019050919050565b610b0e81610a6e565b82525050565b600063ffffffff82169050919050565b610b2d81610b14565b82525050565b6000819050919050565b610b4681610b33565b82525050565b60a082016000820151610b626000850182610b05565b506020820151610b756020850182610b05565b506040820151610b886040850182610b24565b506060820151610b9b6060850182610b3d565b506080820151610bae6080850182610b24565b50505050565b6000610bc08383610b4c565b60a08301905092915050565b6000602082019050919050565b6000610be482610ad9565b610bee8185610ae4565b9350610bf983610af5565b8060005b83811015610c2a578151610c118882610bb4565b9750610c1c83610bcc565b925050600181019050610bfd565b5085935050505092915050565b60006020820190508181036000830152610c518184610bd9565b905092915050565b610c6281610b14565b82525050565b6000602082019050610c7d6000830184610c59565b92915050565b6000610c8e82610a4e565b9050919050565b610c9e81610c83565b8114610ca957600080fd5b50565b600081359050610cbb81610c95565b92915050565b610cca81610b14565b8114610cd557600080fd5b50565b600081359050610ce781610cc1565b92915050565b60008060008060808587031215610d0757610d06610a49565b5b6000610d1587828801610cac565b9450506020610d2687828801610cac565b9350506040610d3787828801610cd8565b9250506060610d4887828801610cd8565b91505092959194509250565b600060208284031215610d6a57610d69610a49565b5b6000610d7884828501610cd8565b91505092915050565b610d8a81610a6e565b82525050565b610d9981610b33565b82525050565b600060a082019050610db46000830188610d81565b610dc16020830187610d81565b610dce6040830186610c59565b610ddb6060830185610d90565b610de86080830184610c59565b9695505050505050565b7f4e487b7100000000000000000000000000000000000000000000000000000000600052601160045260246000fd5b6000610e2c82610b14565b915063ffffffff8203610e4257610e41610df2565b5b600182019050919050565b7f4e487b7100000000000000000000000000000000000000000000000000000000600052604160045260246000fd5b7f4e487b7100000000000000000000000000000000000000000000000000000000600052603260045260246000fd5b6000819050919050565b6000610ed0610ecb610ec684610a4e565b610eab565b610a4e565b9050919050565b6000610ee282610eb5565b9050919050565b6000610ef482610ed7565b9050919050565b610f0481610ee9565b82525050565b600060a082019050610f1f6000830188610efb565b610f2c6020830187610efb565b610f396040830186610c59565b610f466060830185610d90565b610f536080830184610c59565b969550505050505056fea26469706673582212201d3832cdc20f08673fe462fb9e4d9cb1e3adc08a0d0409272a2de46457e7d84764736f6c63430008180033",
  "linkReferences": {},
  "deployedLinkReferences": {}
}