{
  "_format": "hh-sol-artifact-1",
  "contractName": "Crop_MarketPlace",
  "sourceName": "contracts/CropMarketPlace.sol",
  "abi": [
    {
      "inputs": [
        {
          "internalType": "address",
          "name": "_NFTAddress",
          "type": "address"
        },
        {
          "internalType": "address",
          "name": "_tokenAddress",
          "type": "address"
        }
      ],
      "stateMutability": "nonpayable",
      "type": "constructor"
    },
    {
      "anonymous": false,
      "inputs": [
        {
          "indexed": true,
          "internalType": "address",
          "name": "_from",
          "type": "address"
        },
        {
          "indexed": false,
          "internalType": "uint32",
          "name": "_tokenId",
          "type": "uint32"
        },
        {
          "indexed": false,
          "internalType": "uint32",
          "name": "_price",
          "type": "uint32"
        }
      ],
      "name": "BuyNFT",
      "type": "event"
    },
    {
      "anonymous": false,
      "inputs": [
        {
          "indexed": true,
          "internalType": "address",
          "name": "_from",
          "type": "address"
        },
        {
          "indexed": false,
          "internalType": "uint32",
          "name": "_tokenId",
          "type": "uint32"
        },
        {
          "indexed": false,
          "internalType": "uint32",
          "name": "_price",
          "type": "uint32"
        }
      ],
      "name": "ListNFT",
      "type": "event"
    },
    {
      "anonymous": false,
      "inputs": [
        {
          "indexed": true,
          "internalType": "uint32",
          "name": "tokenId",
          "type": "uint32"
        },
        {
          "indexed": false,
          "internalType": "address",
          "name": "owner",
          "type": "address"
        },
        {
          "indexed": false,
          "internalType": "address",
          "name": "seller",
          "type": "address"
        },
        {
          "indexed": false,
          "internalType": "uint32",
          "name": "price",
          "type": "uint32"
        },
        {
          "indexed": false,
          "internalType": "bool",
          "name": "currentlyListed",
          "type": "bool"
        }
      ],
      "name": "TokenListedSuccess",
      "type": "event"
    },
    {
      "anonymous": false,
      "inputs": [
        {
          "indexed": true,
          "internalType": "address",
          "name": "_from",
          "type": "address"
        },
        {
          "indexed": false,
          "internalType": "uint32",
          "name": "_tokenId",
          "type": "uint32"
        }
      ],
      "name": "UnlistNFT",
      "type": "event"
    },
    {
      "anonymous": false,
      "inputs": [
        {
          "indexed": false,
          "internalType": "uint32",
          "name": "_tokenId",
          "type": "uint32"
        },
        {
          "indexed": false,
          "internalType": "uint32",
          "name": "_price",
          "type": "uint32"
        }
      ],
      "name": "UpdateListingNFTPrice",
      "type": "event"
    },
    {
      "inputs": [
        {
          "internalType": "uint32",
          "name": "_tokenId",
          "type": "uint32"
        }
      ],
      "name": "buyNft",
      "outputs": [],
      "stateMutability": "payable",
      "type": "function"
    },
    {
      "inputs": [],
      "name": "cropNFT",
      "outputs": [
        {
          "internalType": "contract CropNFT",
          "name": "",
          "type": "address"
        }
      ],
      "stateMutability": "view",
      "type": "function"
    },
    {
      "inputs": [],
      "name": "floppyToken",
      "outputs": [
        {
          "internalType": "contract Floppy",
          "name": "",
          "type": "address"
        }
      ],
      "stateMutability": "view",
      "type": "function"
    },
    {
      "inputs": [],
      "name": "getAllListedNFTInfo",
      "outputs": [
        {
          "components": [
            {
              "internalType": "uint32",
              "name": "tokenId",
              "type": "uint32"
            },
            {
              "internalType": "address payable",
              "name": "owner",
              "type": "address"
            },
            {
              "internalType": "address payable",
              "name": "seller",
              "type": "address"
            },
            {
              "internalType": "uint32",
              "name": "price",
              "type": "uint32"
            },
            {
              "internalType": "bool",
              "name": "currentlyListed",
              "type": "bool"
            },
            {
              "components": [
                {
                  "internalType": "uint32",
                  "name": "cropId",
                  "type": "uint32"
                },
                {
                  "internalType": "string",
                  "name": "cropType",
                  "type": "string"
                },
                {
                  "internalType": "uint32",
                  "name": "plantingDate",
                  "type": "uint32"
                },
                {
                  "internalType": "uint32",
                  "name": "monthsToHavest",
                  "type": "uint32"
                },
                {
                  "internalType": "string[]",
                  "name": "fertilizers",
                  "type": "string[]"
                },
                {
                  "internalType": "string[]",
                  "name": "pesticides",
                  "type": "string[]"
                },
                {
                  "internalType": "string[]",
                  "name": "diseases",
                  "type": "string[]"
                },
                {
                  "internalType": "string",
                  "name": "additionalInfo",
                  "type": "string"
                },
                {
                  "internalType": "string",
                  "name": "harvestDate",
                  "type": "string"
                }
              ],
              "internalType": "struct CropInfo.Crop",
              "name": "crop",
              "type": "tuple"
            },
            {
              "internalType": "string",
              "name": "uri",
              "type": "string"
            }
          ],
          "internalType": "struct Crop_MarketPlace.ListedTokenInfo[]",
          "name": "",
          "type": "tuple[]"
        }
      ],
      "stateMutability": "view",
      "type": "function"
    },
    {
      "inputs": [],
      "name": "getAllListedNFTs",
      "outputs": [
        {
          "components": [
            {
              "internalType": "uint32",
              "name": "tokenId",
              "type": "uint32"
            },
            {
              "internalType": "address payable",
              "name": "owner",
              "type": "address"
            },
            {
              "internalType": "address payable",
              "name": "seller",
              "type": "address"
            },
            {
              "internalType": "uint32",
              "name": "price",
              "type": "uint32"
            },
            {
              "internalType": "bool",
              "name": "currentlyListed",
              "type": "bool"
            }
          ],
          "internalType": "struct Crop_MarketPlace.ListedToken[]",
          "name": "",
          "type": "tuple[]"
        }
      ],
      "stateMutability": "view",
      "type": "function"
    },
    {
      "inputs": [],
      "name": "getAllTransactions",
      "outputs": [
        {
          "components": [
            {
              "internalType": "address",
              "name": "sender",
              "type": "address"
            },
            {
              "internalType": "address",
              "name": "receiver",
              "type": "address"
            },
            {
              "internalType": "uint256",
              "name": "amount",
              "type": "uint256"
            },
            {
              "internalType": "string",
              "name": "message",
              "type": "string"
            },
            {
              "internalType": "uint256",
              "name": "timestamp",
              "type": "uint256"
            }
          ],
          "internalType": "struct Transactions.TransferStruct[]",
          "name": "",
          "type": "tuple[]"
        }
      ],
      "stateMutability": "view",
      "type": "function"
    },
    {
      "inputs": [],
      "name": "getHighestPrice",
      "outputs": [
        {
          "internalType": "uint32",
          "name": "",
          "type": "uint32"
        }
      ],
      "stateMutability": "view",
      "type": "function"
    },
    {
      "inputs": [
        {
          "internalType": "uint32",
          "name": "_tokenId",
          "type": "uint32"
        }
      ],
      "name": "getListedNFTForId",
      "outputs": [
        {
          "components": [
            {
              "internalType": "uint32",
              "name": "tokenId",
              "type": "uint32"
            },
            {
              "internalType": "address payable",
              "name": "owner",
              "type": "address"
            },
            {
              "internalType": "address payable",
              "name": "seller",
              "type": "address"
            },
            {
              "internalType": "uint32",
              "name": "price",
              "type": "uint32"
            },
            {
              "internalType": "bool",
              "name": "currentlyListed",
              "type": "bool"
            },
            {
              "components": [
                {
                  "internalType": "uint32",
                  "name": "cropId",
                  "type": "uint32"
                },
                {
                  "internalType": "string",
                  "name": "cropType",
                  "type": "string"
                },
                {
                  "internalType": "uint32",
                  "name": "plantingDate",
                  "type": "uint32"
                },
                {
                  "internalType": "uint32",
                  "name": "monthsToHavest",
                  "type": "uint32"
                },
                {
                  "internalType": "string[]",
                  "name": "fertilizers",
                  "type": "string[]"
                },
                {
                  "internalType": "string[]",
                  "name": "pesticides",
                  "type": "string[]"
                },
                {
                  "internalType": "string[]",
                  "name": "diseases",
                  "type": "string[]"
                },
                {
                  "internalType": "string",
                  "name": "additionalInfo",
                  "type": "string"
                },
                {
                  "internalType": "string",
                  "name": "harvestDate",
                  "type": "string"
                }
              ],
              "internalType": "struct CropInfo.Crop",
              "name": "crop",
              "type": "tuple"
            },
            {
              "internalType": "string",
              "name": "uri",
              "type": "string"
            }
          ],
          "internalType": "struct Crop_MarketPlace.ListedTokenInfo",
          "name": "",
          "type": "tuple"
        }
      ],
      "stateMutability": "view",
      "type": "function"
    },
    {
      "inputs": [
        {
          "internalType": "uint32",
          "name": "_tokenId",
          "type": "uint32"
        }
      ],
      "name": "getListedTokenForId",
      "outputs": [
        {
          "components": [
            {
              "internalType": "uint32",
              "name": "tokenId",
              "type": "uint32"
            },
            {
              "internalType": "address payable",
              "name": "owner",
              "type": "address"
            },
            {
              "internalType": "address payable",
              "name": "seller",
              "type": "address"
            },
            {
              "internalType": "uint32",
              "name": "price",
              "type": "uint32"
            },
            {
              "internalType": "bool",
              "name": "currentlyListed",
              "type": "bool"
            }
          ],
          "internalType": "struct Crop_MarketPlace.ListedToken",
          "name": "",
          "type": "tuple"
        }
      ],
      "stateMutability": "view",
      "type": "function"
    },
    {
      "inputs": [],
      "name": "getLowestPrice",
      "outputs": [
        {
          "internalType": "uint32",
          "name": "",
          "type": "uint32"
        }
      ],
      "stateMutability": "view",
      "type": "function"
    },
    {
      "inputs": [],
      "name": "getMyListedNFTInfo",
      "outputs": [
        {
          "components": [
            {
              "internalType": "uint32",
              "name": "tokenId",
              "type": "uint32"
            },
            {
              "internalType": "address payable",
              "name": "owner",
              "type": "address"
            },
            {
              "internalType": "address payable",
              "name": "seller",
              "type": "address"
            },
            {
              "internalType": "uint32",
              "name": "price",
              "type": "uint32"
            },
            {
              "internalType": "bool",
              "name": "currentlyListed",
              "type": "bool"
            },
            {
              "components": [
                {
                  "internalType": "uint32",
                  "name": "cropId",
                  "type": "uint32"
                },
                {
                  "internalType": "string",
                  "name": "cropType",
                  "type": "string"
                },
                {
                  "internalType": "uint32",
                  "name": "plantingDate",
                  "type": "uint32"
                },
                {
                  "internalType": "uint32",
                  "name": "monthsToHavest",
                  "type": "uint32"
                },
                {
                  "internalType": "string[]",
                  "name": "fertilizers",
                  "type": "string[]"
                },
                {
                  "internalType": "string[]",
                  "name": "pesticides",
                  "type": "string[]"
                },
                {
                  "internalType": "string[]",
                  "name": "diseases",
                  "type": "string[]"
                },
                {
                  "internalType": "string",
                  "name": "additionalInfo",
                  "type": "string"
                },
                {
                  "internalType": "string",
                  "name": "harvestDate",
                  "type": "string"
                }
              ],
              "internalType": "struct CropInfo.Crop",
              "name": "crop",
              "type": "tuple"
            },
            {
              "internalType": "string",
              "name": "uri",
              "type": "string"
            }
          ],
          "internalType": "struct Crop_MarketPlace.ListedTokenInfo[]",
          "name": "",
          "type": "tuple[]"
        }
      ],
      "stateMutability": "view",
      "type": "function"
    },
    {
      "inputs": [],
      "name": "getMyNFTsCount",
      "outputs": [
        {
          "internalType": "uint32",
          "name": "",
          "type": "uint32"
        }
      ],
      "stateMutability": "view",
      "type": "function"
    },
    {
      "inputs": [],
      "name": "getMyUnlistedNFTInfo",
      "outputs": [
        {
          "components": [
            {
              "internalType": "uint32",
              "name": "tokenId",
              "type": "uint32"
            },
            {
              "internalType": "address payable",
              "name": "owner",
              "type": "address"
            },
            {
              "internalType": "address payable",
              "name": "seller",
              "type": "address"
            },
            {
              "internalType": "uint32",
              "name": "price",
              "type": "uint32"
            },
            {
              "internalType": "bool",
              "name": "currentlyListed",
              "type": "bool"
            },
            {
              "components": [
                {
                  "internalType": "uint32",
                  "name": "cropId",
                  "type": "uint32"
                },
                {
                  "internalType": "string",
                  "name": "cropType",
                  "type": "string"
                },
                {
                  "internalType": "uint32",
                  "name": "plantingDate",
                  "type": "uint32"
                },
                {
                  "internalType": "uint32",
                  "name": "monthsToHavest",
                  "type": "uint32"
                },
                {
                  "internalType": "string[]",
                  "name": "fertilizers",
                  "type": "string[]"
                },
                {
                  "internalType": "string[]",
                  "name": "pesticides",
                  "type": "string[]"
                },
                {
                  "internalType": "string[]",
                  "name": "diseases",
                  "type": "string[]"
                },
                {
                  "internalType": "string",
                  "name": "additionalInfo",
                  "type": "string"
                },
                {
                  "internalType": "string",
                  "name": "harvestDate",
                  "type": "string"
                }
              ],
              "internalType": "struct CropInfo.Crop",
              "name": "crop",
              "type": "tuple"
            },
            {
              "internalType": "string",
              "name": "uri",
              "type": "string"
            }
          ],
          "internalType": "struct Crop_MarketPlace.ListedTokenInfo[]",
          "name": "",
          "type": "tuple[]"
        }
      ],
      "stateMutability": "view",
      "type": "function"
    },
    {
      "inputs": [],
      "name": "getNFTsCount",
      "outputs": [
        {
          "internalType": "uint32",
          "name": "",
          "type": "uint32"
        }
      ],
      "stateMutability": "view",
      "type": "function"
    },
    {
      "inputs": [],
      "name": "getNumberOfTransactions",
      "outputs": [
        {
          "internalType": "uint256",
          "name": "",
          "type": "uint256"
        }
      ],
      "stateMutability": "view",
      "type": "function"
    },
    {
      "inputs": [
        {
          "internalType": "address",
          "name": "user",
          "type": "address"
        }
      ],
      "name": "getTransactionsOfUser",
      "outputs": [
        {
          "components": [
            {
              "internalType": "address",
              "name": "sender",
              "type": "address"
            },
            {
              "internalType": "address",
              "name": "receiver",
              "type": "address"
            },
            {
              "internalType": "uint256",
              "name": "amount",
              "type": "uint256"
            },
            {
              "internalType": "string",
              "name": "message",
              "type": "string"
            },
            {
              "internalType": "uint256",
              "name": "timestamp",
              "type": "uint256"
            }
          ],
          "internalType": "struct Transactions.TransferStruct[]",
          "name": "",
          "type": "tuple[]"
        }
      ],
      "stateMutability": "view",
      "type": "function"
    },
    {
      "inputs": [
        {
          "internalType": "uint32",
          "name": "",
          "type": "uint32"
        }
      ],
      "name": "idToListedToken",
      "outputs": [
        {
          "internalType": "uint32",
          "name": "tokenId",
          "type": "uint32"
        },
        {
          "internalType": "address payable",
          "name": "owner",
          "type": "address"
        },
        {
          "internalType": "address payable",
          "name": "seller",
          "type": "address"
        },
        {
          "internalType": "uint32",
          "name": "price",
          "type": "uint32"
        },
        {
          "internalType": "bool",
          "name": "currentlyListed",
          "type": "bool"
        }
      ],
      "stateMutability": "view",
      "type": "function"
    },
    {
      "inputs": [
        {
          "internalType": "uint32",
          "name": "_tokenId",
          "type": "uint32"
        }
      ],
      "name": "isOwnerOfListedNFT",
      "outputs": [
        {
          "internalType": "bool",
          "name": "",
          "type": "bool"
        }
      ],
      "stateMutability": "view",
      "type": "function"
    },
    {
      "inputs": [
        {
          "internalType": "uint32",
          "name": "_tokenId",
          "type": "uint32"
        },
        {
          "internalType": "uint32",
          "name": "_price",
          "type": "uint32"
        }
      ],
      "name": "listNFT",
      "outputs": [],
      "stateMutability": "nonpayable",
      "type": "function"
    },
    {
      "inputs": [],
      "name": "onsaleQuantity",
      "outputs": [
        {
          "internalType": "uint32",
          "name": "",
          "type": "uint32"
        }
      ],
      "stateMutability": "view",
      "type": "function"
    },
    {
      "inputs": [],
      "name": "transaction",
      "outputs": [
        {
          "internalType": "contract Transactions",
          "name": "",
          "type": "address"
        }
      ],
      "stateMutability": "view",
      "type": "function"
    },
    {
      "inputs": [
        {
          "internalType": "address",
          "name": "_to",
          "type": "address"
        },
        {
          "internalType": "uint32",
          "name": "_tokenId",
          "type": "uint32"
        }
      ],
      "name": "transctionNft",
      "outputs": [],
      "stateMutability": "nonpayable",
      "type": "function"
    },
    {
      "inputs": [
        {
          "internalType": "uint32",
          "name": "_tokenId",
          "type": "uint32"
        }
      ],
      "name": "unlistNFT",
      "outputs": [],
      "stateMutability": "nonpayable",
      "type": "function"
    },
    {
      "inputs": [
        {
          "internalType": "uint32",
          "name": "_tokenId",
          "type": "uint32"
        },
        {
          "internalType": "uint32",
          "name": "_price",
          "type": "uint32"
        }
      ],
      "name": "updateListingNftPrice",
      "outputs": [],
      "stateMutability": "nonpayable",
      "type": "function"
    }
  ],
  "bytecode": "0x60806040523480156200001157600080fd5b506040516200584a3803806200584a83398181016040528101906200003791906200016b565b336000806101000a81548173ffffffffffffffffffffffffffffffffffffffff021916908373ffffffffffffffffffffffffffffffffffffffff16021790555081600160006101000a81548173ffffffffffffffffffffffffffffffffffffffff021916908373ffffffffffffffffffffffffffffffffffffffff16021790555080600260006101000a81548173ffffffffffffffffffffffffffffffffffffffff021916908373ffffffffffffffffffffffffffffffffffffffff1602179055505050620001b2565b600080fd5b600073ffffffffffffffffffffffffffffffffffffffff82169050919050565b6000620001338262000106565b9050919050565b620001458162000126565b81146200015157600080fd5b50565b60008151905062000165816200013a565b92915050565b6000806040838503121562000185576200018462000101565b5b6000620001958582860162000154565b9250506020620001a88582860162000154565b9150509250929050565b61568880620001c26000396000f3fe60806040526004361061014b5760003560e01c8063968cb059116100b6578063c19fb4f21161006f578063c19fb4f214610477578063c99de57e146104b8578063d14c2085146104e3578063d801c1e01461050e578063e2e9ae531461054b578063e8d08d8a146105765761014b565b8063968cb05914610367578063977af228146103a45780639aee1d59146103cf578063a5bfc01e146103f8578063afd8005014610423578063bc6f1f1b1461044c5761014b565b80634b58ffaa116101085780634b58ffaa146102745780634c91f36d1461029f57806353a9c374146102ca57806372fbe982146102f55780638d955328146103205780638e7d87081461034b5761014b565b80631b780ff9146101505780631df43c8e1461017957806324ba506d146101a457806327506f53146101cf57806327de33c1146101fa578063347809c914610237575b600080fd5b34801561015c57600080fd5b5061017760048036038101906101729190613a38565b61059f565b005b34801561018557600080fd5b5061018e61073c565b60405161019b9190613e82565b60405180910390f35b3480156101b057600080fd5b506101b9610da2565b6040516101c69190613ebd565b60405180910390f35b3480156101db57600080fd5b506101e4610e3a565b6040516101f19190614040565b60405180910390f35b34801561020657600080fd5b50610221600480360381019061021c9190614062565b610ed7565b60405161022e919061409e565b60405180910390f35b34801561024357600080fd5b5061025e60048036038101906102599190614062565b610fc0565b60405161026b919061415c565b60405180910390f35b34801561028057600080fd5b506102896112d4565b6040516102969190614295565b60405180910390f35b3480156102ab57600080fd5b506102b4611685565b6040516102c191906142c6565b60405180910390f35b3480156102d657600080fd5b506102df61185f565b6040516102ec9190613e82565b60405180910390f35b34801561030157600080fd5b5061030a611dd6565b60405161031791906142c6565b60405180910390f35b34801561032c57600080fd5b50610335611dec565b60405161034291906142c6565b60405180910390f35b61036560048036038101906103609190614062565b611e05565b005b34801561037357600080fd5b5061038e60048036038101906103899190614062565b612511565b60405161039b9190614349565b60405180910390f35b3480156103b057600080fd5b506103b961265d565b6040516103c691906142c6565b60405180910390f35b3480156103db57600080fd5b506103f660048036038101906103f19190613a38565b612757565b005b34801561040457600080fd5b5061040d612b20565b60405161041a9190613e82565b60405180910390f35b34801561042f57600080fd5b5061044a60048036038101906104459190614062565b613296565b005b34801561045857600080fd5b50610461613579565b60405161046e91906142c6565b60405180910390f35b34801561048357600080fd5b5061049e60048036038101906104999190614062565b613650565b6040516104af959493929190614373565b60405180910390f35b3480156104c457600080fd5b506104cd6136f3565b6040516104da9190614425565b60405180910390f35b3480156104ef57600080fd5b506104f8613719565b6040516105059190614461565b60405180910390f35b34801561051a57600080fd5b50610535600480360381019061053091906144a8565b61373f565b6040516105429190614040565b60405180910390f35b34801561055757600080fd5b506105606137e9565b60405161056d91906144f6565b60405180910390f35b34801561058257600080fd5b5061059d60048036038101906105989190614511565b61380f565b005b600460008363ffffffff1663ffffffff16815260200190815260200160002060010160189054906101000a900460ff1661060e576040517f08c379a0000000000000000000000000000000000000000000000000000000008152600401610605906145d4565b60405180910390fd5b3373ffffffffffffffffffffffffffffffffffffffff16600460008463ffffffff1663ffffffff16815260200190815260200160002060000160049054906101000a900473ffffffffffffffffffffffffffffffffffffffff1673ffffffffffffffffffffffffffffffffffffffff16146106be576040517f08c379a00000000000000000000000000000000000000000000000000000000081526004016106b590614666565b60405180910390fd5b80600460008463ffffffff1663ffffffff16815260200190815260200160002060010160146101000a81548163ffffffff021916908363ffffffff1602179055507f20eab9bdfefb258f8be4a0cae1d5ce7a60b57acd3c63f19746efc59d451843988282604051610730929190614686565b60405180910390a15050565b60606000600160009054906101000a900473ffffffffffffffffffffffffffffffffffffffff1673ffffffffffffffffffffffffffffffffffffffff166380060ad26040518163ffffffff1660e01b8152600401602060405180830381865afa1580156107ad573d6000803e3d6000fd5b505050506040513d601f19601f820116820180604052508101906107d191906146c4565b63ffffffff1690506000600160009054906101000a900473ffffffffffffffffffffffffffffffffffffffff1673ffffffffffffffffffffffffffffffffffffffff166343bed68b6040518163ffffffff1660e01b8152600401600060405180830381865afa158015610848573d6000803e3d6000fd5b505050506040513d6000823e3d601f19601f820116820180604052508101906108719190614839565b905060008060149054906101000a900463ffffffff1663ffffffff1667ffffffffffffffff8111156108a6576108a56146f6565b5b6040519080825280602002602001820160405280156108df57816020015b6108cc6138a4565b8152602001906001900390816108c45790505b50905060008080600090505b858163ffffffff161015610d9657848163ffffffff168151811061091257610911614882565b5b6020026020010151915060011515600460008463ffffffff1663ffffffff16815260200190815260200160002060010160189054906101000a900460ff16151503610d83573373ffffffffffffffffffffffffffffffffffffffff16600460008463ffffffff1663ffffffff16815260200190815260200160002060000160049054906101000a900473ffffffffffffffffffffffffffffffffffffffff1673ffffffffffffffffffffffffffffffffffffffff161480610a4057503373ffffffffffffffffffffffffffffffffffffffff16600460008463ffffffff1663ffffffff16815260200190815260200160002060010160009054906101000a900473ffffffffffffffffffffffffffffffffffffffff1673ffffffffffffffffffffffffffffffffffffffff16145b15610d82576000600460008463ffffffff1663ffffffff1681526020019081526020016000206040518060a00160405290816000820160009054906101000a900463ffffffff1663ffffffff1663ffffffff1681526020016000820160049054906101000a900473ffffffffffffffffffffffffffffffffffffffff1673ffffffffffffffffffffffffffffffffffffffff1673ffffffffffffffffffffffffffffffffffffffff1681526020016001820160009054906101000a900473ffffffffffffffffffffffffffffffffffffffff1673ffffffffffffffffffffffffffffffffffffffff1673ffffffffffffffffffffffffffffffffffffffff1681526020016001820160149054906101000a900463ffffffff1663ffffffff1663ffffffff1681526020016001820160189054906101000a900460ff16151515158152505090506000600160009054906101000a900473ffffffffffffffffffffffffffffffffffffffff1673ffffffffffffffffffffffffffffffffffffffff1663f35914e2856040518263ffffffff1660e01b8152600401610be391906142c6565b600060405180830381865afa158015610c00573d6000803e3d6000fd5b505050506040513d6000823e3d601f19601f82011682018060405250810190610c299190614bca565b90506040518060e00160405280836000015163ffffffff168152602001836020015173ffffffffffffffffffffffffffffffffffffffff168152602001836040015173ffffffffffffffffffffffffffffffffffffffff168152602001836060015163ffffffff168152602001836080015115158152602001828152602001600160009054906101000a900473ffffffffffffffffffffffffffffffffffffffff1673ffffffffffffffffffffffffffffffffffffffff166310941323876040518263ffffffff1660e01b8152600401610d0391906142c6565b600060405180830381865afa158015610d20573d6000803e3d6000fd5b505050506040513d6000823e3d601f19601f82011682018060405250810190610d499190614c13565b815250868663ffffffff1681518110610d6557610d64614882565b5b6020026020010181905250600185610d7d9190614c8b565b945050505b5b8080610d8e90614cc3565b9150506108eb565b50829550505050505090565b6000600360009054906101000a900473ffffffffffffffffffffffffffffffffffffffff1673ffffffffffffffffffffffffffffffffffffffff166324ba506d6040518163ffffffff1660e01b8152600401602060405180830381865afa158015610e11573d6000803e3d6000fd5b505050506040513d601f19601f82011682018060405250810190610e359190614d1b565b905090565b6060600360009054906101000a900473ffffffffffffffffffffffffffffffffffffffff1673ffffffffffffffffffffffffffffffffffffffff166327506f536040518163ffffffff1660e01b8152600401600060405180830381865afa158015610ea9573d6000803e3d6000fd5b505050506040513d6000823e3d601f19601f82011682018060405250810190610ed29190614ee6565b905090565b6000600460008363ffffffff1663ffffffff16815260200190815260200160002060010160189054906101000a900460ff16610f48576040517f08c379a0000000000000000000000000000000000000000000000000000000008152600401610f3f906145d4565b60405180910390fd5b3373ffffffffffffffffffffffffffffffffffffffff16600460008463ffffffff1663ffffffff16815260200190815260200160002060000160049054906101000a900473ffffffffffffffffffffffffffffffffffffffff1673ffffffffffffffffffffffffffffffffffffffff16149050919050565b610fc86138a4565b6000600460008463ffffffff1663ffffffff1681526020019081526020016000206040518060a00160405290816000820160009054906101000a900463ffffffff1663ffffffff1663ffffffff1681526020016000820160049054906101000a900473ffffffffffffffffffffffffffffffffffffffff1673ffffffffffffffffffffffffffffffffffffffff1673ffffffffffffffffffffffffffffffffffffffff1681526020016001820160009054906101000a900473ffffffffffffffffffffffffffffffffffffffff1673ffffffffffffffffffffffffffffffffffffffff1673ffffffffffffffffffffffffffffffffffffffff1681526020016001820160149054906101000a900463ffffffff1663ffffffff1663ffffffff1681526020016001820160189054906101000a900460ff16151515158152505090506000600160009054906101000a900473ffffffffffffffffffffffffffffffffffffffff1673ffffffffffffffffffffffffffffffffffffffff1663f35914e2856040518263ffffffff1660e01b815260040161116691906142c6565b600060405180830381865afa158015611183573d6000803e3d6000fd5b505050506040513d6000823e3d601f19601f820116820180604052508101906111ac9190614bca565b90506040518060e001604052808563ffffffff168152602001836020015173ffffffffffffffffffffffffffffffffffffffff168152602001836040015173ffffffffffffffffffffffffffffffffffffffff168152602001836060015163ffffffff168152602001836080015115158152602001828152602001600160009054906101000a900473ffffffffffffffffffffffffffffffffffffffff1673ffffffffffffffffffffffffffffffffffffffff166310941323876040518263ffffffff1660e01b815260040161128291906142c6565b600060405180830381865afa15801561129f573d6000803e3d6000fd5b505050506040513d6000823e3d601f19601f820116820180604052508101906112c89190614c13565b81525092505050919050565b60606000600160009054906101000a900473ffffffffffffffffffffffffffffffffffffffff1673ffffffffffffffffffffffffffffffffffffffff166380060ad26040518163ffffffff1660e01b8152600401602060405180830381865afa158015611345573d6000803e3d6000fd5b505050506040513d601f19601f8201168201806040525081019061136991906146c4565b63ffffffff1690506000600160009054906101000a900473ffffffffffffffffffffffffffffffffffffffff1673ffffffffffffffffffffffffffffffffffffffff166343bed68b6040518163ffffffff1660e01b8152600401600060405180830381865afa1580156113e0573d6000803e3d6000fd5b505050506040513d6000823e3d601f19601f820116820180604052508101906114099190614839565b905060008060149054906101000a900463ffffffff1663ffffffff1667ffffffffffffffff81111561143e5761143d6146f6565b5b60405190808252806020026020018201604052801561147757816020015b611464613921565b81526020019060019003908161145c5790505b50905060008080600090505b858163ffffffff16101561167957848163ffffffff16815181106114aa576114a9614882565b5b6020026020010151915060011515600460008463ffffffff1663ffffffff16815260200190815260200160002060010160189054906101000a900460ff16151503611666576000600460008463ffffffff1663ffffffff1681526020019081526020016000206040518060a00160405290816000820160009054906101000a900463ffffffff1663ffffffff1663ffffffff1681526020016000820160049054906101000a900473ffffffffffffffffffffffffffffffffffffffff1673ffffffffffffffffffffffffffffffffffffffff1673ffffffffffffffffffffffffffffffffffffffff1681526020016001820160009054906101000a900473ffffffffffffffffffffffffffffffffffffffff1673ffffffffffffffffffffffffffffffffffffffff1673ffffffffffffffffffffffffffffffffffffffff1681526020016001820160149054906101000a900463ffffffff1663ffffffff1663ffffffff1681526020016001820160189054906101000a900460ff161515151581525050905080858563ffffffff168151811061164a57611649614882565b5b60200260200101819052506001846116629190614c8b565b9350505b808061167190614cc3565b915050611483565b50829550505050505090565b600080600160009054906101000a900473ffffffffffffffffffffffffffffffffffffffff1673ffffffffffffffffffffffffffffffffffffffff166380060ad26040518163ffffffff1660e01b8152600401602060405180830381865afa1580156116f5573d6000803e3d6000fd5b505050506040513d601f19601f8201168201806040525081019061171991906146c4565b90506000805b8263ffffffff168163ffffffff161015611856573373ffffffffffffffffffffffffffffffffffffffff166004600060018461175b9190614c8b565b63ffffffff1663ffffffff16815260200190815260200160002060000160049054906101000a900473ffffffffffffffffffffffffffffffffffffffff1673ffffffffffffffffffffffffffffffffffffffff16148061183457503373ffffffffffffffffffffffffffffffffffffffff16600460006001846117de9190614c8b565b63ffffffff1663ffffffff16815260200190815260200160002060010160009054906101000a900473ffffffffffffffffffffffffffffffffffffffff1673ffffffffffffffffffffffffffffffffffffffff16145b15611849576001826118469190614c8b565b91505b808060010191505061171f565b50809250505090565b60606000600160009054906101000a900473ffffffffffffffffffffffffffffffffffffffff1673ffffffffffffffffffffffffffffffffffffffff166380060ad26040518163ffffffff1660e01b8152600401602060405180830381865afa1580156118d0573d6000803e3d6000fd5b505050506040513d601f19601f820116820180604052508101906118f491906146c4565b63ffffffff1690506000600160009054906101000a900473ffffffffffffffffffffffffffffffffffffffff1673ffffffffffffffffffffffffffffffffffffffff166343bed68b6040518163ffffffff1660e01b8152600401600060405180830381865afa15801561196b573d6000803e3d6000fd5b505050506040513d6000823e3d601f19601f820116820180604052508101906119949190614839565b905060008060149054906101000a900463ffffffff1663ffffffff1667ffffffffffffffff8111156119c9576119c86146f6565b5b604051908082528060200260200182016040528015611a0257816020015b6119ef6138a4565b8152602001906001900390816119e75790505b50905060008080600090505b858163ffffffff161015611dca57848163ffffffff1681518110611a3557611a34614882565b5b6020026020010151915060011515600460008463ffffffff1663ffffffff16815260200190815260200160002060010160189054906101000a900460ff16151503611db7576000600460008463ffffffff1663ffffffff1681526020019081526020016000206040518060a00160405290816000820160009054906101000a900463ffffffff1663ffffffff1663ffffffff1681526020016000820160049054906101000a900473ffffffffffffffffffffffffffffffffffffffff1673ffffffffffffffffffffffffffffffffffffffff1673ffffffffffffffffffffffffffffffffffffffff1681526020016001820160009054906101000a900473ffffffffffffffffffffffffffffffffffffffff1673ffffffffffffffffffffffffffffffffffffffff1673ffffffffffffffffffffffffffffffffffffffff1681526020016001820160149054906101000a900463ffffffff1663ffffffff1663ffffffff1681526020016001820160189054906101000a900460ff16151515158152505090506000600160009054906101000a900473ffffffffffffffffffffffffffffffffffffffff1673ffffffffffffffffffffffffffffffffffffffff1663f35914e2856040518263ffffffff1660e01b8152600401611c1891906142c6565b600060405180830381865afa158015611c35573d6000803e3d6000fd5b505050506040513d6000823e3d601f19601f82011682018060405250810190611c5e9190614bca565b90506040518060e00160405280836000015163ffffffff168152602001836020015173ffffffffffffffffffffffffffffffffffffffff168152602001836040015173ffffffffffffffffffffffffffffffffffffffff168152602001836060015163ffffffff168152602001836080015115158152602001828152602001600160009054906101000a900473ffffffffffffffffffffffffffffffffffffffff1673ffffffffffffffffffffffffffffffffffffffff166310941323876040518263ffffffff1660e01b8152600401611d3891906142c6565b600060405180830381865afa158015611d55573d6000803e3d6000fd5b505050506040513d6000823e3d601f19601f82011682018060405250810190611d7e9190614c13565b815250868663ffffffff1681518110611d9a57611d99614882565b5b6020026020010181905250600185611db29190614c8b565b945050505b8080611dc290614cc3565b915050611a0e565b50829550505050505090565b600060149054906101000a900463ffffffff1681565b60008060149054906101000a900463ffffffff16905090565b600460008263ffffffff1663ffffffff16815260200190815260200160002060010160149054906101000a900463ffffffff1663ffffffff16600260009054906101000a900473ffffffffffffffffffffffffffffffffffffffff1673ffffffffffffffffffffffffffffffffffffffff166370a08231336040518263ffffffff1660e01b8152600401611e999190614f3e565b602060405180830381865afa158015611eb6573d6000803e3d6000fd5b505050506040513d601f19601f82011682018060405250810190611eda9190614d1b565b11611f1a576040517f08c379a0000000000000000000000000000000000000000000000000000000008152600401611f1190614fa5565b60405180910390fd5b600460008263ffffffff1663ffffffff16815260200190815260200160002060010160189054906101000a900460ff16611f89576040517f08c379a0000000000000000000000000000000000000000000000000000000008152600401611f8090615011565b60405180910390fd5b6000600460008363ffffffff1663ffffffff1681526020019081526020016000206040518060a00160405290816000820160009054906101000a900463ffffffff1663ffffffff1663ffffffff1681526020016000820160049054906101000a900473ffffffffffffffffffffffffffffffffffffffff1673ffffffffffffffffffffffffffffffffffffffff1673ffffffffffffffffffffffffffffffffffffffff1681526020016001820160009054906101000a900473ffffffffffffffffffffffffffffffffffffffff1673ffffffffffffffffffffffffffffffffffffffff1673ffffffffffffffffffffffffffffffffffffffff1681526020016001820160149054906101000a900463ffffffff1663ffffffff1663ffffffff1681526020016001820160189054906101000a900460ff1615151515815250509050600081604001519050600082606001519050600260009054906101000a900473ffffffffffffffffffffffffffffffffffffffff1673ffffffffffffffffffffffffffffffffffffffff166323b872dd33846012600a61212a9190615164565b8563ffffffff1661213b91906151af565b6040518463ffffffff1660e01b8152600401612159939291906151f1565b6020604051808303816000875af1158015612178573d6000803e3d6000fd5b505050506040513d601f19601f8201168201806040525081019061219c9190615254565b6121db576040517f08c379a00000000000000000000000000000000000000000000000000000000081526004016121d2906152cd565b60405180910390fd5b600360009054906101000a900473ffffffffffffffffffffffffffffffffffffffff1673ffffffffffffffffffffffffffffffffffffffff1663d5594fb833836040518363ffffffff1660e01b815260040161223892919061536a565b600060405180830381600087803b15801561225257600080fd5b505af1158015612266573d6000803e3d6000fd5b50505050600160009054906101000a900473ffffffffffffffffffffffffffffffffffffffff1673ffffffffffffffffffffffffffffffffffffffff166323b872dd8333876040518463ffffffff1660e01b81526004016122c9939291906153a6565b600060405180830381600087803b1580156122e357600080fd5b505af11580156122f7573d6000803e3d6000fd5b5050505033836020019073ffffffffffffffffffffffffffffffffffffffff16908173ffffffffffffffffffffffffffffffffffffffff168152505033836040019073ffffffffffffffffffffffffffffffffffffffff16908173ffffffffffffffffffffffffffffffffffffffff1681525050600083608001901515908115158152505082600460008663ffffffff1663ffffffff16815260200190815260200160002060008201518160000160006101000a81548163ffffffff021916908363ffffffff16021790555060208201518160000160046101000a81548173ffffffffffffffffffffffffffffffffffffffff021916908373ffffffffffffffffffffffffffffffffffffffff16021790555060408201518160010160006101000a81548173ffffffffffffffffffffffffffffffffffffffff021916908373ffffffffffffffffffffffffffffffffffffffff16021790555060608201518160010160146101000a81548163ffffffff021916908363ffffffff16021790555060808201518160010160186101000a81548160ff02191690831515021790555090505060008054906101000a900473ffffffffffffffffffffffffffffffffffffffff1673ffffffffffffffffffffffffffffffffffffffff167f42686bfa4b329c6682aeb55b6f8fa55a5ae004254d45c61c9fd01a596ee6cd368583604051612503929190614686565b60405180910390a250505050565b612519613921565b600460008363ffffffff1663ffffffff1681526020019081526020016000206040518060a00160405290816000820160009054906101000a900463ffffffff1663ffffffff1663ffffffff1681526020016000820160049054906101000a900473ffffffffffffffffffffffffffffffffffffffff1673ffffffffffffffffffffffffffffffffffffffff1673ffffffffffffffffffffffffffffffffffffffff1681526020016001820160009054906101000a900473ffffffffffffffffffffffffffffffffffffffff1673ffffffffffffffffffffffffffffffffffffffff1673ffffffffffffffffffffffffffffffffffffffff1681526020016001820160149054906101000a900463ffffffff1663ffffffff1663ffffffff1681526020016001820160189054906101000a900460ff1615151515815250509050919050565b600080600060149054906101000a900463ffffffff1663ffffffff16036126875760009050612754565b60006126916112d4565b90506000816000815181106126a9576126a8614882565b5b602002602001015160600151905060005b600060149054906101000a900463ffffffff1663ffffffff168163ffffffff16101561274d578163ffffffff16838263ffffffff1681518110612700576126ff614882565b5b60200260200101516060015163ffffffff16101561274057828163ffffffff168151811061273157612730614882565b5b60200260200101516060015191505b80806001019150506126ba565b5080925050505b90565b3373ffffffffffffffffffffffffffffffffffffffff16600160009054906101000a900473ffffffffffffffffffffffffffffffffffffffff1673ffffffffffffffffffffffffffffffffffffffff16636352211e846040518263ffffffff1660e01b81526004016127c991906153dd565b602060405180830381865afa1580156127e6573d6000803e3d6000fd5b505050506040513d601f19601f8201168201806040525081019061280a91906153f8565b73ffffffffffffffffffffffffffffffffffffffff1614612860576040517f08c379a000000000000000000000000000000000000000000000000000000000815260040161285790615497565b60405180910390fd5b60001515600460008463ffffffff1663ffffffff16815260200190815260200160002060010160189054906101000a900460ff161515146128d6576040517f08c379a00000000000000000000000000000000000000000000000000000000081526004016128cd90615503565b60405180910390fd5b6000601481819054906101000a900463ffffffff16809291906128f890614cc3565b91906101000a81548163ffffffff021916908363ffffffff160217905550506040518060a001604052808363ffffffff1681526020013373ffffffffffffffffffffffffffffffffffffffff1681526020013373ffffffffffffffffffffffffffffffffffffffff1681526020018263ffffffff16815260200160011515815250600460008463ffffffff1663ffffffff16815260200190815260200160002060008201518160000160006101000a81548163ffffffff021916908363ffffffff16021790555060208201518160000160046101000a81548173ffffffffffffffffffffffffffffffffffffffff021916908373ffffffffffffffffffffffffffffffffffffffff16021790555060408201518160010160006101000a81548173ffffffffffffffffffffffffffffffffffffffff021916908373ffffffffffffffffffffffffffffffffffffffff16021790555060608201518160010160146101000a81548163ffffffff021916908363ffffffff16021790555060808201518160010160186101000a81548160ff0219169083151502179055509050508163ffffffff167f849c80b22c9473c4981e674f8cf81ca6684433d960359bf76287d138a078213b60008054906101000a900473ffffffffffffffffffffffffffffffffffffffff1660008054906101000a900473ffffffffffffffffffffffffffffffffffffffff16846001604051612b149493929190615544565b60405180910390a25050565b60606000600160009054906101000a900473ffffffffffffffffffffffffffffffffffffffff1673ffffffffffffffffffffffffffffffffffffffff166380060ad26040518163ffffffff1660e01b8152600401602060405180830381865afa158015612b91573d6000803e3d6000fd5b505050506040513d601f19601f82011682018060405250810190612bb591906146c4565b63ffffffff1690506000600160009054906101000a900473ffffffffffffffffffffffffffffffffffffffff1673ffffffffffffffffffffffffffffffffffffffff166343bed68b6040518163ffffffff1660e01b8152600401600060405180830381865afa158015612c2c573d6000803e3d6000fd5b505050506040513d6000823e3d601f19601f82011682018060405250810190612c559190614839565b9050600080806000905060005b858163ffffffff161015612dc057848163ffffffff1681518110612c8957612c88614882565b5b6020026020010151925060001515600460008563ffffffff1663ffffffff16815260200190815260200160002060010160189054906101000a900460ff16151503612dad573373ffffffffffffffffffffffffffffffffffffffff16600160009054906101000a900473ffffffffffffffffffffffffffffffffffffffff1673ffffffffffffffffffffffffffffffffffffffff16633d8029aa856040518263ffffffff1660e01b8152600401612d4091906142c6565b602060405180830381865afa158015612d5d573d6000803e3d6000fd5b505050506040513d601f19601f82011682018060405250810190612d8191906153f8565b73ffffffffffffffffffffffffffffffffffffffff1603612dac57600182612da99190615589565b91505b5b8080612db890614cc3565b915050612c62565b5060008167ffffffffffffffff811115612ddd57612ddc6146f6565b5b604051908082528060200260200182016040528015612e1657816020015b612e036138a4565b815260200190600190039081612dfb5790505b50905060005b868163ffffffff16101561328957858163ffffffff1681518110612e4357612e42614882565b5b6020026020010151935060001515600460008663ffffffff1663ffffffff16815260200190815260200160002060010160189054906101000a900460ff16151503613276573373ffffffffffffffffffffffffffffffffffffffff16600160009054906101000a900473ffffffffffffffffffffffffffffffffffffffff1673ffffffffffffffffffffffffffffffffffffffff16633d8029aa866040518263ffffffff1660e01b8152600401612efa91906142c6565b602060405180830381865afa158015612f17573d6000803e3d6000fd5b505050506040513d601f19601f82011682018060405250810190612f3b91906153f8565b73ffffffffffffffffffffffffffffffffffffffff1603613275576000600160009054906101000a900473ffffffffffffffffffffffffffffffffffffffff1673ffffffffffffffffffffffffffffffffffffffff1663f35914e2866040518263ffffffff1660e01b8152600401612fb391906142c6565b600060405180830381865afa158015612fd0573d6000803e3d6000fd5b505050506040513d6000823e3d601f19601f82011682018060405250810190612ff99190614bca565b90506040518060e001604052808663ffffffff168152602001600160009054906101000a900473ffffffffffffffffffffffffffffffffffffffff1673ffffffffffffffffffffffffffffffffffffffff16633d8029aa886040518263ffffffff1660e01b815260040161306d91906142c6565b602060405180830381865afa15801561308a573d6000803e3d6000fd5b505050506040513d601f19601f820116820180604052508101906130ae91906153f8565b73ffffffffffffffffffffffffffffffffffffffff168152602001600160009054906101000a900473ffffffffffffffffffffffffffffffffffffffff1673ffffffffffffffffffffffffffffffffffffffff16633d8029aa886040518263ffffffff1660e01b815260040161312491906142c6565b602060405180830381865afa158015613141573d6000803e3d6000fd5b505050506040513d601f19601f8201168201806040525081019061316591906153f8565b73ffffffffffffffffffffffffffffffffffffffff168152602001600063ffffffff168152602001600015158152602001828152602001600160009054906101000a900473ffffffffffffffffffffffffffffffffffffffff1673ffffffffffffffffffffffffffffffffffffffff166310941323886040518263ffffffff1660e01b81526004016131f791906142c6565b600060405180830381865afa158015613214573d6000803e3d6000fd5b505050506040513d6000823e3d601f19601f8201168201806040525081019061323d9190614c13565b815250838763ffffffff168151811061325957613258614882565b5b60200260200101819052506001866132719190614c8b565b9550505b5b808061328190614cc3565b915050612e1c565b5080965050505050505090565b3373ffffffffffffffffffffffffffffffffffffffff16600460008363ffffffff1663ffffffff16815260200190815260200160002060000160049054906101000a900473ffffffffffffffffffffffffffffffffffffffff1673ffffffffffffffffffffffffffffffffffffffff1614613346576040517f08c379a000000000000000000000000000000000000000000000000000000000815260040161333d90615609565b60405180910390fd5b6040518060a001604052808263ffffffff1681526020013373ffffffffffffffffffffffffffffffffffffffff1681526020013373ffffffffffffffffffffffffffffffffffffffff168152602001600063ffffffff16815260200160001515815250600460008363ffffffff1663ffffffff16815260200190815260200160002060008201518160000160006101000a81548163ffffffff021916908363ffffffff16021790555060208201518160000160046101000a81548173ffffffffffffffffffffffffffffffffffffffff021916908373ffffffffffffffffffffffffffffffffffffffff16021790555060408201518160010160006101000a81548173ffffffffffffffffffffffffffffffffffffffff021916908373ffffffffffffffffffffffffffffffffffffffff16021790555060608201518160010160146101000a81548163ffffffff021916908363ffffffff16021790555060808201518160010160186101000a81548160ff0219169083151502179055509050506000601481819054906101000a900463ffffffff16809291906134e990615629565b91906101000a81548163ffffffff021916908363ffffffff1602179055505060008054906101000a900473ffffffffffffffffffffffffffffffffffffffff1673ffffffffffffffffffffffffffffffffffffffff167fa2bf512dfbf14020549d23d98676158e4bab6a92c84a5c64835b357f43f120298260405161356e91906142c6565b60405180910390a250565b600080600060149054906101000a900463ffffffff1663ffffffff16036135a3576000905061364d565b6000806135ae6112d4565b905060005b600060149054906101000a900463ffffffff1663ffffffff168163ffffffff161015613646578263ffffffff16828263ffffffff16815181106135f9576135f8614882565b5b60200260200101516060015163ffffffff16111561363957818163ffffffff168151811061362a57613629614882565b5b60200260200101516060015192505b80806001019150506135b3565b5081925050505b90565b60046020528060005260406000206000915090508060000160009054906101000a900463ffffffff16908060000160049054906101000a900473ffffffffffffffffffffffffffffffffffffffff16908060010160009054906101000a900473ffffffffffffffffffffffffffffffffffffffff16908060010160149054906101000a900463ffffffff16908060010160189054906101000a900460ff16905085565b600360009054906101000a900473ffffffffffffffffffffffffffffffffffffffff1681565b600260009054906101000a900473ffffffffffffffffffffffffffffffffffffffff1681565b6060600360009054906101000a900473ffffffffffffffffffffffffffffffffffffffff1673ffffffffffffffffffffffffffffffffffffffff1663013bd2ba836040518263ffffffff1660e01b815260040161379c9190614f3e565b600060405180830381865afa1580156137b9573d6000803e3d6000fd5b505050506040513d6000823e3d601f19601f820116820180604052508101906137e29190614ee6565b9050919050565b600160009054906101000a900473ffffffffffffffffffffffffffffffffffffffff1681565b600160009054906101000a900473ffffffffffffffffffffffffffffffffffffffff1673ffffffffffffffffffffffffffffffffffffffff166323b872dd3384846040518463ffffffff1660e01b815260040161386e939291906153a6565b600060405180830381600087803b15801561388857600080fd5b505af115801561389c573d6000803e3d6000fd5b505050505050565b6040518060e00160405280600063ffffffff168152602001600073ffffffffffffffffffffffffffffffffffffffff168152602001600073ffffffffffffffffffffffffffffffffffffffff168152602001600063ffffffff16815260200160001515815260200161391461398a565b8152602001606081525090565b6040518060a00160405280600063ffffffff168152602001600073ffffffffffffffffffffffffffffffffffffffff168152602001600073ffffffffffffffffffffffffffffffffffffffff168152602001600063ffffffff1681526020016000151581525090565b604051806101200160405280600063ffffffff16815260200160608152602001600063ffffffff168152602001600063ffffffff16815260200160608152602001606081526020016060815260200160608152602001606081525090565b6000604051905090565b600080fd5b600080fd5b600063ffffffff82169050919050565b613a15816139fc565b8114613a2057600080fd5b50565b600081359050613a3281613a0c565b92915050565b60008060408385031215613a4f57613a4e6139f2565b5b6000613a5d85828601613a23565b9250506020613a6e85828601613a23565b9150509250929050565b600081519050919050565b600082825260208201905092915050565b6000819050602082019050919050565b613aad816139fc565b82525050565b600073ffffffffffffffffffffffffffffffffffffffff82169050919050565b6000613ade82613ab3565b9050919050565b613aee81613ad3565b82525050565b60008115159050919050565b613b0981613af4565b82525050565b600081519050919050565b600082825260208201905092915050565b60005b83811015613b49578082015181840152602081019050613b2e565b60008484015250505050565b6000601f19601f8301169050919050565b6000613b7182613b0f565b613b7b8185613b1a565b9350613b8b818560208601613b2b565b613b9481613b55565b840191505092915050565b600081519050919050565b600082825260208201905092915050565b6000819050602082019050919050565b6000613bd78383613b66565b905092915050565b6000602082019050919050565b6000613bf782613b9f565b613c018185613baa565b935083602082028501613c1385613bbb565b8060005b85811015613c4f5784840389528151613c308582613bcb565b9450613c3b83613bdf565b925060208a01995050600181019050613c17565b50829750879550505050505092915050565b600061012083016000830151613c7a6000860182613aa4565b5060208301518482036020860152613c928282613b66565b9150506040830151613ca76040860182613aa4565b506060830151613cba6060860182613aa4565b5060808301518482036080860152613cd28282613bec565b91505060a083015184820360a0860152613cec8282613bec565b91505060c083015184820360c0860152613d068282613bec565b91505060e083015184820360e0860152613d208282613b66565b915050610100830151848203610100860152613d3c8282613b66565b9150508091505092915050565b600060e083016000830151613d616000860182613aa4565b506020830151613d746020860182613ae5565b506040830151613d876040860182613ae5565b506060830151613d9a6060860182613aa4565b506080830151613dad6080860182613b00565b5060a083015184820360a0860152613dc58282613c61565b91505060c083015184820360c0860152613ddf8282613b66565b9150508091505092915050565b6000613df88383613d49565b905092915050565b6000602082019050919050565b6000613e1882613a78565b613e228185613a83565b935083602082028501613e3485613a94565b8060005b85811015613e705784840389528151613e518582613dec565b9450613e5c83613e00565b925060208a01995050600181019050613e38565b50829750879550505050505092915050565b60006020820190508181036000830152613e9c8184613e0d565b905092915050565b6000819050919050565b613eb781613ea4565b82525050565b6000602082019050613ed26000830184613eae565b92915050565b600081519050919050565b600082825260208201905092915050565b6000819050602082019050919050565b6000613f0f82613ab3565b9050919050565b613f1f81613f04565b82525050565b613f2e81613ea4565b82525050565b600060a083016000830151613f4c6000860182613f16565b506020830151613f5f6020860182613f16565b506040830151613f726040860182613f25565b5060608301518482036060860152613f8a8282613b66565b9150506080830151613f9f6080860182613f25565b508091505092915050565b6000613fb68383613f34565b905092915050565b6000602082019050919050565b6000613fd682613ed8565b613fe08185613ee3565b935083602082028501613ff285613ef4565b8060005b8581101561402e578484038952815161400f8582613faa565b945061401a83613fbe565b925060208a01995050600181019050613ff6565b50829750879550505050505092915050565b6000602082019050818103600083015261405a8184613fcb565b905092915050565b600060208284031215614078576140776139f2565b5b600061408684828501613a23565b91505092915050565b61409881613af4565b82525050565b60006020820190506140b3600083018461408f565b92915050565b600060e0830160008301516140d16000860182613aa4565b5060208301516140e46020860182613ae5565b5060408301516140f76040860182613ae5565b50606083015161410a6060860182613aa4565b50608083015161411d6080860182613b00565b5060a083015184820360a08601526141358282613c61565b91505060c083015184820360c086015261414f8282613b66565b9150508091505092915050565b6000602082019050818103600083015261417681846140b9565b905092915050565b600081519050919050565b600082825260208201905092915050565b6000819050602082019050919050565b60a0820160008201516141c06000850182613aa4565b5060208201516141d36020850182613ae5565b5060408201516141e66040850182613ae5565b5060608201516141f96060850182613aa4565b50608082015161420c6080850182613b00565b50505050565b600061421e83836141aa565b60a08301905092915050565b6000602082019050919050565b60006142428261417e565b61424c8185614189565b93506142578361419a565b8060005b8381101561428857815161426f8882614212565b975061427a8361422a565b92505060018101905061425b565b5085935050505092915050565b600060208201905081810360008301526142af8184614237565b905092915050565b6142c0816139fc565b82525050565b60006020820190506142db60008301846142b7565b92915050565b60a0820160008201516142f76000850182613aa4565b50602082015161430a6020850182613ae5565b50604082015161431d6040850182613ae5565b5060608201516143306060850182613aa4565b5060808201516143436080850182613b00565b50505050565b600060a08201905061435e60008301846142e1565b92915050565b61436d81613ad3565b82525050565b600060a08201905061438860008301886142b7565b6143956020830187614364565b6143a26040830186614364565b6143af60608301856142b7565b6143bc608083018461408f565b9695505050505050565b6000819050919050565b60006143eb6143e66143e184613ab3565b6143c6565b613ab3565b9050919050565b60006143fd826143d0565b9050919050565b600061440f826143f2565b9050919050565b61441f81614404565b82525050565b600060208201905061443a6000830184614416565b92915050565b600061444b826143f2565b9050919050565b61445b81614440565b82525050565b60006020820190506144766000830184614452565b92915050565b61448581613f04565b811461449057600080fd5b50565b6000813590506144a28161447c565b92915050565b6000602082840312156144be576144bd6139f2565b5b60006144cc84828501614493565b91505092915050565b60006144e0826143f2565b9050919050565b6144f0816144d5565b82525050565b600060208201905061450b60008301846144e7565b92915050565b60008060408385031215614528576145276139f2565b5b600061453685828601614493565b925050602061454785828601613a23565b9150509250929050565b600082825260208201905092915050565b7f54686973204e465420646f65736e2774206578697374206f6e206d61726b657460008201527f706c616365000000000000000000000000000000000000000000000000000000602082015250565b60006145be602583614551565b91506145c982614562565b604082019050919050565b600060208201905081810360008301526145ed816145b1565b9050919050565b7f4f6e6c79206f776e65722063616e20757064617465207072696365206f66207460008201527f686973204e465400000000000000000000000000000000000000000000000000602082015250565b6000614650602783614551565b915061465b826145f4565b604082019050919050565b6000602082019050818103600083015261467f81614643565b9050919050565b600060408201905061469b60008301856142b7565b6146a860208301846142b7565b9392505050565b6000815190506146be81613a0c565b92915050565b6000602082840312156146da576146d96139f2565b5b60006146e8848285016146af565b91505092915050565b600080fd5b7f4e487b7100000000000000000000000000000000000000000000000000000000600052604160045260246000fd5b61472e82613b55565b810181811067ffffffffffffffff8211171561474d5761474c6146f6565b5b80604052505050565b60006147606139e8565b905061476c8282614725565b919050565b600067ffffffffffffffff82111561478c5761478b6146f6565b5b602082029050602081019050919050565b600080fd5b60006147b56147b084614771565b614756565b905080838252602082019050602084028301858111156147d8576147d761479d565b5b835b8181101561480157806147ed88826146af565b8452602084019350506020810190506147da565b5050509392505050565b600082601f8301126148205761481f6146f1565b5b81516148308482602086016147a2565b91505092915050565b60006020828403121561484f5761484e6139f2565b5b600082015167ffffffffffffffff81111561486d5761486c6139f7565b5b6148798482850161480b565b91505092915050565b7f4e487b7100000000000000000000000000000000000000000000000000000000600052603260045260246000fd5b600080fd5b600080fd5b600080fd5b600067ffffffffffffffff8211156148db576148da6146f6565b5b6148e482613b55565b9050602081019050919050565b60006149046148ff846148c0565b614756565b9050828152602081018484840111156149205761491f6148bb565b5b61492b848285613b2b565b509392505050565b600082601f830112614948576149476146f1565b5b81516149588482602086016148f1565b91505092915050565b600067ffffffffffffffff82111561497c5761497b6146f6565b5b602082029050602081019050919050565b60006149a061499b84614961565b614756565b905080838252602082019050602084028301858111156149c3576149c261479d565b5b835b81811015614a0a57805167ffffffffffffffff8111156149e8576149e76146f1565b5b8086016149f58982614933565b855260208501945050506020810190506149c5565b5050509392505050565b600082601f830112614a2957614a286146f1565b5b8151614a3984826020860161498d565b91505092915050565b60006101208284031215614a5957614a586148b1565b5b614a64610120614756565b90506000614a74848285016146af565b600083015250602082015167ffffffffffffffff811115614a9857614a976148b6565b5b614aa484828501614933565b6020830152506040614ab8848285016146af565b6040830152506060614acc848285016146af565b606083015250608082015167ffffffffffffffff811115614af057614aef6148b6565b5b614afc84828501614a14565b60808301525060a082015167ffffffffffffffff811115614b2057614b1f6148b6565b5b614b2c84828501614a14565b60a08301525060c082015167ffffffffffffffff811115614b5057614b4f6148b6565b5b614b5c84828501614a14565b60c08301525060e082015167ffffffffffffffff811115614b8057614b7f6148b6565b5b614b8c84828501614933565b60e08301525061010082015167ffffffffffffffff811115614bb157614bb06148b6565b5b614bbd84828501614933565b6101008301525092915050565b600060208284031215614be057614bdf6139f2565b5b600082015167ffffffffffffffff811115614bfe57614bfd6139f7565b5b614c0a84828501614a42565b91505092915050565b600060208284031215614c2957614c286139f2565b5b600082015167ffffffffffffffff811115614c4757614c466139f7565b5b614c5384828501614933565b91505092915050565b7f4e487b7100000000000000000000000000000000000000000000000000000000600052601160045260246000fd5b6000614c96826139fc565b9150614ca1836139fc565b9250828201905063ffffffff811115614cbd57614cbc614c5c565b5b92915050565b6000614cce826139fc565b915063ffffffff8203614ce457614ce3614c5c565b5b600182019050919050565b614cf881613ea4565b8114614d0357600080fd5b50565b600081519050614d1581614cef565b92915050565b600060208284031215614d3157614d306139f2565b5b6000614d3f84828501614d06565b91505092915050565b600067ffffffffffffffff821115614d6357614d626146f6565b5b602082029050602081019050919050565b600081519050614d838161447c565b92915050565b600060a08284031215614d9f57614d9e6148b1565b5b614da960a0614756565b90506000614db984828501614d74565b6000830152506020614dcd84828501614d74565b6020830152506040614de184828501614d06565b604083015250606082015167ffffffffffffffff811115614e0557614e046148b6565b5b614e1184828501614933565b6060830152506080614e2584828501614d06565b60808301525092915050565b6000614e44614e3f84614d48565b614756565b90508083825260208201905060208402830185811115614e6757614e6661479d565b5b835b81811015614eae57805167ffffffffffffffff811115614e8c57614e8b6146f1565b5b808601614e998982614d89565b85526020850194505050602081019050614e69565b5050509392505050565b600082601f830112614ecd57614ecc6146f1565b5b8151614edd848260208601614e31565b91505092915050565b600060208284031215614efc57614efb6139f2565b5b600082015167ffffffffffffffff811115614f1a57614f196139f7565b5b614f2684828501614eb8565b91505092915050565b614f3881613f04565b82525050565b6000602082019050614f536000830184614f2f565b92915050565b7f496e73756666696369656e74206163636f756e742062616c616e636500000000600082015250565b6000614f8f601c83614551565b9150614f9a82614f59565b602082019050919050565b60006020820190508181036000830152614fbe81614f82565b9050919050565b7f4e4654207761736e2774206c6973746564207965742e00000000000000000000600082015250565b6000614ffb601683614551565b915061500682614fc5565b602082019050919050565b6000602082019050818103600083015261502a81614fee565b9050919050565b60008160011c9050919050565b6000808291508390505b60018511156150885780860481111561506457615063614c5c565b5b60018516156150735780820291505b808102905061508185615031565b9450615048565b94509492505050565b6000826150a1576001905061515d565b816150af576000905061515d565b81600181146150c557600281146150cf576150fe565b600191505061515d565b60ff8411156150e1576150e0614c5c565b5b8360020a9150848211156150f8576150f7614c5c565b5b5061515d565b5060208310610133831016604e8410600b84101617156151335782820a90508381111561512e5761512d614c5c565b5b61515d565b615140848484600161503e565b9250905081840481111561515757615156614c5c565b5b81810290505b9392505050565b600061516f82613ea4565b915061517a83613ea4565b92506151a77fffffffffffffffffffffffffffffffffffffffffffffffffffffffffffffffff8484615091565b905092915050565b60006151ba82613ea4565b91506151c583613ea4565b92508282026151d381613ea4565b915082820484148315176151ea576151e9614c5c565b5b5092915050565b60006060820190506152066000830186614f2f565b6152136020830185614f2f565b6152206040830184613eae565b949350505050565b61523181613af4565b811461523c57600080fd5b50565b60008151905061524e81615228565b92915050565b60006020828403121561526a576152696139f2565b5b60006152788482850161523f565b91505092915050565b7f546f6b656e207472616e73666572206661696c65640000000000000000000000600082015250565b60006152b7601583614551565b91506152c282615281565b602082019050919050565b600060208201905081810360008301526152e6816152aa565b9050919050565b60006153086153036152fe846139fc565b6143c6565b613ea4565b9050919050565b615318816152ed565b82525050565b7f4e465420736f6c64000000000000000000000000000000000000000000000000600082015250565b6000615354600883614551565b915061535f8261531e565b602082019050919050565b600060608201905061537f6000830185614364565b61538c602083018461530f565b818103604083015261539d81615347565b90509392505050565b60006060820190506153bb6000830186614f2f565b6153c86020830185614f2f565b6153d5604083018461530f565b949350505050565b60006020820190506153f2600083018461530f565b92915050565b60006020828403121561540e5761540d6139f2565b5b600061541c84828501614d74565b91505092915050565b7f596f7520617265206e6f7420746865206f776e6572206f662074686973204e4660008201527f5400000000000000000000000000000000000000000000000000000000000000602082015250565b6000615481602183614551565b915061548c82615425565b604082019050919050565b600060208201905081810360008301526154b081615474565b9050919050565b7f4e465420697320616c7265616479206c69737465640000000000000000000000600082015250565b60006154ed601583614551565b91506154f8826154b7565b602082019050919050565b6000602082019050818103600083015261551c816154e0565b9050919050565b600061552e826143f2565b9050919050565b61553e81615523565b82525050565b60006080820190506155596000830187615535565b6155666020830186615535565b61557360408301856142b7565b615580606083018461408f565b95945050505050565b600061559482613ea4565b915061559f83613ea4565b92508282019050808211156155b7576155b6614c5c565b5b92915050565b7f596f7520617265206e6f742074686973204e4654000000000000000000000000600082015250565b60006155f3601483614551565b91506155fe826155bd565b602082019050919050565b60006020820190508181036000830152615622816155e6565b9050919050565b6000615634826139fc565b91506000820361564757615646614c5c565b5b60018203905091905056fea2646970667358221220f36866f620c5bb3a0055fa3063f0d9ff78719cc5797c94e23f310f77e022922d64736f6c63430008180033",
  "linkReferences": {},
  "deployedLinkReferences": {}
}