{
  "_format": "hh-sol-artifact-1",
  "contractName": "CropNFT",
  "sourceName": "contracts/CropNFT.sol",
  "abi": [
    {
      "inputs": [
        {
          "internalType": "address",
          "name": "_cropInfo",
          "type": "address"
        }
      ],
      "stateMutability": "nonpayable",
      "type": "constructor"
    },
    {
      "anonymous": false,
      "inputs": [
        {
          "indexed": true,
          "internalType": "address",
          "name": "owner",
          "type": "address"
        },
        {
          "indexed": true,
          "internalType": "address",
          "name": "approved",
          "type": "address"
        },
        {
          "indexed": true,
          "internalType": "uint256",
          "name": "tokenId",
          "type": "uint256"
        }
      ],
      "name": "Approval",
      "type": "event"
    },
    {
      "anonymous": false,
      "inputs": [
        {
          "indexed": true,
          "internalType": "address",
          "name": "owner",
          "type": "address"
        },
        {
          "indexed": true,
          "internalType": "address",
          "name": "operator",
          "type": "address"
        },
        {
          "indexed": false,
          "internalType": "bool",
          "name": "approved",
          "type": "bool"
        }
      ],
      "name": "ApprovalForAll",
      "type": "event"
    },
    {
      "anonymous": false,
      "inputs": [
        {
          "indexed": false,
          "internalType": "uint256",
          "name": "_fromTokenId",
          "type": "uint256"
        },
        {
          "indexed": false,
          "internalType": "uint256",
          "name": "_toTokenId",
          "type": "uint256"
        }
      ],
      "name": "BatchMetadataUpdate",
      "type": "event"
    },
    {
      "anonymous": false,
      "inputs": [
        {
          "indexed": false,
          "internalType": "uint256",
          "name": "_tokenId",
          "type": "uint256"
        }
      ],
      "name": "MetadataUpdate",
      "type": "event"
    },
    {
      "anonymous": false,
      "inputs": [
        {
          "indexed": true,
          "internalType": "address",
          "name": "from",
          "type": "address"
        },
        {
          "indexed": true,
          "internalType": "address",
          "name": "to",
          "type": "address"
        },
        {
          "indexed": true,
          "internalType": "uint256",
          "name": "tokenId",
          "type": "uint256"
        }
      ],
      "name": "Transfer",
      "type": "event"
    },
    {
      "inputs": [
        {
          "internalType": "uint256",
          "name": "",
          "type": "uint256"
        }
      ],
      "name": "IDs",
      "outputs": [
        {
          "internalType": "uint32",
          "name": "",
          "type": "uint32"
        }
      ],
      "stateMutability": "view",
      "type": "function"
    },
    {
      "inputs": [
        {
          "internalType": "uint32",
          "name": "",
          "type": "uint32"
        }
      ],
      "name": "_price",
      "outputs": [
        {
          "internalType": "uint32",
          "name": "",
          "type": "uint32"
        }
      ],
      "stateMutability": "view",
      "type": "function"
    },
    {
      "inputs": [
        {
          "internalType": "address",
          "name": "to",
          "type": "address"
        },
        {
          "internalType": "uint256",
          "name": "tokenId",
          "type": "uint256"
        }
      ],
      "name": "approve",
      "outputs": [],
      "stateMutability": "nonpayable",
      "type": "function"
    },
    {
      "inputs": [
        {
          "internalType": "address",
          "name": "_to",
          "type": "address"
        },
        {
          "internalType": "uint32",
          "name": "_idNFT",
          "type": "uint32"
        }
      ],
      "name": "approveNFT",
      "outputs": [],
      "stateMutability": "nonpayable",
      "type": "function"
    },
    {
      "inputs": [
        {
          "internalType": "address",
          "name": "owner",
          "type": "address"
        }
      ],
      "name": "balanceOf",
      "outputs": [
        {
          "internalType": "uint256",
          "name": "",
          "type": "uint256"
        }
      ],
      "stateMutability": "view",
      "type": "function"
    },
    {
      "inputs": [
        {
          "internalType": "string",
          "name": "_NFT_url",
          "type": "string"
        },
        {
          "internalType": "uint32",
          "name": "_tokenId",
          "type": "uint32"
        }
      ],
      "name": "createCropNFT",
      "outputs": [
        {
          "internalType": "uint32",
          "name": "",
          "type": "uint32"
        }
      ],
      "stateMutability": "nonpayable",
      "type": "function"
    },
    {
      "inputs": [],
      "name": "cropInfo",
      "outputs": [
        {
          "internalType": "contract CropInfo",
          "name": "",
          "type": "address"
        }
      ],
      "stateMutability": "view",
      "type": "function"
    },
    {
      "inputs": [],
      "name": "getAllMyCrop",
      "outputs": [
        {
          "internalType": "uint32[]",
          "name": "",
          "type": "uint32[]"
        }
      ],
      "stateMutability": "view",
      "type": "function"
    },
    {
      "inputs": [
        {
          "internalType": "uint256",
          "name": "tokenId",
          "type": "uint256"
        }
      ],
      "name": "getApproved",
      "outputs": [
        {
          "internalType": "address",
          "name": "",
          "type": "address"
        }
      ],
      "stateMutability": "view",
      "type": "function"
    },
    {
      "inputs": [
        {
          "internalType": "uint32",
          "name": "_idNFT",
          "type": "uint32"
        }
      ],
      "name": "getCropInfoFromNFT",
      "outputs": [
        {
          "components": [
            {
              "internalType": "uint32",
              "name": "cropId",
              "type": "uint32"
            },
            {
              "internalType": "string",
              "name": "cropType",
              "type": "string"
            },
            {
              "internalType": "uint32",
              "name": "plantingDate",
              "type": "uint32"
            },
            {
              "internalType": "uint32",
              "name": "monthsToHavest",
              "type": "uint32"
            },
            {
              "internalType": "string[]",
              "name": "fertilizers",
              "type": "string[]"
            },
            {
              "internalType": "string[]",
              "name": "pesticides",
              "type": "string[]"
            },
            {
              "internalType": "string[]",
              "name": "diseases",
              "type": "string[]"
            },
            {
              "internalType": "string",
              "name": "additionalInfo",
              "type": "string"
            },
            {
              "internalType": "string",
              "name": "harvestDate",
              "type": "string"
            }
          ],
          "internalType": "struct CropInfo.Crop",
          "name": "",
          "type": "tuple"
        }
      ],
      "stateMutability": "view",
      "type": "function"
    },
    {
      "inputs": [],
      "name": "getNumberOfNFTs",
      "outputs": [
        {
          "internalType": "uint32",
          "name": "",
          "type": "uint32"
        }
      ],
      "stateMutability": "view",
      "type": "function"
    },
    {
      "inputs": [
        {
          "internalType": "uint32",
          "name": "_idNFT",
          "type": "uint32"
        }
      ],
      "name": "getOwnerOfNFT",
      "outputs": [
        {
          "internalType": "address",
          "name": "",
          "type": "address"
        }
      ],
      "stateMutability": "view",
      "type": "function"
    },
    {
      "inputs": [
        {
          "internalType": "uint32",
          "name": "_tokenId",
          "type": "uint32"
        }
      ],
      "name": "getURI",
      "outputs": [
        {
          "internalType": "string",
          "name": "",
          "type": "string"
        }
      ],
      "stateMutability": "view",
      "type": "function"
    },
    {
      "inputs": [
        {
          "internalType": "uint32",
          "name": "",
          "type": "uint32"
        }
      ],
      "name": "idNFTToCropInfo",
      "outputs": [
        {
          "internalType": "contract CropInfo",
          "name": "",
          "type": "address"
        }
      ],
      "stateMutability": "view",
      "type": "function"
    },
    {
      "inputs": [
        {
          "internalType": "address",
          "name": "owner",
          "type": "address"
        },
        {
          "internalType": "address",
          "name": "operator",
          "type": "address"
        }
      ],
      "name": "isApprovedForAll",
      "outputs": [
        {
          "internalType": "bool",
          "name": "",
          "type": "bool"
        }
      ],
      "stateMutability": "view",
      "type": "function"
    },
    {
      "inputs": [
        {
          "internalType": "uint32",
          "name": "_tokenId",
          "type": "uint32"
        }
      ],
      "name": "isNFT",
      "outputs": [
        {
          "internalType": "bool",
          "name": "",
          "type": "bool"
        }
      ],
      "stateMutability": "view",
      "type": "function"
    },
    {
      "inputs": [],
      "name": "name",
      "outputs": [
        {
          "internalType": "string",
          "name": "",
          "type": "string"
        }
      ],
      "stateMutability": "view",
      "type": "function"
    },
    {
      "inputs": [],
      "name": "owner",
      "outputs": [
        {
          "internalType": "address",
          "name": "",
          "type": "address"
        }
      ],
      "stateMutability": "view",
      "type": "function"
    },
    {
      "inputs": [
        {
          "internalType": "uint256",
          "name": "tokenId",
          "type": "uint256"
        }
      ],
      "name": "ownerOf",
      "outputs": [
        {
          "internalType": "address",
          "name": "",
          "type": "address"
        }
      ],
      "stateMutability": "view",
      "type": "function"
    },
    {
      "inputs": [
        {
          "internalType": "address",
          "name": "from",
          "type": "address"
        },
        {
          "internalType": "address",
          "name": "to",
          "type": "address"
        },
        {
          "internalType": "uint256",
          "name": "tokenId",
          "type": "uint256"
        }
      ],
      "name": "safeTransferFrom",
      "outputs": [],
      "stateMutability": "nonpayable",
      "type": "function"
    },
    {
      "inputs": [
        {
          "internalType": "address",
          "name": "from",
          "type": "address"
        },
        {
          "internalType": "address",
          "name": "to",
          "type": "address"
        },
        {
          "internalType": "uint256",
          "name": "tokenId",
          "type": "uint256"
        },
        {
          "internalType": "bytes",
          "name": "data",
          "type": "bytes"
        }
      ],
      "name": "safeTransferFrom",
      "outputs": [],
      "stateMutability": "nonpayable",
      "type": "function"
    },
    {
      "inputs": [
        {
          "internalType": "address",
          "name": "operator",
          "type": "address"
        },
        {
          "internalType": "bool",
          "name": "approved",
          "type": "bool"
        }
      ],
      "name": "setApprovalForAll",
      "outputs": [],
      "stateMutability": "nonpayable",
      "type": "function"
    },
    {
      "inputs": [
        {
          "internalType": "bytes4",
          "name": "interfaceId",
          "type": "bytes4"
        }
      ],
      "name": "supportsInterface",
      "outputs": [
        {
          "internalType": "bool",
          "name": "",
          "type": "bool"
        }
      ],
      "stateMutability": "view",
      "type": "function"
    },
    {
      "inputs": [],
      "name": "symbol",
      "outputs": [
        {
          "internalType": "string",
          "name": "",
          "type": "string"
        }
      ],
      "stateMutability": "view",
      "type": "function"
    },
    {
      "inputs": [
        {
          "internalType": "uint256",
          "name": "tokenId",
          "type": "uint256"
        }
      ],
      "name": "tokenURI",
      "outputs": [
        {
          "internalType": "string",
          "name": "",
          "type": "string"
        }
      ],
      "stateMutability": "view",
      "type": "function"
    },
    {
      "inputs": [
        {
          "internalType": "address",
          "name": "from",
          "type": "address"
        },
        {
          "internalType": "address",
          "name": "to",
          "type": "address"
        },
        {
          "internalType": "uint256",
          "name": "tokenId",
          "type": "uint256"
        }
      ],
      "name": "transferFrom",
      "outputs": [],
      "stateMutability": "nonpayable",
      "type": "function"
    }
  ],
  "bytecode": "0x60806040523480156200001157600080fd5b50604051620040f1380380620040f18339818101604052810190620000379190620001bc565b6040518060400160405280600881526020017f43524f50204e46540000000000000000000000000000000000000000000000008152506040518060400160405280600781526020017f43524f504e4654000000000000000000000000000000000000000000000000008152508160009081620000b4919062000468565b508060019081620000c6919062000468565b50505033600860006101000a81548173ffffffffffffffffffffffffffffffffffffffff021916908373ffffffffffffffffffffffffffffffffffffffff16021790555080600960006101000a81548173ffffffffffffffffffffffffffffffffffffffff021916908373ffffffffffffffffffffffffffffffffffffffff160217905550506200054f565b600080fd5b600073ffffffffffffffffffffffffffffffffffffffff82169050919050565b6000620001848262000157565b9050919050565b620001968162000177565b8114620001a257600080fd5b50565b600081519050620001b6816200018b565b92915050565b600060208284031215620001d557620001d462000152565b5b6000620001e584828501620001a5565b91505092915050565b600081519050919050565b7f4e487b7100000000000000000000000000000000000000000000000000000000600052604160045260246000fd5b7f4e487b7100000000000000000000000000000000000000000000000000000000600052602260045260246000fd5b600060028204905060018216806200027057607f821691505b60208210810362000286576200028562000228565b5b50919050565b60008190508160005260206000209050919050565b60006020601f8301049050919050565b600082821b905092915050565b600060088302620002f07fffffffffffffffffffffffffffffffffffffffffffffffffffffffffffffffff82620002b1565b620002fc8683620002b1565b95508019841693508086168417925050509392505050565b6000819050919050565b6000819050919050565b600062000349620003436200033d8462000314565b6200031e565b62000314565b9050919050565b6000819050919050565b620003658362000328565b6200037d620003748262000350565b848454620002be565b825550505050565b600090565b6200039462000385565b620003a18184846200035a565b505050565b5b81811015620003c957620003bd6000826200038a565b600181019050620003a7565b5050565b601f8211156200041857620003e2816200028c565b620003ed84620002a1565b81016020851015620003fd578190505b620004156200040c85620002a1565b830182620003a6565b50505b505050565b600082821c905092915050565b60006200043d600019846008026200041d565b1980831691505092915050565b60006200045883836200042a565b9150826002028217905092915050565b6200047382620001ee565b67ffffffffffffffff8111156200048f576200048e620001f9565b5b6200049b825462000257565b620004a8828285620003cd565b600060209050601f831160018114620004e05760008415620004cb578287015190505b620004d785826200044a565b86555062000547565b601f198416620004f0866200028c565b60005b828110156200051a57848901518255600182019150602085019450602081019050620004f3565b868310156200053a578489015162000536601f8916826200042a565b8355505b6001600288020188555050505b505050505050565b613b92806200055f6000396000f3fe608060405234801561001057600080fd5b506004361061018e5760003560e01c806368022069116100de57806395d89b4111610097578063c87b56dd11610071578063c87b56dd146104cf578063e985e9c5146104ff578063effc99cd1461052f578063f35914e21461055f5761018e565b806395d89b4114610479578063a22cb46514610497578063b88d4fde146104b35761018e565b806368022069146103915780636830cb82146103c157806370a08231146103dd57806380060ad21461040d5780638da5cb5b1461042b5780638f5130fa146104495761018e565b8063197ce7151161014b5780633d8029aa116101255780633d8029aa146102f757806342842e0e1461032757806343bed68b146103435780636352211e146103615761018e565b8063197ce7151461028d57806323b872dd146102bd5780633660f426146102d95761018e565b806301ffc9a71461019357806306fdde03146101c3578063081812fc146101e1578063095ea7b3146102115780630d7e1b2d1461022d578063109413231461025d575b600080fd5b6101ad60048036038101906101a891906121ce565b61058f565b6040516101ba9190612216565b60405180910390f35b6101cb6105f0565b6040516101d891906122c1565b60405180910390f35b6101fb60048036038101906101f69190612319565b610682565b6040516102089190612387565b60405180910390f35b61022b600480360381019061022691906123ce565b6106c8565b005b6102476004803603810190610242919061244a565b6107df565b60405161025491906124d6565b60405180910390f35b6102776004803603810190610272919061244a565b610812565b60405161028491906122c1565b60405180910390f35b6102a760048036038101906102a2919061244a565b610874565b6040516102b49190612216565b60405180910390f35b6102d760048036038101906102d291906124f1565b6108f7565b005b6102e1610957565b6040516102ee91906124d6565b60405180910390f35b610311600480360381019061030c919061244a565b61097d565b60405161031e9190612387565b60405180910390f35b610341600480360381019061033c91906124f1565b6109de565b005b61034b6109fe565b6040516103589190612602565b60405180910390f35b61037b60048036038101906103769190612319565b610a82565b6040516103889190612387565b60405180910390f35b6103ab60048036038101906103a6919061244a565b610b08565b6040516103b89190612633565b60405180910390f35b6103db60048036038101906103d6919061264e565b610b2b565b005b6103f760048036038101906103f2919061268e565b610b89565b60405161040491906126ca565b60405180910390f35b610415610c40565b6040516104229190612633565b60405180910390f35b610433610c4d565b6040516104409190612387565b60405180910390f35b610463600480360381019061045e919061281a565b610c73565b6040516104709190612633565b60405180910390f35b610481610ddd565b60405161048e91906122c1565b60405180910390f35b6104b160048036038101906104ac91906128a2565b610e6f565b005b6104cd60048036038101906104c89190612983565b610e85565b005b6104e960048036038101906104e49190612319565b610ee7565b6040516104f691906122c1565b60405180910390f35b61051960048036038101906105149190612a06565b610ff9565b6040516105269190612216565b60405180910390f35b61054960048036038101906105449190612319565b61108d565b6040516105569190612633565b60405180910390f35b6105796004803603810190610574919061244a565b6110c7565b6040516105869190612c3a565b60405180910390f35b6000634906490660e01b7bffffffffffffffffffffffffffffffffffffffffffffffffffffffff1916827bffffffffffffffffffffffffffffffffffffffffffffffffffffffff191614806105e957506105e8826111c1565b5b9050919050565b6060600080546105ff90612c8b565b80601f016020809104026020016040519081016040528092919081815260200182805461062b90612c8b565b80156106785780601f1061064d57610100808354040283529160200191610678565b820191906000526020600020905b81548152906001019060200180831161065b57829003601f168201915b5050505050905090565b600061068d826112a3565b6004600083815260200190815260200160002060009054906101000a900473ffffffffffffffffffffffffffffffffffffffff169050919050565b60006106d382610a82565b90508073ffffffffffffffffffffffffffffffffffffffff168373ffffffffffffffffffffffffffffffffffffffff1603610743576040517f08c379a000000000000000000000000000000000000000000000000000000000815260040161073a90612d2e565b60405180910390fd5b8073ffffffffffffffffffffffffffffffffffffffff166107626112ee565b73ffffffffffffffffffffffffffffffffffffffff16148061079157506107908161078b6112ee565b610ff9565b5b6107d0576040517f08c379a00000000000000000000000000000000000000000000000000000000081526004016107c790612dc0565b60405180910390fd5b6107da83836112f6565b505050565b600b6020528060005260406000206000915054906101000a900473ffffffffffffffffffffffffffffffffffffffff1681565b606060008263ffffffff16101561085e576040517f08c379a000000000000000000000000000000000000000000000000000000000815260040161085590612e2c565b60405180910390fd5b61086d8263ffffffff16610ee7565b9050919050565b600080600090505b600a805490508110156108ec578263ffffffff16600a82815481106108a4576108a3612e4c565b5b90600052602060002090600891828204019190066004029054906101000a900463ffffffff1663ffffffff16036108df5760019150506108f2565b808060010191505061087c565b50600090505b919050565b6109086109026112ee565b826113af565b610947576040517f08c379a000000000000000000000000000000000000000000000000000000000815260040161093e90612eed565b60405180910390fd5b610952838383611444565b505050565b600960009054906101000a900473ffffffffffffffffffffffffffffffffffffffff1681565b6000808263ffffffff1610156109c8576040517f08c379a00000000000000000000000000000000000000000000000000000000081526004016109bf90612e2c565b60405180910390fd5b6109d78263ffffffff16610a82565b9050919050565b6109f983838360405180602001604052806000815250610e85565b505050565b6060600a805480602002602001604051908101604052809291908181526020018280548015610a7857602002820191906000526020600020906000905b82829054906101000a900463ffffffff1663ffffffff1681526020019060040190602082600301049283019260010382029150808411610a3b5790505b5050505050905090565b600080610a8e8361173d565b9050600073ffffffffffffffffffffffffffffffffffffffff168173ffffffffffffffffffffffffffffffffffffffff1603610aff576040517f08c379a0000000000000000000000000000000000000000000000000000000008152600401610af690612f59565b60405180910390fd5b80915050919050565b600c6020528060005260406000206000915054906101000a900463ffffffff1681565b60008163ffffffff161015610b75576040517f08c379a0000000000000000000000000000000000000000000000000000000008152600401610b6c90612e2c565b60405180910390fd5b610b85828263ffffffff166106c8565b5050565b60008073ffffffffffffffffffffffffffffffffffffffff168273ffffffffffffffffffffffffffffffffffffffff1603610bf9576040517f08c379a0000000000000000000000000000000000000000000000000000000008152600401610bf090612feb565b60405180910390fd5b600360008373ffffffffffffffffffffffffffffffffffffffff1673ffffffffffffffffffffffffffffffffffffffff168152602001908152602001600020549050919050565b6000600a80549050905090565b600860009054906101000a900473ffffffffffffffffffffffffffffffffffffffff1681565b6000600960009054906101000a900473ffffffffffffffffffffffffffffffffffffffff1673ffffffffffffffffffffffffffffffffffffffff1663111479fb6040518163ffffffff1660e01b8152600401602060405180830381865afa158015610ce2573d6000803e3d6000fd5b505050506040513d601f19601f82011682018060405250810190610d069190613020565b63ffffffff168263ffffffff16108015610d27575060008263ffffffff1610155b610d66576040517f08c379a0000000000000000000000000000000000000000000000000000000008152600401610d5d90613099565b60405180910390fd5b610d76338363ffffffff1661177a565b610d868263ffffffff1684611997565b600a8290806001815401808255809150506001900390600052602060002090600891828204019190066004029091909190916101000a81548163ffffffff021916908363ffffffff16021790555081905092915050565b606060018054610dec90612c8b565b80601f0160208091040260200160405190810160405280929190818152602001828054610e1890612c8b565b8015610e655780601f10610e3a57610100808354040283529160200191610e65565b820191906000526020600020905b815481529060010190602001808311610e4857829003601f168201915b5050505050905090565b610e81610e7a6112ee565b8383611a3b565b5050565b610e96610e906112ee565b836113af565b610ed5576040517f08c379a0000000000000000000000000000000000000000000000000000000008152600401610ecc90612eed565b60405180910390fd5b610ee184848484611ba7565b50505050565b6060610ef2826112a3565b6000600660008481526020019081526020016000208054610f1290612c8b565b80601f0160208091040260200160405190810160405280929190818152602001828054610f3e90612c8b565b8015610f8b5780601f10610f6057610100808354040283529160200191610f8b565b820191906000526020600020905b815481529060010190602001808311610f6e57829003601f168201915b505050505090506000610f9c611c03565b90506000815103610fb1578192505050610ff4565b600082511115610fe6578082604051602001610fce9291906130f5565b60405160208183030381529060405292505050610ff4565b610fef84611c1a565b925050505b919050565b6000600560008473ffffffffffffffffffffffffffffffffffffffff1673ffffffffffffffffffffffffffffffffffffffff16815260200190815260200160002060008373ffffffffffffffffffffffffffffffffffffffff1673ffffffffffffffffffffffffffffffffffffffff16815260200190815260200160002060009054906101000a900460ff16905092915050565b600a818154811061109d57600080fd5b9060005260206000209060089182820401919006600402915054906101000a900463ffffffff1681565b6110cf612104565b60008263ffffffff161015611119576040517f08c379a000000000000000000000000000000000000000000000000000000000815260040161111090612e2c565b60405180910390fd5b600960009054906101000a900473ffffffffffffffffffffffffffffffffffffffff1673ffffffffffffffffffffffffffffffffffffffff1663795174bb836040518263ffffffff1660e01b81526004016111749190612633565b600060405180830381865afa158015611191573d6000803e3d6000fd5b505050506040513d6000823e3d601f19601f820116820180604052508101906111ba9190613401565b9050919050565b60007f80ac58cd000000000000000000000000000000000000000000000000000000007bffffffffffffffffffffffffffffffffffffffffffffffffffffffff1916827bffffffffffffffffffffffffffffffffffffffffffffffffffffffff1916148061128c57507f5b5e139f000000000000000000000000000000000000000000000000000000007bffffffffffffffffffffffffffffffffffffffffffffffffffffffff1916827bffffffffffffffffffffffffffffffffffffffffffffffffffffffff1916145b8061129c575061129b82611c82565b5b9050919050565b6112ac81611cec565b6112eb576040517f08c379a00000000000000000000000000000000000000000000000000000000081526004016112e290612f59565b60405180910390fd5b50565b600033905090565b816004600083815260200190815260200160002060006101000a81548173ffffffffffffffffffffffffffffffffffffffff021916908373ffffffffffffffffffffffffffffffffffffffff160217905550808273ffffffffffffffffffffffffffffffffffffffff1661136983610a82565b73ffffffffffffffffffffffffffffffffffffffff167f8c5be1e5ebec7d5bd14f71427d1e84f3dd0314c0f7b2291e5b200ac8c7c3b92560405160405180910390a45050565b6000806113bb83610a82565b90508073ffffffffffffffffffffffffffffffffffffffff168473ffffffffffffffffffffffffffffffffffffffff1614806113fd57506113fc8185610ff9565b5b8061143b57508373ffffffffffffffffffffffffffffffffffffffff1661142384610682565b73ffffffffffffffffffffffffffffffffffffffff16145b91505092915050565b8273ffffffffffffffffffffffffffffffffffffffff1661146482610a82565b73ffffffffffffffffffffffffffffffffffffffff16146114ba576040517f08c379a00000000000000000000000000000000000000000000000000000000081526004016114b1906134bc565b60405180910390fd5b600073ffffffffffffffffffffffffffffffffffffffff168273ffffffffffffffffffffffffffffffffffffffff1603611529576040517f08c379a00000000000000000000000000000000000000000000000000000000081526004016115209061354e565b60405180910390fd5b6115368383836001611d2d565b8273ffffffffffffffffffffffffffffffffffffffff1661155682610a82565b73ffffffffffffffffffffffffffffffffffffffff16146115ac576040517f08c379a00000000000000000000000000000000000000000000000000000000081526004016115a3906134bc565b60405180910390fd5b6004600082815260200190815260200160002060006101000a81549073ffffffffffffffffffffffffffffffffffffffff02191690556001600360008573ffffffffffffffffffffffffffffffffffffffff1673ffffffffffffffffffffffffffffffffffffffff168152602001908152602001600020600082825403925050819055506001600360008473ffffffffffffffffffffffffffffffffffffffff1673ffffffffffffffffffffffffffffffffffffffff16815260200190815260200160002060008282540192505081905550816002600083815260200190815260200160002060006101000a81548173ffffffffffffffffffffffffffffffffffffffff021916908373ffffffffffffffffffffffffffffffffffffffff160217905550808273ffffffffffffffffffffffffffffffffffffffff168473ffffffffffffffffffffffffffffffffffffffff167fddf252ad1be2c89b69c2b068fc378daa952ba7f163c4a11628f55a4df523b3ef60405160405180910390a46117388383836001611d33565b505050565b60006002600083815260200190815260200160002060009054906101000a900473ffffffffffffffffffffffffffffffffffffffff169050919050565b600073ffffffffffffffffffffffffffffffffffffffff168273ffffffffffffffffffffffffffffffffffffffff16036117e9576040517f08c379a00000000000000000000000000000000000000000000000000000000081526004016117e0906135ba565b60405180910390fd5b6117f281611cec565b15611832576040517f08c379a000000000000000000000000000000000000000000000000000000000815260040161182990613626565b60405180910390fd5b611840600083836001611d2d565b61184981611cec565b15611889576040517f08c379a000000000000000000000000000000000000000000000000000000000815260040161188090613626565b60405180910390fd5b6001600360008473ffffffffffffffffffffffffffffffffffffffff1673ffffffffffffffffffffffffffffffffffffffff16815260200190815260200160002060008282540192505081905550816002600083815260200190815260200160002060006101000a81548173ffffffffffffffffffffffffffffffffffffffff021916908373ffffffffffffffffffffffffffffffffffffffff160217905550808273ffffffffffffffffffffffffffffffffffffffff16600073ffffffffffffffffffffffffffffffffffffffff167fddf252ad1be2c89b69c2b068fc378daa952ba7f163c4a11628f55a4df523b3ef60405160405180910390a4611993600083836001611d33565b5050565b6119a082611cec565b6119df576040517f08c379a00000000000000000000000000000000000000000000000000000000081526004016119d6906136b8565b60405180910390fd5b806006600084815260200190815260200160002090816119ff919061387a565b507ff8e1a15aba9398e019f0b49df1a4fde98ee17ae345cb5f6b5e2c27f5033e8ce782604051611a2f91906126ca565b60405180910390a15050565b8173ffffffffffffffffffffffffffffffffffffffff168373ffffffffffffffffffffffffffffffffffffffff1603611aa9576040517f08c379a0000000000000000000000000000000000000000000000000000000008152600401611aa090613998565b60405180910390fd5b80600560008573ffffffffffffffffffffffffffffffffffffffff1673ffffffffffffffffffffffffffffffffffffffff16815260200190815260200160002060008473ffffffffffffffffffffffffffffffffffffffff1673ffffffffffffffffffffffffffffffffffffffff16815260200190815260200160002060006101000a81548160ff0219169083151502179055508173ffffffffffffffffffffffffffffffffffffffff168373ffffffffffffffffffffffffffffffffffffffff167f17307eab39ab6107e8899845ad3d59bd9653f200f220920489ca2b5937696c3183604051611b9a9190612216565b60405180910390a3505050565b611bb2848484611444565b611bbe84848484611d39565b611bfd576040517f08c379a0000000000000000000000000000000000000000000000000000000008152600401611bf490613a2a565b60405180910390fd5b50505050565b606060405180602001604052806000815250905090565b6060611c25826112a3565b6000611c2f611c03565b90506000815111611c4f5760405180602001604052806000815250611c7a565b80611c5984611ec0565b604051602001611c6a9291906130f5565b6040516020818303038152906040525b915050919050565b60007f01ffc9a7000000000000000000000000000000000000000000000000000000007bffffffffffffffffffffffffffffffffffffffffffffffffffffffff1916827bffffffffffffffffffffffffffffffffffffffffffffffffffffffff1916149050919050565b60008073ffffffffffffffffffffffffffffffffffffffff16611d0e8361173d565b73ffffffffffffffffffffffffffffffffffffffff1614159050919050565b50505050565b50505050565b6000611d5a8473ffffffffffffffffffffffffffffffffffffffff16611f8e565b15611eb3578373ffffffffffffffffffffffffffffffffffffffff1663150b7a02611d836112ee565b8786866040518563ffffffff1660e01b8152600401611da59493929190613a9f565b6020604051808303816000875af1925050508015611de157506040513d601f19601f82011682018060405250810190611dde9190613b00565b60015b611e63573d8060008114611e11576040519150601f19603f3d011682016040523d82523d6000602084013e611e16565b606091505b506000815103611e5b576040517f08c379a0000000000000000000000000000000000000000000000000000000008152600401611e5290613a2a565b60405180910390fd5b805181602001fd5b63150b7a0260e01b7bffffffffffffffffffffffffffffffffffffffffffffffffffffffff1916817bffffffffffffffffffffffffffffffffffffffffffffffffffffffff191614915050611eb8565b600190505b949350505050565b606060006001611ecf84611fb1565b01905060008167ffffffffffffffff811115611eee57611eed6126ef565b5b6040519080825280601f01601f191660200182016040528015611f205781602001600182028036833780820191505090505b509050600082602001820190505b600115611f83578080600190039150507f3031323334353637383961626364656600000000000000000000000000000000600a86061a8153600a8581611f7757611f76613b2d565b5b04945060008503611f2e575b819350505050919050565b6000808273ffffffffffffffffffffffffffffffffffffffff163b119050919050565b600080600090507a184f03e93ff9f4daa797ed6e38ed64bf6a1f010000000000000000831061200f577a184f03e93ff9f4daa797ed6e38ed64bf6a1f010000000000000000838161200557612004613b2d565b5b0492506040810190505b6d04ee2d6d415b85acef8100000000831061204c576d04ee2d6d415b85acef8100000000838161204257612041613b2d565b5b0492506020810190505b662386f26fc10000831061207b57662386f26fc10000838161207157612070613b2d565b5b0492506010810190505b6305f5e10083106120a4576305f5e100838161209a57612099613b2d565b5b0492506008810190505b61271083106120c95761271083816120bf576120be613b2d565b5b0492506004810190505b606483106120ec57606483816120e2576120e1613b2d565b5b0492506002810190505b600a83106120fb576001810190505b80915050919050565b604051806101200160405280600063ffffffff16815260200160608152602001600063ffffffff168152602001600063ffffffff16815260200160608152602001606081526020016060815260200160608152602001606081525090565b6000604051905090565b600080fd5b600080fd5b60007fffffffff0000000000000000000000000000000000000000000000000000000082169050919050565b6121ab81612176565b81146121b657600080fd5b50565b6000813590506121c8816121a2565b92915050565b6000602082840312156121e4576121e361216c565b5b60006121f2848285016121b9565b91505092915050565b60008115159050919050565b612210816121fb565b82525050565b600060208201905061222b6000830184612207565b92915050565b600081519050919050565b600082825260208201905092915050565b60005b8381101561226b578082015181840152602081019050612250565b60008484015250505050565b6000601f19601f8301169050919050565b600061229382612231565b61229d818561223c565b93506122ad81856020860161224d565b6122b681612277565b840191505092915050565b600060208201905081810360008301526122db8184612288565b905092915050565b6000819050919050565b6122f6816122e3565b811461230157600080fd5b50565b600081359050612313816122ed565b92915050565b60006020828403121561232f5761232e61216c565b5b600061233d84828501612304565b91505092915050565b600073ffffffffffffffffffffffffffffffffffffffff82169050919050565b600061237182612346565b9050919050565b61238181612366565b82525050565b600060208201905061239c6000830184612378565b92915050565b6123ab81612366565b81146123b657600080fd5b50565b6000813590506123c8816123a2565b92915050565b600080604083850312156123e5576123e461216c565b5b60006123f3858286016123b9565b925050602061240485828601612304565b9150509250929050565b600063ffffffff82169050919050565b6124278161240e565b811461243257600080fd5b50565b6000813590506124448161241e565b92915050565b6000602082840312156124605761245f61216c565b5b600061246e84828501612435565b91505092915050565b6000819050919050565b600061249c61249761249284612346565b612477565b612346565b9050919050565b60006124ae82612481565b9050919050565b60006124c0826124a3565b9050919050565b6124d0816124b5565b82525050565b60006020820190506124eb60008301846124c7565b92915050565b60008060006060848603121561250a5761250961216c565b5b6000612518868287016123b9565b9350506020612529868287016123b9565b925050604061253a86828701612304565b9150509250925092565b600081519050919050565b600082825260208201905092915050565b6000819050602082019050919050565b6125798161240e565b82525050565b600061258b8383612570565b60208301905092915050565b6000602082019050919050565b60006125af82612544565b6125b9818561254f565b93506125c483612560565b8060005b838110156125f55781516125dc888261257f565b97506125e783612597565b9250506001810190506125c8565b5085935050505092915050565b6000602082019050818103600083015261261c81846125a4565b905092915050565b61262d8161240e565b82525050565b60006020820190506126486000830184612624565b92915050565b600080604083850312156126655761266461216c565b5b6000612673858286016123b9565b925050602061268485828601612435565b9150509250929050565b6000602082840312156126a4576126a361216c565b5b60006126b2848285016123b9565b91505092915050565b6126c4816122e3565b82525050565b60006020820190506126df60008301846126bb565b92915050565b600080fd5b600080fd5b7f4e487b7100000000000000000000000000000000000000000000000000000000600052604160045260246000fd5b61272782612277565b810181811067ffffffffffffffff82111715612746576127456126ef565b5b80604052505050565b6000612759612162565b9050612765828261271e565b919050565b600067ffffffffffffffff821115612785576127846126ef565b5b61278e82612277565b9050602081019050919050565b82818337600083830152505050565b60006127bd6127b88461276a565b61274f565b9050828152602081018484840111156127d9576127d86126ea565b5b6127e484828561279b565b509392505050565b600082601f830112612801576128006126e5565b5b81356128118482602086016127aa565b91505092915050565b600080604083850312156128315761283061216c565b5b600083013567ffffffffffffffff81111561284f5761284e612171565b5b61285b858286016127ec565b925050602061286c85828601612435565b9150509250929050565b61287f816121fb565b811461288a57600080fd5b50565b60008135905061289c81612876565b92915050565b600080604083850312156128b9576128b861216c565b5b60006128c7858286016123b9565b92505060206128d88582860161288d565b9150509250929050565b600067ffffffffffffffff8211156128fd576128fc6126ef565b5b61290682612277565b9050602081019050919050565b6000612926612921846128e2565b61274f565b905082815260208101848484011115612942576129416126ea565b5b61294d84828561279b565b509392505050565b600082601f83011261296a576129696126e5565b5b813561297a848260208601612913565b91505092915050565b6000806000806080858703121561299d5761299c61216c565b5b60006129ab878288016123b9565b94505060206129bc878288016123b9565b93505060406129cd87828801612304565b925050606085013567ffffffffffffffff8111156129ee576129ed612171565b5b6129fa87828801612955565b91505092959194509250565b60008060408385031215612a1d57612a1c61216c565b5b6000612a2b858286016123b9565b9250506020612a3c858286016123b9565b9150509250929050565b600082825260208201905092915050565b6000612a6282612231565b612a6c8185612a46565b9350612a7c81856020860161224d565b612a8581612277565b840191505092915050565b600081519050919050565b600082825260208201905092915050565b6000819050602082019050919050565b6000612ac88383612a57565b905092915050565b6000602082019050919050565b6000612ae882612a90565b612af28185612a9b565b935083602082028501612b0485612aac565b8060005b85811015612b405784840389528151612b218582612abc565b9450612b2c83612ad0565b925060208a01995050600181019050612b08565b50829750879550505050505092915050565b600061012083016000830151612b6b6000860182612570565b5060208301518482036020860152612b838282612a57565b9150506040830151612b986040860182612570565b506060830151612bab6060860182612570565b5060808301518482036080860152612bc38282612add565b91505060a083015184820360a0860152612bdd8282612add565b91505060c083015184820360c0860152612bf78282612add565b91505060e083015184820360e0860152612c118282612a57565b915050610100830151848203610100860152612c2d8282612a57565b9150508091505092915050565b60006020820190508181036000830152612c548184612b52565b905092915050565b7f4e487b7100000000000000000000000000000000000000000000000000000000600052602260045260246000fd5b60006002820490506001821680612ca357607f821691505b602082108103612cb657612cb5612c5c565b5b50919050565b7f4552433732313a20617070726f76616c20746f2063757272656e74206f776e6560008201527f7200000000000000000000000000000000000000000000000000000000000000602082015250565b6000612d1860218361223c565b9150612d2382612cbc565b604082019050919050565b60006020820190508181036000830152612d4781612d0b565b9050919050565b7f4552433732313a20617070726f76652063616c6c6572206973206e6f7420746f60008201527f6b656e206f776e6572206f7220617070726f76656420666f7220616c6c000000602082015250565b6000612daa603d8361223c565b9150612db582612d4e565b604082019050919050565b60006020820190508181036000830152612dd981612d9d565b9050919050565b7f4e465420646f6573206e6f742065786973740000000000000000000000000000600082015250565b6000612e1660128361223c565b9150612e2182612de0565b602082019050919050565b60006020820190508181036000830152612e4581612e09565b9050919050565b7f4e487b7100000000000000000000000000000000000000000000000000000000600052603260045260246000fd5b7f4552433732313a2063616c6c6572206973206e6f7420746f6b656e206f776e6560008201527f72206f7220617070726f76656400000000000000000000000000000000000000602082015250565b6000612ed7602d8361223c565b9150612ee282612e7b565b604082019050919050565b60006020820190508181036000830152612f0681612eca565b9050919050565b7f4552433732313a20696e76616c696420746f6b656e2049440000000000000000600082015250565b6000612f4360188361223c565b9150612f4e82612f0d565b602082019050919050565b60006020820190508181036000830152612f7281612f36565b9050919050565b7f4552433732313a2061646472657373207a65726f206973206e6f74206120766160008201527f6c6964206f776e65720000000000000000000000000000000000000000000000602082015250565b6000612fd560298361223c565b9150612fe082612f79565b604082019050919050565b6000602082019050818103600083015261300481612fc8565b9050919050565b60008151905061301a8161241e565b92915050565b6000602082840312156130365761303561216c565b5b60006130448482850161300b565b91505092915050565b7f4e6f20696e666f726d6174696f6e206f662043726f7020666f72204e46540000600082015250565b6000613083601e8361223c565b915061308e8261304d565b602082019050919050565b600060208201905081810360008301526130b281613076565b9050919050565b600081905092915050565b60006130cf82612231565b6130d981856130b9565b93506130e981856020860161224d565b80840191505092915050565b600061310182856130c4565b915061310d82846130c4565b91508190509392505050565b600080fd5b600080fd5b60006131366131318461276a565b61274f565b905082815260208101848484011115613152576131516126ea565b5b61315d84828561224d565b509392505050565b600082601f83011261317a576131796126e5565b5b815161318a848260208601613123565b91505092915050565b600067ffffffffffffffff8211156131ae576131ad6126ef565b5b602082029050602081019050919050565b600080fd5b60006131d76131d284613193565b61274f565b905080838252602082019050602084028301858111156131fa576131f96131bf565b5b835b8181101561324157805167ffffffffffffffff81111561321f5761321e6126e5565b5b80860161322c8982613165565b855260208501945050506020810190506131fc565b5050509392505050565b600082601f8301126132605761325f6126e5565b5b81516132708482602086016131c4565b91505092915050565b600061012082840312156132905761328f613119565b5b61329b61012061274f565b905060006132ab8482850161300b565b600083015250602082015167ffffffffffffffff8111156132cf576132ce61311e565b5b6132db84828501613165565b60208301525060406132ef8482850161300b565b60408301525060606133038482850161300b565b606083015250608082015167ffffffffffffffff8111156133275761332661311e565b5b6133338482850161324b565b60808301525060a082015167ffffffffffffffff8111156133575761335661311e565b5b6133638482850161324b565b60a08301525060c082015167ffffffffffffffff8111156133875761338661311e565b5b6133938482850161324b565b60c08301525060e082015167ffffffffffffffff8111156133b7576133b661311e565b5b6133c384828501613165565b60e08301525061010082015167ffffffffffffffff8111156133e8576133e761311e565b5b6133f484828501613165565b6101008301525092915050565b6000602082840312156134175761341661216c565b5b600082015167ffffffffffffffff81111561343557613434612171565b5b61344184828501613279565b91505092915050565b7f4552433732313a207472616e736665722066726f6d20696e636f72726563742060008201527f6f776e6572000000000000000000000000000000000000000000000000000000602082015250565b60006134a660258361223c565b91506134b18261344a565b604082019050919050565b600060208201905081810360008301526134d581613499565b9050919050565b7f4552433732313a207472616e7366657220746f20746865207a65726f2061646460008201527f7265737300000000000000000000000000000000000000000000000000000000602082015250565b600061353860248361223c565b9150613543826134dc565b604082019050919050565b600060208201905081810360008301526135678161352b565b9050919050565b7f4552433732313a206d696e7420746f20746865207a65726f2061646472657373600082015250565b60006135a460208361223c565b91506135af8261356e565b602082019050919050565b600060208201905081810360008301526135d381613597565b9050919050565b7f4552433732313a20746f6b656e20616c7265616479206d696e74656400000000600082015250565b6000613610601c8361223c565b915061361b826135da565b602082019050919050565b6000602082019050818103600083015261363f81613603565b9050919050565b7f45524337323155524953746f726167653a2055524920736574206f66206e6f6e60008201527f6578697374656e7420746f6b656e000000000000000000000000000000000000602082015250565b60006136a2602e8361223c565b91506136ad82613646565b604082019050919050565b600060208201905081810360008301526136d181613695565b9050919050565b60008190508160005260206000209050919050565b60006020601f8301049050919050565b600082821b905092915050565b60006008830261373a7fffffffffffffffffffffffffffffffffffffffffffffffffffffffffffffffff826136fd565b61374486836136fd565b95508019841693508086168417925050509392505050565b600061377761377261376d846122e3565b612477565b6122e3565b9050919050565b6000819050919050565b6137918361375c565b6137a561379d8261377e565b84845461370a565b825550505050565b600090565b6137ba6137ad565b6137c5818484613788565b505050565b5b818110156137e9576137de6000826137b2565b6001810190506137cb565b5050565b601f82111561382e576137ff816136d8565b613808846136ed565b81016020851015613817578190505b61382b613823856136ed565b8301826137ca565b50505b505050565b600082821c905092915050565b600061385160001984600802613833565b1980831691505092915050565b600061386a8383613840565b9150826002028217905092915050565b61388382612231565b67ffffffffffffffff81111561389c5761389b6126ef565b5b6138a68254612c8b565b6138b18282856137ed565b600060209050601f8311600181146138e457600084156138d2578287015190505b6138dc858261385e565b865550613944565b601f1984166138f2866136d8565b60005b8281101561391a578489015182556001820191506020850194506020810190506138f5565b868310156139375784890151613933601f891682613840565b8355505b6001600288020188555050505b505050505050565b7f4552433732313a20617070726f766520746f2063616c6c657200000000000000600082015250565b600061398260198361223c565b915061398d8261394c565b602082019050919050565b600060208201905081810360008301526139b181613975565b9050919050565b7f4552433732313a207472616e7366657220746f206e6f6e20455243373231526560008201527f63656976657220696d706c656d656e7465720000000000000000000000000000602082015250565b6000613a1460328361223c565b9150613a1f826139b8565b604082019050919050565b60006020820190508181036000830152613a4381613a07565b9050919050565b600081519050919050565b600082825260208201905092915050565b6000613a7182613a4a565b613a7b8185613a55565b9350613a8b81856020860161224d565b613a9481612277565b840191505092915050565b6000608082019050613ab46000830187612378565b613ac16020830186612378565b613ace60408301856126bb565b8181036060830152613ae08184613a66565b905095945050505050565b600081519050613afa816121a2565b92915050565b600060208284031215613b1657613b1561216c565b5b6000613b2484828501613aeb565b91505092915050565b7f4e487b7100000000000000000000000000000000000000000000000000000000600052601260045260246000fdfea2646970667358221220619cf84d767052535b48d8111c0138b28a5cd3d9915df838208000ceb152558f64736f6c63430008180033",
  "linkReferences": {},
  "deployedLinkReferences": {}
}