{
  "_format": "hh-sol-artifact-1",
  "contractName": "Floppy",
  "sourceName": "contracts/Token.sol",
  "abi": [
    {
      "inputs": [],
      "stateMutability": "nonpayable",
      "type": "constructor"
    },
    {
      "anonymous": false,
      "inputs": [
        {
          "indexed": true,
          "internalType": "address",
          "name": "owner",
          "type": "address"
        },
        {
          "indexed": true,
          "internalType": "address",
          "name": "spender",
          "type": "address"
        },
        {
          "indexed": false,
          "internalType": "uint256",
          "name": "value",
          "type": "uint256"
        }
      ],
      "name": "Approval",
      "type": "event"
    },
    {
      "anonymous": false,
      "inputs": [
        {
          "indexed": true,
          "internalType": "address",
          "name": "previousOwner",
          "type": "address"
        },
        {
          "indexed": true,
          "internalType": "address",
          "name": "newOwner",
          "type": "address"
        }
      ],
      "name": "OwnershipTransferred",
      "type": "event"
    },
    {
      "anonymous": false,
      "inputs": [
        {
          "indexed": true,
          "internalType": "address",
          "name": "from",
          "type": "address"
        },
        {
          "indexed": true,
          "internalType": "address",
          "name": "to",
          "type": "address"
        },
        {
          "indexed": false,
          "internalType": "uint256",
          "name": "value",
          "type": "uint256"
        }
      ],
      "name": "Transfer",
      "type": "event"
    },
    {
      "inputs": [
        {
          "internalType": "address",
          "name": "owner",
          "type": "address"
        },
        {
          "internalType": "address",
          "name": "spender",
          "type": "address"
        }
      ],
      "name": "allowance",
      "outputs": [
        {
          "internalType": "uint256",
          "name": "",
          "type": "uint256"
        }
      ],
      "stateMutability": "view",
      "type": "function"
    },
    {
      "inputs": [
        {
          "internalType": "address",
          "name": "_spender",
          "type": "address"
        },
        {
          "internalType": "uint256",
          "name": "_amount",
          "type": "uint256"
        }
      ],
      "name": "approve",
      "outputs": [
        {
          "internalType": "bool",
          "name": "",
          "type": "bool"
        }
      ],
      "stateMutability": "nonpayable",
      "type": "function"
    },
    {
      "inputs": [
        {
          "internalType": "address",
          "name": "_spender",
          "type": "address"
        }
      ],
      "name": "approveAllMyBalance",
      "outputs": [
        {
          "internalType": "bool",
          "name": "",
          "type": "bool"
        }
      ],
      "stateMutability": "nonpayable",
      "type": "function"
    },
    {
      "inputs": [
        {
          "internalType": "address",
          "name": "account",
          "type": "address"
        }
      ],
      "name": "balanceOf",
      "outputs": [
        {
          "internalType": "uint256",
          "name": "",
          "type": "uint256"
        }
      ],
      "stateMutability": "view",
      "type": "function"
    },
    {
      "inputs": [],
      "name": "decimals",
      "outputs": [
        {
          "internalType": "uint8",
          "name": "",
          "type": "uint8"
        }
      ],
      "stateMutability": "view",
      "type": "function"
    },
    {
      "inputs": [
        {
          "internalType": "address",
          "name": "spender",
          "type": "address"
        },
        {
          "internalType": "uint256",
          "name": "subtractedValue",
          "type": "uint256"
        }
      ],
      "name": "decreaseAllowance",
      "outputs": [
        {
          "internalType": "bool",
          "name": "",
          "type": "bool"
        }
      ],
      "stateMutability": "nonpayable",
      "type": "function"
    },
    {
      "inputs": [],
      "name": "getBalance",
      "outputs": [
        {
          "internalType": "uint256",
          "name": "",
          "type": "uint256"
        }
      ],
      "stateMutability": "view",
      "type": "function"
    },
    {
      "inputs": [
        {
          "internalType": "address",
          "name": "spender",
          "type": "address"
        },
        {
          "internalType": "uint256",
          "name": "addedValue",
          "type": "uint256"
        }
      ],
      "name": "increaseAllowance",
      "outputs": [
        {
          "internalType": "bool",
          "name": "",
          "type": "bool"
        }
      ],
      "stateMutability": "nonpayable",
      "type": "function"
    },
    {
      "inputs": [
        {
          "internalType": "address",
          "name": "_to",
          "type": "address"
        },
        {
          "internalType": "uint256",
          "name": "_amount",
          "type": "uint256"
        }
      ],
      "name": "mint",
      "outputs": [],
      "stateMutability": "nonpayable",
      "type": "function"
    },
    {
      "inputs": [],
      "name": "name",
      "outputs": [
        {
          "internalType": "string",
          "name": "",
          "type": "string"
        }
      ],
      "stateMutability": "view",
      "type": "function"
    },
    {
      "inputs": [],
      "name": "owner",
      "outputs": [
        {
          "internalType": "address",
          "name": "",
          "type": "address"
        }
      ],
      "stateMutability": "view",
      "type": "function"
    },
    {
      "inputs": [],
      "name": "renounceOwnership",
      "outputs": [],
      "stateMutability": "nonpayable",
      "type": "function"
    },
    {
      "inputs": [],
      "name": "symbol",
      "outputs": [
        {
          "internalType": "string",
          "name": "",
          "type": "string"
        }
      ],
      "stateMutability": "view",
      "type": "function"
    },
    {
      "inputs": [],
      "name": "totalSupply",
      "outputs": [
        {
          "internalType": "uint256",
          "name": "",
          "type": "uint256"
        }
      ],
      "stateMutability": "view",
      "type": "function"
    },
    {
      "inputs": [
        {
          "internalType": "address",
          "name": "_to",
          "type": "address"
        },
        {
          "internalType": "uint256",
          "name": "_amount",
          "type": "uint256"
        }
      ],
      "name": "transfer",
      "outputs": [
        {
          "internalType": "bool",
          "name": "",
          "type": "bool"
        }
      ],
      "stateMutability": "nonpayable",
      "type": "function"
    },
    {
      "inputs": [
        {
          "internalType": "address",
          "name": "from",
          "type": "address"
        },
        {
          "internalType": "address",
          "name": "to",
          "type": "address"
        },
        {
          "internalType": "uint256",
          "name": "amount",
          "type": "uint256"
        }
      ],
      "name": "transferFrom",
      "outputs": [
        {
          "internalType": "bool",
          "name": "",
          "type": "bool"
        }
      ],
      "stateMutability": "nonpayable",
      "type": "function"
    },
    {
      "inputs": [
        {
          "internalType": "address",
          "name": "newOwner",
          "type": "address"
        }
      ],
      "name": "transferOwnership",
      "outputs": [],
      "stateMutability": "nonpayable",
      "type": "function"
    }
  ],
  "bytecode": "0x60806040526012600a6200001491906200078c565b620186a0620000249190620007dd565b6006553480156200003457600080fd5b506040518060400160405280600681526020017f466c6f70707900000000000000000000000000000000000000000000000000008152506040518060400160405280600381526020017f464c5000000000000000000000000000000000000000000000000000000000008152508160039081620000b2919062000a98565b508060049081620000c4919062000a98565b505050620000e7620000db6200015960201b60201c565b6200016160201b60201c565b6200012e6040518060400160405280600981526020017f6f776e65723a2025730000000000000000000000000000000000000000000000815250336200022760201b60201c565b6200014233600654620002cd60201b60201c565b62000153336200043a60201b60201c565b62000e9b565b600033905090565b6000600560009054906101000a900473ffffffffffffffffffffffffffffffffffffffff16905081600560006101000a81548173ffffffffffffffffffffffffffffffffffffffff021916908373ffffffffffffffffffffffffffffffffffffffff1602179055508173ffffffffffffffffffffffffffffffffffffffff168173ffffffffffffffffffffffffffffffffffffffff167f8be0079c531659141344cd1fd0a4f28419497f9722a3daafe3b4186f6b6457e060405160405180910390a35050565b620002c982826040516024016200024092919062000c53565b6040516020818303038152906040527f319af333000000000000000000000000000000000000000000000000000000007bffffffffffffffffffffffffffffffffffffffffffffffffffffffff19166020820180517bffffffffffffffffffffffffffffffffffffffffffffffffffffffff8381831617835250505050620004d060201b60201c565b5050565b600073ffffffffffffffffffffffffffffffffffffffff168273ffffffffffffffffffffffffffffffffffffffff16036200033f576040517f08c379a0000000000000000000000000000000000000000000000000000000008152600401620003369062000cd7565b60405180910390fd5b6200035360008383620004f960201b60201c565b806002600082825462000367919062000cf9565b92505081905550806000808473ffffffffffffffffffffffffffffffffffffffff1673ffffffffffffffffffffffffffffffffffffffff168152602001908152602001600020600082825401925050819055508173ffffffffffffffffffffffffffffffffffffffff16600073ffffffffffffffffffffffffffffffffffffffff167fddf252ad1be2c89b69c2b068fc378daa952ba7f163c4a11628f55a4df523b3ef836040516200041a919062000d45565b60405180910390a36200043660008383620004fe60201b60201c565b5050565b6200044a6200050360201b60201c565b600073ffffffffffffffffffffffffffffffffffffffff168173ffffffffffffffffffffffffffffffffffffffff1603620004bc576040517f08c379a0000000000000000000000000000000000000000000000000000000008152600401620004b39062000dd8565b60405180910390fd5b620004cd816200016160201b60201c565b50565b620004f681620004f16200059460201b620008c417620005b560201b60201c565b60201c565b50565b505050565b505050565b620005136200015960201b60201c565b73ffffffffffffffffffffffffffffffffffffffff1662000539620005c960201b60201c565b73ffffffffffffffffffffffffffffffffffffffff161462000592576040517f08c379a0000000000000000000000000000000000000000000000000000000008152600401620005899062000e4a565b60405180910390fd5b565b60006a636f6e736f6c652e6c6f679050600080835160208501845afa505050565b620005f360201b6200116317819050919050565b6000600560009054906101000a900473ffffffffffffffffffffffffffffffffffffffff16905090565b620005fd62000e6c565b565b7f4e487b7100000000000000000000000000000000000000000000000000000000600052601160045260246000fd5b60008160011c9050919050565b6000808291508390505b60018511156200068d57808604811115620006655762000664620005ff565b5b6001851615620006755780820291505b808102905062000685856200062e565b945062000645565b94509492505050565b600082620006a857600190506200077b565b81620006b857600090506200077b565b8160018114620006d15760028114620006dc5762000712565b60019150506200077b565b60ff841115620006f157620006f0620005ff565b5b8360020a9150848211156200070b576200070a620005ff565b5b506200077b565b5060208310610133831016604e8410600b84101617156200074c5782820a905083811115620007465762000745620005ff565b5b6200077b565b6200075b84848460016200063b565b92509050818404811115620007755762000774620005ff565b5b81810290505b9392505050565b6000819050919050565b6000620007998262000782565b9150620007a68362000782565b9250620007d57fffffffffffffffffffffffffffffffffffffffffffffffffffffffffffffffff848462000696565b905092915050565b6000620007ea8262000782565b9150620007f78362000782565b9250828202620008078162000782565b91508282048414831517620008215762000820620005ff565b5b5092915050565b600081519050919050565b7f4e487b7100000000000000000000000000000000000000000000000000000000600052604160045260246000fd5b7f4e487b7100000000000000000000000000000000000000000000000000000000600052602260045260246000fd5b60006002820490506001821680620008aa57607f821691505b602082108103620008c057620008bf62000862565b5b50919050565b60008190508160005260206000209050919050565b60006020601f8301049050919050565b600082821b905092915050565b6000600883026200092a7fffffffffffffffffffffffffffffffffffffffffffffffffffffffffffffffff82620008eb565b620009368683620008eb565b95508019841693508086168417925050509392505050565b6000819050919050565b600062000979620009736200096d8462000782565b6200094e565b62000782565b9050919050565b6000819050919050565b620009958362000958565b620009ad620009a48262000980565b848454620008f8565b825550505050565b600090565b620009c4620009b5565b620009d18184846200098a565b505050565b5b81811015620009f957620009ed600082620009ba565b600181019050620009d7565b5050565b601f82111562000a485762000a1281620008c6565b62000a1d84620008db565b8101602085101562000a2d578190505b62000a4562000a3c85620008db565b830182620009d6565b50505b505050565b600082821c905092915050565b600062000a6d6000198460080262000a4d565b1980831691505092915050565b600062000a88838362000a5a565b9150826002028217905092915050565b62000aa38262000828565b67ffffffffffffffff81111562000abf5762000abe62000833565b5b62000acb825462000891565b62000ad8828285620009fd565b600060209050601f83116001811462000b10576000841562000afb578287015190505b62000b07858262000a7a565b86555062000b77565b601f19841662000b2086620008c6565b60005b8281101562000b4a5784890151825560018201915060208501945060208101905062000b23565b8683101562000b6a578489015162000b66601f89168262000a5a565b8355505b6001600288020188555050505b505050505050565b600082825260208201905092915050565b60005b8381101562000bb057808201518184015260208101905062000b93565b60008484015250505050565b6000601f19601f8301169050919050565b600062000bda8262000828565b62000be6818562000b7f565b935062000bf881856020860162000b90565b62000c038162000bbc565b840191505092915050565b600073ffffffffffffffffffffffffffffffffffffffff82169050919050565b600062000c3b8262000c0e565b9050919050565b62000c4d8162000c2e565b82525050565b6000604082019050818103600083015262000c6f818562000bcd565b905062000c80602083018462000c42565b9392505050565b7f45524332303a206d696e7420746f20746865207a65726f206164647265737300600082015250565b600062000cbf601f8362000b7f565b915062000ccc8262000c87565b602082019050919050565b6000602082019050818103600083015262000cf28162000cb0565b9050919050565b600062000d068262000782565b915062000d138362000782565b925082820190508082111562000d2e5762000d2d620005ff565b5b92915050565b62000d3f8162000782565b82525050565b600060208201905062000d5c600083018462000d34565b92915050565b7f4f776e61626c653a206e6577206f776e657220697320746865207a65726f206160008201527f6464726573730000000000000000000000000000000000000000000000000000602082015250565b600062000dc060268362000b7f565b915062000dcd8262000d62565b604082019050919050565b6000602082019050818103600083015262000df38162000db1565b9050919050565b7f4f776e61626c653a2063616c6c6572206973206e6f7420746865206f776e6572600082015250565b600062000e3260208362000b7f565b915062000e3f8262000dfa565b602082019050919050565b6000602082019050818103600083015262000e658162000e23565b9050919050565b7f4e487b7100000000000000000000000000000000000000000000000000000000600052605160045260246000fd5b611bdf8062000eab6000396000f3fe608060405234801561001057600080fd5b506004361061010b5760003560e01c806370a08231116100a257806395d89b411161007157806395d89b41146102bc578063a457c2d7146102da578063a9059cbb1461030a578063dd62ed3e1461033a578063f2fde38b1461036a5761010b565b806370a0823114610234578063715018a61461026457806373436f7f1461026e5780638da5cb5b1461029e5761010b565b806323b872dd116100de57806323b872dd1461019a578063313ce567146101ca57806339509351146101e857806340c10f19146102185761010b565b806306fdde0314610110578063095ea7b31461012e57806312065fe01461015e57806318160ddd1461017c575b600080fd5b610118610386565b60405161012591906111fd565b60405180910390f35b610148600480360381019061014391906112b8565b610418565b6040516101559190611313565b60405180910390f35b61016661042c565b604051610173919061133d565b60405180910390f35b61018461044f565b604051610191919061133d565b60405180910390f35b6101b460048036038101906101af9190611358565b610459565b6040516101c19190611313565b60405180910390f35b6101d2610488565b6040516101df91906113c7565b60405180910390f35b61020260048036038101906101fd91906112b8565b610491565b60405161020f9190611313565b60405180910390f35b610232600480360381019061022d91906112b8565b6104c8565b005b61024e600480360381019061024991906113e2565b610535565b60405161025b919061133d565b60405180910390f35b61026c61057d565b005b610288600480360381019061028391906113e2565b610591565b6040516102959190611313565b60405180910390f35b6102a66105ac565b6040516102b3919061141e565b60405180910390f35b6102c46105d6565b6040516102d191906111fd565b60405180910390f35b6102f460048036038101906102ef91906112b8565b610668565b6040516103019190611313565b60405180910390f35b610324600480360381019061031f91906112b8565b6106df565b6040516103319190611313565b60405180910390f35b610354600480360381019061034f9190611439565b6107ba565b604051610361919061133d565b60405180910390f35b610384600480360381019061037f91906113e2565b610841565b005b606060038054610395906114a8565b80601f01602080910402602001604051908101604052809291908181526020018280546103c1906114a8565b801561040e5780601f106103e35761010080835404028352916020019161040e565b820191906000526020600020905b8154815290600101906020018083116103f157829003601f168201915b5050505050905090565b600061042483836108e5565b905092915050565b6000670de0b6b3a764000061044033610535565b61044a9190611537565b905090565b6000600254905090565b600080610464610908565b9050610471858285610910565b61047c85858561099c565b60019150509392505050565b60006012905090565b60008061049c610908565b90506104bd8185856104ae85896107ba565b6104b89190611568565b610c12565b600191505092915050565b6104d0610ddb565b600654816104dc61044f565b6104e69190611568565b1115610527576040517f08c379a000000000000000000000000000000000000000000000000000000000815260040161051e906115e8565b60405180910390fd5b6105318282610e59565b5050565b60008060008373ffffffffffffffffffffffffffffffffffffffff1673ffffffffffffffffffffffffffffffffffffffff168152602001908152602001600020549050919050565b610585610ddb565b61058f6000610faf565b565b60006105a5826105a033610535565b610418565b9050919050565b6000600560009054906101000a900473ffffffffffffffffffffffffffffffffffffffff16905090565b6060600480546105e5906114a8565b80601f0160208091040260200160405190810160405280929190818152602001828054610611906114a8565b801561065e5780601f106106335761010080835404028352916020019161065e565b820191906000526020600020905b81548152906001019060200180831161064157829003601f168201915b5050505050905090565b600080610673610908565b9050600061068182866107ba565b9050838110156106c6576040517f08c379a00000000000000000000000000000000000000000000000000000000081526004016106bd9061167a565b60405180910390fd5b6106d38286868403610c12565b60019250505092915050565b60006107286040518060400160405280600d81526020017f62616c616e63654f663a2025730000000000000000000000000000000000000081525061072385610535565b611075565b6107676040518060400160405280600a81526020017f616d6f756e743a2025730000000000000000000000000000000000000000000081525083611075565b6107a86040518060400160405280600781526020017f6361703a20257300000000000000000000000000000000000000000000000000815250600654611075565b6107b28383611111565b905092915050565b6000600160008473ffffffffffffffffffffffffffffffffffffffff1673ffffffffffffffffffffffffffffffffffffffff16815260200190815260200160002060008373ffffffffffffffffffffffffffffffffffffffff1673ffffffffffffffffffffffffffffffffffffffff16815260200190815260200160002054905092915050565b610849610ddb565b600073ffffffffffffffffffffffffffffffffffffffff168173ffffffffffffffffffffffffffffffffffffffff16036108b8576040517f08c379a00000000000000000000000000000000000000000000000000000000081526004016108af9061170c565b60405180910390fd5b6108c181610faf565b50565b60006a636f6e736f6c652e6c6f679050600080835160208501845afa505050565b6000806108f0610908565b90506108fd818585610c12565b600191505092915050565b600033905090565b600061091c84846107ba565b90507fffffffffffffffffffffffffffffffffffffffffffffffffffffffffffffffff81146109965781811015610988576040517f08c379a000000000000000000000000000000000000000000000000000000000815260040161097f90611778565b60405180910390fd5b6109958484848403610c12565b5b50505050565b600073ffffffffffffffffffffffffffffffffffffffff168373ffffffffffffffffffffffffffffffffffffffff1603610a0b576040517f08c379a0000000000000000000000000000000000000000000000000000000008152600401610a029061180a565b60405180910390fd5b600073ffffffffffffffffffffffffffffffffffffffff168273ffffffffffffffffffffffffffffffffffffffff1603610a7a576040517f08c379a0000000000000000000000000000000000000000000000000000000008152600401610a719061189c565b60405180910390fd5b610a85838383611134565b60008060008573ffffffffffffffffffffffffffffffffffffffff1673ffffffffffffffffffffffffffffffffffffffff16815260200190815260200160002054905081811015610b0b576040517f08c379a0000000000000000000000000000000000000000000000000000000008152600401610b029061192e565b60405180910390fd5b8181036000808673ffffffffffffffffffffffffffffffffffffffff1673ffffffffffffffffffffffffffffffffffffffff16815260200190815260200160002081905550816000808573ffffffffffffffffffffffffffffffffffffffff1673ffffffffffffffffffffffffffffffffffffffff168152602001908152602001600020600082825401925050819055508273ffffffffffffffffffffffffffffffffffffffff168473ffffffffffffffffffffffffffffffffffffffff167fddf252ad1be2c89b69c2b068fc378daa952ba7f163c4a11628f55a4df523b3ef84604051610bf9919061133d565b60405180910390a3610c0c848484611139565b50505050565b600073ffffffffffffffffffffffffffffffffffffffff168373ffffffffffffffffffffffffffffffffffffffff1603610c81576040517f08c379a0000000000000000000000000000000000000000000000000000000008152600401610c78906119c0565b60405180910390fd5b600073ffffffffffffffffffffffffffffffffffffffff168273ffffffffffffffffffffffffffffffffffffffff1603610cf0576040517f08c379a0000000000000000000000000000000000000000000000000000000008152600401610ce790611a52565b60405180910390fd5b80600160008573ffffffffffffffffffffffffffffffffffffffff1673ffffffffffffffffffffffffffffffffffffffff16815260200190815260200160002060008473ffffffffffffffffffffffffffffffffffffffff1673ffffffffffffffffffffffffffffffffffffffff168152602001908152602001600020819055508173ffffffffffffffffffffffffffffffffffffffff168373ffffffffffffffffffffffffffffffffffffffff167f8c5be1e5ebec7d5bd14f71427d1e84f3dd0314c0f7b2291e5b200ac8c7c3b92583604051610dce919061133d565b60405180910390a3505050565b610de3610908565b73ffffffffffffffffffffffffffffffffffffffff16610e016105ac565b73ffffffffffffffffffffffffffffffffffffffff1614610e57576040517f08c379a0000000000000000000000000000000000000000000000000000000008152600401610e4e90611abe565b60405180910390fd5b565b600073ffffffffffffffffffffffffffffffffffffffff168273ffffffffffffffffffffffffffffffffffffffff1603610ec8576040517f08c379a0000000000000000000000000000000000000000000000000000000008152600401610ebf90611b2a565b60405180910390fd5b610ed460008383611134565b8060026000828254610ee69190611568565b92505081905550806000808473ffffffffffffffffffffffffffffffffffffffff1673ffffffffffffffffffffffffffffffffffffffff168152602001908152602001600020600082825401925050819055508173ffffffffffffffffffffffffffffffffffffffff16600073ffffffffffffffffffffffffffffffffffffffff167fddf252ad1be2c89b69c2b068fc378daa952ba7f163c4a11628f55a4df523b3ef83604051610f97919061133d565b60405180910390a3610fab60008383611139565b5050565b6000600560009054906101000a900473ffffffffffffffffffffffffffffffffffffffff16905081600560006101000a81548173ffffffffffffffffffffffffffffffffffffffff021916908373ffffffffffffffffffffffffffffffffffffffff1602179055508173ffffffffffffffffffffffffffffffffffffffff168173ffffffffffffffffffffffffffffffffffffffff167f8be0079c531659141344cd1fd0a4f28419497f9722a3daafe3b4186f6b6457e060405160405180910390a35050565b61110d828260405160240161108b929190611b4a565b6040516020818303038152906040527fb60e72cc000000000000000000000000000000000000000000000000000000007bffffffffffffffffffffffffffffffffffffffffffffffffffffffff19166020820180517bffffffffffffffffffffffffffffffffffffffffffffffffffffffff838183161783525050505061113e565b5050565b60008061111c610908565b905061112981858561099c565b600191505092915050565b505050565b505050565b6111558161114d6108c4611158565b63ffffffff16565b50565b611163819050919050565b61116b611b7a565b565b600081519050919050565b600082825260208201905092915050565b60005b838110156111a757808201518184015260208101905061118c565b60008484015250505050565b6000601f19601f8301169050919050565b60006111cf8261116d565b6111d98185611178565b93506111e9818560208601611189565b6111f2816111b3565b840191505092915050565b6000602082019050818103600083015261121781846111c4565b905092915050565b600080fd5b600073ffffffffffffffffffffffffffffffffffffffff82169050919050565b600061124f82611224565b9050919050565b61125f81611244565b811461126a57600080fd5b50565b60008135905061127c81611256565b92915050565b6000819050919050565b61129581611282565b81146112a057600080fd5b50565b6000813590506112b28161128c565b92915050565b600080604083850312156112cf576112ce61121f565b5b60006112dd8582860161126d565b92505060206112ee858286016112a3565b9150509250929050565b60008115159050919050565b61130d816112f8565b82525050565b60006020820190506113286000830184611304565b92915050565b61133781611282565b82525050565b6000602082019050611352600083018461132e565b92915050565b6000806000606084860312156113715761137061121f565b5b600061137f8682870161126d565b93505060206113908682870161126d565b92505060406113a1868287016112a3565b9150509250925092565b600060ff82169050919050565b6113c1816113ab565b82525050565b60006020820190506113dc60008301846113b8565b92915050565b6000602082840312156113f8576113f761121f565b5b60006114068482850161126d565b91505092915050565b61141881611244565b82525050565b6000602082019050611433600083018461140f565b92915050565b600080604083850312156114505761144f61121f565b5b600061145e8582860161126d565b925050602061146f8582860161126d565b9150509250929050565b7f4e487b7100000000000000000000000000000000000000000000000000000000600052602260045260246000fd5b600060028204905060018216806114c057607f821691505b6020821081036114d3576114d2611479565b5b50919050565b7f4e487b7100000000000000000000000000000000000000000000000000000000600052601260045260246000fd5b7f4e487b7100000000000000000000000000000000000000000000000000000000600052601160045260246000fd5b600061154282611282565b915061154d83611282565b92508261155d5761155c6114d9565b5b828204905092915050565b600061157382611282565b915061157e83611282565b925082820190508082111561159657611595611508565b5b92915050565b7f466c6f707079546f6b656e3a2063617020657863656564656400000000000000600082015250565b60006115d2601983611178565b91506115dd8261159c565b602082019050919050565b60006020820190508181036000830152611601816115c5565b9050919050565b7f45524332303a2064656372656173656420616c6c6f77616e63652062656c6f7760008201527f207a65726f000000000000000000000000000000000000000000000000000000602082015250565b6000611664602583611178565b915061166f82611608565b604082019050919050565b6000602082019050818103600083015261169381611657565b9050919050565b7f4f776e61626c653a206e6577206f776e657220697320746865207a65726f206160008201527f6464726573730000000000000000000000000000000000000000000000000000602082015250565b60006116f6602683611178565b91506117018261169a565b604082019050919050565b60006020820190508181036000830152611725816116e9565b9050919050565b7f45524332303a20696e73756666696369656e7420616c6c6f77616e6365000000600082015250565b6000611762601d83611178565b915061176d8261172c565b602082019050919050565b6000602082019050818103600083015261179181611755565b9050919050565b7f45524332303a207472616e736665722066726f6d20746865207a65726f20616460008201527f6472657373000000000000000000000000000000000000000000000000000000602082015250565b60006117f4602583611178565b91506117ff82611798565b604082019050919050565b60006020820190508181036000830152611823816117e7565b9050919050565b7f45524332303a207472616e7366657220746f20746865207a65726f206164647260008201527f6573730000000000000000000000000000000000000000000000000000000000602082015250565b6000611886602383611178565b91506118918261182a565b604082019050919050565b600060208201905081810360008301526118b581611879565b9050919050565b7f45524332303a207472616e7366657220616d6f756e742065786365656473206260008201527f616c616e63650000000000000000000000000000000000000000000000000000602082015250565b6000611918602683611178565b9150611923826118bc565b604082019050919050565b600060208201905081810360008301526119478161190b565b9050919050565b7f45524332303a20617070726f76652066726f6d20746865207a65726f2061646460008201527f7265737300000000000000000000000000000000000000000000000000000000602082015250565b60006119aa602483611178565b91506119b58261194e565b604082019050919050565b600060208201905081810360008301526119d98161199d565b9050919050565b7f45524332303a20617070726f766520746f20746865207a65726f20616464726560008201527f7373000000000000000000000000000000000000000000000000000000000000602082015250565b6000611a3c602283611178565b9150611a47826119e0565b604082019050919050565b60006020820190508181036000830152611a6b81611a2f565b9050919050565b7f4f776e61626c653a2063616c6c6572206973206e6f7420746865206f776e6572600082015250565b6000611aa8602083611178565b9150611ab382611a72565b602082019050919050565b60006020820190508181036000830152611ad781611a9b565b9050919050565b7f45524332303a206d696e7420746f20746865207a65726f206164647265737300600082015250565b6000611b14601f83611178565b9150611b1f82611ade565b602082019050919050565b60006020820190508181036000830152611b4381611b07565b9050919050565b60006040820190508181036000830152611b6481856111c4565b9050611b73602083018461132e565b9392505050565b7f4e487b7100000000000000000000000000000000000000000000000000000000600052605160045260246000fdfea2646970667358221220f7ce6351fe0d6439f7d29d2b3a68c1e4afc29113e6a80d32e254ff8e90270c7e64736f6c63430008180033",
  "linkReferences": {},
  "deployedLinkReferences": {}
}