{
  "_format": "hh-sol-artifact-1",
  "contractName": "Floppy",
  "sourceName": "contracts/Token.sol",
  "abi": [
    {
      "inputs": [],
      "stateMutability": "nonpayable",
      "type": "constructor"
    },
    {
      "anonymous": false,
      "inputs": [
        {
          "indexed": true,
          "internalType": "address",
          "name": "owner",
          "type": "address"
        },
        {
          "indexed": true,
          "internalType": "address",
          "name": "spender",
          "type": "address"
        },
        {
          "indexed": false,
          "internalType": "uint256",
          "name": "value",
          "type": "uint256"
        }
      ],
      "name": "Approval",
      "type": "event"
    },
    {
      "anonymous": false,
      "inputs": [
        {
          "indexed": true,
          "internalType": "address",
          "name": "previousOwner",
          "type": "address"
        },
        {
          "indexed": true,
          "internalType": "address",
          "name": "newOwner",
          "type": "address"
        }
      ],
      "name": "OwnershipTransferred",
      "type": "event"
    },
    {
      "anonymous": false,
      "inputs": [
        {
          "indexed": true,
          "internalType": "address",
          "name": "from",
          "type": "address"
        },
        {
          "indexed": true,
          "internalType": "address",
          "name": "to",
          "type": "address"
        },
        {
          "indexed": false,
          "internalType": "uint256",
          "name": "value",
          "type": "uint256"
        }
      ],
      "name": "Transfer",
      "type": "event"
    },
    {
      "inputs": [
        {
          "internalType": "address",
          "name": "owner",
          "type": "address"
        },
        {
          "internalType": "address",
          "name": "spender",
          "type": "address"
        }
      ],
      "name": "allowance",
      "outputs": [
        {
          "internalType": "uint256",
          "name": "",
          "type": "uint256"
        }
      ],
      "stateMutability": "view",
      "type": "function"
    },
    {
      "inputs": [
        {
          "internalType": "address",
          "name": "spender",
          "type": "address"
        },
        {
          "internalType": "uint256",
          "name": "amount",
          "type": "uint256"
        }
      ],
      "name": "approve",
      "outputs": [
        {
          "internalType": "bool",
          "name": "",
          "type": "bool"
        }
      ],
      "stateMutability": "nonpayable",
      "type": "function"
    },
    {
      "inputs": [
        {
          "internalType": "address",
          "name": "account",
          "type": "address"
        }
      ],
      "name": "balanceOf",
      "outputs": [
        {
          "internalType": "uint256",
          "name": "",
          "type": "uint256"
        }
      ],
      "stateMutability": "view",
      "type": "function"
    },
    {
      "inputs": [],
      "name": "decimals",
      "outputs": [
        {
          "internalType": "uint8",
          "name": "",
          "type": "uint8"
        }
      ],
      "stateMutability": "view",
      "type": "function"
    },
    {
      "inputs": [
        {
          "internalType": "address",
          "name": "spender",
          "type": "address"
        },
        {
          "internalType": "uint256",
          "name": "subtractedValue",
          "type": "uint256"
        }
      ],
      "name": "decreaseAllowance",
      "outputs": [
        {
          "internalType": "bool",
          "name": "",
          "type": "bool"
        }
      ],
      "stateMutability": "nonpayable",
      "type": "function"
    },
    {
      "inputs": [],
      "name": "getBalance",
      "outputs": [
        {
          "internalType": "uint256",
          "name": "",
          "type": "uint256"
        }
      ],
      "stateMutability": "view",
      "type": "function"
    },
    {
      "inputs": [
        {
          "internalType": "address",
          "name": "spender",
          "type": "address"
        },
        {
          "internalType": "uint256",
          "name": "addedValue",
          "type": "uint256"
        }
      ],
      "name": "increaseAllowance",
      "outputs": [
        {
          "internalType": "bool",
          "name": "",
          "type": "bool"
        }
      ],
      "stateMutability": "nonpayable",
      "type": "function"
    },
    {
      "inputs": [
        {
          "internalType": "address",
          "name": "_to",
          "type": "address"
        },
        {
          "internalType": "uint256",
          "name": "_amount",
          "type": "uint256"
        }
      ],
      "name": "mint",
      "outputs": [],
      "stateMutability": "nonpayable",
      "type": "function"
    },
    {
      "inputs": [],
      "name": "name",
      "outputs": [
        {
          "internalType": "string",
          "name": "",
          "type": "string"
        }
      ],
      "stateMutability": "view",
      "type": "function"
    },
    {
      "inputs": [],
      "name": "owner",
      "outputs": [
        {
          "internalType": "address",
          "name": "",
          "type": "address"
        }
      ],
      "stateMutability": "view",
      "type": "function"
    },
    {
      "inputs": [],
      "name": "renounceOwnership",
      "outputs": [],
      "stateMutability": "nonpayable",
      "type": "function"
    },
    {
      "inputs": [],
      "name": "symbol",
      "outputs": [
        {
          "internalType": "string",
          "name": "",
          "type": "string"
        }
      ],
      "stateMutability": "view",
      "type": "function"
    },
    {
      "inputs": [],
      "name": "totalSupply",
      "outputs": [
        {
          "internalType": "uint256",
          "name": "",
          "type": "uint256"
        }
      ],
      "stateMutability": "view",
      "type": "function"
    },
    {
      "inputs": [
        {
          "internalType": "address",
          "name": "_to",
          "type": "address"
        },
        {
          "internalType": "uint256",
          "name": "_amount",
          "type": "uint256"
        }
      ],
      "name": "transfer",
      "outputs": [
        {
          "internalType": "bool",
          "name": "",
          "type": "bool"
        }
      ],
      "stateMutability": "nonpayable",
      "type": "function"
    },
    {
      "inputs": [
        {
          "internalType": "address",
          "name": "from",
          "type": "address"
        },
        {
          "internalType": "address",
          "name": "to",
          "type": "address"
        },
        {
          "internalType": "uint256",
          "name": "amount",
          "type": "uint256"
        }
      ],
      "name": "transferFrom",
      "outputs": [
        {
          "internalType": "bool",
          "name": "",
          "type": "bool"
        }
      ],
      "stateMutability": "nonpayable",
      "type": "function"
    },
    {
      "inputs": [
        {
          "internalType": "address",
          "name": "newOwner",
          "type": "address"
        }
      ],
      "name": "transferOwnership",
      "outputs": [],
      "stateMutability": "nonpayable",
      "type": "function"
    }
  ],
  "bytecode": "0x60806040526012600a6200001491906200078e565b640ba43b7400620000269190620007df565b6006553480156200003657600080fd5b506040518060400160405280600681526020017f466c6f70707900000000000000000000000000000000000000000000000000008152506040518060400160405280600381526020017f464c5000000000000000000000000000000000000000000000000000000000008152508160039081620000b4919062000a9a565b508060049081620000c6919062000a9a565b505050620000e9620000dd6200015b60201b60201c565b6200016360201b60201c565b620001306040518060400160405280600981526020017f6f776e65723a2025730000000000000000000000000000000000000000000000815250336200022960201b60201c565b6200014433600654620002cf60201b60201c565b62000155336200043c60201b60201c565b62000e9d565b600033905090565b6000600560009054906101000a900473ffffffffffffffffffffffffffffffffffffffff16905081600560006101000a81548173ffffffffffffffffffffffffffffffffffffffff021916908373ffffffffffffffffffffffffffffffffffffffff1602179055508173ffffffffffffffffffffffffffffffffffffffff168173ffffffffffffffffffffffffffffffffffffffff167f8be0079c531659141344cd1fd0a4f28419497f9722a3daafe3b4186f6b6457e060405160405180910390a35050565b620002cb82826040516024016200024292919062000c55565b6040516020818303038152906040527f319af333000000000000000000000000000000000000000000000000000000007bffffffffffffffffffffffffffffffffffffffffffffffffffffffff19166020820180517bffffffffffffffffffffffffffffffffffffffffffffffffffffffff8381831617835250505050620004d260201b60201c565b5050565b600073ffffffffffffffffffffffffffffffffffffffff168273ffffffffffffffffffffffffffffffffffffffff160362000341576040517f08c379a0000000000000000000000000000000000000000000000000000000008152600401620003389062000cd9565b60405180910390fd5b6200035560008383620004fb60201b60201c565b806002600082825462000369919062000cfb565b92505081905550806000808473ffffffffffffffffffffffffffffffffffffffff1673ffffffffffffffffffffffffffffffffffffffff168152602001908152602001600020600082825401925050819055508173ffffffffffffffffffffffffffffffffffffffff16600073ffffffffffffffffffffffffffffffffffffffff167fddf252ad1be2c89b69c2b068fc378daa952ba7f163c4a11628f55a4df523b3ef836040516200041c919062000d47565b60405180910390a362000438600083836200050060201b60201c565b5050565b6200044c6200050560201b60201c565b600073ffffffffffffffffffffffffffffffffffffffff168173ffffffffffffffffffffffffffffffffffffffff1603620004be576040517f08c379a0000000000000000000000000000000000000000000000000000000008152600401620004b59062000dda565b60405180910390fd5b620004cf816200016360201b60201c565b50565b620004f881620004f36200059660201b6200086a17620005b760201b60201c565b60201c565b50565b505050565b505050565b620005156200015b60201b60201c565b73ffffffffffffffffffffffffffffffffffffffff166200053b620005cb60201b60201c565b73ffffffffffffffffffffffffffffffffffffffff161462000594576040517f08c379a00000000000000000000000000000000000000000000000000000000081526004016200058b9062000e4c565b60405180910390fd5b565b60006a636f6e736f6c652e6c6f679050600080835160208501845afa505050565b620005f560201b620010e617819050919050565b6000600560009054906101000a900473ffffffffffffffffffffffffffffffffffffffff16905090565b620005ff62000e6e565b565b7f4e487b7100000000000000000000000000000000000000000000000000000000600052601160045260246000fd5b60008160011c9050919050565b6000808291508390505b60018511156200068f5780860481111562000667576200066662000601565b5b6001851615620006775780820291505b8081029050620006878562000630565b945062000647565b94509492505050565b600082620006aa57600190506200077d565b81620006ba57600090506200077d565b8160018114620006d35760028114620006de5762000714565b60019150506200077d565b60ff841115620006f357620006f262000601565b5b8360020a9150848211156200070d576200070c62000601565b5b506200077d565b5060208310610133831016604e8410600b84101617156200074e5782820a90508381111562000748576200074762000601565b5b6200077d565b6200075d84848460016200063d565b9250905081840481111562000777576200077662000601565b5b81810290505b9392505050565b6000819050919050565b60006200079b8262000784565b9150620007a88362000784565b9250620007d77fffffffffffffffffffffffffffffffffffffffffffffffffffffffffffffffff848462000698565b905092915050565b6000620007ec8262000784565b9150620007f98362000784565b9250828202620008098162000784565b9150828204841483151762000823576200082262000601565b5b5092915050565b600081519050919050565b7f4e487b7100000000000000000000000000000000000000000000000000000000600052604160045260246000fd5b7f4e487b7100000000000000000000000000000000000000000000000000000000600052602260045260246000fd5b60006002820490506001821680620008ac57607f821691505b602082108103620008c257620008c162000864565b5b50919050565b60008190508160005260206000209050919050565b60006020601f8301049050919050565b600082821b905092915050565b6000600883026200092c7fffffffffffffffffffffffffffffffffffffffffffffffffffffffffffffffff82620008ed565b620009388683620008ed565b95508019841693508086168417925050509392505050565b6000819050919050565b60006200097b620009756200096f8462000784565b62000950565b62000784565b9050919050565b6000819050919050565b62000997836200095a565b620009af620009a68262000982565b848454620008fa565b825550505050565b600090565b620009c6620009b7565b620009d38184846200098c565b505050565b5b81811015620009fb57620009ef600082620009bc565b600181019050620009d9565b5050565b601f82111562000a4a5762000a1481620008c8565b62000a1f84620008dd565b8101602085101562000a2f578190505b62000a4762000a3e85620008dd565b830182620009d8565b50505b505050565b600082821c905092915050565b600062000a6f6000198460080262000a4f565b1980831691505092915050565b600062000a8a838362000a5c565b9150826002028217905092915050565b62000aa5826200082a565b67ffffffffffffffff81111562000ac15762000ac062000835565b5b62000acd825462000893565b62000ada828285620009ff565b600060209050601f83116001811462000b12576000841562000afd578287015190505b62000b09858262000a7c565b86555062000b79565b601f19841662000b2286620008c8565b60005b8281101562000b4c5784890151825560018201915060208501945060208101905062000b25565b8683101562000b6c578489015162000b68601f89168262000a5c565b8355505b6001600288020188555050505b505050505050565b600082825260208201905092915050565b60005b8381101562000bb257808201518184015260208101905062000b95565b60008484015250505050565b6000601f19601f8301169050919050565b600062000bdc826200082a565b62000be8818562000b81565b935062000bfa81856020860162000b92565b62000c058162000bbe565b840191505092915050565b600073ffffffffffffffffffffffffffffffffffffffff82169050919050565b600062000c3d8262000c10565b9050919050565b62000c4f8162000c30565b82525050565b6000604082019050818103600083015262000c71818562000bcf565b905062000c82602083018462000c44565b9392505050565b7f45524332303a206d696e7420746f20746865207a65726f206164647265737300600082015250565b600062000cc1601f8362000b81565b915062000cce8262000c89565b602082019050919050565b6000602082019050818103600083015262000cf48162000cb2565b9050919050565b600062000d088262000784565b915062000d158362000784565b925082820190508082111562000d305762000d2f62000601565b5b92915050565b62000d418162000784565b82525050565b600060208201905062000d5e600083018462000d36565b92915050565b7f4f776e61626c653a206e6577206f776e657220697320746865207a65726f206160008201527f6464726573730000000000000000000000000000000000000000000000000000602082015250565b600062000dc260268362000b81565b915062000dcf8262000d64565b604082019050919050565b6000602082019050818103600083015262000df58162000db3565b9050919050565b7f4f776e61626c653a2063616c6c6572206973206e6f7420746865206f776e6572600082015250565b600062000e3460208362000b81565b915062000e418262000dfc565b602082019050919050565b6000602082019050818103600083015262000e678162000e25565b9050919050565b7f4e487b7100000000000000000000000000000000000000000000000000000000600052605160045260246000fd5b611b028062000ead6000396000f3fe608060405234801561001057600080fd5b50600436106101005760003560e01c806370a0823111610097578063a457c2d711610066578063a457c2d71461029f578063a9059cbb146102cf578063dd62ed3e146102ff578063f2fde38b1461032f57610100565b806370a0823114610229578063715018a6146102595780638da5cb5b1461026357806395d89b411461028157610100565b806323b872dd116100d357806323b872dd1461018f578063313ce567146101bf57806339509351146101dd57806340c10f191461020d57610100565b806306fdde0314610105578063095ea7b31461012357806312065fe01461015357806318160ddd14610171575b600080fd5b61010d61034b565b60405161011a9190611180565b60405180910390f35b61013d6004803603810190610138919061123b565b6103dd565b60405161014a9190611296565b60405180910390f35b61015b610400565b60405161016891906112c0565b60405180910390f35b610179610410565b60405161018691906112c0565b60405180910390f35b6101a960048036038101906101a491906112db565b61041a565b6040516101b69190611296565b60405180910390f35b6101c7610449565b6040516101d4919061134a565b60405180910390f35b6101f760048036038101906101f2919061123b565b610452565b6040516102049190611296565b60405180910390f35b6102276004803603810190610222919061123b565b610489565b005b610243600480360381019061023e9190611365565b6104f6565b60405161025091906112c0565b60405180910390f35b61026161053e565b005b61026b610552565b60405161027891906113a1565b60405180910390f35b61028961057c565b6040516102969190611180565b60405180910390f35b6102b960048036038101906102b4919061123b565b61060e565b6040516102c69190611296565b60405180910390f35b6102e960048036038101906102e4919061123b565b610685565b6040516102f69190611296565b60405180910390f35b610319600480360381019061031491906113bc565b610760565b60405161032691906112c0565b60405180910390f35b61034960048036038101906103449190611365565b6107e7565b005b60606003805461035a9061142b565b80601f01602080910402602001604051908101604052809291908181526020018280546103869061142b565b80156103d35780601f106103a8576101008083540402835291602001916103d3565b820191906000526020600020905b8154815290600101906020018083116103b657829003601f168201915b5050505050905090565b6000806103e861088b565b90506103f5818585610893565b600191505092915050565b600061040b336104f6565b905090565b6000600254905090565b60008061042561088b565b9050610432858285610a5c565b61043d858585610ae8565b60019150509392505050565b60006012905090565b60008061045d61088b565b905061047e81858561046f8589610760565b610479919061148b565b610893565b600191505092915050565b610491610d5e565b6006548161049d610410565b6104a7919061148b565b11156104e8576040517f08c379a00000000000000000000000000000000000000000000000000000000081526004016104df9061150b565b60405180910390fd5b6104f28282610ddc565b5050565b60008060008373ffffffffffffffffffffffffffffffffffffffff1673ffffffffffffffffffffffffffffffffffffffff168152602001908152602001600020549050919050565b610546610d5e565b6105506000610f32565b565b6000600560009054906101000a900473ffffffffffffffffffffffffffffffffffffffff16905090565b60606004805461058b9061142b565b80601f01602080910402602001604051908101604052809291908181526020018280546105b79061142b565b80156106045780601f106105d957610100808354040283529160200191610604565b820191906000526020600020905b8154815290600101906020018083116105e757829003601f168201915b5050505050905090565b60008061061961088b565b905060006106278286610760565b90508381101561066c576040517f08c379a00000000000000000000000000000000000000000000000000000000081526004016106639061159d565b60405180910390fd5b6106798286868403610893565b60019250505092915050565b60006106ce6040518060400160405280600d81526020017f62616c616e63654f663a202573000000000000000000000000000000000000008152506106c9856104f6565b610ff8565b61070d6040518060400160405280600a81526020017f616d6f756e743a2025730000000000000000000000000000000000000000000081525083610ff8565b61074e6040518060400160405280600781526020017f6361703a20257300000000000000000000000000000000000000000000000000815250600654610ff8565b6107588383611094565b905092915050565b6000600160008473ffffffffffffffffffffffffffffffffffffffff1673ffffffffffffffffffffffffffffffffffffffff16815260200190815260200160002060008373ffffffffffffffffffffffffffffffffffffffff1673ffffffffffffffffffffffffffffffffffffffff16815260200190815260200160002054905092915050565b6107ef610d5e565b600073ffffffffffffffffffffffffffffffffffffffff168173ffffffffffffffffffffffffffffffffffffffff160361085e576040517f08c379a00000000000000000000000000000000000000000000000000000000081526004016108559061162f565b60405180910390fd5b61086781610f32565b50565b60006a636f6e736f6c652e6c6f679050600080835160208501845afa505050565b600033905090565b600073ffffffffffffffffffffffffffffffffffffffff168373ffffffffffffffffffffffffffffffffffffffff1603610902576040517f08c379a00000000000000000000000000000000000000000000000000000000081526004016108f9906116c1565b60405180910390fd5b600073ffffffffffffffffffffffffffffffffffffffff168273ffffffffffffffffffffffffffffffffffffffff1603610971576040517f08c379a000000000000000000000000000000000000000000000000000000000815260040161096890611753565b60405180910390fd5b80600160008573ffffffffffffffffffffffffffffffffffffffff1673ffffffffffffffffffffffffffffffffffffffff16815260200190815260200160002060008473ffffffffffffffffffffffffffffffffffffffff1673ffffffffffffffffffffffffffffffffffffffff168152602001908152602001600020819055508173ffffffffffffffffffffffffffffffffffffffff168373ffffffffffffffffffffffffffffffffffffffff167f8c5be1e5ebec7d5bd14f71427d1e84f3dd0314c0f7b2291e5b200ac8c7c3b92583604051610a4f91906112c0565b60405180910390a3505050565b6000610a688484610760565b90507fffffffffffffffffffffffffffffffffffffffffffffffffffffffffffffffff8114610ae25781811015610ad4576040517f08c379a0000000000000000000000000000000000000000000000000000000008152600401610acb906117bf565b60405180910390fd5b610ae18484848403610893565b5b50505050565b600073ffffffffffffffffffffffffffffffffffffffff168373ffffffffffffffffffffffffffffffffffffffff1603610b57576040517f08c379a0000000000000000000000000000000000000000000000000000000008152600401610b4e90611851565b60405180910390fd5b600073ffffffffffffffffffffffffffffffffffffffff168273ffffffffffffffffffffffffffffffffffffffff1603610bc6576040517f08c379a0000000000000000000000000000000000000000000000000000000008152600401610bbd906118e3565b60405180910390fd5b610bd18383836110b7565b60008060008573ffffffffffffffffffffffffffffffffffffffff1673ffffffffffffffffffffffffffffffffffffffff16815260200190815260200160002054905081811015610c57576040517f08c379a0000000000000000000000000000000000000000000000000000000008152600401610c4e90611975565b60405180910390fd5b8181036000808673ffffffffffffffffffffffffffffffffffffffff1673ffffffffffffffffffffffffffffffffffffffff16815260200190815260200160002081905550816000808573ffffffffffffffffffffffffffffffffffffffff1673ffffffffffffffffffffffffffffffffffffffff168152602001908152602001600020600082825401925050819055508273ffffffffffffffffffffffffffffffffffffffff168473ffffffffffffffffffffffffffffffffffffffff167fddf252ad1be2c89b69c2b068fc378daa952ba7f163c4a11628f55a4df523b3ef84604051610d4591906112c0565b60405180910390a3610d588484846110bc565b50505050565b610d6661088b565b73ffffffffffffffffffffffffffffffffffffffff16610d84610552565b73ffffffffffffffffffffffffffffffffffffffff1614610dda576040517f08c379a0000000000000000000000000000000000000000000000000000000008152600401610dd1906119e1565b60405180910390fd5b565b600073ffffffffffffffffffffffffffffffffffffffff168273ffffffffffffffffffffffffffffffffffffffff1603610e4b576040517f08c379a0000000000000000000000000000000000000000000000000000000008152600401610e4290611a4d565b60405180910390fd5b610e57600083836110b7565b8060026000828254610e69919061148b565b92505081905550806000808473ffffffffffffffffffffffffffffffffffffffff1673ffffffffffffffffffffffffffffffffffffffff168152602001908152602001600020600082825401925050819055508173ffffffffffffffffffffffffffffffffffffffff16600073ffffffffffffffffffffffffffffffffffffffff167fddf252ad1be2c89b69c2b068fc378daa952ba7f163c4a11628f55a4df523b3ef83604051610f1a91906112c0565b60405180910390a3610f2e600083836110bc565b5050565b6000600560009054906101000a900473ffffffffffffffffffffffffffffffffffffffff16905081600560006101000a81548173ffffffffffffffffffffffffffffffffffffffff021916908373ffffffffffffffffffffffffffffffffffffffff1602179055508173ffffffffffffffffffffffffffffffffffffffff168173ffffffffffffffffffffffffffffffffffffffff167f8be0079c531659141344cd1fd0a4f28419497f9722a3daafe3b4186f6b6457e060405160405180910390a35050565b611090828260405160240161100e929190611a6d565b6040516020818303038152906040527fb60e72cc000000000000000000000000000000000000000000000000000000007bffffffffffffffffffffffffffffffffffffffffffffffffffffffff19166020820180517bffffffffffffffffffffffffffffffffffffffffffffffffffffffff83818316178352505050506110c1565b5050565b60008061109f61088b565b90506110ac818585610ae8565b600191505092915050565b505050565b505050565b6110d8816110d061086a6110db565b63ffffffff16565b50565b6110e6819050919050565b6110ee611a9d565b565b600081519050919050565b600082825260208201905092915050565b60005b8381101561112a57808201518184015260208101905061110f565b60008484015250505050565b6000601f19601f8301169050919050565b6000611152826110f0565b61115c81856110fb565b935061116c81856020860161110c565b61117581611136565b840191505092915050565b6000602082019050818103600083015261119a8184611147565b905092915050565b600080fd5b600073ffffffffffffffffffffffffffffffffffffffff82169050919050565b60006111d2826111a7565b9050919050565b6111e2816111c7565b81146111ed57600080fd5b50565b6000813590506111ff816111d9565b92915050565b6000819050919050565b61121881611205565b811461122357600080fd5b50565b6000813590506112358161120f565b92915050565b60008060408385031215611252576112516111a2565b5b6000611260858286016111f0565b925050602061127185828601611226565b9150509250929050565b60008115159050919050565b6112908161127b565b82525050565b60006020820190506112ab6000830184611287565b92915050565b6112ba81611205565b82525050565b60006020820190506112d560008301846112b1565b92915050565b6000806000606084860312156112f4576112f36111a2565b5b6000611302868287016111f0565b9350506020611313868287016111f0565b925050604061132486828701611226565b9150509250925092565b600060ff82169050919050565b6113448161132e565b82525050565b600060208201905061135f600083018461133b565b92915050565b60006020828403121561137b5761137a6111a2565b5b6000611389848285016111f0565b91505092915050565b61139b816111c7565b82525050565b60006020820190506113b66000830184611392565b92915050565b600080604083850312156113d3576113d26111a2565b5b60006113e1858286016111f0565b92505060206113f2858286016111f0565b9150509250929050565b7f4e487b7100000000000000000000000000000000000000000000000000000000600052602260045260246000fd5b6000600282049050600182168061144357607f821691505b602082108103611456576114556113fc565b5b50919050565b7f4e487b7100000000000000000000000000000000000000000000000000000000600052601160045260246000fd5b600061149682611205565b91506114a183611205565b92508282019050808211156114b9576114b861145c565b5b92915050565b7f466c6f707079546f6b656e3a2063617020657863656564656400000000000000600082015250565b60006114f56019836110fb565b9150611500826114bf565b602082019050919050565b60006020820190508181036000830152611524816114e8565b9050919050565b7f45524332303a2064656372656173656420616c6c6f77616e63652062656c6f7760008201527f207a65726f000000000000000000000000000000000000000000000000000000602082015250565b60006115876025836110fb565b91506115928261152b565b604082019050919050565b600060208201905081810360008301526115b68161157a565b9050919050565b7f4f776e61626c653a206e6577206f776e657220697320746865207a65726f206160008201527f6464726573730000000000000000000000000000000000000000000000000000602082015250565b60006116196026836110fb565b9150611624826115bd565b604082019050919050565b600060208201905081810360008301526116488161160c565b9050919050565b7f45524332303a20617070726f76652066726f6d20746865207a65726f2061646460008201527f7265737300000000000000000000000000000000000000000000000000000000602082015250565b60006116ab6024836110fb565b91506116b68261164f565b604082019050919050565b600060208201905081810360008301526116da8161169e565b9050919050565b7f45524332303a20617070726f766520746f20746865207a65726f20616464726560008201527f7373000000000000000000000000000000000000000000000000000000000000602082015250565b600061173d6022836110fb565b9150611748826116e1565b604082019050919050565b6000602082019050818103600083015261176c81611730565b9050919050565b7f45524332303a20696e73756666696369656e7420616c6c6f77616e6365000000600082015250565b60006117a9601d836110fb565b91506117b482611773565b602082019050919050565b600060208201905081810360008301526117d88161179c565b9050919050565b7f45524332303a207472616e736665722066726f6d20746865207a65726f20616460008201527f6472657373000000000000000000000000000000000000000000000000000000602082015250565b600061183b6025836110fb565b9150611846826117df565b604082019050919050565b6000602082019050818103600083015261186a8161182e565b9050919050565b7f45524332303a207472616e7366657220746f20746865207a65726f206164647260008201527f6573730000000000000000000000000000000000000000000000000000000000602082015250565b60006118cd6023836110fb565b91506118d882611871565b604082019050919050565b600060208201905081810360008301526118fc816118c0565b9050919050565b7f45524332303a207472616e7366657220616d6f756e742065786365656473206260008201527f616c616e63650000000000000000000000000000000000000000000000000000602082015250565b600061195f6026836110fb565b915061196a82611903565b604082019050919050565b6000602082019050818103600083015261198e81611952565b9050919050565b7f4f776e61626c653a2063616c6c6572206973206e6f7420746865206f776e6572600082015250565b60006119cb6020836110fb565b91506119d682611995565b602082019050919050565b600060208201905081810360008301526119fa816119be565b9050919050565b7f45524332303a206d696e7420746f20746865207a65726f206164647265737300600082015250565b6000611a37601f836110fb565b9150611a4282611a01565b602082019050919050565b60006020820190508181036000830152611a6681611a2a565b9050919050565b60006040820190508181036000830152611a878185611147565b9050611a9660208301846112b1565b9392505050565b7f4e487b7100000000000000000000000000000000000000000000000000000000600052605160045260246000fdfea26469706673582212209c4e647190398860e8486b68c600254cba45c1982bf4768c08bb4ab37616253264736f6c63430008180033",
  "linkReferences": {},
  "deployedLinkReferences": {}
}