{
  "_format": "hh-sol-artifact-1",
  "contractName": "StationDataContract",
  "sourceName": "contracts/StationData.sol",
  "abi": [
    {
      "inputs": [
        {
          "internalType": "string",
          "name": "_stationId",
          "type": "string"
        }
      ],
      "name": "addStation",
      "outputs": [
        {
          "internalType": "bool",
          "name": "",
          "type": "bool"
        }
      ],
      "stateMutability": "nonpayable",
      "type": "function"
    },
    {
      "inputs": [
        {
          "internalType": "string",
          "name": "_stationId",
          "type": "string"
        },
        {
          "internalType": "string",
          "name": "_longitude",
          "type": "string"
        },
        {
          "internalType": "string",
          "name": "_latitude",
          "type": "string"
        },
        {
          "internalType": "string[]",
          "name": "_sensorIds",
          "type": "string[]"
        },
        {
          "internalType": "string[]",
          "name": "_sensorValues",
          "type": "string[]"
        },
        {
          "internalType": "string[]",
          "name": "_sensorUnits",
          "type": "string[]"
        }
      ],
      "name": "addStationsData",
      "outputs": [],
      "stateMutability": "nonpayable",
      "type": "function"
    },
    {
      "inputs": [
        {
          "internalType": "string",
          "name": "_stationId",
          "type": "string"
        }
      ],
      "name": "checkStation",
      "outputs": [
        {
          "internalType": "bool",
          "name": "",
          "type": "bool"
        }
      ],
      "stateMutability": "view",
      "type": "function"
    },
    {
      "inputs": [],
      "name": "getAllCurentStationData",
      "outputs": [
        {
          "components": [
            {
              "internalType": "string",
              "name": "stationId",
              "type": "string"
            },
            {
              "internalType": "uint256",
              "name": "createAt",
              "type": "uint256"
            },
            {
              "internalType": "string",
              "name": "gps_longitude",
              "type": "string"
            },
            {
              "internalType": "string",
              "name": "gps_latitude",
              "type": "string"
            },
            {
              "components": [
                {
                  "internalType": "string",
                  "name": "sensorId",
                  "type": "string"
                },
                {
                  "internalType": "string",
                  "name": "sensorValue",
                  "type": "string"
                },
                {
                  "internalType": "string",
                  "name": "sensorUnit",
                  "type": "string"
                }
              ],
              "internalType": "struct StationDataContract.SensorData[]",
              "name": "sensorData",
              "type": "tuple[]"
            }
          ],
          "internalType": "struct StationDataContract.StationData[]",
          "name": "",
          "type": "tuple[]"
        }
      ],
      "stateMutability": "view",
      "type": "function"
    },
    {
      "inputs": [],
      "name": "getAllStation",
      "outputs": [
        {
          "internalType": "string[]",
          "name": "",
          "type": "string[]"
        }
      ],
      "stateMutability": "view",
      "type": "function"
    },
    {
      "inputs": [],
      "name": "getAllStationData",
      "outputs": [
        {
          "components": [
            {
              "internalType": "string",
              "name": "stationId",
              "type": "string"
            },
            {
              "internalType": "uint256",
              "name": "createAt",
              "type": "uint256"
            },
            {
              "internalType": "string",
              "name": "gps_longitude",
              "type": "string"
            },
            {
              "internalType": "string",
              "name": "gps_latitude",
              "type": "string"
            },
            {
              "components": [
                {
                  "internalType": "string",
                  "name": "sensorId",
                  "type": "string"
                },
                {
                  "internalType": "string",
                  "name": "sensorValue",
                  "type": "string"
                },
                {
                  "internalType": "string",
                  "name": "sensorUnit",
                  "type": "string"
                }
              ],
              "internalType": "struct StationDataContract.SensorData[]",
              "name": "sensorData",
              "type": "tuple[]"
            }
          ],
          "internalType": "struct StationDataContract.StationData[]",
          "name": "",
          "type": "tuple[]"
        }
      ],
      "stateMutability": "view",
      "type": "function"
    },
    {
      "inputs": [
        {
          "internalType": "string",
          "name": "_stationId",
          "type": "string"
        },
        {
          "internalType": "string",
          "name": "_sensorId",
          "type": "string"
        },
        {
          "internalType": "uint256",
          "name": "_length",
          "type": "uint256"
        }
      ],
      "name": "getHistorySensorValue",
      "outputs": [
        {
          "internalType": "uint256[]",
          "name": "",
          "type": "uint256[]"
        },
        {
          "components": [
            {
              "internalType": "string",
              "name": "sensorId",
              "type": "string"
            },
            {
              "internalType": "string",
              "name": "sensorValue",
              "type": "string"
            },
            {
              "internalType": "string",
              "name": "sensorUnit",
              "type": "string"
            }
          ],
          "internalType": "struct StationDataContract.SensorData[]",
          "name": "",
          "type": "tuple[]"
        }
      ],
      "stateMutability": "view",
      "type": "function"
    },
    {
      "inputs": [
        {
          "internalType": "string",
          "name": "_stationId",
          "type": "string"
        },
        {
          "internalType": "uint256",
          "name": "_length",
          "type": "uint256"
        }
      ],
      "name": "getHistoryStationData",
      "outputs": [
        {
          "components": [
            {
              "internalType": "string",
              "name": "stationId",
              "type": "string"
            },
            {
              "internalType": "uint256",
              "name": "createAt",
              "type": "uint256"
            },
            {
              "internalType": "string",
              "name": "gps_longitude",
              "type": "string"
            },
            {
              "internalType": "string",
              "name": "gps_latitude",
              "type": "string"
            },
            {
              "components": [
                {
                  "internalType": "string",
                  "name": "sensorId",
                  "type": "string"
                },
                {
                  "internalType": "string",
                  "name": "sensorValue",
                  "type": "string"
                },
                {
                  "internalType": "string",
                  "name": "sensorUnit",
                  "type": "string"
                }
              ],
              "internalType": "struct StationDataContract.SensorData[]",
              "name": "sensorData",
              "type": "tuple[]"
            }
          ],
          "internalType": "struct StationDataContract.StationData[]",
          "name": "",
          "type": "tuple[]"
        }
      ],
      "stateMutability": "view",
      "type": "function"
    },
    {
      "inputs": [],
      "name": "getNumberOfStationData",
      "outputs": [
        {
          "internalType": "uint256",
          "name": "",
          "type": "uint256"
        }
      ],
      "stateMutability": "view",
      "type": "function"
    },
    {
      "inputs": [],
      "name": "getNumberOfStations",
      "outputs": [
        {
          "internalType": "uint256",
          "name": "",
          "type": "uint256"
        }
      ],
      "stateMutability": "view",
      "type": "function"
    },
    {
      "inputs": [
        {
          "internalType": "string",
          "name": "_stationId",
          "type": "string"
        },
        {
          "internalType": "string",
          "name": "_sensorId",
          "type": "string"
        }
      ],
      "name": "getSensorValue",
      "outputs": [
        {
          "internalType": "string",
          "name": "",
          "type": "string"
        }
      ],
      "stateMutability": "view",
      "type": "function"
    },
    {
      "inputs": [
        {
          "internalType": "string",
          "name": "_stationId",
          "type": "string"
        }
      ],
      "name": "getStationData",
      "outputs": [
        {
          "components": [
            {
              "internalType": "string",
              "name": "stationId",
              "type": "string"
            },
            {
              "internalType": "uint256",
              "name": "createAt",
              "type": "uint256"
            },
            {
              "internalType": "string",
              "name": "gps_longitude",
              "type": "string"
            },
            {
              "internalType": "string",
              "name": "gps_latitude",
              "type": "string"
            },
            {
              "components": [
                {
                  "internalType": "string",
                  "name": "sensorId",
                  "type": "string"
                },
                {
                  "internalType": "string",
                  "name": "sensorValue",
                  "type": "string"
                },
                {
                  "internalType": "string",
                  "name": "sensorUnit",
                  "type": "string"
                }
              ],
              "internalType": "struct StationDataContract.SensorData[]",
              "name": "sensorData",
              "type": "tuple[]"
            }
          ],
          "internalType": "struct StationDataContract.StationData",
          "name": "",
          "type": "tuple"
        }
      ],
      "stateMutability": "view",
      "type": "function"
    },
    {
      "inputs": [],
      "name": "stationDataCount",
      "outputs": [
        {
          "internalType": "uint256",
          "name": "",
          "type": "uint256"
        }
      ],
      "stateMutability": "view",
      "type": "function"
    },
    {
      "inputs": [
        {
          "internalType": "uint256",
          "name": "",
          "type": "uint256"
        }
      ],
      "name": "stations",
      "outputs": [
        {
          "internalType": "string",
          "name": "",
          "type": "string"
        }
      ],
      "stateMutability": "view",
      "type": "function"
    },
    {
      "inputs": [
        {
          "internalType": "uint256",
          "name": "",
          "type": "uint256"
        }
      ],
      "name": "stationsData",
      "outputs": [
        {
          "internalType": "string",
          "name": "stationId",
          "type": "string"
        },
        {
          "internalType": "uint256",
          "name": "createAt",
          "type": "uint256"
        },
        {
          "internalType": "string",
          "name": "gps_longitude",
          "type": "string"
        },
        {
          "internalType": "string",
          "name": "gps_latitude",
          "type": "string"
        }
      ],
      "stateMutability": "view",
      "type": "function"
    }
  ],
  "bytecode": "0x608060405234801561001057600080fd5b50613201806100206000396000f3fe608060405234801561001057600080fd5b50600436106100f55760003560e01c8063487e42c11161009757806392f859db1161006657806392f859db1461028e5780639e8c2efb146102be578063dcaecb3c146102ee578063e88d806b1461031e576100f5565b8063487e42c1146101ee578063640cb6cb1461020c5780637bbab9bc1461023f57806383445dbe1461025d576100f5565b806335c76339116100d357806335c763391461015457806341472df11461018457806344a19b35146101a057806345bdc5e6146101be576100f5565b80630c370953146100fa5780630ea79bd21461011857806316b6913114610136575b600080fd5b61010261034e565b60405161010f91906121f6565b60405180910390f35b6101206107dc565b60405161012d9190612227565b60405180910390f35b61013e6107e2565b60405161014b9190612304565b60405180910390f35b61016e6004803603810190610169919061246f565b6108bb565b60405161017b9190612531565b60405180910390f35b61019e60048036038101906101999190612639565b610ad0565b005b6101a8610c97565b6040516101b59190612227565b60405180910390f35b6101d860048036038101906101d3919061276e565b610ca1565b6040516101e591906127d2565b60405180910390f35b6101f6610d4d565b6040516102039190612227565b60405180910390f35b61022660048036038101906102219190612819565b610d5a565b6040516102369493929190612846565b60405180910390f35b610247610f22565b60405161025491906121f6565b60405180910390f35b610277600480360381019061027291906128a0565b611073565b604051610285929190612a60565b60405180910390f35b6102a860048036038101906102a39190612819565b61134f565b6040516102b59190612531565b60405180910390f35b6102d860048036038101906102d3919061276e565b6113fb565b6040516102e591906127d2565b60405180910390f35b6103086004803603810190610303919061276e565b611472565b6040516103159190612b22565b60405180910390f35b61033860048036038101906103339190612b44565b61191b565b60405161034591906121f6565b60405180910390f35b6060600060025467ffffffffffffffff81111561036e5761036d612344565b5b6040519080825280602002602001820160405280156103a757816020015b610394611e90565b81526020019060019003908161038c5790505b50905060005b6002548110156107d4576000808281526020019081526020016000206040518060a00160405290816000820180546103e490612bcf565b80601f016020809104026020016040519081016040528092919081815260200182805461041090612bcf565b801561045d5780601f106104325761010080835404028352916020019161045d565b820191906000526020600020905b81548152906001019060200180831161044057829003601f168201915b505050505081526020016001820154815260200160028201805461048090612bcf565b80601f01602080910402602001604051908101604052809291908181526020018280546104ac90612bcf565b80156104f95780601f106104ce576101008083540402835291602001916104f9565b820191906000526020600020905b8154815290600101906020018083116104dc57829003601f168201915b5050505050815260200160038201805461051290612bcf565b80601f016020809104026020016040519081016040528092919081815260200182805461053e90612bcf565b801561058b5780601f106105605761010080835404028352916020019161058b565b820191906000526020600020905b81548152906001019060200180831161056e57829003601f168201915b5050505050815260200160048201805480602002602001604051908101604052809291908181526020016000905b828210156107a157838290600052602060002090600302016040518060600160405290816000820180546105ec90612bcf565b80601f016020809104026020016040519081016040528092919081815260200182805461061890612bcf565b80156106655780601f1061063a57610100808354040283529160200191610665565b820191906000526020600020905b81548152906001019060200180831161064857829003601f168201915b5050505050815260200160018201805461067e90612bcf565b80601f01602080910402602001604051908101604052809291908181526020018280546106aa90612bcf565b80156106f75780601f106106cc576101008083540402835291602001916106f7565b820191906000526020600020905b8154815290600101906020018083116106da57829003601f168201915b5050505050815260200160028201805461071090612bcf565b80601f016020809104026020016040519081016040528092919081815260200182805461073c90612bcf565b80156107895780601f1061075e57610100808354040283529160200191610789565b820191906000526020600020905b81548152906001019060200180831161076c57829003601f168201915b505050505081525050815260200190600101906105b9565b50505050815250508282815181106107bc576107bb612c00565b5b602002602001018190525080806001019150506103ad565b508091505090565b60025481565b60606001805480602002602001604051908101604052809291908181526020016000905b828210156108b257838290600052602060002001805461082590612bcf565b80601f016020809104026020016040519081016040528092919081815260200182805461085190612bcf565b801561089e5780601f106108735761010080835404028352916020019161089e565b820191906000526020600020905b81548152906001019060200180831161088157829003601f168201915b505050505081526020019060010190610806565b50505050905090565b6060600060016002546108ce9190612c5e565b90505b60008110610a8e576000808281526020019081526020016000206000016040516108fb9190612d35565b6040518091039020848051906020012003610a7b5760006001600080848152602001908152602001600020600401805490506109379190612c5e565b90505b60008110610a7957600080838152602001908152602001600020600401818154811061096957610968612c00565b5b90600052602060002090600302016000016040516109879190612d35565b6040518091039020848051906020012003610a665760008083815260200190815260200160002060040181815481106109c3576109c2612c00565b5b906000526020600020906003020160010180546109df90612bcf565b80601f0160208091040260200160405190810160405280929190818152602001828054610a0b90612bcf565b8015610a585780601f10610a2d57610100808354040283529160200191610a58565b820191906000526020600020905b815481529060010190602001808311610a3b57829003601f168201915b505050505092505050610aca565b8080610a7190612d4c565b91505061093a565b505b8080610a8690612d4c565b9150506108d1565b506040517f08c379a0000000000000000000000000000000000000000000000000000000008152600401610ac190612de7565b60405180910390fd5b92915050565b81518351148015610ae2575080518351145b610b21576040517f08c379a0000000000000000000000000000000000000000000000000000000008152600401610b1890612e53565b60405180910390fd5b610b2a86610ca1565b5060008060006002548152602001908152602001600020905060005b8451811015610c3657816004016040518060600160405280878481518110610b7157610b70612c00565b5b60200260200101518152602001868481518110610b9157610b90612c00565b5b60200260200101518152602001858481518110610bb157610bb0612c00565b5b602002602001015181525090806001815401808255809150506001900390600052602060002090600302016000909190919091506000820151816000019081610bfa919061301f565b506020820151816001019081610c10919061301f565b506040820151816002019081610c26919061301f565b5050508080600101915050610b46565b5086816000019081610c48919061301f565b5042816001018190555085816002019081610c63919061301f565b5084816003019081610c75919061301f565b5060026000815480929190610c89906130f1565b919050555050505050505050565b6000600254905090565b600080600090505b600180549050811015610d0d57828051906020012060018281548110610cd257610cd1612c00565b5b90600052602060002001604051610ce99190612d35565b604051809103902003610d00576000915050610d48565b8080600101915050610ca9565b50600182908060018154018082558091505060019003906000526020600020016000909190919091509081610d42919061301f565b50600190505b919050565b6000600180549050905090565b6000602052806000526040600020600091509050806000018054610d7d90612bcf565b80601f0160208091040260200160405190810160405280929190818152602001828054610da990612bcf565b8015610df65780601f10610dcb57610100808354040283529160200191610df6565b820191906000526020600020905b815481529060010190602001808311610dd957829003601f168201915b505050505090806001015490806002018054610e1190612bcf565b80601f0160208091040260200160405190810160405280929190818152602001828054610e3d90612bcf565b8015610e8a5780601f10610e5f57610100808354040283529160200191610e8a565b820191906000526020600020905b815481529060010190602001808311610e6d57829003601f168201915b505050505090806003018054610e9f90612bcf565b80601f0160208091040260200160405190810160405280929190818152602001828054610ecb90612bcf565b8015610f185780601f10610eed57610100808354040283529160200191610f18565b820191906000526020600020905b815481529060010190602001808311610efb57829003601f168201915b5050505050905084565b6060600060018054905067ffffffffffffffff811115610f4557610f44612344565b5b604051908082528060200260200182016040528015610f7e57816020015b610f6b611e90565b815260200190600190039081610f635790505b50905060005b60018054905081101561106b5761104060018281548110610fa857610fa7612c00565b5b906000526020600020018054610fbd90612bcf565b80601f0160208091040260200160405190810160405280929190818152602001828054610fe990612bcf565b80156110365780601f1061100b57610100808354040283529160200191611036565b820191906000526020600020905b81548152906001019060200180831161101957829003601f168201915b5050505050611472565b82828151811061105357611052612c00565b5b60200260200101819052508080600101915050610f84565b508091505090565b606080600083905060025484111561108f576002549050611141565b6000840361114057600067ffffffffffffffff8111156110b2576110b1612344565b5b6040519080825280602002602001820160405280156110e05781602001602082028036833780820191505090505b50600067ffffffffffffffff8111156110fc576110fb612344565b5b60405190808252806020026020018201604052801561113557816020015b611122611ebf565b81526020019060019003908161111a5790505b509250925050611347565b5b600061114d878361191b565b905060008267ffffffffffffffff81111561116b5761116a612344565b5b6040519080825280602002602001820160405280156111a457816020015b611191611ebf565b8152602001906001900390816111895790505b50905060008367ffffffffffffffff8111156111c3576111c2612344565b5b6040519080825280602002602001820160405280156111f15781602001602082028036833780820191505090505b5090506000805b8581101561133a5760005b85828151811061121657611215612c00565b5b6020026020010151608001515181101561132c5785828151811061123d5761123c612c00565b5b602002602001015160800151818151811061125b5761125a612c00565b5b602002602001015160000151805190602001208b805190602001200361131f5785828151811061128e5761128d612c00565b5b60200260200101516080015181815181106112ac576112ab612c00565b5b60200260200101518584815181106112c7576112c6612c00565b5b60200260200101819052508582815181106112e5576112e4612c00565b5b60200260200101516020015184848151811061130457611303612c00565b5b602002602001018181525050828061131b906130f1565b9350505b8080600101915050611203565b5080806001019150506111f8565b5081839650965050505050505b935093915050565b6001818154811061135f57600080fd5b90600052602060002001600091509050805461137a90612bcf565b80601f01602080910402602001604051908101604052809291908181526020018280546113a690612bcf565b80156113f35780601f106113c8576101008083540402835291602001916113f3565b820191906000526020600020905b8154815290600101906020018083116113d657829003601f168201915b505050505081565b600080600090505b6001805490508110156114675782805190602001206001828154811061142c5761142b612c00565b5b906000526020600020016040516114439190612d35565b60405180910390200361145a57600191505061146d565b8080600101915050611403565b50600090505b919050565b61147a611e90565b6000600160025461148b9190612c5e565b90505b600081106118da576000808281526020019081526020016000206000016040516114b89190612d35565b60405180910390208380519060200120036118c7576000808281526020019081526020016000206040518060a00160405290816000820180546114fa90612bcf565b80601f016020809104026020016040519081016040528092919081815260200182805461152690612bcf565b80156115735780601f1061154857610100808354040283529160200191611573565b820191906000526020600020905b81548152906001019060200180831161155657829003601f168201915b505050505081526020016001820154815260200160028201805461159690612bcf565b80601f01602080910402602001604051908101604052809291908181526020018280546115c290612bcf565b801561160f5780601f106115e45761010080835404028352916020019161160f565b820191906000526020600020905b8154815290600101906020018083116115f257829003601f168201915b5050505050815260200160038201805461162890612bcf565b80601f016020809104026020016040519081016040528092919081815260200182805461165490612bcf565b80156116a15780601f10611676576101008083540402835291602001916116a1565b820191906000526020600020905b81548152906001019060200180831161168457829003601f168201915b5050505050815260200160048201805480602002602001604051908101604052809291908181526020016000905b828210156118b7578382906000526020600020906003020160405180606001604052908160008201805461170290612bcf565b80601f016020809104026020016040519081016040528092919081815260200182805461172e90612bcf565b801561177b5780601f106117505761010080835404028352916020019161177b565b820191906000526020600020905b81548152906001019060200180831161175e57829003601f168201915b5050505050815260200160018201805461179490612bcf565b80601f01602080910402602001604051908101604052809291908181526020018280546117c090612bcf565b801561180d5780601f106117e25761010080835404028352916020019161180d565b820191906000526020600020905b8154815290600101906020018083116117f057829003601f168201915b5050505050815260200160028201805461182690612bcf565b80601f016020809104026020016040519081016040528092919081815260200182805461185290612bcf565b801561189f5780601f106118745761010080835404028352916020019161189f565b820191906000526020600020905b81548152906001019060200180831161188257829003601f168201915b505050505081525050815260200190600101906116cf565b5050505081525050915050611916565b80806118d290612d4c565b91505061148e565b506040517f08c379a000000000000000000000000000000000000000000000000000000000815260040161190d906131ab565b60405180910390fd5b919050565b6060600082905060025483111561193657600254905061199c565b6000830361199b57600067ffffffffffffffff81111561195957611958612344565b5b60405190808252806020026020018201604052801561199257816020015b61197f611e90565b8152602001906001900390816119775790505b50915050611e8a565b5b60008167ffffffffffffffff8111156119b8576119b7612344565b5b6040519080825280602002602001820160405280156119f157816020015b6119de611e90565b8152602001906001900390816119d65790505b5090506000806001600254611a069190612c5e565b90505b60008110611e8257600080828152602001908152602001600020600001604051611a339190612d35565b6040518091039020878051906020012003611e6f576000808281526020019081526020016000206040518060a0016040529081600082018054611a7590612bcf565b80601f0160208091040260200160405190810160405280929190818152602001828054611aa190612bcf565b8015611aee5780601f10611ac357610100808354040283529160200191611aee565b820191906000526020600020905b815481529060010190602001808311611ad157829003601f168201915b5050505050815260200160018201548152602001600282018054611b1190612bcf565b80601f0160208091040260200160405190810160405280929190818152602001828054611b3d90612bcf565b8015611b8a5780601f10611b5f57610100808354040283529160200191611b8a565b820191906000526020600020905b815481529060010190602001808311611b6d57829003601f168201915b50505050508152602001600382018054611ba390612bcf565b80601f0160208091040260200160405190810160405280929190818152602001828054611bcf90612bcf565b8015611c1c5780601f10611bf157610100808354040283529160200191611c1c565b820191906000526020600020905b815481529060010190602001808311611bff57829003601f168201915b5050505050815260200160048201805480602002602001604051908101604052809291908181526020016000905b82821015611e325783829060005260206000209060030201604051806060016040529081600082018054611c7d90612bcf565b80601f0160208091040260200160405190810160405280929190818152602001828054611ca990612bcf565b8015611cf65780601f10611ccb57610100808354040283529160200191611cf6565b820191906000526020600020905b815481529060010190602001808311611cd957829003601f168201915b50505050508152602001600182018054611d0f90612bcf565b80601f0160208091040260200160405190810160405280929190818152602001828054611d3b90612bcf565b8015611d885780601f10611d5d57610100808354040283529160200191611d88565b820191906000526020600020905b815481529060010190602001808311611d6b57829003601f168201915b50505050508152602001600282018054611da190612bcf565b80601f0160208091040260200160405190810160405280929190818152602001828054611dcd90612bcf565b8015611e1a5780601f10611def57610100808354040283529160200191611e1a565b820191906000526020600020905b815481529060010190602001808311611dfd57829003601f168201915b50505050508152505081526020019060010190611c4a565b5050505081525050838381518110611e4d57611e4c612c00565b5b60200260200101819052508180611e63906130f1565b92505083820315611e82575b8080611e7a90612d4c565b915050611a09565b508193505050505b92915050565b6040518060a0016040528060608152602001600081526020016060815260200160608152602001606081525090565b60405180606001604052806060815260200160608152602001606081525090565b600081519050919050565b600082825260208201905092915050565b6000819050602082019050919050565b600081519050919050565b600082825260208201905092915050565b60005b83811015611f46578082015181840152602081019050611f2b565b60008484015250505050565b6000601f19601f8301169050919050565b6000611f6e82611f0c565b611f788185611f17565b9350611f88818560208601611f28565b611f9181611f52565b840191505092915050565b6000819050919050565b611faf81611f9c565b82525050565b600081519050919050565b600082825260208201905092915050565b6000819050602082019050919050565b60006060830160008301518482036000860152611ffe8282611f63565b915050602083015184820360208601526120188282611f63565b915050604083015184820360408601526120328282611f63565b9150508091505092915050565b600061204b8383611fe1565b905092915050565b6000602082019050919050565b600061206b82611fb5565b6120758185611fc0565b93508360208202850161208785611fd1565b8060005b858110156120c357848403895281516120a4858261203f565b94506120af83612053565b925060208a0199505060018101905061208b565b50829750879550505050505092915050565b600060a08301600083015184820360008601526120f28282611f63565b91505060208301516121076020860182611fa6565b506040830151848203604086015261211f8282611f63565b915050606083015184820360608601526121398282611f63565b915050608083015184820360808601526121538282612060565b9150508091505092915050565b600061216c83836120d5565b905092915050565b6000602082019050919050565b600061218c82611ee0565b6121968185611eeb565b9350836020820285016121a885611efc565b8060005b858110156121e457848403895281516121c58582612160565b94506121d083612174565b925060208a019950506001810190506121ac565b50829750879550505050505092915050565b600060208201905081810360008301526122108184612181565b905092915050565b61222181611f9c565b82525050565b600060208201905061223c6000830184612218565b92915050565b600081519050919050565b600082825260208201905092915050565b6000819050602082019050919050565b600061227a8383611f63565b905092915050565b6000602082019050919050565b600061229a82612242565b6122a4818561224d565b9350836020820285016122b68561225e565b8060005b858110156122f257848403895281516122d3858261226e565b94506122de83612282565b925060208a019950506001810190506122ba565b50829750879550505050505092915050565b6000602082019050818103600083015261231e818461228f565b905092915050565b6000604051905090565b600080fd5b600080fd5b600080fd5b600080fd5b7f4e487b7100000000000000000000000000000000000000000000000000000000600052604160045260246000fd5b61237c82611f52565b810181811067ffffffffffffffff8211171561239b5761239a612344565b5b80604052505050565b60006123ae612326565b90506123ba8282612373565b919050565b600067ffffffffffffffff8211156123da576123d9612344565b5b6123e382611f52565b9050602081019050919050565b82818337600083830152505050565b600061241261240d846123bf565b6123a4565b90508281526020810184848401111561242e5761242d61233f565b5b6124398482856123f0565b509392505050565b600082601f8301126124565761245561233a565b5b81356124668482602086016123ff565b91505092915050565b6000806040838503121561248657612485612330565b5b600083013567ffffffffffffffff8111156124a4576124a3612335565b5b6124b085828601612441565b925050602083013567ffffffffffffffff8111156124d1576124d0612335565b5b6124dd85828601612441565b9150509250929050565b600082825260208201905092915050565b600061250382611f0c565b61250d81856124e7565b935061251d818560208601611f28565b61252681611f52565b840191505092915050565b6000602082019050818103600083015261254b81846124f8565b905092915050565b600067ffffffffffffffff82111561256e5761256d612344565b5b602082029050602081019050919050565b600080fd5b600061259761259284612553565b6123a4565b905080838252602082019050602084028301858111156125ba576125b961257f565b5b835b8181101561260157803567ffffffffffffffff8111156125df576125de61233a565b5b8086016125ec8982612441565b855260208501945050506020810190506125bc565b5050509392505050565b600082601f8301126126205761261f61233a565b5b8135612630848260208601612584565b91505092915050565b60008060008060008060c0878903121561265657612655612330565b5b600087013567ffffffffffffffff81111561267457612673612335565b5b61268089828a01612441565b965050602087013567ffffffffffffffff8111156126a1576126a0612335565b5b6126ad89828a01612441565b955050604087013567ffffffffffffffff8111156126ce576126cd612335565b5b6126da89828a01612441565b945050606087013567ffffffffffffffff8111156126fb576126fa612335565b5b61270789828a0161260b565b935050608087013567ffffffffffffffff81111561272857612727612335565b5b61273489828a0161260b565b92505060a087013567ffffffffffffffff81111561275557612754612335565b5b61276189828a0161260b565b9150509295509295509295565b60006020828403121561278457612783612330565b5b600082013567ffffffffffffffff8111156127a2576127a1612335565b5b6127ae84828501612441565b91505092915050565b60008115159050919050565b6127cc816127b7565b82525050565b60006020820190506127e760008301846127c3565b92915050565b6127f681611f9c565b811461280157600080fd5b50565b600081359050612813816127ed565b92915050565b60006020828403121561282f5761282e612330565b5b600061283d84828501612804565b91505092915050565b6000608082019050818103600083015261286081876124f8565b905061286f6020830186612218565b818103604083015261288181856124f8565b9050818103606083015261289581846124f8565b905095945050505050565b6000806000606084860312156128b9576128b8612330565b5b600084013567ffffffffffffffff8111156128d7576128d6612335565b5b6128e386828701612441565b935050602084013567ffffffffffffffff81111561290457612903612335565b5b61291086828701612441565b925050604061292186828701612804565b9150509250925092565b600081519050919050565b600082825260208201905092915050565b6000819050602082019050919050565b60006129638383611fa6565b60208301905092915050565b6000602082019050919050565b60006129878261292b565b6129918185612936565b935061299c83612947565b8060005b838110156129cd5781516129b48882612957565b97506129bf8361296f565b9250506001810190506129a0565b5085935050505092915050565b600082825260208201905092915050565b60006129f682611fb5565b612a0081856129da565b935083602082028501612a1285611fd1565b8060005b85811015612a4e5784840389528151612a2f858261203f565b9450612a3a83612053565b925060208a01995050600181019050612a16565b50829750879550505050505092915050565b60006040820190508181036000830152612a7a818561297c565b90508181036020830152612a8e81846129eb565b90509392505050565b600060a0830160008301518482036000860152612ab48282611f63565b9150506020830151612ac96020860182611fa6565b5060408301518482036040860152612ae18282611f63565b91505060608301518482036060860152612afb8282611f63565b91505060808301518482036080860152612b158282612060565b9150508091505092915050565b60006020820190508181036000830152612b3c8184612a97565b905092915050565b60008060408385031215612b5b57612b5a612330565b5b600083013567ffffffffffffffff811115612b7957612b78612335565b5b612b8585828601612441565b9250506020612b9685828601612804565b9150509250929050565b7f4e487b7100000000000000000000000000000000000000000000000000000000600052602260045260246000fd5b60006002820490506001821680612be757607f821691505b602082108103612bfa57612bf9612ba0565b5b50919050565b7f4e487b7100000000000000000000000000000000000000000000000000000000600052603260045260246000fd5b7f4e487b7100000000000000000000000000000000000000000000000000000000600052601160045260246000fd5b6000612c6982611f9c565b9150612c7483611f9c565b9250828203905081811115612c8c57612c8b612c2f565b5b92915050565b600081905092915050565b60008190508160005260206000209050919050565b60008154612cbf81612bcf565b612cc98186612c92565b94506001821660008114612ce45760018114612cf957612d2c565b60ff1983168652811515820286019350612d2c565b612d0285612c9d565b60005b83811015612d2457815481890152600182019150602081019050612d05565b838801955050505b50505092915050565b6000612d418284612cb2565b915081905092915050565b6000612d5782611f9c565b915060008203612d6a57612d69612c2f565b5b600182039050919050565b7f53656e736f722064617461206e6f7420666f756e6420666f722074686520676960008201527f76656e2073746174696f6e20616e642073656e736f72204944732e0000000000602082015250565b6000612dd1603b836124e7565b9150612ddc82612d75565b604082019050919050565b60006020820190508181036000830152612e0081612dc4565b9050919050565b7f4c656e677468206f6620617272617973206d75737420626520657175616c0000600082015250565b6000612e3d601e836124e7565b9150612e4882612e07565b602082019050919050565b60006020820190508181036000830152612e6c81612e30565b9050919050565b60008190508160005260206000209050919050565b60006020601f8301049050919050565b600082821b905092915050565b600060088302612ed57fffffffffffffffffffffffffffffffffffffffffffffffffffffffffffffffff82612e98565b612edf8683612e98565b95508019841693508086168417925050509392505050565b6000819050919050565b6000612f1c612f17612f1284611f9c565b612ef7565b611f9c565b9050919050565b6000819050919050565b612f3683612f01565b612f4a612f4282612f23565b848454612ea5565b825550505050565b600090565b612f5f612f52565b612f6a818484612f2d565b505050565b5b81811015612f8e57612f83600082612f57565b600181019050612f70565b5050565b601f821115612fd357612fa481612e73565b612fad84612e88565b81016020851015612fbc578190505b612fd0612fc885612e88565b830182612f6f565b50505b505050565b600082821c905092915050565b6000612ff660001984600802612fd8565b1980831691505092915050565b600061300f8383612fe5565b9150826002028217905092915050565b61302882611f0c565b67ffffffffffffffff81111561304157613040612344565b5b61304b8254612bcf565b613056828285612f92565b600060209050601f8311600181146130895760008415613077578287015190505b6130818582613003565b8655506130e9565b601f19841661309786612e73565b60005b828110156130bf5784890151825560018201915060208501945060208101905061309a565b868310156130dc57848901516130d8601f891682612fe5565b8355505b6001600288020188555050505b505050505050565b60006130fc82611f9c565b91507fffffffffffffffffffffffffffffffffffffffffffffffffffffffffffffffff820361312e5761312d612c2f565b5b600182019050919050565b7f53746174696f6e2064617461206e6f7420666f756e6420666f7220746865206760008201527f6976656e2073746174696f6e2049442e00000000000000000000000000000000602082015250565b60006131956030836124e7565b91506131a082613139565b604082019050919050565b600060208201905081810360008301526131c481613188565b905091905056fea2646970667358221220810e6598ec9ab1a9dcce0fadeb0f3c9d8fecd12d4696126191a3a5058342d41064736f6c63430008180033",
  "linkReferences": {},
  "deployedLinkReferences": {}
}