{
  "_format": "hh-sol-artifact-1",
  "contractName": "StationDataContract",
  "sourceName": "contracts/StationData.sol",
  "abi": [
    {
      "anonymous": false,
      "inputs": [
        {
          "indexed": false,
          "internalType": "string",
          "name": "_stationId",
          "type": "string"
        },
        {
          "indexed": false,
          "internalType": "string",
          "name": "_longitude",
          "type": "string"
        },
        {
          "indexed": false,
          "internalType": "string",
          "name": "_latitude",
          "type": "string"
        },
        {
          "indexed": false,
          "internalType": "string[]",
          "name": "_sensorIds",
          "type": "string[]"
        },
        {
          "indexed": false,
          "internalType": "string[]",
          "name": "_sensorValues",
          "type": "string[]"
        },
        {
          "indexed": false,
          "internalType": "string[]",
          "name": "_sensorUnits",
          "type": "string[]"
        }
      ],
      "name": "StationDataAdded",
      "type": "event"
    },
    {
      "inputs": [
        {
          "internalType": "string",
          "name": "_stationId",
          "type": "string"
        }
      ],
      "name": "addStation",
      "outputs": [
        {
          "internalType": "bool",
          "name": "",
          "type": "bool"
        }
      ],
      "stateMutability": "nonpayable",
      "type": "function"
    },
    {
      "inputs": [
        {
          "internalType": "string",
          "name": "_stationId",
          "type": "string"
        },
        {
          "internalType": "string",
          "name": "_longitude",
          "type": "string"
        },
        {
          "internalType": "string",
          "name": "_latitude",
          "type": "string"
        },
        {
          "internalType": "string[]",
          "name": "_sensorIds",
          "type": "string[]"
        },
        {
          "internalType": "string[]",
          "name": "_sensorValues",
          "type": "string[]"
        },
        {
          "internalType": "string[]",
          "name": "_sensorUnits",
          "type": "string[]"
        }
      ],
      "name": "addStationsData",
      "outputs": [],
      "stateMutability": "nonpayable",
      "type": "function"
    },
    {
      "inputs": [
        {
          "internalType": "string",
          "name": "_stationId",
          "type": "string"
        }
      ],
      "name": "checkStation",
      "outputs": [
        {
          "internalType": "bool",
          "name": "",
          "type": "bool"
        }
      ],
      "stateMutability": "view",
      "type": "function"
    },
    {
      "inputs": [],
      "name": "getAllCurentStationData",
      "outputs": [
        {
          "components": [
            {
              "internalType": "string",
              "name": "stationId",
              "type": "string"
            },
            {
              "internalType": "uint256",
              "name": "createAt",
              "type": "uint256"
            },
            {
              "internalType": "string",
              "name": "gps_longitude",
              "type": "string"
            },
            {
              "internalType": "string",
              "name": "gps_latitude",
              "type": "string"
            },
            {
              "components": [
                {
                  "internalType": "string",
                  "name": "sensorId",
                  "type": "string"
                },
                {
                  "internalType": "string",
                  "name": "sensorValue",
                  "type": "string"
                },
                {
                  "internalType": "string",
                  "name": "sensorUnit",
                  "type": "string"
                }
              ],
              "internalType": "struct StationDataContract.SensorData[]",
              "name": "sensorData",
              "type": "tuple[]"
            }
          ],
          "internalType": "struct StationDataContract.StationData[]",
          "name": "",
          "type": "tuple[]"
        }
      ],
      "stateMutability": "view",
      "type": "function"
    },
    {
      "inputs": [],
      "name": "getAllStation",
      "outputs": [
        {
          "internalType": "string[]",
          "name": "",
          "type": "string[]"
        }
      ],
      "stateMutability": "view",
      "type": "function"
    },
    {
      "inputs": [],
      "name": "getAllStationData",
      "outputs": [
        {
          "components": [
            {
              "internalType": "string",
              "name": "stationId",
              "type": "string"
            },
            {
              "internalType": "uint256",
              "name": "createAt",
              "type": "uint256"
            },
            {
              "internalType": "string",
              "name": "gps_longitude",
              "type": "string"
            },
            {
              "internalType": "string",
              "name": "gps_latitude",
              "type": "string"
            },
            {
              "components": [
                {
                  "internalType": "string",
                  "name": "sensorId",
                  "type": "string"
                },
                {
                  "internalType": "string",
                  "name": "sensorValue",
                  "type": "string"
                },
                {
                  "internalType": "string",
                  "name": "sensorUnit",
                  "type": "string"
                }
              ],
              "internalType": "struct StationDataContract.SensorData[]",
              "name": "sensorData",
              "type": "tuple[]"
            }
          ],
          "internalType": "struct StationDataContract.StationData[]",
          "name": "",
          "type": "tuple[]"
        }
      ],
      "stateMutability": "view",
      "type": "function"
    },
    {
      "inputs": [
        {
          "internalType": "string",
          "name": "_stationId",
          "type": "string"
        },
        {
          "internalType": "string",
          "name": "_sensorId",
          "type": "string"
        },
        {
          "internalType": "uint256",
          "name": "_length",
          "type": "uint256"
        }
      ],
      "name": "getHistorySensorValue",
      "outputs": [
        {
          "internalType": "uint256[]",
          "name": "",
          "type": "uint256[]"
        },
        {
          "components": [
            {
              "internalType": "string",
              "name": "sensorId",
              "type": "string"
            },
            {
              "internalType": "string",
              "name": "sensorValue",
              "type": "string"
            },
            {
              "internalType": "string",
              "name": "sensorUnit",
              "type": "string"
            }
          ],
          "internalType": "struct StationDataContract.SensorData[]",
          "name": "",
          "type": "tuple[]"
        }
      ],
      "stateMutability": "view",
      "type": "function"
    },
    {
      "inputs": [
        {
          "internalType": "string",
          "name": "_stationId",
          "type": "string"
        },
        {
          "internalType": "uint256",
          "name": "_length",
          "type": "uint256"
        }
      ],
      "name": "getHistoryStationData",
      "outputs": [
        {
          "components": [
            {
              "internalType": "string",
              "name": "stationId",
              "type": "string"
            },
            {
              "internalType": "uint256",
              "name": "createAt",
              "type": "uint256"
            },
            {
              "internalType": "string",
              "name": "gps_longitude",
              "type": "string"
            },
            {
              "internalType": "string",
              "name": "gps_latitude",
              "type": "string"
            },
            {
              "components": [
                {
                  "internalType": "string",
                  "name": "sensorId",
                  "type": "string"
                },
                {
                  "internalType": "string",
                  "name": "sensorValue",
                  "type": "string"
                },
                {
                  "internalType": "string",
                  "name": "sensorUnit",
                  "type": "string"
                }
              ],
              "internalType": "struct StationDataContract.SensorData[]",
              "name": "sensorData",
              "type": "tuple[]"
            }
          ],
          "internalType": "struct StationDataContract.StationData[]",
          "name": "",
          "type": "tuple[]"
        }
      ],
      "stateMutability": "view",
      "type": "function"
    },
    {
      "inputs": [],
      "name": "getNumberOfStationData",
      "outputs": [
        {
          "internalType": "uint256",
          "name": "",
          "type": "uint256"
        }
      ],
      "stateMutability": "view",
      "type": "function"
    },
    {
      "inputs": [],
      "name": "getNumberOfStations",
      "outputs": [
        {
          "internalType": "uint256",
          "name": "",
          "type": "uint256"
        }
      ],
      "stateMutability": "view",
      "type": "function"
    },
    {
      "inputs": [
        {
          "internalType": "string",
          "name": "_stationId",
          "type": "string"
        },
        {
          "internalType": "string",
          "name": "_sensorId",
          "type": "string"
        }
      ],
      "name": "getSensorValue",
      "outputs": [
        {
          "internalType": "string",
          "name": "",
          "type": "string"
        }
      ],
      "stateMutability": "view",
      "type": "function"
    },
    {
      "inputs": [
        {
          "internalType": "string",
          "name": "_stationId",
          "type": "string"
        }
      ],
      "name": "getStationData",
      "outputs": [
        {
          "components": [
            {
              "internalType": "string",
              "name": "stationId",
              "type": "string"
            },
            {
              "internalType": "uint256",
              "name": "createAt",
              "type": "uint256"
            },
            {
              "internalType": "string",
              "name": "gps_longitude",
              "type": "string"
            },
            {
              "internalType": "string",
              "name": "gps_latitude",
              "type": "string"
            },
            {
              "components": [
                {
                  "internalType": "string",
                  "name": "sensorId",
                  "type": "string"
                },
                {
                  "internalType": "string",
                  "name": "sensorValue",
                  "type": "string"
                },
                {
                  "internalType": "string",
                  "name": "sensorUnit",
                  "type": "string"
                }
              ],
              "internalType": "struct StationDataContract.SensorData[]",
              "name": "sensorData",
              "type": "tuple[]"
            }
          ],
          "internalType": "struct StationDataContract.StationData",
          "name": "",
          "type": "tuple"
        }
      ],
      "stateMutability": "view",
      "type": "function"
    },
    {
      "inputs": [],
      "name": "stationDataCount",
      "outputs": [
        {
          "internalType": "uint256",
          "name": "",
          "type": "uint256"
        }
      ],
      "stateMutability": "view",
      "type": "function"
    },
    {
      "inputs": [
        {
          "internalType": "uint256",
          "name": "",
          "type": "uint256"
        }
      ],
      "name": "stations",
      "outputs": [
        {
          "internalType": "string",
          "name": "",
          "type": "string"
        }
      ],
      "stateMutability": "view",
      "type": "function"
    },
    {
      "inputs": [
        {
          "internalType": "uint256",
          "name": "",
          "type": "uint256"
        }
      ],
      "name": "stationsData",
      "outputs": [
        {
          "internalType": "string",
          "name": "stationId",
          "type": "string"
        },
        {
          "internalType": "uint256",
          "name": "createAt",
          "type": "uint256"
        },
        {
          "internalType": "string",
          "name": "gps_longitude",
          "type": "string"
        },
        {
          "internalType": "string",
          "name": "gps_latitude",
          "type": "string"
        }
      ],
      "stateMutability": "view",
      "type": "function"
    }
  ],
  "bytecode": "0x608060405234801561001057600080fd5b5061337f806100206000396000f3fe608060405234801561001057600080fd5b50600436106100f55760003560e01c8063487e42c11161009757806392f859db1161006657806392f859db1461028e5780639e8c2efb146102be578063dcaecb3c146102ee578063e88d806b1461031e576100f5565b8063487e42c1146101ee578063640cb6cb1461020c5780637bbab9bc1461023f57806383445dbe1461025d576100f5565b806335c76339116100d357806335c763391461015457806341472df11461018457806344a19b35146101a057806345bdc5e6146101be576100f5565b80630c370953146100fa5780630ea79bd21461011857806316b6913114610136575b600080fd5b61010261034e565b60405161010f91906122e9565b60405180910390f35b6101206107dc565b60405161012d919061231a565b60405180910390f35b61013e6107e2565b60405161014b91906123f7565b60405180910390f35b61016e60048036038101906101699190612562565b6108bb565b60405161017b9190612624565b60405180910390f35b61019e6004803603810190610199919061272c565b610ad0565b005b6101a8610cd8565b6040516101b5919061231a565b60405180910390f35b6101d860048036038101906101d39190612861565b610ce2565b6040516101e591906128c5565b60405180910390f35b6101f6610d8e565b604051610203919061231a565b60405180910390f35b6102266004803603810190610221919061290c565b610d9b565b6040516102369493929190612939565b60405180910390f35b610247610f63565b60405161025491906122e9565b60405180910390f35b61027760048036038101906102729190612993565b6110b4565b604051610285929190612b53565b60405180910390f35b6102a860048036038101906102a3919061290c565b611442565b6040516102b59190612624565b60405180910390f35b6102d860048036038101906102d39190612861565b6114ee565b6040516102e591906128c5565b60405180910390f35b61030860048036038101906103039190612861565b611565565b6040516103159190612c15565b60405180910390f35b61033860048036038101906103339190612c37565b611a0e565b60405161034591906122e9565b60405180910390f35b6060600060025467ffffffffffffffff81111561036e5761036d612437565b5b6040519080825280602002602001820160405280156103a757816020015b610394611f83565b81526020019060019003908161038c5790505b50905060005b6002548110156107d4576000808281526020019081526020016000206040518060a00160405290816000820180546103e490612cc2565b80601f016020809104026020016040519081016040528092919081815260200182805461041090612cc2565b801561045d5780601f106104325761010080835404028352916020019161045d565b820191906000526020600020905b81548152906001019060200180831161044057829003601f168201915b505050505081526020016001820154815260200160028201805461048090612cc2565b80601f01602080910402602001604051908101604052809291908181526020018280546104ac90612cc2565b80156104f95780601f106104ce576101008083540402835291602001916104f9565b820191906000526020600020905b8154815290600101906020018083116104dc57829003601f168201915b5050505050815260200160038201805461051290612cc2565b80601f016020809104026020016040519081016040528092919081815260200182805461053e90612cc2565b801561058b5780601f106105605761010080835404028352916020019161058b565b820191906000526020600020905b81548152906001019060200180831161056e57829003601f168201915b5050505050815260200160048201805480602002602001604051908101604052809291908181526020016000905b828210156107a157838290600052602060002090600302016040518060600160405290816000820180546105ec90612cc2565b80601f016020809104026020016040519081016040528092919081815260200182805461061890612cc2565b80156106655780601f1061063a57610100808354040283529160200191610665565b820191906000526020600020905b81548152906001019060200180831161064857829003601f168201915b5050505050815260200160018201805461067e90612cc2565b80601f01602080910402602001604051908101604052809291908181526020018280546106aa90612cc2565b80156106f75780601f106106cc576101008083540402835291602001916106f7565b820191906000526020600020905b8154815290600101906020018083116106da57829003601f168201915b5050505050815260200160028201805461071090612cc2565b80601f016020809104026020016040519081016040528092919081815260200182805461073c90612cc2565b80156107895780601f1061075e57610100808354040283529160200191610789565b820191906000526020600020905b81548152906001019060200180831161076c57829003601f168201915b505050505081525050815260200190600101906105b9565b50505050815250508282815181106107bc576107bb612cf3565b5b602002602001018190525080806001019150506103ad565b508091505090565b60025481565b60606001805480602002602001604051908101604052809291908181526020016000905b828210156108b257838290600052602060002001805461082590612cc2565b80601f016020809104026020016040519081016040528092919081815260200182805461085190612cc2565b801561089e5780601f106108735761010080835404028352916020019161089e565b820191906000526020600020905b81548152906001019060200180831161088157829003601f168201915b505050505081526020019060010190610806565b50505050905090565b6060600060016002546108ce9190612d51565b90505b60008110610a8e576000808281526020019081526020016000206000016040516108fb9190612e28565b6040518091039020848051906020012003610a7b5760006001600080848152602001908152602001600020600401805490506109379190612d51565b90505b60008110610a7957600080838152602001908152602001600020600401818154811061096957610968612cf3565b5b90600052602060002090600302016000016040516109879190612e28565b6040518091039020848051906020012003610a665760008083815260200190815260200160002060040181815481106109c3576109c2612cf3565b5b906000526020600020906003020160010180546109df90612cc2565b80601f0160208091040260200160405190810160405280929190818152602001828054610a0b90612cc2565b8015610a585780601f10610a2d57610100808354040283529160200191610a58565b820191906000526020600020905b815481529060010190602001808311610a3b57829003601f168201915b505050505092505050610aca565b8080610a7190612e3f565b91505061093a565b505b8080610a8690612e3f565b9150506108d1565b506040517f08c379a0000000000000000000000000000000000000000000000000000000008152600401610ac190612eda565b60405180910390fd5b92915050565b81518351148015610ae2575080518351145b610b21576040517f08c379a0000000000000000000000000000000000000000000000000000000008152600401610b1890612f46565b60405180910390fd5b610b2a86610ce2565b5060008060006002548152602001908152602001600020905060005b8451811015610c3657816004016040518060600160405280878481518110610b7157610b70612cf3565b5b60200260200101518152602001868481518110610b9157610b90612cf3565b5b60200260200101518152602001858481518110610bb157610bb0612cf3565b5b602002602001015181525090806001815401808255809150506001900390600052602060002090600302016000909190919091506000820151816000019081610bfa9190613112565b506020820151816001019081610c109190613112565b506040820151816002019081610c269190613112565b5050508080600101915050610b46565b5086816000019081610c489190613112565b5042816001018190555085816002019081610c639190613112565b5084816003019081610c759190613112565b5060026000815480929190610c89906131e4565b91905055507f80adf643da1688868d13e59557c4210ca7fcad1100a8503d72dcaa3fabea352b878787878787604051610cc79695949392919061322c565b60405180910390a150505050505050565b6000600254905090565b600080600090505b600180549050811015610d4e57828051906020012060018281548110610d1357610d12612cf3565b5b90600052602060002001604051610d2a9190612e28565b604051809103902003610d41576000915050610d89565b8080600101915050610cea565b50600182908060018154018082558091505060019003906000526020600020016000909190919091509081610d839190613112565b50600190505b919050565b6000600180549050905090565b6000602052806000526040600020600091509050806000018054610dbe90612cc2565b80601f0160208091040260200160405190810160405280929190818152602001828054610dea90612cc2565b8015610e375780601f10610e0c57610100808354040283529160200191610e37565b820191906000526020600020905b815481529060010190602001808311610e1a57829003601f168201915b505050505090806001015490806002018054610e5290612cc2565b80601f0160208091040260200160405190810160405280929190818152602001828054610e7e90612cc2565b8015610ecb5780601f10610ea057610100808354040283529160200191610ecb565b820191906000526020600020905b815481529060010190602001808311610eae57829003601f168201915b505050505090806003018054610ee090612cc2565b80601f0160208091040260200160405190810160405280929190818152602001828054610f0c90612cc2565b8015610f595780601f10610f2e57610100808354040283529160200191610f59565b820191906000526020600020905b815481529060010190602001808311610f3c57829003601f168201915b5050505050905084565b6060600060018054905067ffffffffffffffff811115610f8657610f85612437565b5b604051908082528060200260200182016040528015610fbf57816020015b610fac611f83565b815260200190600190039081610fa45790505b50905060005b6001805490508110156110ac5761108160018281548110610fe957610fe8612cf3565b5b906000526020600020018054610ffe90612cc2565b80601f016020809104026020016040519081016040528092919081815260200182805461102a90612cc2565b80156110775780601f1061104c57610100808354040283529160200191611077565b820191906000526020600020905b81548152906001019060200180831161105a57829003601f168201915b5050505050611565565b82828151811061109457611093612cf3565b5b60200260200101819052508080600101915050610fc5565b508091505090565b60608060006110c38685611a0e565b90506000805b82518110156111775760005b8382815181106110e8576110e7612cf3565b5b602002602001015160800151518110156111695783828151811061110f5761110e612cf3565b5b602002602001015160800151818151811061112d5761112c612cf3565b5b6020026020010151600001518051906020012088805190602001200361115c578280611158906131e4565b9350505b80806001019150506110d5565b5080806001019150506110c9565b5060008114806111875750600085145b1561123657600067ffffffffffffffff8111156111a7576111a6612437565b5b6040519080825280602002602001820160405280156111d55781602001602082028036833780820191505090505b50600067ffffffffffffffff8111156111f1576111f0612437565b5b60405190808252806020026020018201604052801561122a57816020015b611217611fb2565b81526020019060019003908161120f5790505b5093509350505061143a565b84811115611242578490505b60008167ffffffffffffffff81111561125e5761125d612437565b5b60405190808252806020026020018201604052801561129757816020015b611284611fb2565b81526020019060019003908161127c5790505b50905060008267ffffffffffffffff8111156112b6576112b5612437565b5b6040519080825280602002602001820160405280156112e45781602001602082028036833780820191505090505b5090506000805b8481101561142d5760005b86828151811061130957611308612cf3565b5b6020026020010151608001515181101561141f578682815181106113305761132f612cf3565b5b602002602001015160800151818151811061134e5761134d612cf3565b5b602002602001015160000151805190602001208b80519060200120036114125786828151811061138157611380612cf3565b5b602002602001015160800151818151811061139f5761139e612cf3565b5b60200260200101518584815181106113ba576113b9612cf3565b5b60200260200101819052508682815181106113d8576113d7612cf3565b5b6020026020010151602001518484815181106113f7576113f6612cf3565b5b602002602001018181525050828061140e906131e4565b9350505b80806001019150506112f6565b5080806001019150506112eb565b5081839650965050505050505b935093915050565b6001818154811061145257600080fd5b90600052602060002001600091509050805461146d90612cc2565b80601f016020809104026020016040519081016040528092919081815260200182805461149990612cc2565b80156114e65780601f106114bb576101008083540402835291602001916114e6565b820191906000526020600020905b8154815290600101906020018083116114c957829003601f168201915b505050505081565b600080600090505b60018054905081101561155a5782805190602001206001828154811061151f5761151e612cf3565b5b906000526020600020016040516115369190612e28565b60405180910390200361154d576001915050611560565b80806001019150506114f6565b50600090505b919050565b61156d611f83565b6000600160025461157e9190612d51565b90505b600081106119cd576000808281526020019081526020016000206000016040516115ab9190612e28565b60405180910390208380519060200120036119ba576000808281526020019081526020016000206040518060a00160405290816000820180546115ed90612cc2565b80601f016020809104026020016040519081016040528092919081815260200182805461161990612cc2565b80156116665780601f1061163b57610100808354040283529160200191611666565b820191906000526020600020905b81548152906001019060200180831161164957829003601f168201915b505050505081526020016001820154815260200160028201805461168990612cc2565b80601f01602080910402602001604051908101604052809291908181526020018280546116b590612cc2565b80156117025780601f106116d757610100808354040283529160200191611702565b820191906000526020600020905b8154815290600101906020018083116116e557829003601f168201915b5050505050815260200160038201805461171b90612cc2565b80601f016020809104026020016040519081016040528092919081815260200182805461174790612cc2565b80156117945780601f1061176957610100808354040283529160200191611794565b820191906000526020600020905b81548152906001019060200180831161177757829003601f168201915b5050505050815260200160048201805480602002602001604051908101604052809291908181526020016000905b828210156119aa57838290600052602060002090600302016040518060600160405290816000820180546117f590612cc2565b80601f016020809104026020016040519081016040528092919081815260200182805461182190612cc2565b801561186e5780601f106118435761010080835404028352916020019161186e565b820191906000526020600020905b81548152906001019060200180831161185157829003601f168201915b5050505050815260200160018201805461188790612cc2565b80601f01602080910402602001604051908101604052809291908181526020018280546118b390612cc2565b80156119005780601f106118d557610100808354040283529160200191611900565b820191906000526020600020905b8154815290600101906020018083116118e357829003601f168201915b5050505050815260200160028201805461191990612cc2565b80601f016020809104026020016040519081016040528092919081815260200182805461194590612cc2565b80156119925780601f1061196757610100808354040283529160200191611992565b820191906000526020600020905b81548152906001019060200180831161197557829003601f168201915b505050505081525050815260200190600101906117c2565b5050505081525050915050611a09565b80806119c590612e3f565b915050611581565b506040517f08c379a0000000000000000000000000000000000000000000000000000000008152600401611a0090613329565b60405180910390fd5b919050565b60606000829050600254831115611a29576002549050611a8f565b60008303611a8e57600067ffffffffffffffff811115611a4c57611a4b612437565b5b604051908082528060200260200182016040528015611a8557816020015b611a72611f83565b815260200190600190039081611a6a5790505b50915050611f7d565b5b60008167ffffffffffffffff811115611aab57611aaa612437565b5b604051908082528060200260200182016040528015611ae457816020015b611ad1611f83565b815260200190600190039081611ac95790505b5090506000806001600254611af99190612d51565b90505b60008110611f7557600080828152602001908152602001600020600001604051611b269190612e28565b6040518091039020878051906020012003611f62576000808281526020019081526020016000206040518060a0016040529081600082018054611b6890612cc2565b80601f0160208091040260200160405190810160405280929190818152602001828054611b9490612cc2565b8015611be15780601f10611bb657610100808354040283529160200191611be1565b820191906000526020600020905b815481529060010190602001808311611bc457829003601f168201915b5050505050815260200160018201548152602001600282018054611c0490612cc2565b80601f0160208091040260200160405190810160405280929190818152602001828054611c3090612cc2565b8015611c7d5780601f10611c5257610100808354040283529160200191611c7d565b820191906000526020600020905b815481529060010190602001808311611c6057829003601f168201915b50505050508152602001600382018054611c9690612cc2565b80601f0160208091040260200160405190810160405280929190818152602001828054611cc290612cc2565b8015611d0f5780601f10611ce457610100808354040283529160200191611d0f565b820191906000526020600020905b815481529060010190602001808311611cf257829003601f168201915b5050505050815260200160048201805480602002602001604051908101604052809291908181526020016000905b82821015611f255783829060005260206000209060030201604051806060016040529081600082018054611d7090612cc2565b80601f0160208091040260200160405190810160405280929190818152602001828054611d9c90612cc2565b8015611de95780601f10611dbe57610100808354040283529160200191611de9565b820191906000526020600020905b815481529060010190602001808311611dcc57829003601f168201915b50505050508152602001600182018054611e0290612cc2565b80601f0160208091040260200160405190810160405280929190818152602001828054611e2e90612cc2565b8015611e7b5780601f10611e5057610100808354040283529160200191611e7b565b820191906000526020600020905b815481529060010190602001808311611e5e57829003601f168201915b50505050508152602001600282018054611e9490612cc2565b80601f0160208091040260200160405190810160405280929190818152602001828054611ec090612cc2565b8015611f0d5780601f10611ee257610100808354040283529160200191611f0d565b820191906000526020600020905b815481529060010190602001808311611ef057829003601f168201915b50505050508152505081526020019060010190611d3d565b5050505081525050838381518110611f4057611f3f612cf3565b5b60200260200101819052508180611f56906131e4565b92505083820315611f75575b8080611f6d90612e3f565b915050611afc565b508193505050505b92915050565b6040518060a0016040528060608152602001600081526020016060815260200160608152602001606081525090565b60405180606001604052806060815260200160608152602001606081525090565b600081519050919050565b600082825260208201905092915050565b6000819050602082019050919050565b600081519050919050565b600082825260208201905092915050565b60005b8381101561203957808201518184015260208101905061201e565b60008484015250505050565b6000601f19601f8301169050919050565b600061206182611fff565b61206b818561200a565b935061207b81856020860161201b565b61208481612045565b840191505092915050565b6000819050919050565b6120a28161208f565b82525050565b600081519050919050565b600082825260208201905092915050565b6000819050602082019050919050565b600060608301600083015184820360008601526120f18282612056565b9150506020830151848203602086015261210b8282612056565b915050604083015184820360408601526121258282612056565b9150508091505092915050565b600061213e83836120d4565b905092915050565b6000602082019050919050565b600061215e826120a8565b61216881856120b3565b93508360208202850161217a856120c4565b8060005b858110156121b657848403895281516121978582612132565b94506121a283612146565b925060208a0199505060018101905061217e565b50829750879550505050505092915050565b600060a08301600083015184820360008601526121e58282612056565b91505060208301516121fa6020860182612099565b50604083015184820360408601526122128282612056565b9150506060830151848203606086015261222c8282612056565b915050608083015184820360808601526122468282612153565b9150508091505092915050565b600061225f83836121c8565b905092915050565b6000602082019050919050565b600061227f82611fd3565b6122898185611fde565b93508360208202850161229b85611fef565b8060005b858110156122d757848403895281516122b88582612253565b94506122c383612267565b925060208a0199505060018101905061229f565b50829750879550505050505092915050565b600060208201905081810360008301526123038184612274565b905092915050565b6123148161208f565b82525050565b600060208201905061232f600083018461230b565b92915050565b600081519050919050565b600082825260208201905092915050565b6000819050602082019050919050565b600061236d8383612056565b905092915050565b6000602082019050919050565b600061238d82612335565b6123978185612340565b9350836020820285016123a985612351565b8060005b858110156123e557848403895281516123c68582612361565b94506123d183612375565b925060208a019950506001810190506123ad565b50829750879550505050505092915050565b600060208201905081810360008301526124118184612382565b905092915050565b6000604051905090565b600080fd5b600080fd5b600080fd5b600080fd5b7f4e487b7100000000000000000000000000000000000000000000000000000000600052604160045260246000fd5b61246f82612045565b810181811067ffffffffffffffff8211171561248e5761248d612437565b5b80604052505050565b60006124a1612419565b90506124ad8282612466565b919050565b600067ffffffffffffffff8211156124cd576124cc612437565b5b6124d682612045565b9050602081019050919050565b82818337600083830152505050565b6000612505612500846124b2565b612497565b90508281526020810184848401111561252157612520612432565b5b61252c8482856124e3565b509392505050565b600082601f8301126125495761254861242d565b5b81356125598482602086016124f2565b91505092915050565b6000806040838503121561257957612578612423565b5b600083013567ffffffffffffffff81111561259757612596612428565b5b6125a385828601612534565b925050602083013567ffffffffffffffff8111156125c4576125c3612428565b5b6125d085828601612534565b9150509250929050565b600082825260208201905092915050565b60006125f682611fff565b61260081856125da565b935061261081856020860161201b565b61261981612045565b840191505092915050565b6000602082019050818103600083015261263e81846125eb565b905092915050565b600067ffffffffffffffff82111561266157612660612437565b5b602082029050602081019050919050565b600080fd5b600061268a61268584612646565b612497565b905080838252602082019050602084028301858111156126ad576126ac612672565b5b835b818110156126f457803567ffffffffffffffff8111156126d2576126d161242d565b5b8086016126df8982612534565b855260208501945050506020810190506126af565b5050509392505050565b600082601f8301126127135761271261242d565b5b8135612723848260208601612677565b91505092915050565b60008060008060008060c0878903121561274957612748612423565b5b600087013567ffffffffffffffff81111561276757612766612428565b5b61277389828a01612534565b965050602087013567ffffffffffffffff81111561279457612793612428565b5b6127a089828a01612534565b955050604087013567ffffffffffffffff8111156127c1576127c0612428565b5b6127cd89828a01612534565b945050606087013567ffffffffffffffff8111156127ee576127ed612428565b5b6127fa89828a016126fe565b935050608087013567ffffffffffffffff81111561281b5761281a612428565b5b61282789828a016126fe565b92505060a087013567ffffffffffffffff81111561284857612847612428565b5b61285489828a016126fe565b9150509295509295509295565b60006020828403121561287757612876612423565b5b600082013567ffffffffffffffff81111561289557612894612428565b5b6128a184828501612534565b91505092915050565b60008115159050919050565b6128bf816128aa565b82525050565b60006020820190506128da60008301846128b6565b92915050565b6128e98161208f565b81146128f457600080fd5b50565b600081359050612906816128e0565b92915050565b60006020828403121561292257612921612423565b5b6000612930848285016128f7565b91505092915050565b6000608082019050818103600083015261295381876125eb565b9050612962602083018661230b565b818103604083015261297481856125eb565b9050818103606083015261298881846125eb565b905095945050505050565b6000806000606084860312156129ac576129ab612423565b5b600084013567ffffffffffffffff8111156129ca576129c9612428565b5b6129d686828701612534565b935050602084013567ffffffffffffffff8111156129f7576129f6612428565b5b612a0386828701612534565b9250506040612a14868287016128f7565b9150509250925092565b600081519050919050565b600082825260208201905092915050565b6000819050602082019050919050565b6000612a568383612099565b60208301905092915050565b6000602082019050919050565b6000612a7a82612a1e565b612a848185612a29565b9350612a8f83612a3a565b8060005b83811015612ac0578151612aa78882612a4a565b9750612ab283612a62565b925050600181019050612a93565b5085935050505092915050565b600082825260208201905092915050565b6000612ae9826120a8565b612af38185612acd565b935083602082028501612b05856120c4565b8060005b85811015612b415784840389528151612b228582612132565b9450612b2d83612146565b925060208a01995050600181019050612b09565b50829750879550505050505092915050565b60006040820190508181036000830152612b6d8185612a6f565b90508181036020830152612b818184612ade565b90509392505050565b600060a0830160008301518482036000860152612ba78282612056565b9150506020830151612bbc6020860182612099565b5060408301518482036040860152612bd48282612056565b91505060608301518482036060860152612bee8282612056565b91505060808301518482036080860152612c088282612153565b9150508091505092915050565b60006020820190508181036000830152612c2f8184612b8a565b905092915050565b60008060408385031215612c4e57612c4d612423565b5b600083013567ffffffffffffffff811115612c6c57612c6b612428565b5b612c7885828601612534565b9250506020612c89858286016128f7565b9150509250929050565b7f4e487b7100000000000000000000000000000000000000000000000000000000600052602260045260246000fd5b60006002820490506001821680612cda57607f821691505b602082108103612ced57612cec612c93565b5b50919050565b7f4e487b7100000000000000000000000000000000000000000000000000000000600052603260045260246000fd5b7f4e487b7100000000000000000000000000000000000000000000000000000000600052601160045260246000fd5b6000612d5c8261208f565b9150612d678361208f565b9250828203905081811115612d7f57612d7e612d22565b5b92915050565b600081905092915050565b60008190508160005260206000209050919050565b60008154612db281612cc2565b612dbc8186612d85565b94506001821660008114612dd75760018114612dec57612e1f565b60ff1983168652811515820286019350612e1f565b612df585612d90565b60005b83811015612e1757815481890152600182019150602081019050612df8565b838801955050505b50505092915050565b6000612e348284612da5565b915081905092915050565b6000612e4a8261208f565b915060008203612e5d57612e5c612d22565b5b600182039050919050565b7f53656e736f722064617461206e6f7420666f756e6420666f722074686520676960008201527f76656e2073746174696f6e20616e642073656e736f72204944732e0000000000602082015250565b6000612ec4603b836125da565b9150612ecf82612e68565b604082019050919050565b60006020820190508181036000830152612ef381612eb7565b9050919050565b7f4c656e677468206f6620617272617973206d75737420626520657175616c0000600082015250565b6000612f30601e836125da565b9150612f3b82612efa565b602082019050919050565b60006020820190508181036000830152612f5f81612f23565b9050919050565b60008190508160005260206000209050919050565b60006020601f8301049050919050565b600082821b905092915050565b600060088302612fc87fffffffffffffffffffffffffffffffffffffffffffffffffffffffffffffffff82612f8b565b612fd28683612f8b565b95508019841693508086168417925050509392505050565b6000819050919050565b600061300f61300a6130058461208f565b612fea565b61208f565b9050919050565b6000819050919050565b61302983612ff4565b61303d61303582613016565b848454612f98565b825550505050565b600090565b613052613045565b61305d818484613020565b505050565b5b818110156130815761307660008261304a565b600181019050613063565b5050565b601f8211156130c65761309781612f66565b6130a084612f7b565b810160208510156130af578190505b6130c36130bb85612f7b565b830182613062565b50505b505050565b600082821c905092915050565b60006130e9600019846008026130cb565b1980831691505092915050565b600061310283836130d8565b9150826002028217905092915050565b61311b82611fff565b67ffffffffffffffff81111561313457613133612437565b5b61313e8254612cc2565b613149828285613085565b600060209050601f83116001811461317c576000841561316a578287015190505b61317485826130f6565b8655506131dc565b601f19841661318a86612f66565b60005b828110156131b25784890151825560018201915060208501945060208101905061318d565b868310156131cf57848901516131cb601f8916826130d8565b8355505b6001600288020188555050505b505050505050565b60006131ef8261208f565b91507fffffffffffffffffffffffffffffffffffffffffffffffffffffffffffffffff820361322157613220612d22565b5b600182019050919050565b600060c082019050818103600083015261324681896125eb565b9050818103602083015261325a81886125eb565b9050818103604083015261326e81876125eb565b905081810360608301526132828186612382565b905081810360808301526132968185612382565b905081810360a08301526132aa8184612382565b9050979650505050505050565b7f53746174696f6e2064617461206e6f7420666f756e6420666f7220746865206760008201527f6976656e2073746174696f6e2049442e00000000000000000000000000000000602082015250565b60006133136030836125da565b915061331e826132b7565b604082019050919050565b6000602082019050818103600083015261334281613306565b905091905056fea264697066735822122073b04d9ae8d966a76cc18e1de43a70a4ead8ecdb04f7a61ecfcc18980e7f556464736f6c63430008180033",
  "linkReferences": {},
  "deployedLinkReferences": {}
}