{
  "_format": "hh-sol-artifact-1",
  "contractName": "Transactions",
  "sourceName": "contracts/Transaction.sol",
  "abi": [
    {
      "anonymous": false,
      "inputs": [
        {
          "indexed": false,
          "internalType": "address",
          "name": "fromAddress",
          "type": "address"
        },
        {
          "indexed": false,
          "internalType": "address",
          "name": "toAddress",
          "type": "address"
        },
        {
          "indexed": false,
          "internalType": "uint32",
          "name": "productId",
          "type": "uint32"
        },
        {
          "indexed": false,
          "internalType": "uint256",
          "name": "date",
          "type": "uint256"
        },
        {
          "indexed": false,
          "internalType": "uint32",
          "name": "token",
          "type": "uint32"
        }
      ],
      "name": "Transfer",
      "type": "event"
    },
    {
      "inputs": [
        {
          "internalType": "address payable",
          "name": "fromAddress",
          "type": "address"
        },
        {
          "internalType": "address payable",
          "name": "toAddress",
          "type": "address"
        },
        {
          "internalType": "uint32",
          "name": "productId",
          "type": "uint32"
        },
        {
          "internalType": "uint32",
          "name": "token",
          "type": "uint32"
        }
      ],
      "name": "addToBlockChain",
      "outputs": [],
      "stateMutability": "nonpayable",
      "type": "function"
    },
    {
      "inputs": [],
      "name": "getAllTransactions",
      "outputs": [
        {
          "components": [
            {
              "internalType": "address",
              "name": "fromAddress",
              "type": "address"
            },
            {
              "internalType": "address",
              "name": "toAddress",
              "type": "address"
            },
            {
              "internalType": "uint32",
              "name": "productId",
              "type": "uint32"
            },
            {
              "internalType": "uint256",
              "name": "date",
              "type": "uint256"
            },
            {
              "internalType": "uint32",
              "name": "token",
              "type": "uint32"
            }
          ],
          "internalType": "struct Transactions.TransferStruct[]",
          "name": "",
          "type": "tuple[]"
        }
      ],
      "stateMutability": "view",
      "type": "function"
    },
    {
      "inputs": [],
      "name": "getNumberOfTransactions",
      "outputs": [
        {
          "internalType": "uint32",
          "name": "",
          "type": "uint32"
        }
      ],
      "stateMutability": "view",
      "type": "function"
    },
    {
      "inputs": [
        {
          "internalType": "address",
          "name": "user",
          "type": "address"
        }
      ],
      "name": "getTransactionOfUser",
      "outputs": [
        {
          "components": [
            {
              "internalType": "address",
              "name": "fromAddress",
              "type": "address"
            },
            {
              "internalType": "address",
              "name": "toAddress",
              "type": "address"
            },
            {
              "internalType": "uint32",
              "name": "productId",
              "type": "uint32"
            },
            {
              "internalType": "uint256",
              "name": "date",
              "type": "uint256"
            },
            {
              "internalType": "uint32",
              "name": "token",
              "type": "uint32"
            }
          ],
          "internalType": "struct Transactions.TransferStruct[]",
          "name": "",
          "type": "tuple[]"
        }
      ],
      "stateMutability": "view",
      "type": "function"
    },
    {
      "inputs": [
        {
          "internalType": "uint32",
          "name": "",
          "type": "uint32"
        }
      ],
      "name": "transactions",
      "outputs": [
        {
          "internalType": "address",
          "name": "fromAddress",
          "type": "address"
        },
        {
          "internalType": "address",
          "name": "toAddress",
          "type": "address"
        },
        {
          "internalType": "uint32",
          "name": "productId",
          "type": "uint32"
        },
        {
          "internalType": "uint256",
          "name": "date",
          "type": "uint256"
        },
        {
          "internalType": "uint32",
          "name": "token",
          "type": "uint32"
        }
      ],
      "stateMutability": "view",
      "type": "function"
    }
  ],
  "bytecode": "0x608060405234801561001057600080fd5b50610f93806100206000396000f3fe608060405234801561001057600080fd5b50600436106100575760003560e01c8063013bd2ba1461005c57806324ba506d1461008c57806327506f53146100aa5780638652d085146100c8578063bd005975146100e4575b600080fd5b61007660048036038101906100719190610aac565b610118565b6040516100839190610c37565b60405180910390f35b610094610539565b6040516100a19190610c68565b60405180910390f35b6100b2610552565b6040516100bf9190610c37565b60405180910390f35b6100e260048036038101906100dd9190610ced565b61074f565b005b6100fe60048036038101906100f99190610d54565b61094c565b60405161010f959493929190610d9f565b60405180910390f35b60606000805b60008054906101000a900463ffffffff1663ffffffff168163ffffffff16101561024c578373ffffffffffffffffffffffffffffffffffffffff16600160008363ffffffff1663ffffffff16815260200190815260200160002060000160009054906101000a900473ffffffffffffffffffffffffffffffffffffffff1673ffffffffffffffffffffffffffffffffffffffff16148061022b57508373ffffffffffffffffffffffffffffffffffffffff16600160008363ffffffff1663ffffffff16815260200190815260200160002060010160009054906101000a900473ffffffffffffffffffffffffffffffffffffffff1673ffffffffffffffffffffffffffffffffffffffff16145b1561023f57818061023b90610e21565b9250505b808060010191505061011e565b5060008163ffffffff1667ffffffffffffffff81111561026f5761026e610e4d565b5b6040519080825280602002602001820160405280156102a857816020015b6102956109e2565b81526020019060019003908161028d5790505b5090506000805b60008054906101000a900463ffffffff1663ffffffff168163ffffffff16101561052d578573ffffffffffffffffffffffffffffffffffffffff16600160008363ffffffff1663ffffffff16815260200190815260200160002060000160009054906101000a900473ffffffffffffffffffffffffffffffffffffffff1673ffffffffffffffffffffffffffffffffffffffff1614806103bc57508573ffffffffffffffffffffffffffffffffffffffff16600160008363ffffffff1663ffffffff16815260200190815260200160002060010160009054906101000a900473ffffffffffffffffffffffffffffffffffffffff1673ffffffffffffffffffffffffffffffffffffffff16145b1561052057600160008263ffffffff1663ffffffff1681526020019081526020016000206040518060a00160405290816000820160009054906101000a900473ffffffffffffffffffffffffffffffffffffffff1673ffffffffffffffffffffffffffffffffffffffff1673ffffffffffffffffffffffffffffffffffffffff1681526020016001820160009054906101000a900473ffffffffffffffffffffffffffffffffffffffff1673ffffffffffffffffffffffffffffffffffffffff1673ffffffffffffffffffffffffffffffffffffffff1681526020016001820160149054906101000a900463ffffffff1663ffffffff1663ffffffff168152602001600282015481526020016003820160009054906101000a900463ffffffff1663ffffffff1663ffffffff1681525050838363ffffffff168151811061050657610505610e7c565b5b6020026020010181905250818061051c90610e21565b9250505b80806001019150506102af565b50819350505050919050565b60008060009054906101000a900463ffffffff16905090565b606060008060009054906101000a900463ffffffff1663ffffffff1667ffffffffffffffff81111561058757610586610e4d565b5b6040519080825280602002602001820160405280156105c057816020015b6105ad6109e2565b8152602001906001900390816105a55790505b50905060005b60008054906101000a900463ffffffff1663ffffffff168163ffffffff16101561074757600160008263ffffffff1663ffffffff1681526020019081526020016000206040518060a00160405290816000820160009054906101000a900473ffffffffffffffffffffffffffffffffffffffff1673ffffffffffffffffffffffffffffffffffffffff1673ffffffffffffffffffffffffffffffffffffffff1681526020016001820160009054906101000a900473ffffffffffffffffffffffffffffffffffffffff1673ffffffffffffffffffffffffffffffffffffffff1673ffffffffffffffffffffffffffffffffffffffff1681526020016001820160149054906101000a900463ffffffff1663ffffffff1663ffffffff168152602001600282015481526020016003820160009054906101000a900463ffffffff1663ffffffff1663ffffffff1681525050828263ffffffff168151811061072f5761072e610e7c565b5b602002602001018190525080806001019150506105c6565b508091505090565b6040518060a001604052808573ffffffffffffffffffffffffffffffffffffffff1681526020018473ffffffffffffffffffffffffffffffffffffffff1681526020018363ffffffff1681526020014281526020018263ffffffff16815250600160008060009054906101000a900463ffffffff1663ffffffff1663ffffffff16815260200190815260200160002060008201518160000160006101000a81548173ffffffffffffffffffffffffffffffffffffffff021916908373ffffffffffffffffffffffffffffffffffffffff16021790555060208201518160010160006101000a81548173ffffffffffffffffffffffffffffffffffffffff021916908373ffffffffffffffffffffffffffffffffffffffff16021790555060408201518160010160146101000a81548163ffffffff021916908363ffffffff1602179055506060820151816002015560808201518160030160006101000a81548163ffffffff021916908363ffffffff16021790555090505060008081819054906101000a900463ffffffff16809291906108e890610e21565b91906101000a81548163ffffffff021916908363ffffffff160217905550507f0bc15ee85445904869e24981b9782bddf7398584d6b7997228fdd8793193dbbe848484428560405161093e959493929190610f0a565b60405180910390a150505050565b60016020528060005260406000206000915090508060000160009054906101000a900473ffffffffffffffffffffffffffffffffffffffff16908060010160009054906101000a900473ffffffffffffffffffffffffffffffffffffffff16908060010160149054906101000a900463ffffffff16908060020154908060030160009054906101000a900463ffffffff16905085565b6040518060a00160405280600073ffffffffffffffffffffffffffffffffffffffff168152602001600073ffffffffffffffffffffffffffffffffffffffff168152602001600063ffffffff16815260200160008152602001600063ffffffff1681525090565b600080fd5b600073ffffffffffffffffffffffffffffffffffffffff82169050919050565b6000610a7982610a4e565b9050919050565b610a8981610a6e565b8114610a9457600080fd5b50565b600081359050610aa681610a80565b92915050565b600060208284031215610ac257610ac1610a49565b5b6000610ad084828501610a97565b91505092915050565b600081519050919050565b600082825260208201905092915050565b6000819050602082019050919050565b610b0e81610a6e565b82525050565b600063ffffffff82169050919050565b610b2d81610b14565b82525050565b6000819050919050565b610b4681610b33565b82525050565b60a082016000820151610b626000850182610b05565b506020820151610b756020850182610b05565b506040820151610b886040850182610b24565b506060820151610b9b6060850182610b3d565b506080820151610bae6080850182610b24565b50505050565b6000610bc08383610b4c565b60a08301905092915050565b6000602082019050919050565b6000610be482610ad9565b610bee8185610ae4565b9350610bf983610af5565b8060005b83811015610c2a578151610c118882610bb4565b9750610c1c83610bcc565b925050600181019050610bfd565b5085935050505092915050565b60006020820190508181036000830152610c518184610bd9565b905092915050565b610c6281610b14565b82525050565b6000602082019050610c7d6000830184610c59565b92915050565b6000610c8e82610a4e565b9050919050565b610c9e81610c83565b8114610ca957600080fd5b50565b600081359050610cbb81610c95565b92915050565b610cca81610b14565b8114610cd557600080fd5b50565b600081359050610ce781610cc1565b92915050565b60008060008060808587031215610d0757610d06610a49565b5b6000610d1587828801610cac565b9450506020610d2687828801610cac565b9350506040610d3787828801610cd8565b9250506060610d4887828801610cd8565b91505092959194509250565b600060208284031215610d6a57610d69610a49565b5b6000610d7884828501610cd8565b91505092915050565b610d8a81610a6e565b82525050565b610d9981610b33565b82525050565b600060a082019050610db46000830188610d81565b610dc16020830187610d81565b610dce6040830186610c59565b610ddb6060830185610d90565b610de86080830184610c59565b9695505050505050565b7f4e487b7100000000000000000000000000000000000000000000000000000000600052601160045260246000fd5b6000610e2c82610b14565b915063ffffffff8203610e4257610e41610df2565b5b600182019050919050565b7f4e487b7100000000000000000000000000000000000000000000000000000000600052604160045260246000fd5b7f4e487b7100000000000000000000000000000000000000000000000000000000600052603260045260246000fd5b6000819050919050565b6000610ed0610ecb610ec684610a4e565b610eab565b610a4e565b9050919050565b6000610ee282610eb5565b9050919050565b6000610ef482610ed7565b9050919050565b610f0481610ee9565b82525050565b600060a082019050610f1f6000830188610efb565b610f2c6020830187610efb565b610f396040830186610c59565b610f466060830185610d90565b610f536080830184610c59565b969550505050505056fea26469706673582212201d3832cdc20f08673fe462fb9e4d9cb1e3adc08a0d0409272a2de46457e7d84764736f6c63430008180033",
  "linkReferences": {},
  "deployedLinkReferences": {}
}